{
	"smart-contract/BetCandidate.sol": {
		"BetCandidate": {
			"abi": [
				{
					"inputs": [],
					"stateMutability": "nonpayable",
					"type": "constructor"
				},
				{
					"inputs": [
						{
							"internalType": "address",
							"name": "",
							"type": "address"
						}
					],
					"name": "allBets",
					"outputs": [
						{
							"internalType": "uint256",
							"name": "amount",
							"type": "uint256"
						},
						{
							"internalType": "uint256",
							"name": "candidate",
							"type": "uint256"
						},
						{
							"internalType": "uint256",
							"name": "timestamp",
							"type": "uint256"
						},
						{
							"internalType": "uint256",
							"name": "claimed",
							"type": "uint256"
						}
					],
					"stateMutability": "view",
					"type": "function"
				},
				{
					"inputs": [
						{
							"internalType": "uint256",
							"name": "candidate",
							"type": "uint256"
						}
					],
					"name": "bet",
					"outputs": [],
					"stateMutability": "payable",
					"type": "function"
				},
				{
					"inputs": [],
					"name": "betEndTime",
					"outputs": [
						{
							"internalType": "uint256",
							"name": "",
							"type": "uint256"
						}
					],
					"stateMutability": "view",
					"type": "function"
				},
				{
					"inputs": [],
					"name": "claim",
					"outputs": [],
					"stateMutability": "nonpayable",
					"type": "function"
				},
				{
					"inputs": [],
					"name": "commissionWithdrawn",
					"outputs": [
						{
							"internalType": "bool",
							"name": "",
							"type": "bool"
						}
					],
					"stateMutability": "view",
					"type": "function"
				},
				{
					"inputs": [],
					"name": "dispute",
					"outputs": [
						{
							"internalType": "string",
							"name": "candidate1",
							"type": "string"
						},
						{
							"internalType": "string",
							"name": "candidate2",
							"type": "string"
						},
						{
							"internalType": "string",
							"name": "candidate3",
							"type": "string"
						},
						{
							"internalType": "string",
							"name": "image1",
							"type": "string"
						},
						{
							"internalType": "string",
							"name": "image2",
							"type": "string"
						},
						{
							"internalType": "string",
							"name": "image3",
							"type": "string"
						},
						{
							"internalType": "uint256",
							"name": "total1",
							"type": "uint256"
						},
						{
							"internalType": "uint256",
							"name": "total2",
							"type": "uint256"
						},
						{
							"internalType": "uint256",
							"name": "total3",
							"type": "uint256"
						},
						{
							"internalType": "uint256",
							"name": "winner",
							"type": "uint256"
						}
					],
					"stateMutability": "view",
					"type": "function"
				},
				{
					"inputs": [],
					"name": "fee",
					"outputs": [
						{
							"internalType": "uint256",
							"name": "",
							"type": "uint256"
						}
					],
					"stateMutability": "view",
					"type": "function"
				},
				{
					"inputs": [
						{
							"internalType": "uint256",
							"name": "winner",
							"type": "uint256"
						}
					],
					"name": "finish",
					"outputs": [],
					"stateMutability": "nonpayable",
					"type": "function"
				},
				{
					"inputs": [],
					"name": "finishEndTime",
					"outputs": [
						{
							"internalType": "uint256",
							"name": "",
							"type": "uint256"
						}
					],
					"stateMutability": "view",
					"type": "function"
				},
				{
					"inputs": [],
					"name": "netPrize",
					"outputs": [
						{
							"internalType": "uint256",
							"name": "",
							"type": "uint256"
						}
					],
					"stateMutability": "view",
					"type": "function"
				},
				{
					"inputs": [],
					"name": "owner",
					"outputs": [
						{
							"internalType": "address",
							"name": "",
							"type": "address"
						}
					],
					"stateMutability": "view",
					"type": "function"
				},
				{
					"inputs": [
						{
							"internalType": "uint256",
							"name": "_betEndTime",
							"type": "uint256"
						}
					],
					"name": "setBetEndTime",
					"outputs": [],
					"stateMutability": "nonpayable",
					"type": "function"
				},
				{
					"inputs": [
						{
							"internalType": "string",
							"name": "_image1",
							"type": "string"
						},
						{
							"internalType": "string",
							"name": "_image2",
							"type": "string"
						},
						{
							"internalType": "string",
							"name": "_image3",
							"type": "string"
						}
					],
					"name": "setCandidateImages",
					"outputs": [],
					"stateMutability": "nonpayable",
					"type": "function"
				},
				{
					"inputs": [
						{
							"internalType": "string",
							"name": "_candidate1",
							"type": "string"
						},
						{
							"internalType": "string",
							"name": "_candidate2",
							"type": "string"
						},
						{
							"internalType": "string",
							"name": "_candidate3",
							"type": "string"
						}
					],
					"name": "setCandidateNames",
					"outputs": [],
					"stateMutability": "nonpayable",
					"type": "function"
				},
				{
					"inputs": [
						{
							"internalType": "uint256",
							"name": "_finishEndTime",
							"type": "uint256"
						}
					],
					"name": "setFinishEndTime",
					"outputs": [],
					"stateMutability": "nonpayable",
					"type": "function"
				},
				{
					"inputs": [],
					"name": "totalBettors1",
					"outputs": [
						{
							"internalType": "uint256",
							"name": "",
							"type": "uint256"
						}
					],
					"stateMutability": "view",
					"type": "function"
				},
				{
					"inputs": [],
					"name": "totalBettors2",
					"outputs": [
						{
							"internalType": "uint256",
							"name": "",
							"type": "uint256"
						}
					],
					"stateMutability": "view",
					"type": "function"
				},
				{
					"inputs": [],
					"name": "totalBettors3",
					"outputs": [
						{
							"internalType": "uint256",
							"name": "",
							"type": "uint256"
						}
					],
					"stateMutability": "view",
					"type": "function"
				},
				{
					"inputs": [],
					"name": "withdrawCommission",
					"outputs": [],
					"stateMutability": "nonpayable",
					"type": "function"
				}
			],
			"devdoc": {
				"kind": "dev",
				"methods": {},
				"version": 1
			},
			"evm": {
				"assembly": "    /* \"smart-contract/BetCandidate.sol\":386:5378  contract BetCandidate {... */\n  mstore(0x40, 0xa0)\n    /* \"smart-contract/BetCandidate.sol\":548:552  1000 */\n  0x03e8\n    /* \"smart-contract/BetCandidate.sol\":530:552  uint public fee = 1000 */\n  0x0b\n  sstore\n    /* \"smart-contract/BetCandidate.sol\":769:1312  constructor(){... */\n  callvalue\n  dup1\n  iszero\n  tag_1\n  jumpi\n  0x00\n  dup1\n  revert\ntag_1:\n  pop\n    /* \"smart-contract/BetCandidate.sol\":801:811  msg.sender */\n  caller\n    /* \"smart-contract/BetCandidate.sol\":793:811  owner = msg.sender */\n  0xffffffffffffffffffffffffffffffffffffffff\n  and\n  0x80\n  dup2\n  0xffffffffffffffffffffffffffffffffffffffff\n  and\n  dup2\n  mstore\n  pop\n  pop\n    /* \"smart-contract/BetCandidate.sol\":832:1202  Dispute({... */\n  mload(0x40)\n  dup1\n  0x0140\n  add\n  0x40\n  mstore\n  dup1\n  mload(0x40)\n  dup1\n  0x40\n  add\n  0x40\n  mstore\n  dup1\n  0x09\n  dup2\n  mstore\n  0x20\n  add\n  0x502e204d617263616c0000000000000000000000000000000000000000000000\n  dup2\n  mstore\n  pop\n  dup2\n  mstore\n  0x20\n  add\n  mload(0x40)\n  dup1\n  0x40\n  add\n  0x40\n  mstore\n  dup1\n  0x09\n  dup2\n  mstore\n  0x20\n  add\n  0x472e20426f756c6f730000000000000000000000000000000000000000000000\n  dup2\n  mstore\n  pop\n  dup2\n  mstore\n  0x20\n  add\n  mload(0x40)\n  dup1\n  0x40\n  add\n  0x40\n  mstore\n  dup1\n  0x08\n  dup2\n  mstore\n  0x20\n  add\n  0x522e204e756e6573000000000000000000000000000000000000000000000000\n  dup2\n  mstore\n  pop\n  dup2\n  mstore\n  0x20\n  add\n  mload(0x40)\n  dup1\n  0x40\n  add\n  0x40\n  mstore\n  dup1\n  0x16\n  dup2\n  mstore\n  0x20\n  add\n  0x68747470733a2f2f6269742e6c792f3465507973617900000000000000000000\n  dup2\n  mstore\n  pop\n  dup2\n  mstore\n  0x20\n  add\n  mload(0x40)\n  dup1\n  0x40\n  add\n  0x40\n  mstore\n  dup1\n  0x16\n  dup2\n  mstore\n  0x20\n  add\n  0x68747470733a2f2f6269742e6c792f3437574778727100000000000000000000\n  dup2\n  mstore\n  pop\n  dup2\n  mstore\n  0x20\n  add\n  mload(0x40)\n  dup1\n  0x40\n  add\n  0x40\n  mstore\n  dup1\n  0x16\n  dup2\n  mstore\n  0x20\n  add\n  0x68747470733a2f2f6269742e6c792f343757474a613800000000000000000000\n  dup2\n  mstore\n  pop\n  dup2\n  mstore\n  0x20\n  add\n    /* \"smart-contract/BetCandidate.sol\":1117:1118  0 */\n  0x00\n    /* \"smart-contract/BetCandidate.sol\":832:1202  Dispute({... */\n  dup2\n  mstore\n  0x20\n  add\n    /* \"smart-contract/BetCandidate.sol\":1141:1142  0 */\n  0x00\n    /* \"smart-contract/BetCandidate.sol\":832:1202  Dispute({... */\n  dup2\n  mstore\n  0x20\n  add\n    /* \"smart-contract/BetCandidate.sol\":1165:1166  0 */\n  0x00\n    /* \"smart-contract/BetCandidate.sol\":832:1202  Dispute({... */\n  dup2\n  mstore\n  0x20\n  add\n    /* \"smart-contract/BetCandidate.sol\":1189:1190  0 */\n  0x00\n    /* \"smart-contract/BetCandidate.sol\":832:1202  Dispute({... */\n  dup2\n  mstore\n  pop\n    /* \"smart-contract/BetCandidate.sol\":822:829  dispute */\n  0x00\n    /* \"smart-contract/BetCandidate.sol\":822:1202  dispute = Dispute({... */\n  dup1\n  dup3\n  add\n  mload\n  dup2\n  0x00\n  add\n  swap1\n  dup2\n  tag_4\n  swap2\n  swap1\n  tag_5\n  jump\t// in\ntag_4:\n  pop\n  0x20\n  dup3\n  add\n  mload\n  dup2\n  0x01\n  add\n  swap1\n  dup2\n  tag_6\n  swap2\n  swap1\n  tag_5\n  jump\t// in\ntag_6:\n  pop\n  0x40\n  dup3\n  add\n  mload\n  dup2\n  0x02\n  add\n  swap1\n  dup2\n  tag_7\n  swap2\n  swap1\n  tag_5\n  jump\t// in\ntag_7:\n  pop\n  0x60\n  dup3\n  add\n  mload\n  dup2\n  0x03\n  add\n  swap1\n  dup2\n  tag_8\n  swap2\n  swap1\n  tag_5\n  jump\t// in\ntag_8:\n  pop\n  0x80\n  dup3\n  add\n  mload\n  dup2\n  0x04\n  add\n  swap1\n  dup2\n  tag_9\n  swap2\n  swap1\n  tag_5\n  jump\t// in\ntag_9:\n  pop\n  0xa0\n  dup3\n  add\n  mload\n  dup2\n  0x05\n  add\n  swap1\n  dup2\n  tag_10\n  swap2\n  swap1\n  tag_5\n  jump\t// in\ntag_10:\n  pop\n  0xc0\n  dup3\n  add\n  mload\n  dup2\n  0x06\n  add\n  sstore\n  0xe0\n  dup3\n  add\n  mload\n  dup2\n  0x07\n  add\n  sstore\n  0x0100\n  dup3\n  add\n  mload\n  dup2\n  0x08\n  add\n  sstore\n  0x0120\n  dup3\n  add\n  mload\n  dup2\n  0x09\n  add\n  sstore\n  swap1\n  pop\n  pop\n    /* \"smart-contract/BetCandidate.sol\":1244:1253  1 minutes */\n  0x3c\n    /* \"smart-contract/BetCandidate.sol\":1226:1241  block.timestamp */\n  timestamp\n    /* \"smart-contract/BetCandidate.sol\":1226:1253  block.timestamp + 1 minutes */\n  tag_11\n  swap2\n  swap1\n  tag_12\n  jump\t// in\ntag_11:\n    /* \"smart-contract/BetCandidate.sol\":1213:1223  betEndTime */\n  0x0d\n    /* \"smart-contract/BetCandidate.sol\":1213:1253  betEndTime = block.timestamp + 1 minutes */\n  dup2\n  swap1\n  sstore\n  pop\n    /* \"smart-contract/BetCandidate.sol\":1294:1303  1 minutes */\n  0x3c\n    /* \"smart-contract/BetCandidate.sol\":1281:1291  betEndTime */\n  sload(0x0d)\n    /* \"smart-contract/BetCandidate.sol\":1281:1303  betEndTime + 1 minutes */\n  tag_13\n  swap2\n  swap1\n  tag_12\n  jump\t// in\ntag_13:\n    /* \"smart-contract/BetCandidate.sol\":1265:1278  finishEndTime */\n  0x0e\n    /* \"smart-contract/BetCandidate.sol\":1265:1303  finishEndTime = betEndTime + 1 minutes */\n  dup2\n  swap1\n  sstore\n  pop\n    /* \"smart-contract/BetCandidate.sol\":386:5378  contract BetCandidate {... */\n  jump(tag_14)\n    /* \"#utility.yul\":7:106   */\ntag_15:\n    /* \"#utility.yul\":59:65   */\n  0x00\n    /* \"#utility.yul\":93:98   */\n  dup2\n    /* \"#utility.yul\":87:99   */\n  mload\n    /* \"#utility.yul\":77:99   */\n  swap1\n  pop\n    /* \"#utility.yul\":7:106   */\n  swap2\n  swap1\n  pop\n  jump\t// out\n    /* \"#utility.yul\":112:292   */\ntag_16:\n    /* \"#utility.yul\":160:237   */\n  0x4e487b7100000000000000000000000000000000000000000000000000000000\n    /* \"#utility.yul\":157:158   */\n  0x00\n    /* \"#utility.yul\":150:238   */\n  mstore\n    /* \"#utility.yul\":257:261   */\n  0x41\n    /* \"#utility.yul\":254:255   */\n  0x04\n    /* \"#utility.yul\":247:262   */\n  mstore\n    /* \"#utility.yul\":281:285   */\n  0x24\n    /* \"#utility.yul\":278:279   */\n  0x00\n    /* \"#utility.yul\":271:286   */\n  revert\n    /* \"#utility.yul\":298:478   */\ntag_17:\n    /* \"#utility.yul\":346:423   */\n  0x4e487b7100000000000000000000000000000000000000000000000000000000\n    /* \"#utility.yul\":343:344   */\n  0x00\n    /* \"#utility.yul\":336:424   */\n  mstore\n    /* \"#utility.yul\":443:447   */\n  0x22\n    /* \"#utility.yul\":440:441   */\n  0x04\n    /* \"#utility.yul\":433:448   */\n  mstore\n    /* \"#utility.yul\":467:471   */\n  0x24\n    /* \"#utility.yul\":464:465   */\n  0x00\n    /* \"#utility.yul\":457:472   */\n  revert\n    /* \"#utility.yul\":484:804   */\ntag_18:\n    /* \"#utility.yul\":528:534   */\n  0x00\n    /* \"#utility.yul\":565:566   */\n  0x02\n    /* \"#utility.yul\":559:563   */\n  dup3\n    /* \"#utility.yul\":555:567   */\n  div\n    /* \"#utility.yul\":545:567   */\n  swap1\n  pop\n    /* \"#utility.yul\":612:613   */\n  0x01\n    /* \"#utility.yul\":606:610   */\n  dup3\n    /* \"#utility.yul\":602:614   */\n  and\n    /* \"#utility.yul\":633:651   */\n  dup1\n    /* \"#utility.yul\":623:704   */\n  tag_41\n  jumpi\n    /* \"#utility.yul\":689:693   */\n  0x7f\n    /* \"#utility.yul\":681:687   */\n  dup3\n    /* \"#utility.yul\":677:694   */\n  and\n    /* \"#utility.yul\":667:694   */\n  swap2\n  pop\n    /* \"#utility.yul\":623:704   */\ntag_41:\n    /* \"#utility.yul\":751:753   */\n  0x20\n    /* \"#utility.yul\":743:749   */\n  dup3\n    /* \"#utility.yul\":740:754   */\n  lt\n    /* \"#utility.yul\":720:738   */\n  dup2\n    /* \"#utility.yul\":717:755   */\n  sub\n    /* \"#utility.yul\":714:798   */\n  tag_42\n  jumpi\n    /* \"#utility.yul\":770:788   */\n  tag_43\n  tag_17\n  jump\t// in\ntag_43:\n    /* \"#utility.yul\":714:798   */\ntag_42:\n    /* \"#utility.yul\":535:804   */\n  pop\n    /* \"#utility.yul\":484:804   */\n  swap2\n  swap1\n  pop\n  jump\t// out\n    /* \"#utility.yul\":810:951   */\ntag_19:\n    /* \"#utility.yul\":859:863   */\n  0x00\n    /* \"#utility.yul\":882:885   */\n  dup2\n    /* \"#utility.yul\":874:885   */\n  swap1\n  pop\n    /* \"#utility.yul\":905:908   */\n  dup2\n    /* \"#utility.yul\":902:903   */\n  0x00\n    /* \"#utility.yul\":895:909   */\n  mstore\n    /* \"#utility.yul\":939:943   */\n  0x20\n    /* \"#utility.yul\":936:937   */\n  0x00\n    /* \"#utility.yul\":926:944   */\n  keccak256\n    /* \"#utility.yul\":918:944   */\n  swap1\n  pop\n    /* \"#utility.yul\":810:951   */\n  swap2\n  swap1\n  pop\n  jump\t// out\n    /* \"#utility.yul\":957:1050   */\ntag_20:\n    /* \"#utility.yul\":994:1000   */\n  0x00\n    /* \"#utility.yul\":1041:1043   */\n  0x20\n    /* \"#utility.yul\":1036:1038   */\n  0x1f\n    /* \"#utility.yul\":1029:1034   */\n  dup4\n    /* \"#utility.yul\":1025:1039   */\n  add\n    /* \"#utility.yul\":1021:1044   */\n  div\n    /* \"#utility.yul\":1011:1044   */\n  swap1\n  pop\n    /* \"#utility.yul\":957:1050   */\n  swap2\n  swap1\n  pop\n  jump\t// out\n    /* \"#utility.yul\":1056:1163   */\ntag_21:\n    /* \"#utility.yul\":1100:1108   */\n  0x00\n    /* \"#utility.yul\":1150:1155   */\n  dup3\n    /* \"#utility.yul\":1144:1148   */\n  dup3\n    /* \"#utility.yul\":1140:1156   */\n  shl\n    /* \"#utility.yul\":1119:1156   */\n  swap1\n  pop\n    /* \"#utility.yul\":1056:1163   */\n  swap3\n  swap2\n  pop\n  pop\n  jump\t// out\n    /* \"#utility.yul\":1169:1562   */\ntag_22:\n    /* \"#utility.yul\":1238:1244   */\n  0x00\n    /* \"#utility.yul\":1288:1289   */\n  0x08\n    /* \"#utility.yul\":1276:1286   */\n  dup4\n    /* \"#utility.yul\":1272:1290   */\n  mul\n    /* \"#utility.yul\":1311:1408   */\n  tag_48\n    /* \"#utility.yul\":1341:1407   */\n  0xffffffffffffffffffffffffffffffffffffffffffffffffffffffffffffffff\n    /* \"#utility.yul\":1330:1339   */\n  dup3\n    /* \"#utility.yul\":1311:1408   */\n  tag_21\n  jump\t// in\ntag_48:\n    /* \"#utility.yul\":1429:1468   */\n  tag_49\n    /* \"#utility.yul\":1459:1467   */\n  dup7\n    /* \"#utility.yul\":1448:1457   */\n  dup4\n    /* \"#utility.yul\":1429:1468   */\n  tag_21\n  jump\t// in\ntag_49:\n    /* \"#utility.yul\":1417:1468   */\n  swap6\n  pop\n    /* \"#utility.yul\":1501:1505   */\n  dup1\n    /* \"#utility.yul\":1497:1506   */\n  not\n    /* \"#utility.yul\":1490:1495   */\n  dup5\n    /* \"#utility.yul\":1486:1507   */\n  and\n    /* \"#utility.yul\":1477:1507   */\n  swap4\n  pop\n    /* \"#utility.yul\":1550:1554   */\n  dup1\n    /* \"#utility.yul\":1540:1548   */\n  dup7\n    /* \"#utility.yul\":1536:1555   */\n  and\n    /* \"#utility.yul\":1529:1534   */\n  dup5\n    /* \"#utility.yul\":1526:1556   */\n  or\n    /* \"#utility.yul\":1516:1556   */\n  swap3\n  pop\n    /* \"#utility.yul\":1245:1562   */\n  pop\n  pop\n    /* \"#utility.yul\":1169:1562   */\n  swap4\n  swap3\n  pop\n  pop\n  pop\n  jump\t// out\n    /* \"#utility.yul\":1568:1645   */\ntag_23:\n    /* \"#utility.yul\":1605:1612   */\n  0x00\n    /* \"#utility.yul\":1634:1639   */\n  dup2\n    /* \"#utility.yul\":1623:1639   */\n  swap1\n  pop\n    /* \"#utility.yul\":1568:1645   */\n  swap2\n  swap1\n  pop\n  jump\t// out\n    /* \"#utility.yul\":1651:1711   */\ntag_24:\n    /* \"#utility.yul\":1679:1682   */\n  0x00\n    /* \"#utility.yul\":1700:1705   */\n  dup2\n    /* \"#utility.yul\":1693:1705   */\n  swap1\n  pop\n    /* \"#utility.yul\":1651:1711   */\n  swap2\n  swap1\n  pop\n  jump\t// out\n    /* \"#utility.yul\":1717:1859   */\ntag_25:\n    /* \"#utility.yul\":1767:1776   */\n  0x00\n    /* \"#utility.yul\":1800:1853   */\n  tag_53\n    /* \"#utility.yul\":1818:1852   */\n  tag_54\n    /* \"#utility.yul\":1827:1851   */\n  tag_55\n    /* \"#utility.yul\":1845:1850   */\n  dup5\n    /* \"#utility.yul\":1827:1851   */\n  tag_23\n  jump\t// in\ntag_55:\n    /* \"#utility.yul\":1818:1852   */\n  tag_24\n  jump\t// in\ntag_54:\n    /* \"#utility.yul\":1800:1853   */\n  tag_23\n  jump\t// in\ntag_53:\n    /* \"#utility.yul\":1787:1853   */\n  swap1\n  pop\n    /* \"#utility.yul\":1717:1859   */\n  swap2\n  swap1\n  pop\n  jump\t// out\n    /* \"#utility.yul\":1865:1940   */\ntag_26:\n    /* \"#utility.yul\":1908:1911   */\n  0x00\n    /* \"#utility.yul\":1929:1934   */\n  dup2\n    /* \"#utility.yul\":1922:1934   */\n  swap1\n  pop\n    /* \"#utility.yul\":1865:1940   */\n  swap2\n  swap1\n  pop\n  jump\t// out\n    /* \"#utility.yul\":1946:2215   */\ntag_27:\n    /* \"#utility.yul\":2056:2095   */\n  tag_58\n    /* \"#utility.yul\":2087:2094   */\n  dup4\n    /* \"#utility.yul\":2056:2095   */\n  tag_25\n  jump\t// in\ntag_58:\n    /* \"#utility.yul\":2117:2208   */\n  tag_59\n    /* \"#utility.yul\":2166:2207   */\n  tag_60\n    /* \"#utility.yul\":2190:2206   */\n  dup3\n    /* \"#utility.yul\":2166:2207   */\n  tag_26\n  jump\t// in\ntag_60:\n    /* \"#utility.yul\":2158:2164   */\n  dup5\n    /* \"#utility.yul\":2151:2155   */\n  dup5\n    /* \"#utility.yul\":2145:2156   */\n  sload\n    /* \"#utility.yul\":2117:2208   */\n  tag_22\n  jump\t// in\ntag_59:\n    /* \"#utility.yul\":2111:2115   */\n  dup3\n    /* \"#utility.yul\":2104:2209   */\n  sstore\n    /* \"#utility.yul\":2022:2215   */\n  pop\n    /* \"#utility.yul\":1946:2215   */\n  pop\n  pop\n  pop\n  jump\t// out\n    /* \"#utility.yul\":2221:2294   */\ntag_28:\n    /* \"#utility.yul\":2266:2269   */\n  0x00\n    /* \"#utility.yul\":2221:2294   */\n  swap1\n  jump\t// out\n    /* \"#utility.yul\":2300:2489   */\ntag_29:\n    /* \"#utility.yul\":2377:2409   */\n  tag_63\n  tag_28\n  jump\t// in\ntag_63:\n    /* \"#utility.yul\":2418:2483   */\n  tag_64\n    /* \"#utility.yul\":2476:2482   */\n  dup2\n    /* \"#utility.yul\":2468:2474   */\n  dup5\n    /* \"#utility.yul\":2462:2466   */\n  dup5\n    /* \"#utility.yul\":2418:2483   */\n  tag_27\n  jump\t// in\ntag_64:\n    /* \"#utility.yul\":2353:2489   */\n  pop\n    /* \"#utility.yul\":2300:2489   */\n  pop\n  pop\n  jump\t// out\n    /* \"#utility.yul\":2495:2681   */\ntag_30:\n    /* \"#utility.yul\":2555:2675   */\ntag_66:\n    /* \"#utility.yul\":2572:2575   */\n  dup2\n    /* \"#utility.yul\":2565:2570   */\n  dup2\n    /* \"#utility.yul\":2562:2576   */\n  lt\n    /* \"#utility.yul\":2555:2675   */\n  iszero\n  tag_68\n  jumpi\n    /* \"#utility.yul\":2626:2665   */\n  tag_69\n    /* \"#utility.yul\":2663:2664   */\n  0x00\n    /* \"#utility.yul\":2656:2661   */\n  dup3\n    /* \"#utility.yul\":2626:2665   */\n  tag_29\n  jump\t// in\ntag_69:\n    /* \"#utility.yul\":2599:2600   */\n  0x01\n    /* \"#utility.yul\":2592:2597   */\n  dup2\n    /* \"#utility.yul\":2588:2601   */\n  add\n    /* \"#utility.yul\":2579:2601   */\n  swap1\n  pop\n    /* \"#utility.yul\":2555:2675   */\n  jump(tag_66)\ntag_68:\n    /* \"#utility.yul\":2495:2681   */\n  pop\n  pop\n  jump\t// out\n    /* \"#utility.yul\":2687:3230   */\ntag_31:\n    /* \"#utility.yul\":2788:2790   */\n  0x1f\n    /* \"#utility.yul\":2783:2786   */\n  dup3\n    /* \"#utility.yul\":2780:2791   */\n  gt\n    /* \"#utility.yul\":2777:3223   */\n  iszero\n  tag_71\n  jumpi\n    /* \"#utility.yul\":2822:2860   */\n  tag_72\n    /* \"#utility.yul\":2854:2859   */\n  dup2\n    /* \"#utility.yul\":2822:2860   */\n  tag_19\n  jump\t// in\ntag_72:\n    /* \"#utility.yul\":2906:2935   */\n  tag_73\n    /* \"#utility.yul\":2924:2934   */\n  dup5\n    /* \"#utility.yul\":2906:2935   */\n  tag_20\n  jump\t// in\ntag_73:\n    /* \"#utility.yul\":2896:2904   */\n  dup2\n    /* \"#utility.yul\":2892:2936   */\n  add\n    /* \"#utility.yul\":3089:3091   */\n  0x20\n    /* \"#utility.yul\":3077:3087   */\n  dup6\n    /* \"#utility.yul\":3074:3092   */\n  lt\n    /* \"#utility.yul\":3071:3120   */\n  iszero\n  tag_74\n  jumpi\n    /* \"#utility.yul\":3110:3118   */\n  dup2\n    /* \"#utility.yul\":3095:3118   */\n  swap1\n  pop\n    /* \"#utility.yul\":3071:3120   */\ntag_74:\n    /* \"#utility.yul\":3133:3213   */\n  tag_75\n    /* \"#utility.yul\":3189:3211   */\n  tag_76\n    /* \"#utility.yul\":3207:3210   */\n  dup6\n    /* \"#utility.yul\":3189:3211   */\n  tag_20\n  jump\t// in\ntag_76:\n    /* \"#utility.yul\":3179:3187   */\n  dup4\n    /* \"#utility.yul\":3175:3212   */\n  add\n    /* \"#utility.yul\":3162:3173   */\n  dup3\n    /* \"#utility.yul\":3133:3213   */\n  tag_30\n  jump\t// in\ntag_75:\n    /* \"#utility.yul\":2792:3223   */\n  pop\n  pop\n    /* \"#utility.yul\":2777:3223   */\ntag_71:\n    /* \"#utility.yul\":2687:3230   */\n  pop\n  pop\n  pop\n  jump\t// out\n    /* \"#utility.yul\":3236:3353   */\ntag_32:\n    /* \"#utility.yul\":3290:3298   */\n  0x00\n    /* \"#utility.yul\":3340:3345   */\n  dup3\n    /* \"#utility.yul\":3334:3338   */\n  dup3\n    /* \"#utility.yul\":3330:3346   */\n  shr\n    /* \"#utility.yul\":3309:3346   */\n  swap1\n  pop\n    /* \"#utility.yul\":3236:3353   */\n  swap3\n  swap2\n  pop\n  pop\n  jump\t// out\n    /* \"#utility.yul\":3359:3528   */\ntag_33:\n    /* \"#utility.yul\":3403:3409   */\n  0x00\n    /* \"#utility.yul\":3436:3487   */\n  tag_79\n    /* \"#utility.yul\":3484:3485   */\n  0x00\n    /* \"#utility.yul\":3480:3486   */\n  not\n    /* \"#utility.yul\":3472:3477   */\n  dup5\n    /* \"#utility.yul\":3469:3470   */\n  0x08\n    /* \"#utility.yul\":3465:3478   */\n  mul\n    /* \"#utility.yul\":3436:3487   */\n  tag_32\n  jump\t// in\ntag_79:\n    /* \"#utility.yul\":3432:3488   */\n  not\n    /* \"#utility.yul\":3517:3521   */\n  dup1\n    /* \"#utility.yul\":3511:3515   */\n  dup4\n    /* \"#utility.yul\":3507:3522   */\n  and\n    /* \"#utility.yul\":3497:3522   */\n  swap2\n  pop\n    /* \"#utility.yul\":3410:3528   */\n  pop\n    /* \"#utility.yul\":3359:3528   */\n  swap3\n  swap2\n  pop\n  pop\n  jump\t// out\n    /* \"#utility.yul\":3533:3828   */\ntag_34:\n    /* \"#utility.yul\":3609:3613   */\n  0x00\n    /* \"#utility.yul\":3755:3784   */\n  tag_81\n    /* \"#utility.yul\":3780:3783   */\n  dup4\n    /* \"#utility.yul\":3774:3778   */\n  dup4\n    /* \"#utility.yul\":3755:3784   */\n  tag_33\n  jump\t// in\ntag_81:\n    /* \"#utility.yul\":3747:3784   */\n  swap2\n  pop\n    /* \"#utility.yul\":3817:3820   */\n  dup3\n    /* \"#utility.yul\":3814:3815   */\n  0x02\n    /* \"#utility.yul\":3810:3821   */\n  mul\n    /* \"#utility.yul\":3804:3808   */\n  dup3\n    /* \"#utility.yul\":3801:3822   */\n  or\n    /* \"#utility.yul\":3793:3822   */\n  swap1\n  pop\n    /* \"#utility.yul\":3533:3828   */\n  swap3\n  swap2\n  pop\n  pop\n  jump\t// out\n    /* \"#utility.yul\":3833:5228   */\ntag_5:\n    /* \"#utility.yul\":3950:3987   */\n  tag_83\n    /* \"#utility.yul\":3983:3986   */\n  dup3\n    /* \"#utility.yul\":3950:3987   */\n  tag_15\n  jump\t// in\ntag_83:\n    /* \"#utility.yul\":4052:4070   */\n  0xffffffffffffffff\n    /* \"#utility.yul\":4044:4050   */\n  dup2\n    /* \"#utility.yul\":4041:4071   */\n  gt\n    /* \"#utility.yul\":4038:4094   */\n  iszero\n  tag_84\n  jumpi\n    /* \"#utility.yul\":4074:4092   */\n  tag_85\n  tag_16\n  jump\t// in\ntag_85:\n    /* \"#utility.yul\":4038:4094   */\ntag_84:\n    /* \"#utility.yul\":4118:4156   */\n  tag_86\n    /* \"#utility.yul\":4150:4154   */\n  dup3\n    /* \"#utility.yul\":4144:4155   */\n  sload\n    /* \"#utility.yul\":4118:4156   */\n  tag_18\n  jump\t// in\ntag_86:\n    /* \"#utility.yul\":4203:4270   */\n  tag_87\n    /* \"#utility.yul\":4263:4269   */\n  dup3\n    /* \"#utility.yul\":4255:4261   */\n  dup3\n    /* \"#utility.yul\":4249:4253   */\n  dup6\n    /* \"#utility.yul\":4203:4270   */\n  tag_31\n  jump\t// in\ntag_87:\n    /* \"#utility.yul\":4297:4298   */\n  0x00\n    /* \"#utility.yul\":4321:4325   */\n  0x20\n    /* \"#utility.yul\":4308:4325   */\n  swap1\n  pop\n    /* \"#utility.yul\":4353:4355   */\n  0x1f\n    /* \"#utility.yul\":4345:4351   */\n  dup4\n    /* \"#utility.yul\":4342:4356   */\n  gt\n    /* \"#utility.yul\":4370:4371   */\n  0x01\n    /* \"#utility.yul\":4365:4983   */\n  dup2\n  eq\n  tag_89\n  jumpi\n    /* \"#utility.yul\":5027:5028   */\n  0x00\n    /* \"#utility.yul\":5044:5050   */\n  dup5\n    /* \"#utility.yul\":5041:5118   */\n  iszero\n  tag_90\n  jumpi\n    /* \"#utility.yul\":5093:5102   */\n  dup3\n    /* \"#utility.yul\":5088:5091   */\n  dup8\n    /* \"#utility.yul\":5084:5103   */\n  add\n    /* \"#utility.yul\":5078:5104   */\n  mload\n    /* \"#utility.yul\":5069:5104   */\n  swap1\n  pop\n    /* \"#utility.yul\":5041:5118   */\ntag_90:\n    /* \"#utility.yul\":5144:5211   */\n  tag_91\n    /* \"#utility.yul\":5204:5210   */\n  dup6\n    /* \"#utility.yul\":5197:5202   */\n  dup3\n    /* \"#utility.yul\":5144:5211   */\n  tag_34\n  jump\t// in\ntag_91:\n    /* \"#utility.yul\":5138:5142   */\n  dup7\n    /* \"#utility.yul\":5131:5212   */\n  sstore\n    /* \"#utility.yul\":5000:5222   */\n  pop\n    /* \"#utility.yul\":4335:5222   */\n  jump(tag_88)\n    /* \"#utility.yul\":4365:4983   */\ntag_89:\n    /* \"#utility.yul\":4417:4421   */\n  0x1f\n    /* \"#utility.yul\":4413:4422   */\n  not\n    /* \"#utility.yul\":4405:4411   */\n  dup5\n    /* \"#utility.yul\":4401:4423   */\n  and\n    /* \"#utility.yul\":4451:4488   */\n  tag_92\n    /* \"#utility.yul\":4483:4487   */\n  dup7\n    /* \"#utility.yul\":4451:4488   */\n  tag_19\n  jump\t// in\ntag_92:\n    /* \"#utility.yul\":4510:4511   */\n  0x00\n    /* \"#utility.yul\":4524:4732   */\ntag_93:\n    /* \"#utility.yul\":4538:4545   */\n  dup3\n    /* \"#utility.yul\":4535:4536   */\n  dup2\n    /* \"#utility.yul\":4532:4546   */\n  lt\n    /* \"#utility.yul\":4524:4732   */\n  iszero\n  tag_95\n  jumpi\n    /* \"#utility.yul\":4617:4626   */\n  dup5\n    /* \"#utility.yul\":4612:4615   */\n  dup10\n    /* \"#utility.yul\":4608:4627   */\n  add\n    /* \"#utility.yul\":4602:4628   */\n  mload\n    /* \"#utility.yul\":4594:4600   */\n  dup3\n    /* \"#utility.yul\":4587:4629   */\n  sstore\n    /* \"#utility.yul\":4668:4669   */\n  0x01\n    /* \"#utility.yul\":4660:4666   */\n  dup3\n    /* \"#utility.yul\":4656:4670   */\n  add\n    /* \"#utility.yul\":4646:4670   */\n  swap2\n  pop\n    /* \"#utility.yul\":4715:4717   */\n  0x20\n    /* \"#utility.yul\":4704:4713   */\n  dup6\n    /* \"#utility.yul\":4700:4718   */\n  add\n    /* \"#utility.yul\":4687:4718   */\n  swap5\n  pop\n    /* \"#utility.yul\":4561:4565   */\n  0x20\n    /* \"#utility.yul\":4558:4559   */\n  dup2\n    /* \"#utility.yul\":4554:4566   */\n  add\n    /* \"#utility.yul\":4549:4566   */\n  swap1\n  pop\n    /* \"#utility.yul\":4524:4732   */\n  jump(tag_93)\ntag_95:\n    /* \"#utility.yul\":4760:4766   */\n  dup7\n    /* \"#utility.yul\":4751:4758   */\n  dup4\n    /* \"#utility.yul\":4748:4767   */\n  lt\n    /* \"#utility.yul\":4745:4924   */\n  iszero\n  tag_96\n  jumpi\n    /* \"#utility.yul\":4818:4827   */\n  dup5\n    /* \"#utility.yul\":4813:4816   */\n  dup10\n    /* \"#utility.yul\":4809:4828   */\n  add\n    /* \"#utility.yul\":4803:4829   */\n  mload\n    /* \"#utility.yul\":4861:4909   */\n  tag_97\n    /* \"#utility.yul\":4903:4907   */\n  0x1f\n    /* \"#utility.yul\":4895:4901   */\n  dup10\n    /* \"#utility.yul\":4891:4908   */\n  and\n    /* \"#utility.yul\":4880:4889   */\n  dup3\n    /* \"#utility.yul\":4861:4909   */\n  tag_33\n  jump\t// in\ntag_97:\n    /* \"#utility.yul\":4853:4859   */\n  dup4\n    /* \"#utility.yul\":4846:4910   */\n  sstore\n    /* \"#utility.yul\":4768:4924   */\n  pop\n    /* \"#utility.yul\":4745:4924   */\ntag_96:\n    /* \"#utility.yul\":4970:4971   */\n  0x01\n    /* \"#utility.yul\":4966:4967   */\n  0x02\n    /* \"#utility.yul\":4958:4964   */\n  dup9\n    /* \"#utility.yul\":4954:4968   */\n  mul\n    /* \"#utility.yul\":4950:4972   */\n  add\n    /* \"#utility.yul\":4944:4948   */\n  dup9\n    /* \"#utility.yul\":4937:4973   */\n  sstore\n    /* \"#utility.yul\":4372:4983   */\n  pop\n  pop\n  pop\n    /* \"#utility.yul\":4335:5222   */\ntag_88:\n  pop\n    /* \"#utility.yul\":3925:5228   */\n  pop\n  pop\n  pop\n    /* \"#utility.yul\":3833:5228   */\n  pop\n  pop\n  jump\t// out\n    /* \"#utility.yul\":5234:5414   */\ntag_35:\n    /* \"#utility.yul\":5282:5359   */\n  0x4e487b7100000000000000000000000000000000000000000000000000000000\n    /* \"#utility.yul\":5279:5280   */\n  0x00\n    /* \"#utility.yul\":5272:5360   */\n  mstore\n    /* \"#utility.yul\":5379:5383   */\n  0x11\n    /* \"#utility.yul\":5376:5377   */\n  0x04\n    /* \"#utility.yul\":5369:5384   */\n  mstore\n    /* \"#utility.yul\":5403:5407   */\n  0x24\n    /* \"#utility.yul\":5400:5401   */\n  0x00\n    /* \"#utility.yul\":5393:5408   */\n  revert\n    /* \"#utility.yul\":5420:5611   */\ntag_12:\n    /* \"#utility.yul\":5460:5463   */\n  0x00\n    /* \"#utility.yul\":5479:5499   */\n  tag_100\n    /* \"#utility.yul\":5497:5498   */\n  dup3\n    /* \"#utility.yul\":5479:5499   */\n  tag_23\n  jump\t// in\ntag_100:\n    /* \"#utility.yul\":5474:5499   */\n  swap2\n  pop\n    /* \"#utility.yul\":5513:5533   */\n  tag_101\n    /* \"#utility.yul\":5531:5532   */\n  dup4\n    /* \"#utility.yul\":5513:5533   */\n  tag_23\n  jump\t// in\ntag_101:\n    /* \"#utility.yul\":5508:5533   */\n  swap3\n  pop\n    /* \"#utility.yul\":5556:5557   */\n  dup3\n    /* \"#utility.yul\":5553:5554   */\n  dup3\n    /* \"#utility.yul\":5549:5558   */\n  add\n    /* \"#utility.yul\":5542:5558   */\n  swap1\n  pop\n    /* \"#utility.yul\":5577:5580   */\n  dup1\n    /* \"#utility.yul\":5574:5575   */\n  dup3\n    /* \"#utility.yul\":5571:5581   */\n  gt\n    /* \"#utility.yul\":5568:5604   */\n  iszero\n  tag_102\n  jumpi\n    /* \"#utility.yul\":5584:5602   */\n  tag_103\n  tag_35\n  jump\t// in\ntag_103:\n    /* \"#utility.yul\":5568:5604   */\ntag_102:\n    /* \"#utility.yul\":5420:5611   */\n  swap3\n  swap2\n  pop\n  pop\n  jump\t// out\n    /* \"smart-contract/BetCandidate.sol\":386:5378  contract BetCandidate {... */\ntag_14:\n  mload(0x80)\n  codecopy(0x00, dataOffset(sub_0), dataSize(sub_0))\n  0x00\n  assignImmutable(\"0x6bcaf047ba4c8ac400fca43393035242dd1aabda2d6068a0c51242b97224de8d\")\n  return(0x00, dataSize(sub_0))\nstop\n\nsub_0: assembly {\n        /* \"smart-contract/BetCandidate.sol\":386:5378  contract BetCandidate {... */\n      mstore(0x40, 0x80)\n      jumpi(tag_1, lt(calldatasize, 0x04))\n      shr(0xe0, calldataload(0x00))\n      dup1\n      0x8da5cb5b\n      gt\n      tag_21\n      jumpi\n      dup1\n      0xd353a1cb\n      gt\n      tag_22\n      jumpi\n      dup1\n      0xd353a1cb\n      eq\n      tag_16\n      jumpi\n      dup1\n      0xddca3f43\n      eq\n      tag_17\n      jumpi\n      dup1\n      0xe5237601\n      eq\n      tag_18\n      jumpi\n      dup1\n      0xf240f7c3\n      eq\n      tag_19\n      jumpi\n      dup1\n      0xf5556be2\n      eq\n      tag_20\n      jumpi\n      jump(tag_1)\n    tag_22:\n      dup1\n      0x8da5cb5b\n      eq\n      tag_11\n      jumpi\n      dup1\n      0x9317cbe2\n      eq\n      tag_12\n      jumpi\n      dup1\n      0x93bebee8\n      eq\n      tag_13\n      jumpi\n      dup1\n      0xb670da5a\n      eq\n      tag_14\n      jumpi\n      dup1\n      0xb84391de\n      eq\n      tag_15\n      jumpi\n      jump(tag_1)\n    tag_21:\n      dup1\n      0x3e25e837\n      gt\n      tag_23\n      jumpi\n      dup1\n      0x3e25e837\n      eq\n      tag_6\n      jumpi\n      dup1\n      0x4e71d92d\n      eq\n      tag_7\n      jumpi\n      dup1\n      0x5edbabae\n      eq\n      tag_8\n      jumpi\n      dup1\n      0x69b10852\n      eq\n      tag_9\n      jumpi\n      dup1\n      0x7365870b\n      eq\n      tag_10\n      jumpi\n      jump(tag_1)\n    tag_23:\n      dup1\n      0x121de3f6\n      eq\n      tag_2\n      jumpi\n      dup1\n      0x135678f9\n      eq\n      tag_3\n      jumpi\n      dup1\n      0x14f14d75\n      eq\n      tag_4\n      jumpi\n      dup1\n      0x38315a8f\n      eq\n      tag_5\n      jumpi\n    tag_1:\n      0x00\n      dup1\n      revert\n        /* \"smart-contract/BetCandidate.sol\":583:603  uint public netPrize */\n    tag_2:\n      callvalue\n      dup1\n      iszero\n      tag_24\n      jumpi\n      0x00\n      dup1\n      revert\n    tag_24:\n      pop\n      tag_25\n      tag_26\n      jump\t// in\n    tag_25:\n      mload(0x40)\n      tag_27\n      swap2\n      swap1\n      tag_28\n      jump\t// in\n    tag_27:\n      mload(0x40)\n      dup1\n      swap2\n      sub\n      swap1\n      return\n        /* \"smart-contract/BetCandidate.sol\":671:696  uint public totalBettors1 */\n    tag_3:\n      callvalue\n      dup1\n      iszero\n      tag_29\n      jumpi\n      0x00\n      dup1\n      revert\n    tag_29:\n      pop\n      tag_30\n      tag_31\n      jump\t// in\n    tag_30:\n      mload(0x40)\n      tag_32\n      swap2\n      swap1\n      tag_28\n      jump\t// in\n    tag_32:\n      mload(0x40)\n      dup1\n      swap2\n      sub\n      swap1\n      return\n        /* \"smart-contract/BetCandidate.sol\":1489:1753  function setCandidateNames(string memory _candidate1, string memory _candidate2, string memory _candidate3) external onlyOwner {... */\n    tag_4:\n      callvalue\n      dup1\n      iszero\n      tag_33\n      jumpi\n      0x00\n      dup1\n      revert\n    tag_33:\n      pop\n      tag_34\n      0x04\n      dup1\n      calldatasize\n      sub\n      dup2\n      add\n      swap1\n      tag_35\n      swap2\n      swap1\n      tag_36\n      jump\t// in\n    tag_35:\n      tag_37\n      jump\t// in\n    tag_34:\n      stop\n        /* \"smart-contract/BetCandidate.sol\":1809:2038  function setCandidateImages(string memory _image1, string memory _image2, string memory _image3) external onlyOwner {... */\n    tag_5:\n      callvalue\n      dup1\n      iszero\n      tag_38\n      jumpi\n      0x00\n      dup1\n      revert\n    tag_38:\n      pop\n      tag_39\n      0x04\n      dup1\n      calldatasize\n      sub\n      dup2\n      add\n      swap1\n      tag_40\n      swap2\n      swap1\n      tag_36\n      jump\t// in\n    tag_40:\n      tag_41\n      jump\t// in\n    tag_39:\n      stop\n        /* \"smart-contract/BetCandidate.sol\":4103:4629  function withdrawCommission() external {... */\n    tag_6:\n      callvalue\n      dup1\n      iszero\n      tag_42\n      jumpi\n      0x00\n      dup1\n      revert\n    tag_42:\n      pop\n      tag_43\n      tag_44\n      jump\t// in\n    tag_43:\n      stop\n        /* \"smart-contract/BetCandidate.sol\":4641:5371  function claim() external {... */\n    tag_7:\n      callvalue\n      dup1\n      iszero\n      tag_45\n      jumpi\n      0x00\n      dup1\n      revert\n    tag_45:\n      pop\n      tag_46\n      tag_47\n      jump\t// in\n    tag_46:\n      stop\n        /* \"smart-contract/BetCandidate.sol\":703:728  uint public totalBettors2 */\n    tag_8:\n      callvalue\n      dup1\n      iszero\n      tag_48\n      jumpi\n      0x00\n      dup1\n      revert\n    tag_48:\n      pop\n      tag_49\n      tag_50\n      jump\t// in\n    tag_49:\n      mload(0x40)\n      tag_51\n      swap2\n      swap1\n      tag_28\n      jump\t// in\n    tag_51:\n      mload(0x40)\n      dup1\n      swap2\n      sub\n      swap1\n      return\n        /* \"smart-contract/BetCandidate.sol\":4063:4094  bool public commissionWithdrawn */\n    tag_9:\n      callvalue\n      dup1\n      iszero\n      tag_52\n      jumpi\n      0x00\n      dup1\n      revert\n    tag_52:\n      pop\n      tag_53\n      tag_54\n      jump\t// in\n    tag_53:\n      mload(0x40)\n      tag_55\n      swap2\n      swap1\n      tag_56\n      jump\t// in\n    tag_55:\n      mload(0x40)\n      dup1\n      swap2\n      sub\n      swap1\n      return\n        /* \"smart-contract/BetCandidate.sol\":2545:3480  function bet(uint candidate) external payable {... */\n    tag_10:\n      tag_57\n      0x04\n      dup1\n      calldatasize\n      sub\n      dup2\n      add\n      swap1\n      tag_58\n      swap2\n      swap1\n      tag_59\n      jump\t// in\n    tag_58:\n      tag_60\n      jump\t// in\n    tag_57:\n      stop\n        /* \"smart-contract/BetCandidate.sol\":493:523  address public immutable owner */\n    tag_11:\n      callvalue\n      dup1\n      iszero\n      tag_61\n      jumpi\n      0x00\n      dup1\n      revert\n    tag_61:\n      pop\n      tag_62\n      tag_63\n      jump\t// in\n    tag_62:\n      mload(0x40)\n      tag_64\n      swap2\n      swap1\n      tag_65\n      jump\t// in\n    tag_64:\n      mload(0x40)\n      dup1\n      swap2\n      sub\n      swap1\n      return\n        /* \"smart-contract/BetCandidate.sol\":2340:2537  function setFinishEndTime(uint _finishEndTime) external onlyOwner {... */\n    tag_12:\n      callvalue\n      dup1\n      iszero\n      tag_66\n      jumpi\n      0x00\n      dup1\n      revert\n    tag_66:\n      pop\n      tag_67\n      0x04\n      dup1\n      calldatasize\n      sub\n      dup2\n      add\n      swap1\n      tag_68\n      swap2\n      swap1\n      tag_59\n      jump\t// in\n    tag_68:\n      tag_69\n      jump\t// in\n    tag_67:\n      stop\n        /* \"smart-contract/BetCandidate.sol\":446:484  mapping(address => Bet) public allBets */\n    tag_13:\n      callvalue\n      dup1\n      iszero\n      tag_70\n      jumpi\n      0x00\n      dup1\n      revert\n    tag_70:\n      pop\n      tag_71\n      0x04\n      dup1\n      calldatasize\n      sub\n      dup2\n      add\n      swap1\n      tag_72\n      swap2\n      swap1\n      tag_73\n      jump\t// in\n    tag_72:\n      tag_74\n      jump\t// in\n    tag_71:\n      mload(0x40)\n      tag_75\n      swap5\n      swap4\n      swap3\n      swap2\n      swap1\n      tag_76\n      jump\t// in\n    tag_75:\n      mload(0x40)\n      dup1\n      swap2\n      sub\n      swap1\n      return\n        /* \"smart-contract/BetCandidate.sol\":610:632  uint public betEndTime */\n    tag_14:\n      callvalue\n      dup1\n      iszero\n      tag_77\n      jumpi\n      0x00\n      dup1\n      revert\n    tag_77:\n      pop\n      tag_78\n      tag_79\n      jump\t// in\n    tag_78:\n      mload(0x40)\n      tag_80\n      swap2\n      swap1\n      tag_28\n      jump\t// in\n    tag_80:\n      mload(0x40)\n      dup1\n      swap2\n      sub\n      swap1\n      return\n        /* \"smart-contract/BetCandidate.sol\":2097:2280  function setBetEndTime(uint _betEndTime) external onlyOwner {... */\n    tag_15:\n      callvalue\n      dup1\n      iszero\n      tag_81\n      jumpi\n      0x00\n      dup1\n      revert\n    tag_81:\n      pop\n      tag_82\n      0x04\n      dup1\n      calldatasize\n      sub\n      dup2\n      add\n      swap1\n      tag_83\n      swap2\n      swap1\n      tag_59\n      jump\t// in\n    tag_83:\n      tag_84\n      jump\t// in\n    tag_82:\n      stop\n        /* \"smart-contract/BetCandidate.sol\":3488:4053  function finish(uint winner) external {... */\n    tag_16:\n      callvalue\n      dup1\n      iszero\n      tag_85\n      jumpi\n      0x00\n      dup1\n      revert\n    tag_85:\n      pop\n      tag_86\n      0x04\n      dup1\n      calldatasize\n      sub\n      dup2\n      add\n      swap1\n      tag_87\n      swap2\n      swap1\n      tag_59\n      jump\t// in\n    tag_87:\n      tag_88\n      jump\t// in\n    tag_86:\n      stop\n        /* \"smart-contract/BetCandidate.sol\":530:552  uint public fee = 1000 */\n    tag_17:\n      callvalue\n      dup1\n      iszero\n      tag_89\n      jumpi\n      0x00\n      dup1\n      revert\n    tag_89:\n      pop\n      tag_90\n      tag_91\n      jump\t// in\n    tag_90:\n      mload(0x40)\n      tag_92\n      swap2\n      swap1\n      tag_28\n      jump\t// in\n    tag_92:\n      mload(0x40)\n      dup1\n      swap2\n      sub\n      swap1\n      return\n        /* \"smart-contract/BetCandidate.sol\":639:664  uint public finishEndTime */\n    tag_18:\n      callvalue\n      dup1\n      iszero\n      tag_93\n      jumpi\n      0x00\n      dup1\n      revert\n    tag_93:\n      pop\n      tag_94\n      tag_95\n      jump\t// in\n    tag_94:\n      mload(0x40)\n      tag_96\n      swap2\n      swap1\n      tag_28\n      jump\t// in\n    tag_96:\n      mload(0x40)\n      dup1\n      swap2\n      sub\n      swap1\n      return\n        /* \"smart-contract/BetCandidate.sol\":417:439  Dispute public dispute */\n    tag_19:\n      callvalue\n      dup1\n      iszero\n      tag_97\n      jumpi\n      0x00\n      dup1\n      revert\n    tag_97:\n      pop\n      tag_98\n      tag_99\n      jump\t// in\n    tag_98:\n      mload(0x40)\n      tag_100\n      swap11\n      swap10\n      swap9\n      swap8\n      swap7\n      swap6\n      swap5\n      swap4\n      swap3\n      swap2\n      swap1\n      tag_101\n      jump\t// in\n    tag_100:\n      mload(0x40)\n      dup1\n      swap2\n      sub\n      swap1\n      return\n        /* \"smart-contract/BetCandidate.sol\":735:760  uint public totalBettors3 */\n    tag_20:\n      callvalue\n      dup1\n      iszero\n      tag_102\n      jumpi\n      0x00\n      dup1\n      revert\n    tag_102:\n      pop\n      tag_103\n      tag_104\n      jump\t// in\n    tag_103:\n      mload(0x40)\n      tag_105\n      swap2\n      swap1\n      tag_28\n      jump\t// in\n    tag_105:\n      mload(0x40)\n      dup1\n      swap2\n      sub\n      swap1\n      return\n        /* \"smart-contract/BetCandidate.sol\":583:603  uint public netPrize */\n    tag_26:\n      sload(0x0c)\n      dup2\n      jump\t// out\n        /* \"smart-contract/BetCandidate.sol\":671:696  uint public totalBettors1 */\n    tag_31:\n      sload(0x0f)\n      dup2\n      jump\t// out\n        /* \"smart-contract/BetCandidate.sol\":1489:1753  function setCandidateNames(string memory _candidate1, string memory _candidate2, string memory _candidate3) external onlyOwner {... */\n    tag_37:\n        /* \"smart-contract/BetCandidate.sol\":1372:1377  owner */\n      immutable(\"0x6bcaf047ba4c8ac400fca43393035242dd1aabda2d6068a0c51242b97224de8d\")\n        /* \"smart-contract/BetCandidate.sol\":1358:1377  msg.sender == owner */\n      0xffffffffffffffffffffffffffffffffffffffff\n      and\n        /* \"smart-contract/BetCandidate.sol\":1358:1368  msg.sender */\n      caller\n        /* \"smart-contract/BetCandidate.sol\":1358:1377  msg.sender == owner */\n      0xffffffffffffffffffffffffffffffffffffffff\n      and\n      eq\n        /* \"smart-contract/BetCandidate.sol\":1350:1416  require(msg.sender == owner, \"Only owner can perform this action\") */\n      tag_107\n      jumpi\n      mload(0x40)\n      0x08c379a000000000000000000000000000000000000000000000000000000000\n      dup2\n      mstore\n      0x04\n      add\n      tag_108\n      swap1\n      tag_109\n      jump\t// in\n    tag_108:\n      mload(0x40)\n      dup1\n      swap2\n      sub\n      swap1\n      revert\n    tag_107:\n        /* \"smart-contract/BetCandidate.sol\":1648:1659  _candidate1 */\n      dup3\n        /* \"smart-contract/BetCandidate.sol\":1627:1634  dispute */\n      0x00\n        /* \"smart-contract/BetCandidate.sol\":1627:1645  dispute.candidate1 */\n      dup1\n      add\n        /* \"smart-contract/BetCandidate.sol\":1627:1659  dispute.candidate1 = _candidate1 */\n      swap1\n      dup2\n      tag_111\n      swap2\n      swap1\n      tag_112\n      jump\t// in\n    tag_111:\n      pop\n        /* \"smart-contract/BetCandidate.sol\":1691:1702  _candidate2 */\n      dup2\n        /* \"smart-contract/BetCandidate.sol\":1670:1677  dispute */\n      0x00\n        /* \"smart-contract/BetCandidate.sol\":1670:1688  dispute.candidate2 */\n      0x01\n      add\n        /* \"smart-contract/BetCandidate.sol\":1670:1702  dispute.candidate2 = _candidate2 */\n      swap1\n      dup2\n      tag_113\n      swap2\n      swap1\n      tag_112\n      jump\t// in\n    tag_113:\n      pop\n        /* \"smart-contract/BetCandidate.sol\":1734:1745  _candidate3 */\n      dup1\n        /* \"smart-contract/BetCandidate.sol\":1713:1720  dispute */\n      0x00\n        /* \"smart-contract/BetCandidate.sol\":1713:1731  dispute.candidate3 */\n      0x02\n      add\n        /* \"smart-contract/BetCandidate.sol\":1713:1745  dispute.candidate3 = _candidate3 */\n      swap1\n      dup2\n      tag_114\n      swap2\n      swap1\n      tag_112\n      jump\t// in\n    tag_114:\n      pop\n        /* \"smart-contract/BetCandidate.sol\":1489:1753  function setCandidateNames(string memory _candidate1, string memory _candidate2, string memory _candidate3) external onlyOwner {... */\n      pop\n      pop\n      pop\n      jump\t// out\n        /* \"smart-contract/BetCandidate.sol\":1809:2038  function setCandidateImages(string memory _image1, string memory _image2, string memory _image3) external onlyOwner {... */\n    tag_41:\n        /* \"smart-contract/BetCandidate.sol\":1372:1377  owner */\n      immutable(\"0x6bcaf047ba4c8ac400fca43393035242dd1aabda2d6068a0c51242b97224de8d\")\n        /* \"smart-contract/BetCandidate.sol\":1358:1377  msg.sender == owner */\n      0xffffffffffffffffffffffffffffffffffffffff\n      and\n        /* \"smart-contract/BetCandidate.sol\":1358:1368  msg.sender */\n      caller\n        /* \"smart-contract/BetCandidate.sol\":1358:1377  msg.sender == owner */\n      0xffffffffffffffffffffffffffffffffffffffff\n      and\n      eq\n        /* \"smart-contract/BetCandidate.sol\":1350:1416  require(msg.sender == owner, \"Only owner can perform this action\") */\n      tag_116\n      jumpi\n      mload(0x40)\n      0x08c379a000000000000000000000000000000000000000000000000000000000\n      dup2\n      mstore\n      0x04\n      add\n      tag_117\n      swap1\n      tag_109\n      jump\t// in\n    tag_117:\n      mload(0x40)\n      dup1\n      swap2\n      sub\n      swap1\n      revert\n    tag_116:\n        /* \"smart-contract/BetCandidate.sol\":1953:1960  _image1 */\n      dup3\n        /* \"smart-contract/BetCandidate.sol\":1936:1943  dispute */\n      0x00\n        /* \"smart-contract/BetCandidate.sol\":1936:1950  dispute.image1 */\n      0x03\n      add\n        /* \"smart-contract/BetCandidate.sol\":1936:1960  dispute.image1 = _image1 */\n      swap1\n      dup2\n      tag_119\n      swap2\n      swap1\n      tag_112\n      jump\t// in\n    tag_119:\n      pop\n        /* \"smart-contract/BetCandidate.sol\":1988:1995  _image2 */\n      dup2\n        /* \"smart-contract/BetCandidate.sol\":1971:1978  dispute */\n      0x00\n        /* \"smart-contract/BetCandidate.sol\":1971:1985  dispute.image2 */\n      0x04\n      add\n        /* \"smart-contract/BetCandidate.sol\":1971:1995  dispute.image2 = _image2 */\n      swap1\n      dup2\n      tag_120\n      swap2\n      swap1\n      tag_112\n      jump\t// in\n    tag_120:\n      pop\n        /* \"smart-contract/BetCandidate.sol\":2023:2030  _image3 */\n      dup1\n        /* \"smart-contract/BetCandidate.sol\":2006:2013  dispute */\n      0x00\n        /* \"smart-contract/BetCandidate.sol\":2006:2020  dispute.image3 */\n      0x05\n      add\n        /* \"smart-contract/BetCandidate.sol\":2006:2030  dispute.image3 = _image3 */\n      swap1\n      dup2\n      tag_121\n      swap2\n      swap1\n      tag_112\n      jump\t// in\n    tag_121:\n      pop\n        /* \"smart-contract/BetCandidate.sol\":1809:2038  function setCandidateImages(string memory _image1, string memory _image2, string memory _image3) external onlyOwner {... */\n      pop\n      pop\n      pop\n      jump\t// out\n        /* \"smart-contract/BetCandidate.sol\":4103:4629  function withdrawCommission() external {... */\n    tag_44:\n        /* \"smart-contract/BetCandidate.sol\":4175:4180  owner */\n      immutable(\"0x6bcaf047ba4c8ac400fca43393035242dd1aabda2d6068a0c51242b97224de8d\")\n        /* \"smart-contract/BetCandidate.sol\":4161:4180  msg.sender == owner */\n      0xffffffffffffffffffffffffffffffffffffffff\n      and\n        /* \"smart-contract/BetCandidate.sol\":4161:4171  msg.sender */\n      caller\n        /* \"smart-contract/BetCandidate.sol\":4161:4180  msg.sender == owner */\n      0xffffffffffffffffffffffffffffffffffffffff\n      and\n      eq\n        /* \"smart-contract/BetCandidate.sol\":4153:4219  require(msg.sender == owner, \"Only owner can withdraw commission\") */\n      tag_123\n      jumpi\n      mload(0x40)\n      0x08c379a000000000000000000000000000000000000000000000000000000000\n      dup2\n      mstore\n      0x04\n      add\n      tag_124\n      swap1\n      tag_125\n      jump\t// in\n    tag_124:\n      mload(0x40)\n      dup1\n      swap2\n      sub\n      swap1\n      revert\n    tag_123:\n        /* \"smart-contract/BetCandidate.sol\":4255:4256  0 */\n      0x00\n        /* \"smart-contract/BetCandidate.sol\":4238:4245  dispute */\n      dup1\n        /* \"smart-contract/BetCandidate.sol\":4238:4252  dispute.winner */\n      0x09\n      add\n      sload\n        /* \"smart-contract/BetCandidate.sol\":4238:4256  dispute.winner > 0 */\n      gt\n        /* \"smart-contract/BetCandidate.sol\":4230:4285  require(dispute.winner > 0, \"Dispute not finished yet\") */\n      tag_126\n      jumpi\n      mload(0x40)\n      0x08c379a000000000000000000000000000000000000000000000000000000000\n      dup2\n      mstore\n      0x04\n      add\n      tag_127\n      swap1\n      tag_128\n      jump\t// in\n    tag_127:\n      mload(0x40)\n      dup1\n      swap2\n      sub\n      swap1\n      revert\n    tag_126:\n        /* \"smart-contract/BetCandidate.sol\":4305:4324  commissionWithdrawn */\n      0x12\n      0x00\n      swap1\n      sload\n      swap1\n      0x0100\n      exp\n      swap1\n      div\n      0xff\n      and\n        /* \"smart-contract/BetCandidate.sol\":4304:4324  !commissionWithdrawn */\n      iszero\n        /* \"smart-contract/BetCandidate.sol\":4296:4357  require(!commissionWithdrawn, \"Commission already withdrawn\") */\n      tag_129\n      jumpi\n      mload(0x40)\n      0x08c379a000000000000000000000000000000000000000000000000000000000\n      dup2\n      mstore\n      0x04\n      add\n      tag_130\n      swap1\n      tag_131\n      jump\t// in\n    tag_130:\n      mload(0x40)\n      dup1\n      swap2\n      sub\n      swap1\n      revert\n    tag_129:\n        /* \"smart-contract/BetCandidate.sol\":4400:4415  uint grossPrize */\n      0x00\n        /* \"smart-contract/BetCandidate.sol\":4452:4459  dispute */\n      dup1\n        /* \"smart-contract/BetCandidate.sol\":4452:4466  dispute.total3 */\n      0x08\n      add\n      sload\n        /* \"smart-contract/BetCandidate.sol\":4435:4442  dispute */\n      0x00\n        /* \"smart-contract/BetCandidate.sol\":4435:4449  dispute.total2 */\n      0x07\n      add\n      sload\n        /* \"smart-contract/BetCandidate.sol\":4418:4425  dispute */\n      0x00\n        /* \"smart-contract/BetCandidate.sol\":4418:4432  dispute.total1 */\n      0x06\n      add\n      sload\n        /* \"smart-contract/BetCandidate.sol\":4418:4449  dispute.total1 + dispute.total2 */\n      tag_132\n      swap2\n      swap1\n      tag_133\n      jump\t// in\n    tag_132:\n        /* \"smart-contract/BetCandidate.sol\":4418:4466  dispute.total1 + dispute.total2 + dispute.total3 */\n      tag_134\n      swap2\n      swap1\n      tag_133\n      jump\t// in\n    tag_134:\n        /* \"smart-contract/BetCandidate.sol\":4400:4466  uint grossPrize = dispute.total1 + dispute.total2 + dispute.total3 */\n      swap1\n      pop\n        /* \"smart-contract/BetCandidate.sol\":4494:4509  uint commission */\n      0x00\n        /* \"smart-contract/BetCandidate.sol\":4533:4536  1e4 */\n      0x2710\n        /* \"smart-contract/BetCandidate.sol\":4526:4529  fee */\n      sload(0x0b)\n        /* \"smart-contract/BetCandidate.sol\":4513:4523  grossPrize */\n      dup4\n        /* \"smart-contract/BetCandidate.sol\":4513:4529  grossPrize * fee */\n      tag_135\n      swap2\n      swap1\n      tag_136\n      jump\t// in\n    tag_135:\n        /* \"smart-contract/BetCandidate.sol\":4512:4536  (grossPrize * fee) / 1e4 */\n      tag_137\n      swap2\n      swap1\n      tag_138\n      jump\t// in\n    tag_137:\n        /* \"smart-contract/BetCandidate.sol\":4494:4536  uint commission = (grossPrize * fee) / 1e4 */\n      swap1\n      pop\n        /* \"smart-contract/BetCandidate.sol\":4569:4573  true */\n      0x01\n        /* \"smart-contract/BetCandidate.sol\":4547:4566  commissionWithdrawn */\n      0x12\n      0x00\n        /* \"smart-contract/BetCandidate.sol\":4547:4573  commissionWithdrawn = true */\n      0x0100\n      exp\n      dup2\n      sload\n      dup2\n      0xff\n      mul\n      not\n      and\n      swap1\n      dup4\n      iszero\n      iszero\n      mul\n      or\n      swap1\n      sstore\n      pop\n        /* \"smart-contract/BetCandidate.sol\":4594:4599  owner */\n      immutable(\"0x6bcaf047ba4c8ac400fca43393035242dd1aabda2d6068a0c51242b97224de8d\")\n        /* \"smart-contract/BetCandidate.sol\":4586:4609  payable(owner).transfer */\n      0xffffffffffffffffffffffffffffffffffffffff\n      and\n        /* \"smart-contract/BetCandidate.sol\":4586:4621  payable(owner).transfer(commission) */\n      0x08fc\n        /* \"smart-contract/BetCandidate.sol\":4610:4620  commission */\n      dup3\n        /* \"smart-contract/BetCandidate.sol\":4586:4621  payable(owner).transfer(commission) */\n      swap1\n      dup2\n      iszero\n      mul\n      swap1\n      mload(0x40)\n      0x00\n      mload(0x40)\n      dup1\n      dup4\n      sub\n      dup2\n      dup6\n      dup9\n      dup9\n      call\n      swap4\n      pop\n      pop\n      pop\n      pop\n      iszero\n      dup1\n      iszero\n      tag_140\n      jumpi\n      returndatasize\n      0x00\n      dup1\n      returndatacopy\n      revert(0x00, returndatasize)\n    tag_140:\n      pop\n        /* \"smart-contract/BetCandidate.sol\":4142:4629  {... */\n      pop\n      pop\n        /* \"smart-contract/BetCandidate.sol\":4103:4629  function withdrawCommission() external {... */\n      jump\t// out\n        /* \"smart-contract/BetCandidate.sol\":4641:5371  function claim() external {... */\n    tag_47:\n        /* \"smart-contract/BetCandidate.sol\":4678:4697  Bet storage userBet */\n      0x00\n        /* \"smart-contract/BetCandidate.sol\":4700:4707  allBets */\n      0x0a\n        /* \"smart-contract/BetCandidate.sol\":4700:4719  allBets[msg.sender] */\n      0x00\n        /* \"smart-contract/BetCandidate.sol\":4708:4718  msg.sender */\n      caller\n        /* \"smart-contract/BetCandidate.sol\":4700:4719  allBets[msg.sender] */\n      0xffffffffffffffffffffffffffffffffffffffff\n      and\n      0xffffffffffffffffffffffffffffffffffffffff\n      and\n      dup2\n      mstore\n      0x20\n      add\n      swap1\n      dup2\n      mstore\n      0x20\n      add\n      0x00\n      keccak256\n        /* \"smart-contract/BetCandidate.sol\":4678:4719  Bet storage userBet = allBets[msg.sender] */\n      swap1\n      pop\n        /* \"smart-contract/BetCandidate.sol\":4755:4756  0 */\n      0x00\n        /* \"smart-contract/BetCandidate.sol\":4738:4745  dispute */\n      dup1\n        /* \"smart-contract/BetCandidate.sol\":4738:4752  dispute.winner */\n      0x09\n      add\n      sload\n        /* \"smart-contract/BetCandidate.sol\":4738:4756  dispute.winner > 0 */\n      gt\n        /* \"smart-contract/BetCandidate.sol\":4738:4795  dispute.winner > 0 && dispute.winner == userBet.candidate */\n      dup1\n      iszero\n      tag_142\n      jumpi\n      pop\n        /* \"smart-contract/BetCandidate.sol\":4778:4785  userBet */\n      dup1\n        /* \"smart-contract/BetCandidate.sol\":4778:4795  userBet.candidate */\n      0x01\n      add\n      sload\n        /* \"smart-contract/BetCandidate.sol\":4760:4767  dispute */\n      0x00\n        /* \"smart-contract/BetCandidate.sol\":4760:4774  dispute.winner */\n      0x09\n      add\n      sload\n        /* \"smart-contract/BetCandidate.sol\":4760:4795  dispute.winner == userBet.candidate */\n      eq\n        /* \"smart-contract/BetCandidate.sol\":4738:4795  dispute.winner > 0 && dispute.winner == userBet.candidate */\n    tag_142:\n        /* \"smart-contract/BetCandidate.sol\":4738:4819  dispute.winner > 0 && dispute.winner == userBet.candidate && userBet.claimed == 0 */\n      dup1\n      iszero\n      tag_143\n      jumpi\n      pop\n        /* \"smart-contract/BetCandidate.sol\":4818:4819  0 */\n      0x00\n        /* \"smart-contract/BetCandidate.sol\":4799:4806  userBet */\n      dup2\n        /* \"smart-contract/BetCandidate.sol\":4799:4814  userBet.claimed */\n      0x03\n      add\n      sload\n        /* \"smart-contract/BetCandidate.sol\":4799:4819  userBet.claimed == 0 */\n      eq\n        /* \"smart-contract/BetCandidate.sol\":4738:4819  dispute.winner > 0 && dispute.winner == userBet.candidate && userBet.claimed == 0 */\n    tag_143:\n        /* \"smart-contract/BetCandidate.sol\":4730:4837  require(dispute.winner > 0 && dispute.winner == userBet.candidate && userBet.claimed == 0, \"Invalid claim\") */\n      tag_144\n      jumpi\n      mload(0x40)\n      0x08c379a000000000000000000000000000000000000000000000000000000000\n      dup2\n      mstore\n      0x04\n      add\n      tag_145\n      swap1\n      tag_146\n      jump\t// in\n    tag_145:\n      mload(0x40)\n      dup1\n      swap2\n      sub\n      swap1\n      revert\n    tag_144:\n        /* \"smart-contract/BetCandidate.sol\":4850:4867  uint winnerAmount */\n      0x00\n        /* \"smart-contract/BetCandidate.sol\":4899:4900  1 */\n      0x01\n        /* \"smart-contract/BetCandidate.sol\":4881:4888  dispute */\n      0x00\n        /* \"smart-contract/BetCandidate.sol\":4881:4895  dispute.winner */\n      0x09\n      add\n      sload\n        /* \"smart-contract/BetCandidate.sol\":4881:4900  dispute.winner == 1 */\n      sub\n        /* \"smart-contract/BetCandidate.sol\":4878:5145  if(dispute.winner == 1){... */\n      tag_147\n      jumpi\n        /* \"smart-contract/BetCandidate.sol\":4931:4938  dispute */\n      0x00\n        /* \"smart-contract/BetCandidate.sol\":4931:4945  dispute.total1 */\n      0x06\n      add\n      sload\n        /* \"smart-contract/BetCandidate.sol\":4916:4945  winnerAmount = dispute.total1 */\n      swap1\n      pop\n        /* \"smart-contract/BetCandidate.sol\":4878:5145  if(dispute.winner == 1){... */\n      jump(tag_148)\n    tag_147:\n        /* \"smart-contract/BetCandidate.sol\":4993:4994  2 */\n      0x02\n        /* \"smart-contract/BetCandidate.sol\":4975:4982  dispute */\n      0x00\n        /* \"smart-contract/BetCandidate.sol\":4975:4989  dispute.winner */\n      0x09\n      add\n      sload\n        /* \"smart-contract/BetCandidate.sol\":4975:4994  dispute.winner == 2 */\n      sub\n        /* \"smart-contract/BetCandidate.sol\":4972:5145  if(dispute.winner == 2){... */\n      tag_149\n      jumpi\n        /* \"smart-contract/BetCandidate.sol\":5025:5032  dispute */\n      0x00\n        /* \"smart-contract/BetCandidate.sol\":5025:5039  dispute.total2 */\n      0x07\n      add\n      sload\n        /* \"smart-contract/BetCandidate.sol\":5010:5039  winnerAmount = dispute.total2 */\n      swap1\n      pop\n        /* \"smart-contract/BetCandidate.sol\":4972:5145  if(dispute.winner == 2){... */\n      jump(tag_150)\n    tag_149:\n        /* \"smart-contract/BetCandidate.sol\":5119:5126  dispute */\n      0x00\n        /* \"smart-contract/BetCandidate.sol\":5119:5133  dispute.total3 */\n      0x08\n      add\n      sload\n        /* \"smart-contract/BetCandidate.sol\":5104:5133  winnerAmount = dispute.total3 */\n      swap1\n      pop\n        /* \"smart-contract/BetCandidate.sol\":4972:5145  if(dispute.winner == 2){... */\n    tag_150:\n        /* \"smart-contract/BetCandidate.sol\":4878:5145  if(dispute.winner == 1){... */\n    tag_148:\n        /* \"smart-contract/BetCandidate.sol\":5157:5167  uint ratio */\n      0x00\n        /* \"smart-contract/BetCandidate.sol\":5195:5207  winnerAmount */\n      dup2\n        /* \"smart-contract/BetCandidate.sol\":5188:5191  1e4 */\n      0x2710\n        /* \"smart-contract/BetCandidate.sol\":5171:5178  userBet */\n      dup5\n        /* \"smart-contract/BetCandidate.sol\":5171:5185  userBet.amount */\n      0x00\n      add\n      sload\n        /* \"smart-contract/BetCandidate.sol\":5171:5191  userBet.amount * 1e4 */\n      tag_151\n      swap2\n      swap1\n      tag_136\n      jump\t// in\n    tag_151:\n        /* \"smart-contract/BetCandidate.sol\":5170:5207  (userBet.amount * 1e4) / winnerAmount */\n      tag_152\n      swap2\n      swap1\n      tag_138\n      jump\t// in\n    tag_152:\n        /* \"smart-contract/BetCandidate.sol\":5157:5207  uint ratio = (userBet.amount * 1e4) / winnerAmount */\n      swap1\n      pop\n        /* \"smart-contract/BetCandidate.sol\":5218:5238  uint individualPrize */\n      0x00\n        /* \"smart-contract/BetCandidate.sol\":5260:5263  1e4 */\n      0x2710\n        /* \"smart-contract/BetCandidate.sol\":5252:5257  ratio */\n      dup3\n        /* \"smart-contract/BetCandidate.sol\":5241:5249  netPrize */\n      sload(0x0c)\n        /* \"smart-contract/BetCandidate.sol\":5241:5257  netPrize * ratio */\n      tag_153\n      swap2\n      swap1\n      tag_136\n      jump\t// in\n    tag_153:\n        /* \"smart-contract/BetCandidate.sol\":5241:5263  netPrize * ratio / 1e4 */\n      tag_154\n      swap2\n      swap1\n      tag_138\n      jump\t// in\n    tag_154:\n        /* \"smart-contract/BetCandidate.sol\":5218:5263  uint individualPrize = netPrize * ratio / 1e4 */\n      swap1\n      pop\n        /* \"smart-contract/BetCandidate.sol\":5292:5307  individualPrize */\n      dup1\n        /* \"smart-contract/BetCandidate.sol\":5274:5281  userBet */\n      dup5\n        /* \"smart-contract/BetCandidate.sol\":5274:5289  userBet.claimed */\n      0x03\n      add\n        /* \"smart-contract/BetCandidate.sol\":5274:5307  userBet.claimed = individualPrize */\n      dup2\n      swap1\n      sstore\n      pop\n        /* \"smart-contract/BetCandidate.sol\":5326:5336  msg.sender */\n      caller\n        /* \"smart-contract/BetCandidate.sol\":5318:5346  payable(msg.sender).transfer */\n      0xffffffffffffffffffffffffffffffffffffffff\n      and\n        /* \"smart-contract/BetCandidate.sol\":5318:5363  payable(msg.sender).transfer(individualPrize) */\n      0x08fc\n        /* \"smart-contract/BetCandidate.sol\":5347:5362  individualPrize */\n      dup3\n        /* \"smart-contract/BetCandidate.sol\":5318:5363  payable(msg.sender).transfer(individualPrize) */\n      swap1\n      dup2\n      iszero\n      mul\n      swap1\n      mload(0x40)\n      0x00\n      mload(0x40)\n      dup1\n      dup4\n      sub\n      dup2\n      dup6\n      dup9\n      dup9\n      call\n      swap4\n      pop\n      pop\n      pop\n      pop\n      iszero\n      dup1\n      iszero\n      tag_156\n      jumpi\n      returndatasize\n      0x00\n      dup1\n      returndatacopy\n      revert(0x00, returndatasize)\n    tag_156:\n      pop\n        /* \"smart-contract/BetCandidate.sol\":4667:5371  {... */\n      pop\n      pop\n      pop\n      pop\n        /* \"smart-contract/BetCandidate.sol\":4641:5371  function claim() external {... */\n      jump\t// out\n        /* \"smart-contract/BetCandidate.sol\":703:728  uint public totalBettors2 */\n    tag_50:\n      sload(0x10)\n      dup2\n      jump\t// out\n        /* \"smart-contract/BetCandidate.sol\":4063:4094  bool public commissionWithdrawn */\n    tag_54:\n      0x12\n      0x00\n      swap1\n      sload\n      swap1\n      0x0100\n      exp\n      swap1\n      div\n      0xff\n      and\n      dup2\n      jump\t// out\n        /* \"smart-contract/BetCandidate.sol\":2545:3480  function bet(uint candidate) external payable {... */\n    tag_60:\n        /* \"smart-contract/BetCandidate.sol\":2629:2639  betEndTime */\n      sload(0x0d)\n        /* \"smart-contract/BetCandidate.sol\":2610:2625  block.timestamp */\n      timestamp\n        /* \"smart-contract/BetCandidate.sol\":2610:2639  block.timestamp <= betEndTime */\n      gt\n      iszero\n        /* \"smart-contract/BetCandidate.sol\":2602:2666  require(block.timestamp <= betEndTime, \"Betting period is over\") */\n      tag_158\n      jumpi\n      mload(0x40)\n      0x08c379a000000000000000000000000000000000000000000000000000000000\n      dup2\n      mstore\n      0x04\n      add\n      tag_159\n      swap1\n      tag_160\n      jump\t// in\n    tag_159:\n      mload(0x40)\n      dup1\n      swap2\n      sub\n      swap1\n      revert\n    tag_158:\n        /* \"smart-contract/BetCandidate.sol\":2698:2699  1 */\n      0x01\n        /* \"smart-contract/BetCandidate.sol\":2685:2694  candidate */\n      dup2\n        /* \"smart-contract/BetCandidate.sol\":2685:2699  candidate == 1 */\n      eq\n        /* \"smart-contract/BetCandidate.sol\":2685:2717  candidate == 1 || candidate == 2 */\n      dup1\n      tag_161\n      jumpi\n      pop\n        /* \"smart-contract/BetCandidate.sol\":2716:2717  2 */\n      0x02\n        /* \"smart-contract/BetCandidate.sol\":2703:2712  candidate */\n      dup2\n        /* \"smart-contract/BetCandidate.sol\":2703:2717  candidate == 2 */\n      eq\n        /* \"smart-contract/BetCandidate.sol\":2685:2717  candidate == 1 || candidate == 2 */\n    tag_161:\n        /* \"smart-contract/BetCandidate.sol\":2685:2735  candidate == 1 || candidate == 2 || candidate == 3 */\n      dup1\n      tag_162\n      jumpi\n      pop\n        /* \"smart-contract/BetCandidate.sol\":2734:2735  3 */\n      0x03\n        /* \"smart-contract/BetCandidate.sol\":2721:2730  candidate */\n      dup2\n        /* \"smart-contract/BetCandidate.sol\":2721:2735  candidate == 3 */\n      eq\n        /* \"smart-contract/BetCandidate.sol\":2685:2735  candidate == 1 || candidate == 2 || candidate == 3 */\n    tag_162:\n        /* \"smart-contract/BetCandidate.sol\":2677:2757  require(candidate == 1 || candidate == 2 || candidate == 3, \"Invalid candidate\") */\n      tag_163\n      jumpi\n      mload(0x40)\n      0x08c379a000000000000000000000000000000000000000000000000000000000\n      dup2\n      mstore\n      0x04\n      add\n      tag_164\n      swap1\n      tag_165\n      jump\t// in\n    tag_164:\n      mload(0x40)\n      dup1\n      swap2\n      sub\n      swap1\n      revert\n    tag_163:\n        /* \"smart-contract/BetCandidate.sol\":2788:2789  0 */\n      0x00\n        /* \"smart-contract/BetCandidate.sol\":2776:2785  msg.value */\n      callvalue\n        /* \"smart-contract/BetCandidate.sol\":2776:2789  msg.value > 0 */\n      gt\n        /* \"smart-contract/BetCandidate.sol\":2768:2805  require(msg.value > 0, \"Invalid bet\") */\n      tag_166\n      jumpi\n      mload(0x40)\n      0x08c379a000000000000000000000000000000000000000000000000000000000\n      dup2\n      mstore\n      0x04\n      add\n      tag_167\n      swap1\n      tag_168\n      jump\t// in\n    tag_167:\n      mload(0x40)\n      dup1\n      swap2\n      sub\n      swap1\n      revert\n    tag_166:\n        /* \"smart-contract/BetCandidate.sol\":2842:2843  0 */\n      0x00\n        /* \"smart-contract/BetCandidate.sol\":2824:2831  dispute */\n      dup1\n        /* \"smart-contract/BetCandidate.sol\":2824:2838  dispute.winner */\n      0x09\n      add\n      sload\n        /* \"smart-contract/BetCandidate.sol\":2824:2843  dispute.winner == 0 */\n      eq\n        /* \"smart-contract/BetCandidate.sol\":2816:2862  require(dispute.winner == 0, \"Dispute closed\") */\n      tag_169\n      jumpi\n      mload(0x40)\n      0x08c379a000000000000000000000000000000000000000000000000000000000\n      dup2\n      mstore\n      0x04\n      add\n      tag_170\n      swap1\n      tag_171\n      jump\t// in\n    tag_170:\n      mload(0x40)\n      dup1\n      swap2\n      sub\n      swap1\n      revert\n    tag_169:\n        /* \"smart-contract/BetCandidate.sol\":2911:2912  0 */\n      0x00\n        /* \"smart-contract/BetCandidate.sol\":2881:2888  allBets */\n      0x0a\n        /* \"smart-contract/BetCandidate.sol\":2881:2900  allBets[msg.sender] */\n      0x00\n        /* \"smart-contract/BetCandidate.sol\":2889:2899  msg.sender */\n      caller\n        /* \"smart-contract/BetCandidate.sol\":2881:2900  allBets[msg.sender] */\n      0xffffffffffffffffffffffffffffffffffffffff\n      and\n      0xffffffffffffffffffffffffffffffffffffffff\n      and\n      dup2\n      mstore\n      0x20\n      add\n      swap1\n      dup2\n      mstore\n      0x20\n      add\n      0x00\n      keccak256\n        /* \"smart-contract/BetCandidate.sol\":2881:2907  allBets[msg.sender].amount */\n      0x00\n      add\n      sload\n        /* \"smart-contract/BetCandidate.sol\":2881:2912  allBets[msg.sender].amount == 0 */\n      eq\n        /* \"smart-contract/BetCandidate.sol\":2873:2937  require(allBets[msg.sender].amount == 0, \"Already placed a bet\") */\n      tag_172\n      jumpi\n      mload(0x40)\n      0x08c379a000000000000000000000000000000000000000000000000000000000\n      dup2\n      mstore\n      0x04\n      add\n      tag_173\n      swap1\n      tag_174\n      jump\t// in\n    tag_173:\n      mload(0x40)\n      dup1\n      swap2\n      sub\n      swap1\n      revert\n    tag_172:\n        /* \"smart-contract/BetCandidate.sol\":2950:2967  Bet memory newBet */\n      tag_175\n      tag_176\n      jump\t// in\n    tag_175:\n        /* \"smart-contract/BetCandidate.sol\":2994:3003  msg.value */\n      callvalue\n        /* \"smart-contract/BetCandidate.sol\":2978:2984  newBet */\n      dup2\n        /* \"smart-contract/BetCandidate.sol\":2978:2991  newBet.amount */\n      0x00\n      add\n        /* \"smart-contract/BetCandidate.sol\":2978:3003  newBet.amount = msg.value */\n      dup2\n      dup2\n      mstore\n      pop\n      pop\n        /* \"smart-contract/BetCandidate.sol\":3033:3042  candidate */\n      dup2\n        /* \"smart-contract/BetCandidate.sol\":3014:3020  newBet */\n      dup2\n        /* \"smart-contract/BetCandidate.sol\":3014:3030  newBet.candidate */\n      0x20\n      add\n        /* \"smart-contract/BetCandidate.sol\":3014:3042  newBet.candidate = candidate */\n      dup2\n      dup2\n      mstore\n      pop\n      pop\n        /* \"smart-contract/BetCandidate.sol\":3072:3087  block.timestamp */\n      timestamp\n        /* \"smart-contract/BetCandidate.sol\":3053:3059  newBet */\n      dup2\n        /* \"smart-contract/BetCandidate.sol\":3053:3069  newBet.timestamp */\n      0x40\n      add\n        /* \"smart-contract/BetCandidate.sol\":3053:3087  newBet.timestamp = block.timestamp */\n      dup2\n      dup2\n      mstore\n      pop\n      pop\n        /* \"smart-contract/BetCandidate.sol\":3122:3128  newBet */\n      dup1\n        /* \"smart-contract/BetCandidate.sol\":3100:3107  allBets */\n      0x0a\n        /* \"smart-contract/BetCandidate.sol\":3100:3119  allBets[msg.sender] */\n      0x00\n        /* \"smart-contract/BetCandidate.sol\":3108:3118  msg.sender */\n      caller\n        /* \"smart-contract/BetCandidate.sol\":3100:3119  allBets[msg.sender] */\n      0xffffffffffffffffffffffffffffffffffffffff\n      and\n      0xffffffffffffffffffffffffffffffffffffffff\n      and\n      dup2\n      mstore\n      0x20\n      add\n      swap1\n      dup2\n      mstore\n      0x20\n      add\n      0x00\n      keccak256\n        /* \"smart-contract/BetCandidate.sol\":3100:3128  allBets[msg.sender] = newBet */\n      0x00\n      dup3\n      add\n      mload\n      dup2\n      0x00\n      add\n      sstore\n      0x20\n      dup3\n      add\n      mload\n      dup2\n      0x01\n      add\n      sstore\n      0x40\n      dup3\n      add\n      mload\n      dup2\n      0x02\n      add\n      sstore\n      0x60\n      dup3\n      add\n      mload\n      dup2\n      0x03\n      add\n      sstore\n      swap1\n      pop\n      pop\n        /* \"smart-contract/BetCandidate.sol\":3157:3158  1 */\n      0x01\n        /* \"smart-contract/BetCandidate.sol\":3144:3153  candidate */\n      dup3\n        /* \"smart-contract/BetCandidate.sol\":3144:3158  candidate == 1 */\n      sub\n        /* \"smart-contract/BetCandidate.sol\":3141:3473  if(candidate == 1) {... */\n      tag_177\n      jumpi\n        /* \"smart-contract/BetCandidate.sol\":3193:3202  msg.value */\n      callvalue\n        /* \"smart-contract/BetCandidate.sol\":3175:3182  dispute */\n      0x00\n        /* \"smart-contract/BetCandidate.sol\":3175:3189  dispute.total1 */\n      0x06\n      add\n      0x00\n        /* \"smart-contract/BetCandidate.sol\":3175:3202  dispute.total1 += msg.value */\n      dup3\n      dup3\n      sload\n      tag_178\n      swap2\n      swap1\n      tag_133\n      jump\t// in\n    tag_178:\n      swap3\n      pop\n      pop\n      dup2\n      swap1\n      sstore\n      pop\n        /* \"smart-contract/BetCandidate.sol\":3234:3235  1 */\n      0x01\n        /* \"smart-contract/BetCandidate.sol\":3217:3230  totalBettors1 */\n      0x0f\n      0x00\n        /* \"smart-contract/BetCandidate.sol\":3217:3235  totalBettors1 += 1 */\n      dup3\n      dup3\n      sload\n      tag_179\n      swap2\n      swap1\n      tag_133\n      jump\t// in\n    tag_179:\n      swap3\n      pop\n      pop\n      dup2\n      swap1\n      sstore\n      pop\n        /* \"smart-contract/BetCandidate.sol\":3141:3473  if(candidate == 1) {... */\n      jump(tag_180)\n    tag_177:\n        /* \"smart-contract/BetCandidate.sol\":3278:3279  2 */\n      0x02\n        /* \"smart-contract/BetCandidate.sol\":3265:3274  candidate */\n      dup3\n        /* \"smart-contract/BetCandidate.sol\":3265:3279  candidate == 2 */\n      sub\n        /* \"smart-contract/BetCandidate.sol\":3262:3473  if(candidate == 2){... */\n      tag_181\n      jumpi\n        /* \"smart-contract/BetCandidate.sol\":3313:3322  msg.value */\n      callvalue\n        /* \"smart-contract/BetCandidate.sol\":3295:3302  dispute */\n      0x00\n        /* \"smart-contract/BetCandidate.sol\":3295:3309  dispute.total2 */\n      0x07\n      add\n      0x00\n        /* \"smart-contract/BetCandidate.sol\":3295:3322  dispute.total2 += msg.value */\n      dup3\n      dup3\n      sload\n      tag_182\n      swap2\n      swap1\n      tag_133\n      jump\t// in\n    tag_182:\n      swap3\n      pop\n      pop\n      dup2\n      swap1\n      sstore\n      pop\n        /* \"smart-contract/BetCandidate.sol\":3354:3355  1 */\n      0x01\n        /* \"smart-contract/BetCandidate.sol\":3337:3350  totalBettors2 */\n      0x10\n      0x00\n        /* \"smart-contract/BetCandidate.sol\":3337:3355  totalBettors2 += 1 */\n      dup3\n      dup3\n      sload\n      tag_183\n      swap2\n      swap1\n      tag_133\n      jump\t// in\n    tag_183:\n      swap3\n      pop\n      pop\n      dup2\n      swap1\n      sstore\n      pop\n        /* \"smart-contract/BetCandidate.sol\":3262:3473  if(candidate == 2){... */\n      jump(tag_184)\n    tag_181:\n        /* \"smart-contract/BetCandidate.sol\":3416:3425  msg.value */\n      callvalue\n        /* \"smart-contract/BetCandidate.sol\":3398:3405  dispute */\n      0x00\n        /* \"smart-contract/BetCandidate.sol\":3398:3412  dispute.total3 */\n      0x08\n      add\n      0x00\n        /* \"smart-contract/BetCandidate.sol\":3398:3425  dispute.total3 += msg.value */\n      dup3\n      dup3\n      sload\n      tag_185\n      swap2\n      swap1\n      tag_133\n      jump\t// in\n    tag_185:\n      swap3\n      pop\n      pop\n      dup2\n      swap1\n      sstore\n      pop\n        /* \"smart-contract/BetCandidate.sol\":3460:3461  1 */\n      0x01\n        /* \"smart-contract/BetCandidate.sol\":3443:3456  totalBettors3 */\n      0x11\n      0x00\n        /* \"smart-contract/BetCandidate.sol\":3443:3461  totalBettors3 += 1 */\n      dup3\n      dup3\n      sload\n      tag_186\n      swap2\n      swap1\n      tag_133\n      jump\t// in\n    tag_186:\n      swap3\n      pop\n      pop\n      dup2\n      swap1\n      sstore\n      pop\n        /* \"smart-contract/BetCandidate.sol\":3262:3473  if(candidate == 2){... */\n    tag_184:\n        /* \"smart-contract/BetCandidate.sol\":3141:3473  if(candidate == 1) {... */\n    tag_180:\n        /* \"smart-contract/BetCandidate.sol\":2591:3480  {... */\n      pop\n        /* \"smart-contract/BetCandidate.sol\":2545:3480  function bet(uint candidate) external payable {... */\n      pop\n      jump\t// out\n        /* \"smart-contract/BetCandidate.sol\":493:523  address public immutable owner */\n    tag_63:\n      immutable(\"0x6bcaf047ba4c8ac400fca43393035242dd1aabda2d6068a0c51242b97224de8d\")\n      dup2\n      jump\t// out\n        /* \"smart-contract/BetCandidate.sol\":2340:2537  function setFinishEndTime(uint _finishEndTime) external onlyOwner {... */\n    tag_69:\n        /* \"smart-contract/BetCandidate.sol\":1372:1377  owner */\n      immutable(\"0x6bcaf047ba4c8ac400fca43393035242dd1aabda2d6068a0c51242b97224de8d\")\n        /* \"smart-contract/BetCandidate.sol\":1358:1377  msg.sender == owner */\n      0xffffffffffffffffffffffffffffffffffffffff\n      and\n        /* \"smart-contract/BetCandidate.sol\":1358:1368  msg.sender */\n      caller\n        /* \"smart-contract/BetCandidate.sol\":1358:1377  msg.sender == owner */\n      0xffffffffffffffffffffffffffffffffffffffff\n      and\n      eq\n        /* \"smart-contract/BetCandidate.sol\":1350:1416  require(msg.sender == owner, \"Only owner can perform this action\") */\n      tag_188\n      jumpi\n      mload(0x40)\n      0x08c379a000000000000000000000000000000000000000000000000000000000\n      dup2\n      mstore\n      0x04\n      add\n      tag_189\n      swap1\n      tag_109\n      jump\t// in\n    tag_189:\n      mload(0x40)\n      dup1\n      swap2\n      sub\n      swap1\n      revert\n    tag_188:\n        /* \"smart-contract/BetCandidate.sol\":2443:2456  finishEndTime */\n      sload(0x0e)\n        /* \"smart-contract/BetCandidate.sol\":2425:2440  block.timestamp */\n      timestamp\n        /* \"smart-contract/BetCandidate.sol\":2425:2456  block.timestamp < finishEndTime */\n      lt\n        /* \"smart-contract/BetCandidate.sol\":2417:2488  require(block.timestamp < finishEndTime, \"Finish period already ended\") */\n      tag_191\n      jumpi\n      mload(0x40)\n      0x08c379a000000000000000000000000000000000000000000000000000000000\n      dup2\n      mstore\n      0x04\n      add\n      tag_192\n      swap1\n      tag_193\n      jump\t// in\n    tag_192:\n      mload(0x40)\n      dup1\n      swap2\n      sub\n      swap1\n      revert\n    tag_191:\n        /* \"smart-contract/BetCandidate.sol\":2515:2529  _finishEndTime */\n      dup1\n        /* \"smart-contract/BetCandidate.sol\":2499:2512  finishEndTime */\n      0x0e\n        /* \"smart-contract/BetCandidate.sol\":2499:2529  finishEndTime = _finishEndTime */\n      dup2\n      swap1\n      sstore\n      pop\n        /* \"smart-contract/BetCandidate.sol\":2340:2537  function setFinishEndTime(uint _finishEndTime) external onlyOwner {... */\n      pop\n      jump\t// out\n        /* \"smart-contract/BetCandidate.sol\":446:484  mapping(address => Bet) public allBets */\n    tag_74:\n      mstore(0x20, 0x0a)\n      dup1\n      0x00\n      mstore\n      keccak256(0x00, 0x40)\n      0x00\n      swap2\n      pop\n      swap1\n      pop\n      dup1\n      0x00\n      add\n      sload\n      swap1\n      dup1\n      0x01\n      add\n      sload\n      swap1\n      dup1\n      0x02\n      add\n      sload\n      swap1\n      dup1\n      0x03\n      add\n      sload\n      swap1\n      pop\n      dup5\n      jump\t// out\n        /* \"smart-contract/BetCandidate.sol\":610:632  uint public betEndTime */\n    tag_79:\n      sload(0x0d)\n      dup2\n      jump\t// out\n        /* \"smart-contract/BetCandidate.sol\":2097:2280  function setBetEndTime(uint _betEndTime) external onlyOwner {... */\n    tag_84:\n        /* \"smart-contract/BetCandidate.sol\":1372:1377  owner */\n      immutable(\"0x6bcaf047ba4c8ac400fca43393035242dd1aabda2d6068a0c51242b97224de8d\")\n        /* \"smart-contract/BetCandidate.sol\":1358:1377  msg.sender == owner */\n      0xffffffffffffffffffffffffffffffffffffffff\n      and\n        /* \"smart-contract/BetCandidate.sol\":1358:1368  msg.sender */\n      caller\n        /* \"smart-contract/BetCandidate.sol\":1358:1377  msg.sender == owner */\n      0xffffffffffffffffffffffffffffffffffffffff\n      and\n      eq\n        /* \"smart-contract/BetCandidate.sol\":1350:1416  require(msg.sender == owner, \"Only owner can perform this action\") */\n      tag_195\n      jumpi\n      mload(0x40)\n      0x08c379a000000000000000000000000000000000000000000000000000000000\n      dup2\n      mstore\n      0x04\n      add\n      tag_196\n      swap1\n      tag_109\n      jump\t// in\n    tag_196:\n      mload(0x40)\n      dup1\n      swap2\n      sub\n      swap1\n      revert\n    tag_195:\n        /* \"smart-contract/BetCandidate.sol\":2194:2204  betEndTime */\n      sload(0x0d)\n        /* \"smart-contract/BetCandidate.sol\":2176:2191  block.timestamp */\n      timestamp\n        /* \"smart-contract/BetCandidate.sol\":2176:2204  block.timestamp < betEndTime */\n      lt\n        /* \"smart-contract/BetCandidate.sol\":2168:2237  require(block.timestamp < betEndTime, \"Betting period already ended\") */\n      tag_198\n      jumpi\n      mload(0x40)\n      0x08c379a000000000000000000000000000000000000000000000000000000000\n      dup2\n      mstore\n      0x04\n      add\n      tag_199\n      swap1\n      tag_200\n      jump\t// in\n    tag_199:\n      mload(0x40)\n      dup1\n      swap2\n      sub\n      swap1\n      revert\n    tag_198:\n        /* \"smart-contract/BetCandidate.sol\":2261:2272  _betEndTime */\n      dup1\n        /* \"smart-contract/BetCandidate.sol\":2248:2258  betEndTime */\n      0x0d\n        /* \"smart-contract/BetCandidate.sol\":2248:2272  betEndTime = _betEndTime */\n      dup2\n      swap1\n      sstore\n      pop\n        /* \"smart-contract/BetCandidate.sol\":2097:2280  function setBetEndTime(uint _betEndTime) external onlyOwner {... */\n      pop\n      jump\t// out\n        /* \"smart-contract/BetCandidate.sol\":3488:4053  function finish(uint winner) external {... */\n    tag_88:\n        /* \"smart-contract/BetCandidate.sol\":3559:3564  owner */\n      immutable(\"0x6bcaf047ba4c8ac400fca43393035242dd1aabda2d6068a0c51242b97224de8d\")\n        /* \"smart-contract/BetCandidate.sol\":3545:3564  msg.sender == owner */\n      0xffffffffffffffffffffffffffffffffffffffff\n      and\n        /* \"smart-contract/BetCandidate.sol\":3545:3555  msg.sender */\n      caller\n        /* \"smart-contract/BetCandidate.sol\":3545:3564  msg.sender == owner */\n      0xffffffffffffffffffffffffffffffffffffffff\n      and\n      eq\n        /* \"smart-contract/BetCandidate.sol\":3537:3584  require(msg.sender == owner, \"Invalid account\") */\n      tag_202\n      jumpi\n      mload(0x40)\n      0x08c379a000000000000000000000000000000000000000000000000000000000\n      dup2\n      mstore\n      0x04\n      add\n      tag_203\n      swap1\n      tag_204\n      jump\t// in\n    tag_203:\n      mload(0x40)\n      dup1\n      swap2\n      sub\n      swap1\n      revert\n    tag_202:\n        /* \"smart-contract/BetCandidate.sol\":3613:3614  1 */\n      0x01\n        /* \"smart-contract/BetCandidate.sol\":3603:3609  winner */\n      dup2\n        /* \"smart-contract/BetCandidate.sol\":3603:3614  winner == 1 */\n      eq\n        /* \"smart-contract/BetCandidate.sol\":3603:3629  winner == 1 || winner == 2 */\n      dup1\n      tag_205\n      jumpi\n      pop\n        /* \"smart-contract/BetCandidate.sol\":3628:3629  2 */\n      0x02\n        /* \"smart-contract/BetCandidate.sol\":3618:3624  winner */\n      dup2\n        /* \"smart-contract/BetCandidate.sol\":3618:3629  winner == 2 */\n      eq\n        /* \"smart-contract/BetCandidate.sol\":3603:3629  winner == 1 || winner == 2 */\n    tag_205:\n        /* \"smart-contract/BetCandidate.sol\":3603:3644  winner == 1 || winner == 2 || winner == 3 */\n      dup1\n      tag_206\n      jumpi\n      pop\n        /* \"smart-contract/BetCandidate.sol\":3643:3644  3 */\n      0x03\n        /* \"smart-contract/BetCandidate.sol\":3633:3639  winner */\n      dup2\n        /* \"smart-contract/BetCandidate.sol\":3633:3644  winner == 3 */\n      eq\n        /* \"smart-contract/BetCandidate.sol\":3603:3644  winner == 1 || winner == 2 || winner == 3 */\n    tag_206:\n        /* \"smart-contract/BetCandidate.sol\":3595:3666  require(winner == 1 || winner == 2 || winner == 3, \"Invalid candidate\") */\n      tag_207\n      jumpi\n      mload(0x40)\n      0x08c379a000000000000000000000000000000000000000000000000000000000\n      dup2\n      mstore\n      0x04\n      add\n      tag_208\n      swap1\n      tag_165\n      jump\t// in\n    tag_208:\n      mload(0x40)\n      dup1\n      swap2\n      sub\n      swap1\n      revert\n    tag_207:\n        /* \"smart-contract/BetCandidate.sol\":3703:3704  0 */\n      0x00\n        /* \"smart-contract/BetCandidate.sol\":3685:3692  dispute */\n      dup1\n        /* \"smart-contract/BetCandidate.sol\":3685:3699  dispute.winner */\n      0x09\n      add\n      sload\n        /* \"smart-contract/BetCandidate.sol\":3685:3704  dispute.winner == 0 */\n      eq\n        /* \"smart-contract/BetCandidate.sol\":3677:3723  require(dispute.winner == 0, \"Dispute closed\") */\n      tag_209\n      jumpi\n      mload(0x40)\n      0x08c379a000000000000000000000000000000000000000000000000000000000\n      dup2\n      mstore\n      0x04\n      add\n      tag_210\n      swap1\n      tag_171\n      jump\t// in\n    tag_210:\n      mload(0x40)\n      dup1\n      swap2\n      sub\n      swap1\n      revert\n    tag_209:\n        /* \"smart-contract/BetCandidate.sol\":3761:3774  finishEndTime */\n      sload(0x0e)\n        /* \"smart-contract/BetCandidate.sol\":3742:3757  block.timestamp */\n      timestamp\n        /* \"smart-contract/BetCandidate.sol\":3742:3774  block.timestamp >= finishEndTime */\n      lt\n      iszero\n        /* \"smart-contract/BetCandidate.sol\":3734:3815  require(block.timestamp >= finishEndTime, \"Cannot finish before finish end time\") */\n      tag_211\n      jumpi\n      mload(0x40)\n      0x08c379a000000000000000000000000000000000000000000000000000000000\n      dup2\n      mstore\n      0x04\n      add\n      tag_212\n      swap1\n      tag_213\n      jump\t// in\n    tag_212:\n      mload(0x40)\n      dup1\n      swap2\n      sub\n      swap1\n      revert\n    tag_211:\n        /* \"smart-contract/BetCandidate.sol\":3845:3851  winner */\n      dup1\n        /* \"smart-contract/BetCandidate.sol\":3828:3835  dispute */\n      0x00\n        /* \"smart-contract/BetCandidate.sol\":3828:3842  dispute.winner */\n      0x09\n      add\n        /* \"smart-contract/BetCandidate.sol\":3828:3851  dispute.winner = winner */\n      dup2\n      swap1\n      sstore\n      pop\n        /* \"smart-contract/BetCandidate.sol\":3864:3879  uint grossPrize */\n      0x00\n        /* \"smart-contract/BetCandidate.sol\":3916:3923  dispute */\n      dup1\n        /* \"smart-contract/BetCandidate.sol\":3916:3930  dispute.total3 */\n      0x08\n      add\n      sload\n        /* \"smart-contract/BetCandidate.sol\":3899:3906  dispute */\n      0x00\n        /* \"smart-contract/BetCandidate.sol\":3899:3913  dispute.total2 */\n      0x07\n      add\n      sload\n        /* \"smart-contract/BetCandidate.sol\":3882:3889  dispute */\n      0x00\n        /* \"smart-contract/BetCandidate.sol\":3882:3896  dispute.total1 */\n      0x06\n      add\n      sload\n        /* \"smart-contract/BetCandidate.sol\":3882:3913  dispute.total1 + dispute.total2 */\n      tag_214\n      swap2\n      swap1\n      tag_133\n      jump\t// in\n    tag_214:\n        /* \"smart-contract/BetCandidate.sol\":3882:3930  dispute.total1 + dispute.total2 + dispute.total3 */\n      tag_215\n      swap2\n      swap1\n      tag_133\n      jump\t// in\n    tag_215:\n        /* \"smart-contract/BetCandidate.sol\":3864:3930  uint grossPrize = dispute.total1 + dispute.total2 + dispute.total3 */\n      swap1\n      pop\n        /* \"smart-contract/BetCandidate.sol\":3958:3973  uint commission */\n      0x00\n        /* \"smart-contract/BetCandidate.sol\":3997:4000  1e4 */\n      0x2710\n        /* \"smart-contract/BetCandidate.sol\":3990:3993  fee */\n      sload(0x0b)\n        /* \"smart-contract/BetCandidate.sol\":3977:3987  grossPrize */\n      dup4\n        /* \"smart-contract/BetCandidate.sol\":3977:3993  grossPrize * fee */\n      tag_216\n      swap2\n      swap1\n      tag_136\n      jump\t// in\n    tag_216:\n        /* \"smart-contract/BetCandidate.sol\":3976:4000  (grossPrize * fee) / 1e4 */\n      tag_217\n      swap2\n      swap1\n      tag_138\n      jump\t// in\n    tag_217:\n        /* \"smart-contract/BetCandidate.sol\":3958:4000  uint commission = (grossPrize * fee) / 1e4 */\n      swap1\n      pop\n        /* \"smart-contract/BetCandidate.sol\":4035:4045  commission */\n      dup1\n        /* \"smart-contract/BetCandidate.sol\":4022:4032  grossPrize */\n      dup3\n        /* \"smart-contract/BetCandidate.sol\":4022:4045  grossPrize - commission */\n      tag_218\n      swap2\n      swap1\n      tag_219\n      jump\t// in\n    tag_218:\n        /* \"smart-contract/BetCandidate.sol\":4011:4019  netPrize */\n      0x0c\n        /* \"smart-contract/BetCandidate.sol\":4011:4045  netPrize = grossPrize - commission */\n      dup2\n      swap1\n      sstore\n      pop\n        /* \"smart-contract/BetCandidate.sol\":3526:4053  {... */\n      pop\n      pop\n        /* \"smart-contract/BetCandidate.sol\":3488:4053  function finish(uint winner) external {... */\n      pop\n      jump\t// out\n        /* \"smart-contract/BetCandidate.sol\":530:552  uint public fee = 1000 */\n    tag_91:\n      sload(0x0b)\n      dup2\n      jump\t// out\n        /* \"smart-contract/BetCandidate.sol\":639:664  uint public finishEndTime */\n    tag_95:\n      sload(0x0e)\n      dup2\n      jump\t// out\n        /* \"smart-contract/BetCandidate.sol\":417:439  Dispute public dispute */\n    tag_99:\n      0x00\n      dup1\n      0x00\n      add\n      dup1\n      sload\n      tag_220\n      swap1\n      tag_221\n      jump\t// in\n    tag_220:\n      dup1\n      0x1f\n      add\n      0x20\n      dup1\n      swap2\n      div\n      mul\n      0x20\n      add\n      mload(0x40)\n      swap1\n      dup2\n      add\n      0x40\n      mstore\n      dup1\n      swap3\n      swap2\n      swap1\n      dup2\n      dup2\n      mstore\n      0x20\n      add\n      dup3\n      dup1\n      sload\n      tag_222\n      swap1\n      tag_221\n      jump\t// in\n    tag_222:\n      dup1\n      iszero\n      tag_223\n      jumpi\n      dup1\n      0x1f\n      lt\n      tag_224\n      jumpi\n      0x0100\n      dup1\n      dup4\n      sload\n      div\n      mul\n      dup4\n      mstore\n      swap2\n      0x20\n      add\n      swap2\n      jump(tag_223)\n    tag_224:\n      dup3\n      add\n      swap2\n      swap1\n      0x00\n      mstore\n      keccak256(0x00, 0x20)\n      swap1\n    tag_225:\n      dup2\n      sload\n      dup2\n      mstore\n      swap1\n      0x01\n      add\n      swap1\n      0x20\n      add\n      dup1\n      dup4\n      gt\n      tag_225\n      jumpi\n      dup3\n      swap1\n      sub\n      0x1f\n      and\n      dup3\n      add\n      swap2\n    tag_223:\n      pop\n      pop\n      pop\n      pop\n      pop\n      swap1\n      dup1\n      0x01\n      add\n      dup1\n      sload\n      tag_226\n      swap1\n      tag_221\n      jump\t// in\n    tag_226:\n      dup1\n      0x1f\n      add\n      0x20\n      dup1\n      swap2\n      div\n      mul\n      0x20\n      add\n      mload(0x40)\n      swap1\n      dup2\n      add\n      0x40\n      mstore\n      dup1\n      swap3\n      swap2\n      swap1\n      dup2\n      dup2\n      mstore\n      0x20\n      add\n      dup3\n      dup1\n      sload\n      tag_227\n      swap1\n      tag_221\n      jump\t// in\n    tag_227:\n      dup1\n      iszero\n      tag_228\n      jumpi\n      dup1\n      0x1f\n      lt\n      tag_229\n      jumpi\n      0x0100\n      dup1\n      dup4\n      sload\n      div\n      mul\n      dup4\n      mstore\n      swap2\n      0x20\n      add\n      swap2\n      jump(tag_228)\n    tag_229:\n      dup3\n      add\n      swap2\n      swap1\n      0x00\n      mstore\n      keccak256(0x00, 0x20)\n      swap1\n    tag_230:\n      dup2\n      sload\n      dup2\n      mstore\n      swap1\n      0x01\n      add\n      swap1\n      0x20\n      add\n      dup1\n      dup4\n      gt\n      tag_230\n      jumpi\n      dup3\n      swap1\n      sub\n      0x1f\n      and\n      dup3\n      add\n      swap2\n    tag_228:\n      pop\n      pop\n      pop\n      pop\n      pop\n      swap1\n      dup1\n      0x02\n      add\n      dup1\n      sload\n      tag_231\n      swap1\n      tag_221\n      jump\t// in\n    tag_231:\n      dup1\n      0x1f\n      add\n      0x20\n      dup1\n      swap2\n      div\n      mul\n      0x20\n      add\n      mload(0x40)\n      swap1\n      dup2\n      add\n      0x40\n      mstore\n      dup1\n      swap3\n      swap2\n      swap1\n      dup2\n      dup2\n      mstore\n      0x20\n      add\n      dup3\n      dup1\n      sload\n      tag_232\n      swap1\n      tag_221\n      jump\t// in\n    tag_232:\n      dup1\n      iszero\n      tag_233\n      jumpi\n      dup1\n      0x1f\n      lt\n      tag_234\n      jumpi\n      0x0100\n      dup1\n      dup4\n      sload\n      div\n      mul\n      dup4\n      mstore\n      swap2\n      0x20\n      add\n      swap2\n      jump(tag_233)\n    tag_234:\n      dup3\n      add\n      swap2\n      swap1\n      0x00\n      mstore\n      keccak256(0x00, 0x20)\n      swap1\n    tag_235:\n      dup2\n      sload\n      dup2\n      mstore\n      swap1\n      0x01\n      add\n      swap1\n      0x20\n      add\n      dup1\n      dup4\n      gt\n      tag_235\n      jumpi\n      dup3\n      swap1\n      sub\n      0x1f\n      and\n      dup3\n      add\n      swap2\n    tag_233:\n      pop\n      pop\n      pop\n      pop\n      pop\n      swap1\n      dup1\n      0x03\n      add\n      dup1\n      sload\n      tag_236\n      swap1\n      tag_221\n      jump\t// in\n    tag_236:\n      dup1\n      0x1f\n      add\n      0x20\n      dup1\n      swap2\n      div\n      mul\n      0x20\n      add\n      mload(0x40)\n      swap1\n      dup2\n      add\n      0x40\n      mstore\n      dup1\n      swap3\n      swap2\n      swap1\n      dup2\n      dup2\n      mstore\n      0x20\n      add\n      dup3\n      dup1\n      sload\n      tag_237\n      swap1\n      tag_221\n      jump\t// in\n    tag_237:\n      dup1\n      iszero\n      tag_238\n      jumpi\n      dup1\n      0x1f\n      lt\n      tag_239\n      jumpi\n      0x0100\n      dup1\n      dup4\n      sload\n      div\n      mul\n      dup4\n      mstore\n      swap2\n      0x20\n      add\n      swap2\n      jump(tag_238)\n    tag_239:\n      dup3\n      add\n      swap2\n      swap1\n      0x00\n      mstore\n      keccak256(0x00, 0x20)\n      swap1\n    tag_240:\n      dup2\n      sload\n      dup2\n      mstore\n      swap1\n      0x01\n      add\n      swap1\n      0x20\n      add\n      dup1\n      dup4\n      gt\n      tag_240\n      jumpi\n      dup3\n      swap1\n      sub\n      0x1f\n      and\n      dup3\n      add\n      swap2\n    tag_238:\n      pop\n      pop\n      pop\n      pop\n      pop\n      swap1\n      dup1\n      0x04\n      add\n      dup1\n      sload\n      tag_241\n      swap1\n      tag_221\n      jump\t// in\n    tag_241:\n      dup1\n      0x1f\n      add\n      0x20\n      dup1\n      swap2\n      div\n      mul\n      0x20\n      add\n      mload(0x40)\n      swap1\n      dup2\n      add\n      0x40\n      mstore\n      dup1\n      swap3\n      swap2\n      swap1\n      dup2\n      dup2\n      mstore\n      0x20\n      add\n      dup3\n      dup1\n      sload\n      tag_242\n      swap1\n      tag_221\n      jump\t// in\n    tag_242:\n      dup1\n      iszero\n      tag_243\n      jumpi\n      dup1\n      0x1f\n      lt\n      tag_244\n      jumpi\n      0x0100\n      dup1\n      dup4\n      sload\n      div\n      mul\n      dup4\n      mstore\n      swap2\n      0x20\n      add\n      swap2\n      jump(tag_243)\n    tag_244:\n      dup3\n      add\n      swap2\n      swap1\n      0x00\n      mstore\n      keccak256(0x00, 0x20)\n      swap1\n    tag_245:\n      dup2\n      sload\n      dup2\n      mstore\n      swap1\n      0x01\n      add\n      swap1\n      0x20\n      add\n      dup1\n      dup4\n      gt\n      tag_245\n      jumpi\n      dup3\n      swap1\n      sub\n      0x1f\n      and\n      dup3\n      add\n      swap2\n    tag_243:\n      pop\n      pop\n      pop\n      pop\n      pop\n      swap1\n      dup1\n      0x05\n      add\n      dup1\n      sload\n      tag_246\n      swap1\n      tag_221\n      jump\t// in\n    tag_246:\n      dup1\n      0x1f\n      add\n      0x20\n      dup1\n      swap2\n      div\n      mul\n      0x20\n      add\n      mload(0x40)\n      swap1\n      dup2\n      add\n      0x40\n      mstore\n      dup1\n      swap3\n      swap2\n      swap1\n      dup2\n      dup2\n      mstore\n      0x20\n      add\n      dup3\n      dup1\n      sload\n      tag_247\n      swap1\n      tag_221\n      jump\t// in\n    tag_247:\n      dup1\n      iszero\n      tag_248\n      jumpi\n      dup1\n      0x1f\n      lt\n      tag_249\n      jumpi\n      0x0100\n      dup1\n      dup4\n      sload\n      div\n      mul\n      dup4\n      mstore\n      swap2\n      0x20\n      add\n      swap2\n      jump(tag_248)\n    tag_249:\n      dup3\n      add\n      swap2\n      swap1\n      0x00\n      mstore\n      keccak256(0x00, 0x20)\n      swap1\n    tag_250:\n      dup2\n      sload\n      dup2\n      mstore\n      swap1\n      0x01\n      add\n      swap1\n      0x20\n      add\n      dup1\n      dup4\n      gt\n      tag_250\n      jumpi\n      dup3\n      swap1\n      sub\n      0x1f\n      and\n      dup3\n      add\n      swap2\n    tag_248:\n      pop\n      pop\n      pop\n      pop\n      pop\n      swap1\n      dup1\n      0x06\n      add\n      sload\n      swap1\n      dup1\n      0x07\n      add\n      sload\n      swap1\n      dup1\n      0x08\n      add\n      sload\n      swap1\n      dup1\n      0x09\n      add\n      sload\n      swap1\n      pop\n      dup11\n      jump\t// out\n        /* \"smart-contract/BetCandidate.sol\":735:760  uint public totalBettors3 */\n    tag_104:\n      sload(0x11)\n      dup2\n      jump\t// out\n    tag_176:\n      mload(0x40)\n      dup1\n      0x80\n      add\n      0x40\n      mstore\n      dup1\n      0x00\n      dup2\n      mstore\n      0x20\n      add\n      0x00\n      dup2\n      mstore\n      0x20\n      add\n      0x00\n      dup2\n      mstore\n      0x20\n      add\n      0x00\n      dup2\n      mstore\n      pop\n      swap1\n      jump\t// out\n        /* \"#utility.yul\":7:84   */\n    tag_251:\n        /* \"#utility.yul\":44:51   */\n      0x00\n        /* \"#utility.yul\":73:78   */\n      dup2\n        /* \"#utility.yul\":62:78   */\n      swap1\n      pop\n        /* \"#utility.yul\":7:84   */\n      swap2\n      swap1\n      pop\n      jump\t// out\n        /* \"#utility.yul\":90:208   */\n    tag_252:\n        /* \"#utility.yul\":177:201   */\n      tag_328\n        /* \"#utility.yul\":195:200   */\n      dup2\n        /* \"#utility.yul\":177:201   */\n      tag_251\n      jump\t// in\n    tag_328:\n        /* \"#utility.yul\":172:175   */\n      dup3\n        /* \"#utility.yul\":165:202   */\n      mstore\n        /* \"#utility.yul\":90:208   */\n      pop\n      pop\n      jump\t// out\n        /* \"#utility.yul\":214:436   */\n    tag_28:\n        /* \"#utility.yul\":307:311   */\n      0x00\n        /* \"#utility.yul\":345:347   */\n      0x20\n        /* \"#utility.yul\":334:343   */\n      dup3\n        /* \"#utility.yul\":330:348   */\n      add\n        /* \"#utility.yul\":322:348   */\n      swap1\n      pop\n        /* \"#utility.yul\":358:429   */\n      tag_330\n        /* \"#utility.yul\":426:427   */\n      0x00\n        /* \"#utility.yul\":415:424   */\n      dup4\n        /* \"#utility.yul\":411:428   */\n      add\n        /* \"#utility.yul\":402:408   */\n      dup5\n        /* \"#utility.yul\":358:429   */\n      tag_252\n      jump\t// in\n    tag_330:\n        /* \"#utility.yul\":214:436   */\n      swap3\n      swap2\n      pop\n      pop\n      jump\t// out\n        /* \"#utility.yul\":442:517   */\n    tag_253:\n        /* \"#utility.yul\":475:481   */\n      0x00\n        /* \"#utility.yul\":508:510   */\n      0x40\n        /* \"#utility.yul\":502:511   */\n      mload\n        /* \"#utility.yul\":492:511   */\n      swap1\n      pop\n        /* \"#utility.yul\":442:517   */\n      swap1\n      jump\t// out\n        /* \"#utility.yul\":523:640   */\n    tag_254:\n        /* \"#utility.yul\":632:633   */\n      0x00\n        /* \"#utility.yul\":629:630   */\n      dup1\n        /* \"#utility.yul\":622:634   */\n      revert\n        /* \"#utility.yul\":646:763   */\n    tag_255:\n        /* \"#utility.yul\":755:756   */\n      0x00\n        /* \"#utility.yul\":752:753   */\n      dup1\n        /* \"#utility.yul\":745:757   */\n      revert\n        /* \"#utility.yul\":769:886   */\n    tag_256:\n        /* \"#utility.yul\":878:879   */\n      0x00\n        /* \"#utility.yul\":875:876   */\n      dup1\n        /* \"#utility.yul\":868:880   */\n      revert\n        /* \"#utility.yul\":892:1009   */\n    tag_257:\n        /* \"#utility.yul\":1001:1002   */\n      0x00\n        /* \"#utility.yul\":998:999   */\n      dup1\n        /* \"#utility.yul\":991:1003   */\n      revert\n        /* \"#utility.yul\":1015:1117   */\n    tag_258:\n        /* \"#utility.yul\":1056:1062   */\n      0x00\n        /* \"#utility.yul\":1107:1109   */\n      0x1f\n        /* \"#utility.yul\":1103:1110   */\n      not\n        /* \"#utility.yul\":1098:1100   */\n      0x1f\n        /* \"#utility.yul\":1091:1096   */\n      dup4\n        /* \"#utility.yul\":1087:1101   */\n      add\n        /* \"#utility.yul\":1083:1111   */\n      and\n        /* \"#utility.yul\":1073:1111   */\n      swap1\n      pop\n        /* \"#utility.yul\":1015:1117   */\n      swap2\n      swap1\n      pop\n      jump\t// out\n        /* \"#utility.yul\":1123:1303   */\n    tag_259:\n        /* \"#utility.yul\":1171:1248   */\n      0x4e487b7100000000000000000000000000000000000000000000000000000000\n        /* \"#utility.yul\":1168:1169   */\n      0x00\n        /* \"#utility.yul\":1161:1249   */\n      mstore\n        /* \"#utility.yul\":1268:1272   */\n      0x41\n        /* \"#utility.yul\":1265:1266   */\n      0x04\n        /* \"#utility.yul\":1258:1273   */\n      mstore\n        /* \"#utility.yul\":1292:1296   */\n      0x24\n        /* \"#utility.yul\":1289:1290   */\n      0x00\n        /* \"#utility.yul\":1282:1297   */\n      revert\n        /* \"#utility.yul\":1309:1590   */\n    tag_260:\n        /* \"#utility.yul\":1392:1419   */\n      tag_339\n        /* \"#utility.yul\":1414:1418   */\n      dup3\n        /* \"#utility.yul\":1392:1419   */\n      tag_258\n      jump\t// in\n    tag_339:\n        /* \"#utility.yul\":1384:1390   */\n      dup2\n        /* \"#utility.yul\":1380:1420   */\n      add\n        /* \"#utility.yul\":1522:1528   */\n      dup2\n        /* \"#utility.yul\":1510:1520   */\n      dup2\n        /* \"#utility.yul\":1507:1529   */\n      lt\n        /* \"#utility.yul\":1486:1504   */\n      0xffffffffffffffff\n        /* \"#utility.yul\":1474:1484   */\n      dup3\n        /* \"#utility.yul\":1471:1505   */\n      gt\n        /* \"#utility.yul\":1468:1530   */\n      or\n        /* \"#utility.yul\":1465:1553   */\n      iszero\n      tag_340\n      jumpi\n        /* \"#utility.yul\":1533:1551   */\n      tag_341\n      tag_259\n      jump\t// in\n    tag_341:\n        /* \"#utility.yul\":1465:1553   */\n    tag_340:\n        /* \"#utility.yul\":1573:1583   */\n      dup1\n        /* \"#utility.yul\":1569:1571   */\n      0x40\n        /* \"#utility.yul\":1562:1584   */\n      mstore\n        /* \"#utility.yul\":1352:1590   */\n      pop\n        /* \"#utility.yul\":1309:1590   */\n      pop\n      pop\n      jump\t// out\n        /* \"#utility.yul\":1596:1725   */\n    tag_261:\n        /* \"#utility.yul\":1630:1636   */\n      0x00\n        /* \"#utility.yul\":1657:1677   */\n      tag_343\n      tag_253\n      jump\t// in\n    tag_343:\n        /* \"#utility.yul\":1647:1677   */\n      swap1\n      pop\n        /* \"#utility.yul\":1686:1719   */\n      tag_344\n        /* \"#utility.yul\":1714:1718   */\n      dup3\n        /* \"#utility.yul\":1706:1712   */\n      dup3\n        /* \"#utility.yul\":1686:1719   */\n      tag_260\n      jump\t// in\n    tag_344:\n        /* \"#utility.yul\":1596:1725   */\n      swap2\n      swap1\n      pop\n      jump\t// out\n        /* \"#utility.yul\":1731:2039   */\n    tag_262:\n        /* \"#utility.yul\":1793:1797   */\n      0x00\n        /* \"#utility.yul\":1883:1901   */\n      0xffffffffffffffff\n        /* \"#utility.yul\":1875:1881   */\n      dup3\n        /* \"#utility.yul\":1872:1902   */\n      gt\n        /* \"#utility.yul\":1869:1925   */\n      iszero\n      tag_346\n      jumpi\n        /* \"#utility.yul\":1905:1923   */\n      tag_347\n      tag_259\n      jump\t// in\n    tag_347:\n        /* \"#utility.yul\":1869:1925   */\n    tag_346:\n        /* \"#utility.yul\":1943:1972   */\n      tag_348\n        /* \"#utility.yul\":1965:1971   */\n      dup3\n        /* \"#utility.yul\":1943:1972   */\n      tag_258\n      jump\t// in\n    tag_348:\n        /* \"#utility.yul\":1935:1972   */\n      swap1\n      pop\n        /* \"#utility.yul\":2027:2031   */\n      0x20\n        /* \"#utility.yul\":2021:2025   */\n      dup2\n        /* \"#utility.yul\":2017:2032   */\n      add\n        /* \"#utility.yul\":2009:2032   */\n      swap1\n      pop\n        /* \"#utility.yul\":1731:2039   */\n      swap2\n      swap1\n      pop\n      jump\t// out\n        /* \"#utility.yul\":2045:2193   */\n    tag_263:\n        /* \"#utility.yul\":2143:2149   */\n      dup3\n        /* \"#utility.yul\":2138:2141   */\n      dup2\n        /* \"#utility.yul\":2133:2136   */\n      dup4\n        /* \"#utility.yul\":2120:2150   */\n      calldatacopy\n        /* \"#utility.yul\":2184:2185   */\n      0x00\n        /* \"#utility.yul\":2175:2181   */\n      dup4\n        /* \"#utility.yul\":2170:2173   */\n      dup4\n        /* \"#utility.yul\":2166:2182   */\n      add\n        /* \"#utility.yul\":2159:2186   */\n      mstore\n        /* \"#utility.yul\":2045:2193   */\n      pop\n      pop\n      pop\n      jump\t// out\n        /* \"#utility.yul\":2199:2624   */\n    tag_264:\n        /* \"#utility.yul\":2277:2282   */\n      0x00\n        /* \"#utility.yul\":2302:2368   */\n      tag_351\n        /* \"#utility.yul\":2318:2367   */\n      tag_352\n        /* \"#utility.yul\":2360:2366   */\n      dup5\n        /* \"#utility.yul\":2318:2367   */\n      tag_262\n      jump\t// in\n    tag_352:\n        /* \"#utility.yul\":2302:2368   */\n      tag_261\n      jump\t// in\n    tag_351:\n        /* \"#utility.yul\":2293:2368   */\n      swap1\n      pop\n        /* \"#utility.yul\":2391:2397   */\n      dup3\n        /* \"#utility.yul\":2384:2389   */\n      dup2\n        /* \"#utility.yul\":2377:2398   */\n      mstore\n        /* \"#utility.yul\":2429:2433   */\n      0x20\n        /* \"#utility.yul\":2422:2427   */\n      dup2\n        /* \"#utility.yul\":2418:2434   */\n      add\n        /* \"#utility.yul\":2467:2470   */\n      dup5\n        /* \"#utility.yul\":2458:2464   */\n      dup5\n        /* \"#utility.yul\":2453:2456   */\n      dup5\n        /* \"#utility.yul\":2449:2465   */\n      add\n        /* \"#utility.yul\":2446:2471   */\n      gt\n        /* \"#utility.yul\":2443:2555   */\n      iszero\n      tag_353\n      jumpi\n        /* \"#utility.yul\":2474:2553   */\n      tag_354\n      tag_257\n      jump\t// in\n    tag_354:\n        /* \"#utility.yul\":2443:2555   */\n    tag_353:\n        /* \"#utility.yul\":2564:2618   */\n      tag_355\n        /* \"#utility.yul\":2611:2617   */\n      dup5\n        /* \"#utility.yul\":2606:2609   */\n      dup3\n        /* \"#utility.yul\":2601:2604   */\n      dup6\n        /* \"#utility.yul\":2564:2618   */\n      tag_263\n      jump\t// in\n    tag_355:\n        /* \"#utility.yul\":2283:2624   */\n      pop\n        /* \"#utility.yul\":2199:2624   */\n      swap4\n      swap3\n      pop\n      pop\n      pop\n      jump\t// out\n        /* \"#utility.yul\":2644:2984   */\n    tag_265:\n        /* \"#utility.yul\":2700:2705   */\n      0x00\n        /* \"#utility.yul\":2749:2752   */\n      dup3\n        /* \"#utility.yul\":2742:2746   */\n      0x1f\n        /* \"#utility.yul\":2734:2740   */\n      dup4\n        /* \"#utility.yul\":2730:2747   */\n      add\n        /* \"#utility.yul\":2726:2753   */\n      slt\n        /* \"#utility.yul\":2716:2838   */\n      tag_357\n      jumpi\n        /* \"#utility.yul\":2757:2836   */\n      tag_358\n      tag_256\n      jump\t// in\n    tag_358:\n        /* \"#utility.yul\":2716:2838   */\n    tag_357:\n        /* \"#utility.yul\":2874:2880   */\n      dup2\n        /* \"#utility.yul\":2861:2881   */\n      calldataload\n        /* \"#utility.yul\":2899:2978   */\n      tag_359\n        /* \"#utility.yul\":2974:2977   */\n      dup5\n        /* \"#utility.yul\":2966:2972   */\n      dup3\n        /* \"#utility.yul\":2959:2963   */\n      0x20\n        /* \"#utility.yul\":2951:2957   */\n      dup7\n        /* \"#utility.yul\":2947:2964   */\n      add\n        /* \"#utility.yul\":2899:2978   */\n      tag_264\n      jump\t// in\n    tag_359:\n        /* \"#utility.yul\":2890:2978   */\n      swap2\n      pop\n        /* \"#utility.yul\":2706:2984   */\n      pop\n        /* \"#utility.yul\":2644:2984   */\n      swap3\n      swap2\n      pop\n      pop\n      jump\t// out\n        /* \"#utility.yul\":2990:4149   */\n    tag_36:\n        /* \"#utility.yul\":3097:3103   */\n      0x00\n        /* \"#utility.yul\":3105:3111   */\n      dup1\n        /* \"#utility.yul\":3113:3119   */\n      0x00\n        /* \"#utility.yul\":3162:3164   */\n      0x60\n        /* \"#utility.yul\":3150:3159   */\n      dup5\n        /* \"#utility.yul\":3141:3148   */\n      dup7\n        /* \"#utility.yul\":3137:3160   */\n      sub\n        /* \"#utility.yul\":3133:3165   */\n      slt\n        /* \"#utility.yul\":3130:3249   */\n      iszero\n      tag_361\n      jumpi\n        /* \"#utility.yul\":3168:3247   */\n      tag_362\n      tag_254\n      jump\t// in\n    tag_362:\n        /* \"#utility.yul\":3130:3249   */\n    tag_361:\n        /* \"#utility.yul\":3316:3317   */\n      0x00\n        /* \"#utility.yul\":3305:3314   */\n      dup5\n        /* \"#utility.yul\":3301:3318   */\n      add\n        /* \"#utility.yul\":3288:3319   */\n      calldataload\n        /* \"#utility.yul\":3346:3364   */\n      0xffffffffffffffff\n        /* \"#utility.yul\":3338:3344   */\n      dup2\n        /* \"#utility.yul\":3335:3365   */\n      gt\n        /* \"#utility.yul\":3332:3449   */\n      iszero\n      tag_363\n      jumpi\n        /* \"#utility.yul\":3368:3447   */\n      tag_364\n      tag_255\n      jump\t// in\n    tag_364:\n        /* \"#utility.yul\":3332:3449   */\n    tag_363:\n        /* \"#utility.yul\":3473:3536   */\n      tag_365\n        /* \"#utility.yul\":3528:3535   */\n      dup7\n        /* \"#utility.yul\":3519:3525   */\n      dup3\n        /* \"#utility.yul\":3508:3517   */\n      dup8\n        /* \"#utility.yul\":3504:3526   */\n      add\n        /* \"#utility.yul\":3473:3536   */\n      tag_265\n      jump\t// in\n    tag_365:\n        /* \"#utility.yul\":3463:3536   */\n      swap4\n      pop\n        /* \"#utility.yul\":3259:3546   */\n      pop\n        /* \"#utility.yul\":3613:3615   */\n      0x20\n        /* \"#utility.yul\":3602:3611   */\n      dup5\n        /* \"#utility.yul\":3598:3616   */\n      add\n        /* \"#utility.yul\":3585:3617   */\n      calldataload\n        /* \"#utility.yul\":3644:3662   */\n      0xffffffffffffffff\n        /* \"#utility.yul\":3636:3642   */\n      dup2\n        /* \"#utility.yul\":3633:3663   */\n      gt\n        /* \"#utility.yul\":3630:3747   */\n      iszero\n      tag_366\n      jumpi\n        /* \"#utility.yul\":3666:3745   */\n      tag_367\n      tag_255\n      jump\t// in\n    tag_367:\n        /* \"#utility.yul\":3630:3747   */\n    tag_366:\n        /* \"#utility.yul\":3771:3834   */\n      tag_368\n        /* \"#utility.yul\":3826:3833   */\n      dup7\n        /* \"#utility.yul\":3817:3823   */\n      dup3\n        /* \"#utility.yul\":3806:3815   */\n      dup8\n        /* \"#utility.yul\":3802:3824   */\n      add\n        /* \"#utility.yul\":3771:3834   */\n      tag_265\n      jump\t// in\n    tag_368:\n        /* \"#utility.yul\":3761:3834   */\n      swap3\n      pop\n        /* \"#utility.yul\":3556:3844   */\n      pop\n        /* \"#utility.yul\":3911:3913   */\n      0x40\n        /* \"#utility.yul\":3900:3909   */\n      dup5\n        /* \"#utility.yul\":3896:3914   */\n      add\n        /* \"#utility.yul\":3883:3915   */\n      calldataload\n        /* \"#utility.yul\":3942:3960   */\n      0xffffffffffffffff\n        /* \"#utility.yul\":3934:3940   */\n      dup2\n        /* \"#utility.yul\":3931:3961   */\n      gt\n        /* \"#utility.yul\":3928:4045   */\n      iszero\n      tag_369\n      jumpi\n        /* \"#utility.yul\":3964:4043   */\n      tag_370\n      tag_255\n      jump\t// in\n    tag_370:\n        /* \"#utility.yul\":3928:4045   */\n    tag_369:\n        /* \"#utility.yul\":4069:4132   */\n      tag_371\n        /* \"#utility.yul\":4124:4131   */\n      dup7\n        /* \"#utility.yul\":4115:4121   */\n      dup3\n        /* \"#utility.yul\":4104:4113   */\n      dup8\n        /* \"#utility.yul\":4100:4122   */\n      add\n        /* \"#utility.yul\":4069:4132   */\n      tag_265\n      jump\t// in\n    tag_371:\n        /* \"#utility.yul\":4059:4132   */\n      swap2\n      pop\n        /* \"#utility.yul\":3854:4142   */\n      pop\n        /* \"#utility.yul\":2990:4149   */\n      swap3\n      pop\n      swap3\n      pop\n      swap3\n      jump\t// out\n        /* \"#utility.yul\":4155:4245   */\n    tag_266:\n        /* \"#utility.yul\":4189:4196   */\n      0x00\n        /* \"#utility.yul\":4232:4237   */\n      dup2\n        /* \"#utility.yul\":4225:4238   */\n      iszero\n        /* \"#utility.yul\":4218:4239   */\n      iszero\n        /* \"#utility.yul\":4207:4239   */\n      swap1\n      pop\n        /* \"#utility.yul\":4155:4245   */\n      swap2\n      swap1\n      pop\n      jump\t// out\n        /* \"#utility.yul\":4251:4360   */\n    tag_267:\n        /* \"#utility.yul\":4332:4353   */\n      tag_374\n        /* \"#utility.yul\":4347:4352   */\n      dup2\n        /* \"#utility.yul\":4332:4353   */\n      tag_266\n      jump\t// in\n    tag_374:\n        /* \"#utility.yul\":4327:4330   */\n      dup3\n        /* \"#utility.yul\":4320:4354   */\n      mstore\n        /* \"#utility.yul\":4251:4360   */\n      pop\n      pop\n      jump\t// out\n        /* \"#utility.yul\":4366:4576   */\n    tag_56:\n        /* \"#utility.yul\":4453:4457   */\n      0x00\n        /* \"#utility.yul\":4491:4493   */\n      0x20\n        /* \"#utility.yul\":4480:4489   */\n      dup3\n        /* \"#utility.yul\":4476:4494   */\n      add\n        /* \"#utility.yul\":4468:4494   */\n      swap1\n      pop\n        /* \"#utility.yul\":4504:4569   */\n      tag_376\n        /* \"#utility.yul\":4566:4567   */\n      0x00\n        /* \"#utility.yul\":4555:4564   */\n      dup4\n        /* \"#utility.yul\":4551:4568   */\n      add\n        /* \"#utility.yul\":4542:4548   */\n      dup5\n        /* \"#utility.yul\":4504:4569   */\n      tag_267\n      jump\t// in\n    tag_376:\n        /* \"#utility.yul\":4366:4576   */\n      swap3\n      swap2\n      pop\n      pop\n      jump\t// out\n        /* \"#utility.yul\":4582:4704   */\n    tag_268:\n        /* \"#utility.yul\":4655:4679   */\n      tag_378\n        /* \"#utility.yul\":4673:4678   */\n      dup2\n        /* \"#utility.yul\":4655:4679   */\n      tag_251\n      jump\t// in\n    tag_378:\n        /* \"#utility.yul\":4648:4653   */\n      dup2\n        /* \"#utility.yul\":4645:4680   */\n      eq\n        /* \"#utility.yul\":4635:4698   */\n      tag_379\n      jumpi\n        /* \"#utility.yul\":4694:4695   */\n      0x00\n        /* \"#utility.yul\":4691:4692   */\n      dup1\n        /* \"#utility.yul\":4684:4696   */\n      revert\n        /* \"#utility.yul\":4635:4698   */\n    tag_379:\n        /* \"#utility.yul\":4582:4704   */\n      pop\n      jump\t// out\n        /* \"#utility.yul\":4710:4849   */\n    tag_269:\n        /* \"#utility.yul\":4756:4761   */\n      0x00\n        /* \"#utility.yul\":4794:4800   */\n      dup2\n        /* \"#utility.yul\":4781:4801   */\n      calldataload\n        /* \"#utility.yul\":4772:4801   */\n      swap1\n      pop\n        /* \"#utility.yul\":4810:4843   */\n      tag_381\n        /* \"#utility.yul\":4837:4842   */\n      dup2\n        /* \"#utility.yul\":4810:4843   */\n      tag_268\n      jump\t// in\n    tag_381:\n        /* \"#utility.yul\":4710:4849   */\n      swap3\n      swap2\n      pop\n      pop\n      jump\t// out\n        /* \"#utility.yul\":4855:5184   */\n    tag_59:\n        /* \"#utility.yul\":4914:4920   */\n      0x00\n        /* \"#utility.yul\":4963:4965   */\n      0x20\n        /* \"#utility.yul\":4951:4960   */\n      dup3\n        /* \"#utility.yul\":4942:4949   */\n      dup5\n        /* \"#utility.yul\":4938:4961   */\n      sub\n        /* \"#utility.yul\":4934:4966   */\n      slt\n        /* \"#utility.yul\":4931:5050   */\n      iszero\n      tag_383\n      jumpi\n        /* \"#utility.yul\":4969:5048   */\n      tag_384\n      tag_254\n      jump\t// in\n    tag_384:\n        /* \"#utility.yul\":4931:5050   */\n    tag_383:\n        /* \"#utility.yul\":5089:5090   */\n      0x00\n        /* \"#utility.yul\":5114:5167   */\n      tag_385\n        /* \"#utility.yul\":5159:5166   */\n      dup5\n        /* \"#utility.yul\":5150:5156   */\n      dup3\n        /* \"#utility.yul\":5139:5148   */\n      dup6\n        /* \"#utility.yul\":5135:5157   */\n      add\n        /* \"#utility.yul\":5114:5167   */\n      tag_269\n      jump\t// in\n    tag_385:\n        /* \"#utility.yul\":5104:5167   */\n      swap2\n      pop\n        /* \"#utility.yul\":5060:5177   */\n      pop\n        /* \"#utility.yul\":4855:5184   */\n      swap3\n      swap2\n      pop\n      pop\n      jump\t// out\n        /* \"#utility.yul\":5190:5316   */\n    tag_270:\n        /* \"#utility.yul\":5227:5234   */\n      0x00\n        /* \"#utility.yul\":5267:5309   */\n      0xffffffffffffffffffffffffffffffffffffffff\n        /* \"#utility.yul\":5260:5265   */\n      dup3\n        /* \"#utility.yul\":5256:5310   */\n      and\n        /* \"#utility.yul\":5245:5310   */\n      swap1\n      pop\n        /* \"#utility.yul\":5190:5316   */\n      swap2\n      swap1\n      pop\n      jump\t// out\n        /* \"#utility.yul\":5322:5418   */\n    tag_271:\n        /* \"#utility.yul\":5359:5366   */\n      0x00\n        /* \"#utility.yul\":5388:5412   */\n      tag_388\n        /* \"#utility.yul\":5406:5411   */\n      dup3\n        /* \"#utility.yul\":5388:5412   */\n      tag_270\n      jump\t// in\n    tag_388:\n        /* \"#utility.yul\":5377:5412   */\n      swap1\n      pop\n        /* \"#utility.yul\":5322:5418   */\n      swap2\n      swap1\n      pop\n      jump\t// out\n        /* \"#utility.yul\":5424:5542   */\n    tag_272:\n        /* \"#utility.yul\":5511:5535   */\n      tag_390\n        /* \"#utility.yul\":5529:5534   */\n      dup2\n        /* \"#utility.yul\":5511:5535   */\n      tag_271\n      jump\t// in\n    tag_390:\n        /* \"#utility.yul\":5506:5509   */\n      dup3\n        /* \"#utility.yul\":5499:5536   */\n      mstore\n        /* \"#utility.yul\":5424:5542   */\n      pop\n      pop\n      jump\t// out\n        /* \"#utility.yul\":5548:5770   */\n    tag_65:\n        /* \"#utility.yul\":5641:5645   */\n      0x00\n        /* \"#utility.yul\":5679:5681   */\n      0x20\n        /* \"#utility.yul\":5668:5677   */\n      dup3\n        /* \"#utility.yul\":5664:5682   */\n      add\n        /* \"#utility.yul\":5656:5682   */\n      swap1\n      pop\n        /* \"#utility.yul\":5692:5763   */\n      tag_392\n        /* \"#utility.yul\":5760:5761   */\n      0x00\n        /* \"#utility.yul\":5749:5758   */\n      dup4\n        /* \"#utility.yul\":5745:5762   */\n      add\n        /* \"#utility.yul\":5736:5742   */\n      dup5\n        /* \"#utility.yul\":5692:5763   */\n      tag_272\n      jump\t// in\n    tag_392:\n        /* \"#utility.yul\":5548:5770   */\n      swap3\n      swap2\n      pop\n      pop\n      jump\t// out\n        /* \"#utility.yul\":5776:5898   */\n    tag_273:\n        /* \"#utility.yul\":5849:5873   */\n      tag_394\n        /* \"#utility.yul\":5867:5872   */\n      dup2\n        /* \"#utility.yul\":5849:5873   */\n      tag_271\n      jump\t// in\n    tag_394:\n        /* \"#utility.yul\":5842:5847   */\n      dup2\n        /* \"#utility.yul\":5839:5874   */\n      eq\n        /* \"#utility.yul\":5829:5892   */\n      tag_395\n      jumpi\n        /* \"#utility.yul\":5888:5889   */\n      0x00\n        /* \"#utility.yul\":5885:5886   */\n      dup1\n        /* \"#utility.yul\":5878:5890   */\n      revert\n        /* \"#utility.yul\":5829:5892   */\n    tag_395:\n        /* \"#utility.yul\":5776:5898   */\n      pop\n      jump\t// out\n        /* \"#utility.yul\":5904:6043   */\n    tag_274:\n        /* \"#utility.yul\":5950:5955   */\n      0x00\n        /* \"#utility.yul\":5988:5994   */\n      dup2\n        /* \"#utility.yul\":5975:5995   */\n      calldataload\n        /* \"#utility.yul\":5966:5995   */\n      swap1\n      pop\n        /* \"#utility.yul\":6004:6037   */\n      tag_397\n        /* \"#utility.yul\":6031:6036   */\n      dup2\n        /* \"#utility.yul\":6004:6037   */\n      tag_273\n      jump\t// in\n    tag_397:\n        /* \"#utility.yul\":5904:6043   */\n      swap3\n      swap2\n      pop\n      pop\n      jump\t// out\n        /* \"#utility.yul\":6049:6378   */\n    tag_73:\n        /* \"#utility.yul\":6108:6114   */\n      0x00\n        /* \"#utility.yul\":6157:6159   */\n      0x20\n        /* \"#utility.yul\":6145:6154   */\n      dup3\n        /* \"#utility.yul\":6136:6143   */\n      dup5\n        /* \"#utility.yul\":6132:6155   */\n      sub\n        /* \"#utility.yul\":6128:6160   */\n      slt\n        /* \"#utility.yul\":6125:6244   */\n      iszero\n      tag_399\n      jumpi\n        /* \"#utility.yul\":6163:6242   */\n      tag_400\n      tag_254\n      jump\t// in\n    tag_400:\n        /* \"#utility.yul\":6125:6244   */\n    tag_399:\n        /* \"#utility.yul\":6283:6284   */\n      0x00\n        /* \"#utility.yul\":6308:6361   */\n      tag_401\n        /* \"#utility.yul\":6353:6360   */\n      dup5\n        /* \"#utility.yul\":6344:6350   */\n      dup3\n        /* \"#utility.yul\":6333:6342   */\n      dup6\n        /* \"#utility.yul\":6329:6351   */\n      add\n        /* \"#utility.yul\":6308:6361   */\n      tag_274\n      jump\t// in\n    tag_401:\n        /* \"#utility.yul\":6298:6361   */\n      swap2\n      pop\n        /* \"#utility.yul\":6254:6371   */\n      pop\n        /* \"#utility.yul\":6049:6378   */\n      swap3\n      swap2\n      pop\n      pop\n      jump\t// out\n        /* \"#utility.yul\":6384:6937   */\n    tag_76:\n        /* \"#utility.yul\":6561:6565   */\n      0x00\n        /* \"#utility.yul\":6599:6602   */\n      0x80\n        /* \"#utility.yul\":6588:6597   */\n      dup3\n        /* \"#utility.yul\":6584:6603   */\n      add\n        /* \"#utility.yul\":6576:6603   */\n      swap1\n      pop\n        /* \"#utility.yul\":6613:6684   */\n      tag_403\n        /* \"#utility.yul\":6681:6682   */\n      0x00\n        /* \"#utility.yul\":6670:6679   */\n      dup4\n        /* \"#utility.yul\":6666:6683   */\n      add\n        /* \"#utility.yul\":6657:6663   */\n      dup8\n        /* \"#utility.yul\":6613:6684   */\n      tag_252\n      jump\t// in\n    tag_403:\n        /* \"#utility.yul\":6694:6766   */\n      tag_404\n        /* \"#utility.yul\":6762:6764   */\n      0x20\n        /* \"#utility.yul\":6751:6760   */\n      dup4\n        /* \"#utility.yul\":6747:6765   */\n      add\n        /* \"#utility.yul\":6738:6744   */\n      dup7\n        /* \"#utility.yul\":6694:6766   */\n      tag_252\n      jump\t// in\n    tag_404:\n        /* \"#utility.yul\":6776:6848   */\n      tag_405\n        /* \"#utility.yul\":6844:6846   */\n      0x40\n        /* \"#utility.yul\":6833:6842   */\n      dup4\n        /* \"#utility.yul\":6829:6847   */\n      add\n        /* \"#utility.yul\":6820:6826   */\n      dup6\n        /* \"#utility.yul\":6776:6848   */\n      tag_252\n      jump\t// in\n    tag_405:\n        /* \"#utility.yul\":6858:6930   */\n      tag_406\n        /* \"#utility.yul\":6926:6928   */\n      0x60\n        /* \"#utility.yul\":6915:6924   */\n      dup4\n        /* \"#utility.yul\":6911:6929   */\n      add\n        /* \"#utility.yul\":6902:6908   */\n      dup5\n        /* \"#utility.yul\":6858:6930   */\n      tag_252\n      jump\t// in\n    tag_406:\n        /* \"#utility.yul\":6384:6937   */\n      swap6\n      swap5\n      pop\n      pop\n      pop\n      pop\n      pop\n      jump\t// out\n        /* \"#utility.yul\":6943:7042   */\n    tag_275:\n        /* \"#utility.yul\":6995:7001   */\n      0x00\n        /* \"#utility.yul\":7029:7034   */\n      dup2\n        /* \"#utility.yul\":7023:7035   */\n      mload\n        /* \"#utility.yul\":7013:7035   */\n      swap1\n      pop\n        /* \"#utility.yul\":6943:7042   */\n      swap2\n      swap1\n      pop\n      jump\t// out\n        /* \"#utility.yul\":7048:7217   */\n    tag_276:\n        /* \"#utility.yul\":7132:7143   */\n      0x00\n        /* \"#utility.yul\":7166:7172   */\n      dup3\n        /* \"#utility.yul\":7161:7164   */\n      dup3\n        /* \"#utility.yul\":7154:7173   */\n      mstore\n        /* \"#utility.yul\":7206:7210   */\n      0x20\n        /* \"#utility.yul\":7201:7204   */\n      dup3\n        /* \"#utility.yul\":7197:7211   */\n      add\n        /* \"#utility.yul\":7182:7211   */\n      swap1\n      pop\n        /* \"#utility.yul\":7048:7217   */\n      swap3\n      swap2\n      pop\n      pop\n      jump\t// out\n        /* \"#utility.yul\":7223:7362   */\n    tag_277:\n        /* \"#utility.yul\":7312:7318   */\n      dup3\n        /* \"#utility.yul\":7307:7310   */\n      dup2\n        /* \"#utility.yul\":7302:7305   */\n      dup4\n        /* \"#utility.yul\":7296:7319   */\n      mcopy\n        /* \"#utility.yul\":7353:7354   */\n      0x00\n        /* \"#utility.yul\":7344:7350   */\n      dup4\n        /* \"#utility.yul\":7339:7342   */\n      dup4\n        /* \"#utility.yul\":7335:7351   */\n      add\n        /* \"#utility.yul\":7328:7355   */\n      mstore\n        /* \"#utility.yul\":7223:7362   */\n      pop\n      pop\n      pop\n      jump\t// out\n        /* \"#utility.yul\":7368:7745   */\n    tag_278:\n        /* \"#utility.yul\":7456:7459   */\n      0x00\n        /* \"#utility.yul\":7484:7523   */\n      tag_411\n        /* \"#utility.yul\":7517:7522   */\n      dup3\n        /* \"#utility.yul\":7484:7523   */\n      tag_275\n      jump\t// in\n    tag_411:\n        /* \"#utility.yul\":7539:7610   */\n      tag_412\n        /* \"#utility.yul\":7603:7609   */\n      dup2\n        /* \"#utility.yul\":7598:7601   */\n      dup6\n        /* \"#utility.yul\":7539:7610   */\n      tag_276\n      jump\t// in\n    tag_412:\n        /* \"#utility.yul\":7532:7610   */\n      swap4\n      pop\n        /* \"#utility.yul\":7619:7684   */\n      tag_413\n        /* \"#utility.yul\":7677:7683   */\n      dup2\n        /* \"#utility.yul\":7672:7675   */\n      dup6\n        /* \"#utility.yul\":7665:7669   */\n      0x20\n        /* \"#utility.yul\":7658:7663   */\n      dup7\n        /* \"#utility.yul\":7654:7670   */\n      add\n        /* \"#utility.yul\":7619:7684   */\n      tag_277\n      jump\t// in\n    tag_413:\n        /* \"#utility.yul\":7709:7738   */\n      tag_414\n        /* \"#utility.yul\":7731:7737   */\n      dup2\n        /* \"#utility.yul\":7709:7738   */\n      tag_258\n      jump\t// in\n    tag_414:\n        /* \"#utility.yul\":7704:7707   */\n      dup5\n        /* \"#utility.yul\":7700:7739   */\n      add\n        /* \"#utility.yul\":7693:7739   */\n      swap2\n      pop\n        /* \"#utility.yul\":7460:7745   */\n      pop\n        /* \"#utility.yul\":7368:7745   */\n      swap3\n      swap2\n      pop\n      pop\n      jump\t// out\n        /* \"#utility.yul\":7751:9516   */\n    tag_101:\n        /* \"#utility.yul\":8216:8220   */\n      0x00\n        /* \"#utility.yul\":8254:8257   */\n      0x0140\n        /* \"#utility.yul\":8243:8252   */\n      dup3\n        /* \"#utility.yul\":8239:8258   */\n      add\n        /* \"#utility.yul\":8231:8258   */\n      swap1\n      pop\n        /* \"#utility.yul\":8304:8313   */\n      dup2\n        /* \"#utility.yul\":8298:8302   */\n      dup2\n        /* \"#utility.yul\":8294:8314   */\n      sub\n        /* \"#utility.yul\":8290:8291   */\n      0x00\n        /* \"#utility.yul\":8279:8288   */\n      dup4\n        /* \"#utility.yul\":8275:8292   */\n      add\n        /* \"#utility.yul\":8268:8315   */\n      mstore\n        /* \"#utility.yul\":8332:8410   */\n      tag_416\n        /* \"#utility.yul\":8405:8409   */\n      dup2\n        /* \"#utility.yul\":8396:8402   */\n      dup14\n        /* \"#utility.yul\":8332:8410   */\n      tag_278\n      jump\t// in\n    tag_416:\n        /* \"#utility.yul\":8324:8410   */\n      swap1\n      pop\n        /* \"#utility.yul\":8457:8466   */\n      dup2\n        /* \"#utility.yul\":8451:8455   */\n      dup2\n        /* \"#utility.yul\":8447:8467   */\n      sub\n        /* \"#utility.yul\":8442:8444   */\n      0x20\n        /* \"#utility.yul\":8431:8440   */\n      dup4\n        /* \"#utility.yul\":8427:8445   */\n      add\n        /* \"#utility.yul\":8420:8468   */\n      mstore\n        /* \"#utility.yul\":8485:8563   */\n      tag_417\n        /* \"#utility.yul\":8558:8562   */\n      dup2\n        /* \"#utility.yul\":8549:8555   */\n      dup13\n        /* \"#utility.yul\":8485:8563   */\n      tag_278\n      jump\t// in\n    tag_417:\n        /* \"#utility.yul\":8477:8563   */\n      swap1\n      pop\n        /* \"#utility.yul\":8610:8619   */\n      dup2\n        /* \"#utility.yul\":8604:8608   */\n      dup2\n        /* \"#utility.yul\":8600:8620   */\n      sub\n        /* \"#utility.yul\":8595:8597   */\n      0x40\n        /* \"#utility.yul\":8584:8593   */\n      dup4\n        /* \"#utility.yul\":8580:8598   */\n      add\n        /* \"#utility.yul\":8573:8621   */\n      mstore\n        /* \"#utility.yul\":8638:8716   */\n      tag_418\n        /* \"#utility.yul\":8711:8715   */\n      dup2\n        /* \"#utility.yul\":8702:8708   */\n      dup12\n        /* \"#utility.yul\":8638:8716   */\n      tag_278\n      jump\t// in\n    tag_418:\n        /* \"#utility.yul\":8630:8716   */\n      swap1\n      pop\n        /* \"#utility.yul\":8763:8772   */\n      dup2\n        /* \"#utility.yul\":8757:8761   */\n      dup2\n        /* \"#utility.yul\":8753:8773   */\n      sub\n        /* \"#utility.yul\":8748:8750   */\n      0x60\n        /* \"#utility.yul\":8737:8746   */\n      dup4\n        /* \"#utility.yul\":8733:8751   */\n      add\n        /* \"#utility.yul\":8726:8774   */\n      mstore\n        /* \"#utility.yul\":8791:8869   */\n      tag_419\n        /* \"#utility.yul\":8864:8868   */\n      dup2\n        /* \"#utility.yul\":8855:8861   */\n      dup11\n        /* \"#utility.yul\":8791:8869   */\n      tag_278\n      jump\t// in\n    tag_419:\n        /* \"#utility.yul\":8783:8869   */\n      swap1\n      pop\n        /* \"#utility.yul\":8917:8926   */\n      dup2\n        /* \"#utility.yul\":8911:8915   */\n      dup2\n        /* \"#utility.yul\":8907:8927   */\n      sub\n        /* \"#utility.yul\":8901:8904   */\n      0x80\n        /* \"#utility.yul\":8890:8899   */\n      dup4\n        /* \"#utility.yul\":8886:8905   */\n      add\n        /* \"#utility.yul\":8879:8928   */\n      mstore\n        /* \"#utility.yul\":8945:9023   */\n      tag_420\n        /* \"#utility.yul\":9018:9022   */\n      dup2\n        /* \"#utility.yul\":9009:9015   */\n      dup10\n        /* \"#utility.yul\":8945:9023   */\n      tag_278\n      jump\t// in\n    tag_420:\n        /* \"#utility.yul\":8937:9023   */\n      swap1\n      pop\n        /* \"#utility.yul\":9071:9080   */\n      dup2\n        /* \"#utility.yul\":9065:9069   */\n      dup2\n        /* \"#utility.yul\":9061:9081   */\n      sub\n        /* \"#utility.yul\":9055:9058   */\n      0xa0\n        /* \"#utility.yul\":9044:9053   */\n      dup4\n        /* \"#utility.yul\":9040:9059   */\n      add\n        /* \"#utility.yul\":9033:9082   */\n      mstore\n        /* \"#utility.yul\":9099:9177   */\n      tag_421\n        /* \"#utility.yul\":9172:9176   */\n      dup2\n        /* \"#utility.yul\":9163:9169   */\n      dup9\n        /* \"#utility.yul\":9099:9177   */\n      tag_278\n      jump\t// in\n    tag_421:\n        /* \"#utility.yul\":9091:9177   */\n      swap1\n      pop\n        /* \"#utility.yul\":9187:9260   */\n      tag_422\n        /* \"#utility.yul\":9255:9258   */\n      0xc0\n        /* \"#utility.yul\":9244:9253   */\n      dup4\n        /* \"#utility.yul\":9240:9259   */\n      add\n        /* \"#utility.yul\":9231:9237   */\n      dup8\n        /* \"#utility.yul\":9187:9260   */\n      tag_252\n      jump\t// in\n    tag_422:\n        /* \"#utility.yul\":9270:9343   */\n      tag_423\n        /* \"#utility.yul\":9338:9341   */\n      0xe0\n        /* \"#utility.yul\":9327:9336   */\n      dup4\n        /* \"#utility.yul\":9323:9342   */\n      add\n        /* \"#utility.yul\":9314:9320   */\n      dup7\n        /* \"#utility.yul\":9270:9343   */\n      tag_252\n      jump\t// in\n    tag_423:\n        /* \"#utility.yul\":9353:9426   */\n      tag_424\n        /* \"#utility.yul\":9421:9424   */\n      0x0100\n        /* \"#utility.yul\":9410:9419   */\n      dup4\n        /* \"#utility.yul\":9406:9425   */\n      add\n        /* \"#utility.yul\":9397:9403   */\n      dup6\n        /* \"#utility.yul\":9353:9426   */\n      tag_252\n      jump\t// in\n    tag_424:\n        /* \"#utility.yul\":9436:9509   */\n      tag_425\n        /* \"#utility.yul\":9504:9507   */\n      0x0120\n        /* \"#utility.yul\":9493:9502   */\n      dup4\n        /* \"#utility.yul\":9489:9508   */\n      add\n        /* \"#utility.yul\":9480:9486   */\n      dup5\n        /* \"#utility.yul\":9436:9509   */\n      tag_252\n      jump\t// in\n    tag_425:\n        /* \"#utility.yul\":7751:9516   */\n      swap12\n      swap11\n      pop\n      pop\n      pop\n      pop\n      pop\n      pop\n      pop\n      pop\n      pop\n      pop\n      pop\n      jump\t// out\n        /* \"#utility.yul\":9522:9743   */\n    tag_279:\n        /* \"#utility.yul\":9662:9696   */\n      0x4f6e6c79206f776e65722063616e20706572666f726d20746869732061637469\n        /* \"#utility.yul\":9658:9659   */\n      0x00\n        /* \"#utility.yul\":9650:9656   */\n      dup3\n        /* \"#utility.yul\":9646:9660   */\n      add\n        /* \"#utility.yul\":9639:9697   */\n      mstore\n        /* \"#utility.yul\":9731:9735   */\n      0x6f6e000000000000000000000000000000000000000000000000000000000000\n        /* \"#utility.yul\":9726:9728   */\n      0x20\n        /* \"#utility.yul\":9718:9724   */\n      dup3\n        /* \"#utility.yul\":9714:9729   */\n      add\n        /* \"#utility.yul\":9707:9736   */\n      mstore\n        /* \"#utility.yul\":9522:9743   */\n      pop\n      jump\t// out\n        /* \"#utility.yul\":9749:10115   */\n    tag_280:\n        /* \"#utility.yul\":9891:9894   */\n      0x00\n        /* \"#utility.yul\":9912:9979   */\n      tag_428\n        /* \"#utility.yul\":9976:9978   */\n      0x22\n        /* \"#utility.yul\":9971:9974   */\n      dup4\n        /* \"#utility.yul\":9912:9979   */\n      tag_276\n      jump\t// in\n    tag_428:\n        /* \"#utility.yul\":9905:9979   */\n      swap2\n      pop\n        /* \"#utility.yul\":9988:10081   */\n      tag_429\n        /* \"#utility.yul\":10077:10080   */\n      dup3\n        /* \"#utility.yul\":9988:10081   */\n      tag_279\n      jump\t// in\n    tag_429:\n        /* \"#utility.yul\":10106:10108   */\n      0x40\n        /* \"#utility.yul\":10101:10104   */\n      dup3\n        /* \"#utility.yul\":10097:10109   */\n      add\n        /* \"#utility.yul\":10090:10109   */\n      swap1\n      pop\n        /* \"#utility.yul\":9749:10115   */\n      swap2\n      swap1\n      pop\n      jump\t// out\n        /* \"#utility.yul\":10121:10540   */\n    tag_109:\n        /* \"#utility.yul\":10287:10291   */\n      0x00\n        /* \"#utility.yul\":10325:10327   */\n      0x20\n        /* \"#utility.yul\":10314:10323   */\n      dup3\n        /* \"#utility.yul\":10310:10328   */\n      add\n        /* \"#utility.yul\":10302:10328   */\n      swap1\n      pop\n        /* \"#utility.yul\":10374:10383   */\n      dup2\n        /* \"#utility.yul\":10368:10372   */\n      dup2\n        /* \"#utility.yul\":10364:10384   */\n      sub\n        /* \"#utility.yul\":10360:10361   */\n      0x00\n        /* \"#utility.yul\":10349:10358   */\n      dup4\n        /* \"#utility.yul\":10345:10362   */\n      add\n        /* \"#utility.yul\":10338:10385   */\n      mstore\n        /* \"#utility.yul\":10402:10533   */\n      tag_431\n        /* \"#utility.yul\":10528:10532   */\n      dup2\n        /* \"#utility.yul\":10402:10533   */\n      tag_280\n      jump\t// in\n    tag_431:\n        /* \"#utility.yul\":10394:10533   */\n      swap1\n      pop\n        /* \"#utility.yul\":10121:10540   */\n      swap2\n      swap1\n      pop\n      jump\t// out\n        /* \"#utility.yul\":10546:10726   */\n    tag_281:\n        /* \"#utility.yul\":10594:10671   */\n      0x4e487b7100000000000000000000000000000000000000000000000000000000\n        /* \"#utility.yul\":10591:10592   */\n      0x00\n        /* \"#utility.yul\":10584:10672   */\n      mstore\n        /* \"#utility.yul\":10691:10695   */\n      0x22\n        /* \"#utility.yul\":10688:10689   */\n      0x04\n        /* \"#utility.yul\":10681:10696   */\n      mstore\n        /* \"#utility.yul\":10715:10719   */\n      0x24\n        /* \"#utility.yul\":10712:10713   */\n      0x00\n        /* \"#utility.yul\":10705:10720   */\n      revert\n        /* \"#utility.yul\":10732:11052   */\n    tag_221:\n        /* \"#utility.yul\":10776:10782   */\n      0x00\n        /* \"#utility.yul\":10813:10814   */\n      0x02\n        /* \"#utility.yul\":10807:10811   */\n      dup3\n        /* \"#utility.yul\":10803:10815   */\n      div\n        /* \"#utility.yul\":10793:10815   */\n      swap1\n      pop\n        /* \"#utility.yul\":10860:10861   */\n      0x01\n        /* \"#utility.yul\":10854:10858   */\n      dup3\n        /* \"#utility.yul\":10850:10862   */\n      and\n        /* \"#utility.yul\":10881:10899   */\n      dup1\n        /* \"#utility.yul\":10871:10952   */\n      tag_434\n      jumpi\n        /* \"#utility.yul\":10937:10941   */\n      0x7f\n        /* \"#utility.yul\":10929:10935   */\n      dup3\n        /* \"#utility.yul\":10925:10942   */\n      and\n        /* \"#utility.yul\":10915:10942   */\n      swap2\n      pop\n        /* \"#utility.yul\":10871:10952   */\n    tag_434:\n        /* \"#utility.yul\":10999:11001   */\n      0x20\n        /* \"#utility.yul\":10991:10997   */\n      dup3\n        /* \"#utility.yul\":10988:11002   */\n      lt\n        /* \"#utility.yul\":10968:10986   */\n      dup2\n        /* \"#utility.yul\":10965:11003   */\n      sub\n        /* \"#utility.yul\":10962:11046   */\n      tag_435\n      jumpi\n        /* \"#utility.yul\":11018:11036   */\n      tag_436\n      tag_281\n      jump\t// in\n    tag_436:\n        /* \"#utility.yul\":10962:11046   */\n    tag_435:\n        /* \"#utility.yul\":10783:11052   */\n      pop\n        /* \"#utility.yul\":10732:11052   */\n      swap2\n      swap1\n      pop\n      jump\t// out\n        /* \"#utility.yul\":11058:11199   */\n    tag_282:\n        /* \"#utility.yul\":11107:11111   */\n      0x00\n        /* \"#utility.yul\":11130:11133   */\n      dup2\n        /* \"#utility.yul\":11122:11133   */\n      swap1\n      pop\n        /* \"#utility.yul\":11153:11156   */\n      dup2\n        /* \"#utility.yul\":11150:11151   */\n      0x00\n        /* \"#utility.yul\":11143:11157   */\n      mstore\n        /* \"#utility.yul\":11187:11191   */\n      0x20\n        /* \"#utility.yul\":11184:11185   */\n      0x00\n        /* \"#utility.yul\":11174:11192   */\n      keccak256\n        /* \"#utility.yul\":11166:11192   */\n      swap1\n      pop\n        /* \"#utility.yul\":11058:11199   */\n      swap2\n      swap1\n      pop\n      jump\t// out\n        /* \"#utility.yul\":11205:11298   */\n    tag_283:\n        /* \"#utility.yul\":11242:11248   */\n      0x00\n        /* \"#utility.yul\":11289:11291   */\n      0x20\n        /* \"#utility.yul\":11284:11286   */\n      0x1f\n        /* \"#utility.yul\":11277:11282   */\n      dup4\n        /* \"#utility.yul\":11273:11287   */\n      add\n        /* \"#utility.yul\":11269:11292   */\n      div\n        /* \"#utility.yul\":11259:11292   */\n      swap1\n      pop\n        /* \"#utility.yul\":11205:11298   */\n      swap2\n      swap1\n      pop\n      jump\t// out\n        /* \"#utility.yul\":11304:11411   */\n    tag_284:\n        /* \"#utility.yul\":11348:11356   */\n      0x00\n        /* \"#utility.yul\":11398:11403   */\n      dup3\n        /* \"#utility.yul\":11392:11396   */\n      dup3\n        /* \"#utility.yul\":11388:11404   */\n      shl\n        /* \"#utility.yul\":11367:11404   */\n      swap1\n      pop\n        /* \"#utility.yul\":11304:11411   */\n      swap3\n      swap2\n      pop\n      pop\n      jump\t// out\n        /* \"#utility.yul\":11417:11810   */\n    tag_285:\n        /* \"#utility.yul\":11486:11492   */\n      0x00\n        /* \"#utility.yul\":11536:11537   */\n      0x08\n        /* \"#utility.yul\":11524:11534   */\n      dup4\n        /* \"#utility.yul\":11520:11538   */\n      mul\n        /* \"#utility.yul\":11559:11656   */\n      tag_441\n        /* \"#utility.yul\":11589:11655   */\n      0xffffffffffffffffffffffffffffffffffffffffffffffffffffffffffffffff\n        /* \"#utility.yul\":11578:11587   */\n      dup3\n        /* \"#utility.yul\":11559:11656   */\n      tag_284\n      jump\t// in\n    tag_441:\n        /* \"#utility.yul\":11677:11716   */\n      tag_442\n        /* \"#utility.yul\":11707:11715   */\n      dup7\n        /* \"#utility.yul\":11696:11705   */\n      dup4\n        /* \"#utility.yul\":11677:11716   */\n      tag_284\n      jump\t// in\n    tag_442:\n        /* \"#utility.yul\":11665:11716   */\n      swap6\n      pop\n        /* \"#utility.yul\":11749:11753   */\n      dup1\n        /* \"#utility.yul\":11745:11754   */\n      not\n        /* \"#utility.yul\":11738:11743   */\n      dup5\n        /* \"#utility.yul\":11734:11755   */\n      and\n        /* \"#utility.yul\":11725:11755   */\n      swap4\n      pop\n        /* \"#utility.yul\":11798:11802   */\n      dup1\n        /* \"#utility.yul\":11788:11796   */\n      dup7\n        /* \"#utility.yul\":11784:11803   */\n      and\n        /* \"#utility.yul\":11777:11782   */\n      dup5\n        /* \"#utility.yul\":11774:11804   */\n      or\n        /* \"#utility.yul\":11764:11804   */\n      swap3\n      pop\n        /* \"#utility.yul\":11493:11810   */\n      pop\n      pop\n        /* \"#utility.yul\":11417:11810   */\n      swap4\n      swap3\n      pop\n      pop\n      pop\n      jump\t// out\n        /* \"#utility.yul\":11816:11876   */\n    tag_286:\n        /* \"#utility.yul\":11844:11847   */\n      0x00\n        /* \"#utility.yul\":11865:11870   */\n      dup2\n        /* \"#utility.yul\":11858:11870   */\n      swap1\n      pop\n        /* \"#utility.yul\":11816:11876   */\n      swap2\n      swap1\n      pop\n      jump\t// out\n        /* \"#utility.yul\":11882:12024   */\n    tag_287:\n        /* \"#utility.yul\":11932:11941   */\n      0x00\n        /* \"#utility.yul\":11965:12018   */\n      tag_445\n        /* \"#utility.yul\":11983:12017   */\n      tag_446\n        /* \"#utility.yul\":11992:12016   */\n      tag_447\n        /* \"#utility.yul\":12010:12015   */\n      dup5\n        /* \"#utility.yul\":11992:12016   */\n      tag_251\n      jump\t// in\n    tag_447:\n        /* \"#utility.yul\":11983:12017   */\n      tag_286\n      jump\t// in\n    tag_446:\n        /* \"#utility.yul\":11965:12018   */\n      tag_251\n      jump\t// in\n    tag_445:\n        /* \"#utility.yul\":11952:12018   */\n      swap1\n      pop\n        /* \"#utility.yul\":11882:12024   */\n      swap2\n      swap1\n      pop\n      jump\t// out\n        /* \"#utility.yul\":12030:12105   */\n    tag_288:\n        /* \"#utility.yul\":12073:12076   */\n      0x00\n        /* \"#utility.yul\":12094:12099   */\n      dup2\n        /* \"#utility.yul\":12087:12099   */\n      swap1\n      pop\n        /* \"#utility.yul\":12030:12105   */\n      swap2\n      swap1\n      pop\n      jump\t// out\n        /* \"#utility.yul\":12111:12380   */\n    tag_289:\n        /* \"#utility.yul\":12221:12260   */\n      tag_450\n        /* \"#utility.yul\":12252:12259   */\n      dup4\n        /* \"#utility.yul\":12221:12260   */\n      tag_287\n      jump\t// in\n    tag_450:\n        /* \"#utility.yul\":12282:12373   */\n      tag_451\n        /* \"#utility.yul\":12331:12372   */\n      tag_452\n        /* \"#utility.yul\":12355:12371   */\n      dup3\n        /* \"#utility.yul\":12331:12372   */\n      tag_288\n      jump\t// in\n    tag_452:\n        /* \"#utility.yul\":12323:12329   */\n      dup5\n        /* \"#utility.yul\":12316:12320   */\n      dup5\n        /* \"#utility.yul\":12310:12321   */\n      sload\n        /* \"#utility.yul\":12282:12373   */\n      tag_285\n      jump\t// in\n    tag_451:\n        /* \"#utility.yul\":12276:12280   */\n      dup3\n        /* \"#utility.yul\":12269:12374   */\n      sstore\n        /* \"#utility.yul\":12187:12380   */\n      pop\n        /* \"#utility.yul\":12111:12380   */\n      pop\n      pop\n      pop\n      jump\t// out\n        /* \"#utility.yul\":12386:12459   */\n    tag_290:\n        /* \"#utility.yul\":12431:12434   */\n      0x00\n        /* \"#utility.yul\":12386:12459   */\n      swap1\n      jump\t// out\n        /* \"#utility.yul\":12465:12654   */\n    tag_291:\n        /* \"#utility.yul\":12542:12574   */\n      tag_455\n      tag_290\n      jump\t// in\n    tag_455:\n        /* \"#utility.yul\":12583:12648   */\n      tag_456\n        /* \"#utility.yul\":12641:12647   */\n      dup2\n        /* \"#utility.yul\":12633:12639   */\n      dup5\n        /* \"#utility.yul\":12627:12631   */\n      dup5\n        /* \"#utility.yul\":12583:12648   */\n      tag_289\n      jump\t// in\n    tag_456:\n        /* \"#utility.yul\":12518:12654   */\n      pop\n        /* \"#utility.yul\":12465:12654   */\n      pop\n      pop\n      jump\t// out\n        /* \"#utility.yul\":12660:12846   */\n    tag_292:\n        /* \"#utility.yul\":12720:12840   */\n    tag_458:\n        /* \"#utility.yul\":12737:12740   */\n      dup2\n        /* \"#utility.yul\":12730:12735   */\n      dup2\n        /* \"#utility.yul\":12727:12741   */\n      lt\n        /* \"#utility.yul\":12720:12840   */\n      iszero\n      tag_460\n      jumpi\n        /* \"#utility.yul\":12791:12830   */\n      tag_461\n        /* \"#utility.yul\":12828:12829   */\n      0x00\n        /* \"#utility.yul\":12821:12826   */\n      dup3\n        /* \"#utility.yul\":12791:12830   */\n      tag_291\n      jump\t// in\n    tag_461:\n        /* \"#utility.yul\":12764:12765   */\n      0x01\n        /* \"#utility.yul\":12757:12762   */\n      dup2\n        /* \"#utility.yul\":12753:12766   */\n      add\n        /* \"#utility.yul\":12744:12766   */\n      swap1\n      pop\n        /* \"#utility.yul\":12720:12840   */\n      jump(tag_458)\n    tag_460:\n        /* \"#utility.yul\":12660:12846   */\n      pop\n      pop\n      jump\t// out\n        /* \"#utility.yul\":12852:13395   */\n    tag_293:\n        /* \"#utility.yul\":12953:12955   */\n      0x1f\n        /* \"#utility.yul\":12948:12951   */\n      dup3\n        /* \"#utility.yul\":12945:12956   */\n      gt\n        /* \"#utility.yul\":12942:13388   */\n      iszero\n      tag_463\n      jumpi\n        /* \"#utility.yul\":12987:13025   */\n      tag_464\n        /* \"#utility.yul\":13019:13024   */\n      dup2\n        /* \"#utility.yul\":12987:13025   */\n      tag_282\n      jump\t// in\n    tag_464:\n        /* \"#utility.yul\":13071:13100   */\n      tag_465\n        /* \"#utility.yul\":13089:13099   */\n      dup5\n        /* \"#utility.yul\":13071:13100   */\n      tag_283\n      jump\t// in\n    tag_465:\n        /* \"#utility.yul\":13061:13069   */\n      dup2\n        /* \"#utility.yul\":13057:13101   */\n      add\n        /* \"#utility.yul\":13254:13256   */\n      0x20\n        /* \"#utility.yul\":13242:13252   */\n      dup6\n        /* \"#utility.yul\":13239:13257   */\n      lt\n        /* \"#utility.yul\":13236:13285   */\n      iszero\n      tag_466\n      jumpi\n        /* \"#utility.yul\":13275:13283   */\n      dup2\n        /* \"#utility.yul\":13260:13283   */\n      swap1\n      pop\n        /* \"#utility.yul\":13236:13285   */\n    tag_466:\n        /* \"#utility.yul\":13298:13378   */\n      tag_467\n        /* \"#utility.yul\":13354:13376   */\n      tag_468\n        /* \"#utility.yul\":13372:13375   */\n      dup6\n        /* \"#utility.yul\":13354:13376   */\n      tag_283\n      jump\t// in\n    tag_468:\n        /* \"#utility.yul\":13344:13352   */\n      dup4\n        /* \"#utility.yul\":13340:13377   */\n      add\n        /* \"#utility.yul\":13327:13338   */\n      dup3\n        /* \"#utility.yul\":13298:13378   */\n      tag_292\n      jump\t// in\n    tag_467:\n        /* \"#utility.yul\":12957:13388   */\n      pop\n      pop\n        /* \"#utility.yul\":12942:13388   */\n    tag_463:\n        /* \"#utility.yul\":12852:13395   */\n      pop\n      pop\n      pop\n      jump\t// out\n        /* \"#utility.yul\":13401:13518   */\n    tag_294:\n        /* \"#utility.yul\":13455:13463   */\n      0x00\n        /* \"#utility.yul\":13505:13510   */\n      dup3\n        /* \"#utility.yul\":13499:13503   */\n      dup3\n        /* \"#utility.yul\":13495:13511   */\n      shr\n        /* \"#utility.yul\":13474:13511   */\n      swap1\n      pop\n        /* \"#utility.yul\":13401:13518   */\n      swap3\n      swap2\n      pop\n      pop\n      jump\t// out\n        /* \"#utility.yul\":13524:13693   */\n    tag_295:\n        /* \"#utility.yul\":13568:13574   */\n      0x00\n        /* \"#utility.yul\":13601:13652   */\n      tag_471\n        /* \"#utility.yul\":13649:13650   */\n      0x00\n        /* \"#utility.yul\":13645:13651   */\n      not\n        /* \"#utility.yul\":13637:13642   */\n      dup5\n        /* \"#utility.yul\":13634:13635   */\n      0x08\n        /* \"#utility.yul\":13630:13643   */\n      mul\n        /* \"#utility.yul\":13601:13652   */\n      tag_294\n      jump\t// in\n    tag_471:\n        /* \"#utility.yul\":13597:13653   */\n      not\n        /* \"#utility.yul\":13682:13686   */\n      dup1\n        /* \"#utility.yul\":13676:13680   */\n      dup4\n        /* \"#utility.yul\":13672:13687   */\n      and\n        /* \"#utility.yul\":13662:13687   */\n      swap2\n      pop\n        /* \"#utility.yul\":13575:13693   */\n      pop\n        /* \"#utility.yul\":13524:13693   */\n      swap3\n      swap2\n      pop\n      pop\n      jump\t// out\n        /* \"#utility.yul\":13698:13993   */\n    tag_296:\n        /* \"#utility.yul\":13774:13778   */\n      0x00\n        /* \"#utility.yul\":13920:13949   */\n      tag_473\n        /* \"#utility.yul\":13945:13948   */\n      dup4\n        /* \"#utility.yul\":13939:13943   */\n      dup4\n        /* \"#utility.yul\":13920:13949   */\n      tag_295\n      jump\t// in\n    tag_473:\n        /* \"#utility.yul\":13912:13949   */\n      swap2\n      pop\n        /* \"#utility.yul\":13982:13985   */\n      dup3\n        /* \"#utility.yul\":13979:13980   */\n      0x02\n        /* \"#utility.yul\":13975:13986   */\n      mul\n        /* \"#utility.yul\":13969:13973   */\n      dup3\n        /* \"#utility.yul\":13966:13987   */\n      or\n        /* \"#utility.yul\":13958:13987   */\n      swap1\n      pop\n        /* \"#utility.yul\":13698:13993   */\n      swap3\n      swap2\n      pop\n      pop\n      jump\t// out\n        /* \"#utility.yul\":13998:15393   */\n    tag_112:\n        /* \"#utility.yul\":14115:14152   */\n      tag_475\n        /* \"#utility.yul\":14148:14151   */\n      dup3\n        /* \"#utility.yul\":14115:14152   */\n      tag_275\n      jump\t// in\n    tag_475:\n        /* \"#utility.yul\":14217:14235   */\n      0xffffffffffffffff\n        /* \"#utility.yul\":14209:14215   */\n      dup2\n        /* \"#utility.yul\":14206:14236   */\n      gt\n        /* \"#utility.yul\":14203:14259   */\n      iszero\n      tag_476\n      jumpi\n        /* \"#utility.yul\":14239:14257   */\n      tag_477\n      tag_259\n      jump\t// in\n    tag_477:\n        /* \"#utility.yul\":14203:14259   */\n    tag_476:\n        /* \"#utility.yul\":14283:14321   */\n      tag_478\n        /* \"#utility.yul\":14315:14319   */\n      dup3\n        /* \"#utility.yul\":14309:14320   */\n      sload\n        /* \"#utility.yul\":14283:14321   */\n      tag_221\n      jump\t// in\n    tag_478:\n        /* \"#utility.yul\":14368:14435   */\n      tag_479\n        /* \"#utility.yul\":14428:14434   */\n      dup3\n        /* \"#utility.yul\":14420:14426   */\n      dup3\n        /* \"#utility.yul\":14414:14418   */\n      dup6\n        /* \"#utility.yul\":14368:14435   */\n      tag_293\n      jump\t// in\n    tag_479:\n        /* \"#utility.yul\":14462:14463   */\n      0x00\n        /* \"#utility.yul\":14486:14490   */\n      0x20\n        /* \"#utility.yul\":14473:14490   */\n      swap1\n      pop\n        /* \"#utility.yul\":14518:14520   */\n      0x1f\n        /* \"#utility.yul\":14510:14516   */\n      dup4\n        /* \"#utility.yul\":14507:14521   */\n      gt\n        /* \"#utility.yul\":14535:14536   */\n      0x01\n        /* \"#utility.yul\":14530:15148   */\n      dup2\n      eq\n      tag_481\n      jumpi\n        /* \"#utility.yul\":15192:15193   */\n      0x00\n        /* \"#utility.yul\":15209:15215   */\n      dup5\n        /* \"#utility.yul\":15206:15283   */\n      iszero\n      tag_482\n      jumpi\n        /* \"#utility.yul\":15258:15267   */\n      dup3\n        /* \"#utility.yul\":15253:15256   */\n      dup8\n        /* \"#utility.yul\":15249:15268   */\n      add\n        /* \"#utility.yul\":15243:15269   */\n      mload\n        /* \"#utility.yul\":15234:15269   */\n      swap1\n      pop\n        /* \"#utility.yul\":15206:15283   */\n    tag_482:\n        /* \"#utility.yul\":15309:15376   */\n      tag_483\n        /* \"#utility.yul\":15369:15375   */\n      dup6\n        /* \"#utility.yul\":15362:15367   */\n      dup3\n        /* \"#utility.yul\":15309:15376   */\n      tag_296\n      jump\t// in\n    tag_483:\n        /* \"#utility.yul\":15303:15307   */\n      dup7\n        /* \"#utility.yul\":15296:15377   */\n      sstore\n        /* \"#utility.yul\":15165:15387   */\n      pop\n        /* \"#utility.yul\":14500:15387   */\n      jump(tag_480)\n        /* \"#utility.yul\":14530:15148   */\n    tag_481:\n        /* \"#utility.yul\":14582:14586   */\n      0x1f\n        /* \"#utility.yul\":14578:14587   */\n      not\n        /* \"#utility.yul\":14570:14576   */\n      dup5\n        /* \"#utility.yul\":14566:14588   */\n      and\n        /* \"#utility.yul\":14616:14653   */\n      tag_484\n        /* \"#utility.yul\":14648:14652   */\n      dup7\n        /* \"#utility.yul\":14616:14653   */\n      tag_282\n      jump\t// in\n    tag_484:\n        /* \"#utility.yul\":14675:14676   */\n      0x00\n        /* \"#utility.yul\":14689:14897   */\n    tag_485:\n        /* \"#utility.yul\":14703:14710   */\n      dup3\n        /* \"#utility.yul\":14700:14701   */\n      dup2\n        /* \"#utility.yul\":14697:14711   */\n      lt\n        /* \"#utility.yul\":14689:14897   */\n      iszero\n      tag_487\n      jumpi\n        /* \"#utility.yul\":14782:14791   */\n      dup5\n        /* \"#utility.yul\":14777:14780   */\n      dup10\n        /* \"#utility.yul\":14773:14792   */\n      add\n        /* \"#utility.yul\":14767:14793   */\n      mload\n        /* \"#utility.yul\":14759:14765   */\n      dup3\n        /* \"#utility.yul\":14752:14794   */\n      sstore\n        /* \"#utility.yul\":14833:14834   */\n      0x01\n        /* \"#utility.yul\":14825:14831   */\n      dup3\n        /* \"#utility.yul\":14821:14835   */\n      add\n        /* \"#utility.yul\":14811:14835   */\n      swap2\n      pop\n        /* \"#utility.yul\":14880:14882   */\n      0x20\n        /* \"#utility.yul\":14869:14878   */\n      dup6\n        /* \"#utility.yul\":14865:14883   */\n      add\n        /* \"#utility.yul\":14852:14883   */\n      swap5\n      pop\n        /* \"#utility.yul\":14726:14730   */\n      0x20\n        /* \"#utility.yul\":14723:14724   */\n      dup2\n        /* \"#utility.yul\":14719:14731   */\n      add\n        /* \"#utility.yul\":14714:14731   */\n      swap1\n      pop\n        /* \"#utility.yul\":14689:14897   */\n      jump(tag_485)\n    tag_487:\n        /* \"#utility.yul\":14925:14931   */\n      dup7\n        /* \"#utility.yul\":14916:14923   */\n      dup4\n        /* \"#utility.yul\":14913:14932   */\n      lt\n        /* \"#utility.yul\":14910:15089   */\n      iszero\n      tag_488\n      jumpi\n        /* \"#utility.yul\":14983:14992   */\n      dup5\n        /* \"#utility.yul\":14978:14981   */\n      dup10\n        /* \"#utility.yul\":14974:14993   */\n      add\n        /* \"#utility.yul\":14968:14994   */\n      mload\n        /* \"#utility.yul\":15026:15074   */\n      tag_489\n        /* \"#utility.yul\":15068:15072   */\n      0x1f\n        /* \"#utility.yul\":15060:15066   */\n      dup10\n        /* \"#utility.yul\":15056:15073   */\n      and\n        /* \"#utility.yul\":15045:15054   */\n      dup3\n        /* \"#utility.yul\":15026:15074   */\n      tag_295\n      jump\t// in\n    tag_489:\n        /* \"#utility.yul\":15018:15024   */\n      dup4\n        /* \"#utility.yul\":15011:15075   */\n      sstore\n        /* \"#utility.yul\":14933:15089   */\n      pop\n        /* \"#utility.yul\":14910:15089   */\n    tag_488:\n        /* \"#utility.yul\":15135:15136   */\n      0x01\n        /* \"#utility.yul\":15131:15132   */\n      0x02\n        /* \"#utility.yul\":15123:15129   */\n      dup9\n        /* \"#utility.yul\":15119:15133   */\n      mul\n        /* \"#utility.yul\":15115:15137   */\n      add\n        /* \"#utility.yul\":15109:15113   */\n      dup9\n        /* \"#utility.yul\":15102:15138   */\n      sstore\n        /* \"#utility.yul\":14537:15148   */\n      pop\n      pop\n      pop\n        /* \"#utility.yul\":14500:15387   */\n    tag_480:\n      pop\n        /* \"#utility.yul\":14090:15393   */\n      pop\n      pop\n      pop\n        /* \"#utility.yul\":13998:15393   */\n      pop\n      pop\n      jump\t// out\n        /* \"#utility.yul\":15399:15620   */\n    tag_297:\n        /* \"#utility.yul\":15539:15573   */\n      0x4f6e6c79206f776e65722063616e20776974686472617720636f6d6d69737369\n        /* \"#utility.yul\":15535:15536   */\n      0x00\n        /* \"#utility.yul\":15527:15533   */\n      dup3\n        /* \"#utility.yul\":15523:15537   */\n      add\n        /* \"#utility.yul\":15516:15574   */\n      mstore\n        /* \"#utility.yul\":15608:15612   */\n      0x6f6e000000000000000000000000000000000000000000000000000000000000\n        /* \"#utility.yul\":15603:15605   */\n      0x20\n        /* \"#utility.yul\":15595:15601   */\n      dup3\n        /* \"#utility.yul\":15591:15606   */\n      add\n        /* \"#utility.yul\":15584:15613   */\n      mstore\n        /* \"#utility.yul\":15399:15620   */\n      pop\n      jump\t// out\n        /* \"#utility.yul\":15626:15992   */\n    tag_298:\n        /* \"#utility.yul\":15768:15771   */\n      0x00\n        /* \"#utility.yul\":15789:15856   */\n      tag_492\n        /* \"#utility.yul\":15853:15855   */\n      0x22\n        /* \"#utility.yul\":15848:15851   */\n      dup4\n        /* \"#utility.yul\":15789:15856   */\n      tag_276\n      jump\t// in\n    tag_492:\n        /* \"#utility.yul\":15782:15856   */\n      swap2\n      pop\n        /* \"#utility.yul\":15865:15958   */\n      tag_493\n        /* \"#utility.yul\":15954:15957   */\n      dup3\n        /* \"#utility.yul\":15865:15958   */\n      tag_297\n      jump\t// in\n    tag_493:\n        /* \"#utility.yul\":15983:15985   */\n      0x40\n        /* \"#utility.yul\":15978:15981   */\n      dup3\n        /* \"#utility.yul\":15974:15986   */\n      add\n        /* \"#utility.yul\":15967:15986   */\n      swap1\n      pop\n        /* \"#utility.yul\":15626:15992   */\n      swap2\n      swap1\n      pop\n      jump\t// out\n        /* \"#utility.yul\":15998:16417   */\n    tag_125:\n        /* \"#utility.yul\":16164:16168   */\n      0x00\n        /* \"#utility.yul\":16202:16204   */\n      0x20\n        /* \"#utility.yul\":16191:16200   */\n      dup3\n        /* \"#utility.yul\":16187:16205   */\n      add\n        /* \"#utility.yul\":16179:16205   */\n      swap1\n      pop\n        /* \"#utility.yul\":16251:16260   */\n      dup2\n        /* \"#utility.yul\":16245:16249   */\n      dup2\n        /* \"#utility.yul\":16241:16261   */\n      sub\n        /* \"#utility.yul\":16237:16238   */\n      0x00\n        /* \"#utility.yul\":16226:16235   */\n      dup4\n        /* \"#utility.yul\":16222:16239   */\n      add\n        /* \"#utility.yul\":16215:16262   */\n      mstore\n        /* \"#utility.yul\":16279:16410   */\n      tag_495\n        /* \"#utility.yul\":16405:16409   */\n      dup2\n        /* \"#utility.yul\":16279:16410   */\n      tag_298\n      jump\t// in\n    tag_495:\n        /* \"#utility.yul\":16271:16410   */\n      swap1\n      pop\n        /* \"#utility.yul\":15998:16417   */\n      swap2\n      swap1\n      pop\n      jump\t// out\n        /* \"#utility.yul\":16423:16597   */\n    tag_299:\n        /* \"#utility.yul\":16563:16589   */\n      0x44697370757465206e6f742066696e6973686564207965740000000000000000\n        /* \"#utility.yul\":16559:16560   */\n      0x00\n        /* \"#utility.yul\":16551:16557   */\n      dup3\n        /* \"#utility.yul\":16547:16561   */\n      add\n        /* \"#utility.yul\":16540:16590   */\n      mstore\n        /* \"#utility.yul\":16423:16597   */\n      pop\n      jump\t// out\n        /* \"#utility.yul\":16603:16969   */\n    tag_300:\n        /* \"#utility.yul\":16745:16748   */\n      0x00\n        /* \"#utility.yul\":16766:16833   */\n      tag_498\n        /* \"#utility.yul\":16830:16832   */\n      0x18\n        /* \"#utility.yul\":16825:16828   */\n      dup4\n        /* \"#utility.yul\":16766:16833   */\n      tag_276\n      jump\t// in\n    tag_498:\n        /* \"#utility.yul\":16759:16833   */\n      swap2\n      pop\n        /* \"#utility.yul\":16842:16935   */\n      tag_499\n        /* \"#utility.yul\":16931:16934   */\n      dup3\n        /* \"#utility.yul\":16842:16935   */\n      tag_299\n      jump\t// in\n    tag_499:\n        /* \"#utility.yul\":16960:16962   */\n      0x20\n        /* \"#utility.yul\":16955:16958   */\n      dup3\n        /* \"#utility.yul\":16951:16963   */\n      add\n        /* \"#utility.yul\":16944:16963   */\n      swap1\n      pop\n        /* \"#utility.yul\":16603:16969   */\n      swap2\n      swap1\n      pop\n      jump\t// out\n        /* \"#utility.yul\":16975:17394   */\n    tag_128:\n        /* \"#utility.yul\":17141:17145   */\n      0x00\n        /* \"#utility.yul\":17179:17181   */\n      0x20\n        /* \"#utility.yul\":17168:17177   */\n      dup3\n        /* \"#utility.yul\":17164:17182   */\n      add\n        /* \"#utility.yul\":17156:17182   */\n      swap1\n      pop\n        /* \"#utility.yul\":17228:17237   */\n      dup2\n        /* \"#utility.yul\":17222:17226   */\n      dup2\n        /* \"#utility.yul\":17218:17238   */\n      sub\n        /* \"#utility.yul\":17214:17215   */\n      0x00\n        /* \"#utility.yul\":17203:17212   */\n      dup4\n        /* \"#utility.yul\":17199:17216   */\n      add\n        /* \"#utility.yul\":17192:17239   */\n      mstore\n        /* \"#utility.yul\":17256:17387   */\n      tag_501\n        /* \"#utility.yul\":17382:17386   */\n      dup2\n        /* \"#utility.yul\":17256:17387   */\n      tag_300\n      jump\t// in\n    tag_501:\n        /* \"#utility.yul\":17248:17387   */\n      swap1\n      pop\n        /* \"#utility.yul\":16975:17394   */\n      swap2\n      swap1\n      pop\n      jump\t// out\n        /* \"#utility.yul\":17400:17578   */\n    tag_301:\n        /* \"#utility.yul\":17540:17570   */\n      0x436f6d6d697373696f6e20616c72656164792077697468647261776e00000000\n        /* \"#utility.yul\":17536:17537   */\n      0x00\n        /* \"#utility.yul\":17528:17534   */\n      dup3\n        /* \"#utility.yul\":17524:17538   */\n      add\n        /* \"#utility.yul\":17517:17571   */\n      mstore\n        /* \"#utility.yul\":17400:17578   */\n      pop\n      jump\t// out\n        /* \"#utility.yul\":17584:17950   */\n    tag_302:\n        /* \"#utility.yul\":17726:17729   */\n      0x00\n        /* \"#utility.yul\":17747:17814   */\n      tag_504\n        /* \"#utility.yul\":17811:17813   */\n      0x1c\n        /* \"#utility.yul\":17806:17809   */\n      dup4\n        /* \"#utility.yul\":17747:17814   */\n      tag_276\n      jump\t// in\n    tag_504:\n        /* \"#utility.yul\":17740:17814   */\n      swap2\n      pop\n        /* \"#utility.yul\":17823:17916   */\n      tag_505\n        /* \"#utility.yul\":17912:17915   */\n      dup3\n        /* \"#utility.yul\":17823:17916   */\n      tag_301\n      jump\t// in\n    tag_505:\n        /* \"#utility.yul\":17941:17943   */\n      0x20\n        /* \"#utility.yul\":17936:17939   */\n      dup3\n        /* \"#utility.yul\":17932:17944   */\n      add\n        /* \"#utility.yul\":17925:17944   */\n      swap1\n      pop\n        /* \"#utility.yul\":17584:17950   */\n      swap2\n      swap1\n      pop\n      jump\t// out\n        /* \"#utility.yul\":17956:18375   */\n    tag_131:\n        /* \"#utility.yul\":18122:18126   */\n      0x00\n        /* \"#utility.yul\":18160:18162   */\n      0x20\n        /* \"#utility.yul\":18149:18158   */\n      dup3\n        /* \"#utility.yul\":18145:18163   */\n      add\n        /* \"#utility.yul\":18137:18163   */\n      swap1\n      pop\n        /* \"#utility.yul\":18209:18218   */\n      dup2\n        /* \"#utility.yul\":18203:18207   */\n      dup2\n        /* \"#utility.yul\":18199:18219   */\n      sub\n        /* \"#utility.yul\":18195:18196   */\n      0x00\n        /* \"#utility.yul\":18184:18193   */\n      dup4\n        /* \"#utility.yul\":18180:18197   */\n      add\n        /* \"#utility.yul\":18173:18220   */\n      mstore\n        /* \"#utility.yul\":18237:18368   */\n      tag_507\n        /* \"#utility.yul\":18363:18367   */\n      dup2\n        /* \"#utility.yul\":18237:18368   */\n      tag_302\n      jump\t// in\n    tag_507:\n        /* \"#utility.yul\":18229:18368   */\n      swap1\n      pop\n        /* \"#utility.yul\":17956:18375   */\n      swap2\n      swap1\n      pop\n      jump\t// out\n        /* \"#utility.yul\":18381:18561   */\n    tag_303:\n        /* \"#utility.yul\":18429:18506   */\n      0x4e487b7100000000000000000000000000000000000000000000000000000000\n        /* \"#utility.yul\":18426:18427   */\n      0x00\n        /* \"#utility.yul\":18419:18507   */\n      mstore\n        /* \"#utility.yul\":18526:18530   */\n      0x11\n        /* \"#utility.yul\":18523:18524   */\n      0x04\n        /* \"#utility.yul\":18516:18531   */\n      mstore\n        /* \"#utility.yul\":18550:18554   */\n      0x24\n        /* \"#utility.yul\":18547:18548   */\n      0x00\n        /* \"#utility.yul\":18540:18555   */\n      revert\n        /* \"#utility.yul\":18567:18758   */\n    tag_133:\n        /* \"#utility.yul\":18607:18610   */\n      0x00\n        /* \"#utility.yul\":18626:18646   */\n      tag_510\n        /* \"#utility.yul\":18644:18645   */\n      dup3\n        /* \"#utility.yul\":18626:18646   */\n      tag_251\n      jump\t// in\n    tag_510:\n        /* \"#utility.yul\":18621:18646   */\n      swap2\n      pop\n        /* \"#utility.yul\":18660:18680   */\n      tag_511\n        /* \"#utility.yul\":18678:18679   */\n      dup4\n        /* \"#utility.yul\":18660:18680   */\n      tag_251\n      jump\t// in\n    tag_511:\n        /* \"#utility.yul\":18655:18680   */\n      swap3\n      pop\n        /* \"#utility.yul\":18703:18704   */\n      dup3\n        /* \"#utility.yul\":18700:18701   */\n      dup3\n        /* \"#utility.yul\":18696:18705   */\n      add\n        /* \"#utility.yul\":18689:18705   */\n      swap1\n      pop\n        /* \"#utility.yul\":18724:18727   */\n      dup1\n        /* \"#utility.yul\":18721:18722   */\n      dup3\n        /* \"#utility.yul\":18718:18728   */\n      gt\n        /* \"#utility.yul\":18715:18751   */\n      iszero\n      tag_512\n      jumpi\n        /* \"#utility.yul\":18731:18749   */\n      tag_513\n      tag_303\n      jump\t// in\n    tag_513:\n        /* \"#utility.yul\":18715:18751   */\n    tag_512:\n        /* \"#utility.yul\":18567:18758   */\n      swap3\n      swap2\n      pop\n      pop\n      jump\t// out\n        /* \"#utility.yul\":18764:19174   */\n    tag_136:\n        /* \"#utility.yul\":18804:18811   */\n      0x00\n        /* \"#utility.yul\":18827:18847   */\n      tag_515\n        /* \"#utility.yul\":18845:18846   */\n      dup3\n        /* \"#utility.yul\":18827:18847   */\n      tag_251\n      jump\t// in\n    tag_515:\n        /* \"#utility.yul\":18822:18847   */\n      swap2\n      pop\n        /* \"#utility.yul\":18861:18881   */\n      tag_516\n        /* \"#utility.yul\":18879:18880   */\n      dup4\n        /* \"#utility.yul\":18861:18881   */\n      tag_251\n      jump\t// in\n    tag_516:\n        /* \"#utility.yul\":18856:18881   */\n      swap3\n      pop\n        /* \"#utility.yul\":18916:18917   */\n      dup3\n        /* \"#utility.yul\":18913:18914   */\n      dup3\n        /* \"#utility.yul\":18909:18918   */\n      mul\n        /* \"#utility.yul\":18938:18968   */\n      tag_517\n        /* \"#utility.yul\":18956:18967   */\n      dup2\n        /* \"#utility.yul\":18938:18968   */\n      tag_251\n      jump\t// in\n    tag_517:\n        /* \"#utility.yul\":18927:18968   */\n      swap2\n      pop\n        /* \"#utility.yul\":19117:19118   */\n      dup3\n        /* \"#utility.yul\":19108:19115   */\n      dup3\n        /* \"#utility.yul\":19104:19119   */\n      div\n        /* \"#utility.yul\":19101:19102   */\n      dup5\n        /* \"#utility.yul\":19098:19120   */\n      eq\n        /* \"#utility.yul\":19078:19079   */\n      dup4\n        /* \"#utility.yul\":19071:19080   */\n      iszero\n        /* \"#utility.yul\":19051:19134   */\n      or\n        /* \"#utility.yul\":19028:19167   */\n      tag_518\n      jumpi\n        /* \"#utility.yul\":19147:19165   */\n      tag_519\n      tag_303\n      jump\t// in\n    tag_519:\n        /* \"#utility.yul\":19028:19167   */\n    tag_518:\n        /* \"#utility.yul\":18812:19174   */\n      pop\n        /* \"#utility.yul\":18764:19174   */\n      swap3\n      swap2\n      pop\n      pop\n      jump\t// out\n        /* \"#utility.yul\":19180:19360   */\n    tag_304:\n        /* \"#utility.yul\":19228:19305   */\n      0x4e487b7100000000000000000000000000000000000000000000000000000000\n        /* \"#utility.yul\":19225:19226   */\n      0x00\n        /* \"#utility.yul\":19218:19306   */\n      mstore\n        /* \"#utility.yul\":19325:19329   */\n      0x12\n        /* \"#utility.yul\":19322:19323   */\n      0x04\n        /* \"#utility.yul\":19315:19330   */\n      mstore\n        /* \"#utility.yul\":19349:19353   */\n      0x24\n        /* \"#utility.yul\":19346:19347   */\n      0x00\n        /* \"#utility.yul\":19339:19354   */\n      revert\n        /* \"#utility.yul\":19366:19551   */\n    tag_138:\n        /* \"#utility.yul\":19406:19407   */\n      0x00\n        /* \"#utility.yul\":19423:19443   */\n      tag_522\n        /* \"#utility.yul\":19441:19442   */\n      dup3\n        /* \"#utility.yul\":19423:19443   */\n      tag_251\n      jump\t// in\n    tag_522:\n        /* \"#utility.yul\":19418:19443   */\n      swap2\n      pop\n        /* \"#utility.yul\":19457:19477   */\n      tag_523\n        /* \"#utility.yul\":19475:19476   */\n      dup4\n        /* \"#utility.yul\":19457:19477   */\n      tag_251\n      jump\t// in\n    tag_523:\n        /* \"#utility.yul\":19452:19477   */\n      swap3\n      pop\n        /* \"#utility.yul\":19496:19497   */\n      dup3\n        /* \"#utility.yul\":19486:19521   */\n      tag_524\n      jumpi\n        /* \"#utility.yul\":19501:19519   */\n      tag_525\n      tag_304\n      jump\t// in\n    tag_525:\n        /* \"#utility.yul\":19486:19521   */\n    tag_524:\n        /* \"#utility.yul\":19543:19544   */\n      dup3\n        /* \"#utility.yul\":19540:19541   */\n      dup3\n        /* \"#utility.yul\":19536:19545   */\n      div\n        /* \"#utility.yul\":19531:19545   */\n      swap1\n      pop\n        /* \"#utility.yul\":19366:19551   */\n      swap3\n      swap2\n      pop\n      pop\n      jump\t// out\n        /* \"#utility.yul\":19557:19720   */\n    tag_305:\n        /* \"#utility.yul\":19697:19712   */\n      0x496e76616c696420636c61696d00000000000000000000000000000000000000\n        /* \"#utility.yul\":19693:19694   */\n      0x00\n        /* \"#utility.yul\":19685:19691   */\n      dup3\n        /* \"#utility.yul\":19681:19695   */\n      add\n        /* \"#utility.yul\":19674:19713   */\n      mstore\n        /* \"#utility.yul\":19557:19720   */\n      pop\n      jump\t// out\n        /* \"#utility.yul\":19726:20092   */\n    tag_306:\n        /* \"#utility.yul\":19868:19871   */\n      0x00\n        /* \"#utility.yul\":19889:19956   */\n      tag_528\n        /* \"#utility.yul\":19953:19955   */\n      0x0d\n        /* \"#utility.yul\":19948:19951   */\n      dup4\n        /* \"#utility.yul\":19889:19956   */\n      tag_276\n      jump\t// in\n    tag_528:\n        /* \"#utility.yul\":19882:19956   */\n      swap2\n      pop\n        /* \"#utility.yul\":19965:20058   */\n      tag_529\n        /* \"#utility.yul\":20054:20057   */\n      dup3\n        /* \"#utility.yul\":19965:20058   */\n      tag_305\n      jump\t// in\n    tag_529:\n        /* \"#utility.yul\":20083:20085   */\n      0x20\n        /* \"#utility.yul\":20078:20081   */\n      dup3\n        /* \"#utility.yul\":20074:20086   */\n      add\n        /* \"#utility.yul\":20067:20086   */\n      swap1\n      pop\n        /* \"#utility.yul\":19726:20092   */\n      swap2\n      swap1\n      pop\n      jump\t// out\n        /* \"#utility.yul\":20098:20517   */\n    tag_146:\n        /* \"#utility.yul\":20264:20268   */\n      0x00\n        /* \"#utility.yul\":20302:20304   */\n      0x20\n        /* \"#utility.yul\":20291:20300   */\n      dup3\n        /* \"#utility.yul\":20287:20305   */\n      add\n        /* \"#utility.yul\":20279:20305   */\n      swap1\n      pop\n        /* \"#utility.yul\":20351:20360   */\n      dup2\n        /* \"#utility.yul\":20345:20349   */\n      dup2\n        /* \"#utility.yul\":20341:20361   */\n      sub\n        /* \"#utility.yul\":20337:20338   */\n      0x00\n        /* \"#utility.yul\":20326:20335   */\n      dup4\n        /* \"#utility.yul\":20322:20339   */\n      add\n        /* \"#utility.yul\":20315:20362   */\n      mstore\n        /* \"#utility.yul\":20379:20510   */\n      tag_531\n        /* \"#utility.yul\":20505:20509   */\n      dup2\n        /* \"#utility.yul\":20379:20510   */\n      tag_306\n      jump\t// in\n    tag_531:\n        /* \"#utility.yul\":20371:20510   */\n      swap1\n      pop\n        /* \"#utility.yul\":20098:20517   */\n      swap2\n      swap1\n      pop\n      jump\t// out\n        /* \"#utility.yul\":20523:20695   */\n    tag_307:\n        /* \"#utility.yul\":20663:20687   */\n      0x42657474696e6720706572696f64206973206f76657200000000000000000000\n        /* \"#utility.yul\":20659:20660   */\n      0x00\n        /* \"#utility.yul\":20651:20657   */\n      dup3\n        /* \"#utility.yul\":20647:20661   */\n      add\n        /* \"#utility.yul\":20640:20688   */\n      mstore\n        /* \"#utility.yul\":20523:20695   */\n      pop\n      jump\t// out\n        /* \"#utility.yul\":20701:21067   */\n    tag_308:\n        /* \"#utility.yul\":20843:20846   */\n      0x00\n        /* \"#utility.yul\":20864:20931   */\n      tag_534\n        /* \"#utility.yul\":20928:20930   */\n      0x16\n        /* \"#utility.yul\":20923:20926   */\n      dup4\n        /* \"#utility.yul\":20864:20931   */\n      tag_276\n      jump\t// in\n    tag_534:\n        /* \"#utility.yul\":20857:20931   */\n      swap2\n      pop\n        /* \"#utility.yul\":20940:21033   */\n      tag_535\n        /* \"#utility.yul\":21029:21032   */\n      dup3\n        /* \"#utility.yul\":20940:21033   */\n      tag_307\n      jump\t// in\n    tag_535:\n        /* \"#utility.yul\":21058:21060   */\n      0x20\n        /* \"#utility.yul\":21053:21056   */\n      dup3\n        /* \"#utility.yul\":21049:21061   */\n      add\n        /* \"#utility.yul\":21042:21061   */\n      swap1\n      pop\n        /* \"#utility.yul\":20701:21067   */\n      swap2\n      swap1\n      pop\n      jump\t// out\n        /* \"#utility.yul\":21073:21492   */\n    tag_160:\n        /* \"#utility.yul\":21239:21243   */\n      0x00\n        /* \"#utility.yul\":21277:21279   */\n      0x20\n        /* \"#utility.yul\":21266:21275   */\n      dup3\n        /* \"#utility.yul\":21262:21280   */\n      add\n        /* \"#utility.yul\":21254:21280   */\n      swap1\n      pop\n        /* \"#utility.yul\":21326:21335   */\n      dup2\n        /* \"#utility.yul\":21320:21324   */\n      dup2\n        /* \"#utility.yul\":21316:21336   */\n      sub\n        /* \"#utility.yul\":21312:21313   */\n      0x00\n        /* \"#utility.yul\":21301:21310   */\n      dup4\n        /* \"#utility.yul\":21297:21314   */\n      add\n        /* \"#utility.yul\":21290:21337   */\n      mstore\n        /* \"#utility.yul\":21354:21485   */\n      tag_537\n        /* \"#utility.yul\":21480:21484   */\n      dup2\n        /* \"#utility.yul\":21354:21485   */\n      tag_308\n      jump\t// in\n    tag_537:\n        /* \"#utility.yul\":21346:21485   */\n      swap1\n      pop\n        /* \"#utility.yul\":21073:21492   */\n      swap2\n      swap1\n      pop\n      jump\t// out\n        /* \"#utility.yul\":21498:21665   */\n    tag_309:\n        /* \"#utility.yul\":21638:21657   */\n      0x496e76616c69642063616e646964617465000000000000000000000000000000\n        /* \"#utility.yul\":21634:21635   */\n      0x00\n        /* \"#utility.yul\":21626:21632   */\n      dup3\n        /* \"#utility.yul\":21622:21636   */\n      add\n        /* \"#utility.yul\":21615:21658   */\n      mstore\n        /* \"#utility.yul\":21498:21665   */\n      pop\n      jump\t// out\n        /* \"#utility.yul\":21671:22037   */\n    tag_310:\n        /* \"#utility.yul\":21813:21816   */\n      0x00\n        /* \"#utility.yul\":21834:21901   */\n      tag_540\n        /* \"#utility.yul\":21898:21900   */\n      0x11\n        /* \"#utility.yul\":21893:21896   */\n      dup4\n        /* \"#utility.yul\":21834:21901   */\n      tag_276\n      jump\t// in\n    tag_540:\n        /* \"#utility.yul\":21827:21901   */\n      swap2\n      pop\n        /* \"#utility.yul\":21910:22003   */\n      tag_541\n        /* \"#utility.yul\":21999:22002   */\n      dup3\n        /* \"#utility.yul\":21910:22003   */\n      tag_309\n      jump\t// in\n    tag_541:\n        /* \"#utility.yul\":22028:22030   */\n      0x20\n        /* \"#utility.yul\":22023:22026   */\n      dup3\n        /* \"#utility.yul\":22019:22031   */\n      add\n        /* \"#utility.yul\":22012:22031   */\n      swap1\n      pop\n        /* \"#utility.yul\":21671:22037   */\n      swap2\n      swap1\n      pop\n      jump\t// out\n        /* \"#utility.yul\":22043:22462   */\n    tag_165:\n        /* \"#utility.yul\":22209:22213   */\n      0x00\n        /* \"#utility.yul\":22247:22249   */\n      0x20\n        /* \"#utility.yul\":22236:22245   */\n      dup3\n        /* \"#utility.yul\":22232:22250   */\n      add\n        /* \"#utility.yul\":22224:22250   */\n      swap1\n      pop\n        /* \"#utility.yul\":22296:22305   */\n      dup2\n        /* \"#utility.yul\":22290:22294   */\n      dup2\n        /* \"#utility.yul\":22286:22306   */\n      sub\n        /* \"#utility.yul\":22282:22283   */\n      0x00\n        /* \"#utility.yul\":22271:22280   */\n      dup4\n        /* \"#utility.yul\":22267:22284   */\n      add\n        /* \"#utility.yul\":22260:22307   */\n      mstore\n        /* \"#utility.yul\":22324:22455   */\n      tag_543\n        /* \"#utility.yul\":22450:22454   */\n      dup2\n        /* \"#utility.yul\":22324:22455   */\n      tag_310\n      jump\t// in\n    tag_543:\n        /* \"#utility.yul\":22316:22455   */\n      swap1\n      pop\n        /* \"#utility.yul\":22043:22462   */\n      swap2\n      swap1\n      pop\n      jump\t// out\n        /* \"#utility.yul\":22468:22629   */\n    tag_311:\n        /* \"#utility.yul\":22608:22621   */\n      0x496e76616c696420626574000000000000000000000000000000000000000000\n        /* \"#utility.yul\":22604:22605   */\n      0x00\n        /* \"#utility.yul\":22596:22602   */\n      dup3\n        /* \"#utility.yul\":22592:22606   */\n      add\n        /* \"#utility.yul\":22585:22622   */\n      mstore\n        /* \"#utility.yul\":22468:22629   */\n      pop\n      jump\t// out\n        /* \"#utility.yul\":22635:23001   */\n    tag_312:\n        /* \"#utility.yul\":22777:22780   */\n      0x00\n        /* \"#utility.yul\":22798:22865   */\n      tag_546\n        /* \"#utility.yul\":22862:22864   */\n      0x0b\n        /* \"#utility.yul\":22857:22860   */\n      dup4\n        /* \"#utility.yul\":22798:22865   */\n      tag_276\n      jump\t// in\n    tag_546:\n        /* \"#utility.yul\":22791:22865   */\n      swap2\n      pop\n        /* \"#utility.yul\":22874:22967   */\n      tag_547\n        /* \"#utility.yul\":22963:22966   */\n      dup3\n        /* \"#utility.yul\":22874:22967   */\n      tag_311\n      jump\t// in\n    tag_547:\n        /* \"#utility.yul\":22992:22994   */\n      0x20\n        /* \"#utility.yul\":22987:22990   */\n      dup3\n        /* \"#utility.yul\":22983:22995   */\n      add\n        /* \"#utility.yul\":22976:22995   */\n      swap1\n      pop\n        /* \"#utility.yul\":22635:23001   */\n      swap2\n      swap1\n      pop\n      jump\t// out\n        /* \"#utility.yul\":23007:23426   */\n    tag_168:\n        /* \"#utility.yul\":23173:23177   */\n      0x00\n        /* \"#utility.yul\":23211:23213   */\n      0x20\n        /* \"#utility.yul\":23200:23209   */\n      dup3\n        /* \"#utility.yul\":23196:23214   */\n      add\n        /* \"#utility.yul\":23188:23214   */\n      swap1\n      pop\n        /* \"#utility.yul\":23260:23269   */\n      dup2\n        /* \"#utility.yul\":23254:23258   */\n      dup2\n        /* \"#utility.yul\":23250:23270   */\n      sub\n        /* \"#utility.yul\":23246:23247   */\n      0x00\n        /* \"#utility.yul\":23235:23244   */\n      dup4\n        /* \"#utility.yul\":23231:23248   */\n      add\n        /* \"#utility.yul\":23224:23271   */\n      mstore\n        /* \"#utility.yul\":23288:23419   */\n      tag_549\n        /* \"#utility.yul\":23414:23418   */\n      dup2\n        /* \"#utility.yul\":23288:23419   */\n      tag_312\n      jump\t// in\n    tag_549:\n        /* \"#utility.yul\":23280:23419   */\n      swap1\n      pop\n        /* \"#utility.yul\":23007:23426   */\n      swap2\n      swap1\n      pop\n      jump\t// out\n        /* \"#utility.yul\":23432:23596   */\n    tag_313:\n        /* \"#utility.yul\":23572:23588   */\n      0x4469737075746520636c6f736564000000000000000000000000000000000000\n        /* \"#utility.yul\":23568:23569   */\n      0x00\n        /* \"#utility.yul\":23560:23566   */\n      dup3\n        /* \"#utility.yul\":23556:23570   */\n      add\n        /* \"#utility.yul\":23549:23589   */\n      mstore\n        /* \"#utility.yul\":23432:23596   */\n      pop\n      jump\t// out\n        /* \"#utility.yul\":23602:23968   */\n    tag_314:\n        /* \"#utility.yul\":23744:23747   */\n      0x00\n        /* \"#utility.yul\":23765:23832   */\n      tag_552\n        /* \"#utility.yul\":23829:23831   */\n      0x0e\n        /* \"#utility.yul\":23824:23827   */\n      dup4\n        /* \"#utility.yul\":23765:23832   */\n      tag_276\n      jump\t// in\n    tag_552:\n        /* \"#utility.yul\":23758:23832   */\n      swap2\n      pop\n        /* \"#utility.yul\":23841:23934   */\n      tag_553\n        /* \"#utility.yul\":23930:23933   */\n      dup3\n        /* \"#utility.yul\":23841:23934   */\n      tag_313\n      jump\t// in\n    tag_553:\n        /* \"#utility.yul\":23959:23961   */\n      0x20\n        /* \"#utility.yul\":23954:23957   */\n      dup3\n        /* \"#utility.yul\":23950:23962   */\n      add\n        /* \"#utility.yul\":23943:23962   */\n      swap1\n      pop\n        /* \"#utility.yul\":23602:23968   */\n      swap2\n      swap1\n      pop\n      jump\t// out\n        /* \"#utility.yul\":23974:24393   */\n    tag_171:\n        /* \"#utility.yul\":24140:24144   */\n      0x00\n        /* \"#utility.yul\":24178:24180   */\n      0x20\n        /* \"#utility.yul\":24167:24176   */\n      dup3\n        /* \"#utility.yul\":24163:24181   */\n      add\n        /* \"#utility.yul\":24155:24181   */\n      swap1\n      pop\n        /* \"#utility.yul\":24227:24236   */\n      dup2\n        /* \"#utility.yul\":24221:24225   */\n      dup2\n        /* \"#utility.yul\":24217:24237   */\n      sub\n        /* \"#utility.yul\":24213:24214   */\n      0x00\n        /* \"#utility.yul\":24202:24211   */\n      dup4\n        /* \"#utility.yul\":24198:24215   */\n      add\n        /* \"#utility.yul\":24191:24238   */\n      mstore\n        /* \"#utility.yul\":24255:24386   */\n      tag_555\n        /* \"#utility.yul\":24381:24385   */\n      dup2\n        /* \"#utility.yul\":24255:24386   */\n      tag_314\n      jump\t// in\n    tag_555:\n        /* \"#utility.yul\":24247:24386   */\n      swap1\n      pop\n        /* \"#utility.yul\":23974:24393   */\n      swap2\n      swap1\n      pop\n      jump\t// out\n        /* \"#utility.yul\":24399:24569   */\n    tag_315:\n        /* \"#utility.yul\":24539:24561   */\n      0x416c726561647920706c61636564206120626574000000000000000000000000\n        /* \"#utility.yul\":24535:24536   */\n      0x00\n        /* \"#utility.yul\":24527:24533   */\n      dup3\n        /* \"#utility.yul\":24523:24537   */\n      add\n        /* \"#utility.yul\":24516:24562   */\n      mstore\n        /* \"#utility.yul\":24399:24569   */\n      pop\n      jump\t// out\n        /* \"#utility.yul\":24575:24941   */\n    tag_316:\n        /* \"#utility.yul\":24717:24720   */\n      0x00\n        /* \"#utility.yul\":24738:24805   */\n      tag_558\n        /* \"#utility.yul\":24802:24804   */\n      0x14\n        /* \"#utility.yul\":24797:24800   */\n      dup4\n        /* \"#utility.yul\":24738:24805   */\n      tag_276\n      jump\t// in\n    tag_558:\n        /* \"#utility.yul\":24731:24805   */\n      swap2\n      pop\n        /* \"#utility.yul\":24814:24907   */\n      tag_559\n        /* \"#utility.yul\":24903:24906   */\n      dup3\n        /* \"#utility.yul\":24814:24907   */\n      tag_315\n      jump\t// in\n    tag_559:\n        /* \"#utility.yul\":24932:24934   */\n      0x20\n        /* \"#utility.yul\":24927:24930   */\n      dup3\n        /* \"#utility.yul\":24923:24935   */\n      add\n        /* \"#utility.yul\":24916:24935   */\n      swap1\n      pop\n        /* \"#utility.yul\":24575:24941   */\n      swap2\n      swap1\n      pop\n      jump\t// out\n        /* \"#utility.yul\":24947:25366   */\n    tag_174:\n        /* \"#utility.yul\":25113:25117   */\n      0x00\n        /* \"#utility.yul\":25151:25153   */\n      0x20\n        /* \"#utility.yul\":25140:25149   */\n      dup3\n        /* \"#utility.yul\":25136:25154   */\n      add\n        /* \"#utility.yul\":25128:25154   */\n      swap1\n      pop\n        /* \"#utility.yul\":25200:25209   */\n      dup2\n        /* \"#utility.yul\":25194:25198   */\n      dup2\n        /* \"#utility.yul\":25190:25210   */\n      sub\n        /* \"#utility.yul\":25186:25187   */\n      0x00\n        /* \"#utility.yul\":25175:25184   */\n      dup4\n        /* \"#utility.yul\":25171:25188   */\n      add\n        /* \"#utility.yul\":25164:25211   */\n      mstore\n        /* \"#utility.yul\":25228:25359   */\n      tag_561\n        /* \"#utility.yul\":25354:25358   */\n      dup2\n        /* \"#utility.yul\":25228:25359   */\n      tag_316\n      jump\t// in\n    tag_561:\n        /* \"#utility.yul\":25220:25359   */\n      swap1\n      pop\n        /* \"#utility.yul\":24947:25366   */\n      swap2\n      swap1\n      pop\n      jump\t// out\n        /* \"#utility.yul\":25372:25549   */\n    tag_317:\n        /* \"#utility.yul\":25512:25541   */\n      0x46696e69736820706572696f6420616c726561647920656e6465640000000000\n        /* \"#utility.yul\":25508:25509   */\n      0x00\n        /* \"#utility.yul\":25500:25506   */\n      dup3\n        /* \"#utility.yul\":25496:25510   */\n      add\n        /* \"#utility.yul\":25489:25542   */\n      mstore\n        /* \"#utility.yul\":25372:25549   */\n      pop\n      jump\t// out\n        /* \"#utility.yul\":25555:25921   */\n    tag_318:\n        /* \"#utility.yul\":25697:25700   */\n      0x00\n        /* \"#utility.yul\":25718:25785   */\n      tag_564\n        /* \"#utility.yul\":25782:25784   */\n      0x1b\n        /* \"#utility.yul\":25777:25780   */\n      dup4\n        /* \"#utility.yul\":25718:25785   */\n      tag_276\n      jump\t// in\n    tag_564:\n        /* \"#utility.yul\":25711:25785   */\n      swap2\n      pop\n        /* \"#utility.yul\":25794:25887   */\n      tag_565\n        /* \"#utility.yul\":25883:25886   */\n      dup3\n        /* \"#utility.yul\":25794:25887   */\n      tag_317\n      jump\t// in\n    tag_565:\n        /* \"#utility.yul\":25912:25914   */\n      0x20\n        /* \"#utility.yul\":25907:25910   */\n      dup3\n        /* \"#utility.yul\":25903:25915   */\n      add\n        /* \"#utility.yul\":25896:25915   */\n      swap1\n      pop\n        /* \"#utility.yul\":25555:25921   */\n      swap2\n      swap1\n      pop\n      jump\t// out\n        /* \"#utility.yul\":25927:26346   */\n    tag_193:\n        /* \"#utility.yul\":26093:26097   */\n      0x00\n        /* \"#utility.yul\":26131:26133   */\n      0x20\n        /* \"#utility.yul\":26120:26129   */\n      dup3\n        /* \"#utility.yul\":26116:26134   */\n      add\n        /* \"#utility.yul\":26108:26134   */\n      swap1\n      pop\n        /* \"#utility.yul\":26180:26189   */\n      dup2\n        /* \"#utility.yul\":26174:26178   */\n      dup2\n        /* \"#utility.yul\":26170:26190   */\n      sub\n        /* \"#utility.yul\":26166:26167   */\n      0x00\n        /* \"#utility.yul\":26155:26164   */\n      dup4\n        /* \"#utility.yul\":26151:26168   */\n      add\n        /* \"#utility.yul\":26144:26191   */\n      mstore\n        /* \"#utility.yul\":26208:26339   */\n      tag_567\n        /* \"#utility.yul\":26334:26338   */\n      dup2\n        /* \"#utility.yul\":26208:26339   */\n      tag_318\n      jump\t// in\n    tag_567:\n        /* \"#utility.yul\":26200:26339   */\n      swap1\n      pop\n        /* \"#utility.yul\":25927:26346   */\n      swap2\n      swap1\n      pop\n      jump\t// out\n        /* \"#utility.yul\":26352:26530   */\n    tag_319:\n        /* \"#utility.yul\":26492:26522   */\n      0x42657474696e6720706572696f6420616c726561647920656e64656400000000\n        /* \"#utility.yul\":26488:26489   */\n      0x00\n        /* \"#utility.yul\":26480:26486   */\n      dup3\n        /* \"#utility.yul\":26476:26490   */\n      add\n        /* \"#utility.yul\":26469:26523   */\n      mstore\n        /* \"#utility.yul\":26352:26530   */\n      pop\n      jump\t// out\n        /* \"#utility.yul\":26536:26902   */\n    tag_320:\n        /* \"#utility.yul\":26678:26681   */\n      0x00\n        /* \"#utility.yul\":26699:26766   */\n      tag_570\n        /* \"#utility.yul\":26763:26765   */\n      0x1c\n        /* \"#utility.yul\":26758:26761   */\n      dup4\n        /* \"#utility.yul\":26699:26766   */\n      tag_276\n      jump\t// in\n    tag_570:\n        /* \"#utility.yul\":26692:26766   */\n      swap2\n      pop\n        /* \"#utility.yul\":26775:26868   */\n      tag_571\n        /* \"#utility.yul\":26864:26867   */\n      dup3\n        /* \"#utility.yul\":26775:26868   */\n      tag_319\n      jump\t// in\n    tag_571:\n        /* \"#utility.yul\":26893:26895   */\n      0x20\n        /* \"#utility.yul\":26888:26891   */\n      dup3\n        /* \"#utility.yul\":26884:26896   */\n      add\n        /* \"#utility.yul\":26877:26896   */\n      swap1\n      pop\n        /* \"#utility.yul\":26536:26902   */\n      swap2\n      swap1\n      pop\n      jump\t// out\n        /* \"#utility.yul\":26908:27327   */\n    tag_200:\n        /* \"#utility.yul\":27074:27078   */\n      0x00\n        /* \"#utility.yul\":27112:27114   */\n      0x20\n        /* \"#utility.yul\":27101:27110   */\n      dup3\n        /* \"#utility.yul\":27097:27115   */\n      add\n        /* \"#utility.yul\":27089:27115   */\n      swap1\n      pop\n        /* \"#utility.yul\":27161:27170   */\n      dup2\n        /* \"#utility.yul\":27155:27159   */\n      dup2\n        /* \"#utility.yul\":27151:27171   */\n      sub\n        /* \"#utility.yul\":27147:27148   */\n      0x00\n        /* \"#utility.yul\":27136:27145   */\n      dup4\n        /* \"#utility.yul\":27132:27149   */\n      add\n        /* \"#utility.yul\":27125:27172   */\n      mstore\n        /* \"#utility.yul\":27189:27320   */\n      tag_573\n        /* \"#utility.yul\":27315:27319   */\n      dup2\n        /* \"#utility.yul\":27189:27320   */\n      tag_320\n      jump\t// in\n    tag_573:\n        /* \"#utility.yul\":27181:27320   */\n      swap1\n      pop\n        /* \"#utility.yul\":26908:27327   */\n      swap2\n      swap1\n      pop\n      jump\t// out\n        /* \"#utility.yul\":27333:27498   */\n    tag_321:\n        /* \"#utility.yul\":27473:27490   */\n      0x496e76616c6964206163636f756e740000000000000000000000000000000000\n        /* \"#utility.yul\":27469:27470   */\n      0x00\n        /* \"#utility.yul\":27461:27467   */\n      dup3\n        /* \"#utility.yul\":27457:27471   */\n      add\n        /* \"#utility.yul\":27450:27491   */\n      mstore\n        /* \"#utility.yul\":27333:27498   */\n      pop\n      jump\t// out\n        /* \"#utility.yul\":27504:27870   */\n    tag_322:\n        /* \"#utility.yul\":27646:27649   */\n      0x00\n        /* \"#utility.yul\":27667:27734   */\n      tag_576\n        /* \"#utility.yul\":27731:27733   */\n      0x0f\n        /* \"#utility.yul\":27726:27729   */\n      dup4\n        /* \"#utility.yul\":27667:27734   */\n      tag_276\n      jump\t// in\n    tag_576:\n        /* \"#utility.yul\":27660:27734   */\n      swap2\n      pop\n        /* \"#utility.yul\":27743:27836   */\n      tag_577\n        /* \"#utility.yul\":27832:27835   */\n      dup3\n        /* \"#utility.yul\":27743:27836   */\n      tag_321\n      jump\t// in\n    tag_577:\n        /* \"#utility.yul\":27861:27863   */\n      0x20\n        /* \"#utility.yul\":27856:27859   */\n      dup3\n        /* \"#utility.yul\":27852:27864   */\n      add\n        /* \"#utility.yul\":27845:27864   */\n      swap1\n      pop\n        /* \"#utility.yul\":27504:27870   */\n      swap2\n      swap1\n      pop\n      jump\t// out\n        /* \"#utility.yul\":27876:28295   */\n    tag_204:\n        /* \"#utility.yul\":28042:28046   */\n      0x00\n        /* \"#utility.yul\":28080:28082   */\n      0x20\n        /* \"#utility.yul\":28069:28078   */\n      dup3\n        /* \"#utility.yul\":28065:28083   */\n      add\n        /* \"#utility.yul\":28057:28083   */\n      swap1\n      pop\n        /* \"#utility.yul\":28129:28138   */\n      dup2\n        /* \"#utility.yul\":28123:28127   */\n      dup2\n        /* \"#utility.yul\":28119:28139   */\n      sub\n        /* \"#utility.yul\":28115:28116   */\n      0x00\n        /* \"#utility.yul\":28104:28113   */\n      dup4\n        /* \"#utility.yul\":28100:28117   */\n      add\n        /* \"#utility.yul\":28093:28140   */\n      mstore\n        /* \"#utility.yul\":28157:28288   */\n      tag_579\n        /* \"#utility.yul\":28283:28287   */\n      dup2\n        /* \"#utility.yul\":28157:28288   */\n      tag_322\n      jump\t// in\n    tag_579:\n        /* \"#utility.yul\":28149:28288   */\n      swap1\n      pop\n        /* \"#utility.yul\":27876:28295   */\n      swap2\n      swap1\n      pop\n      jump\t// out\n        /* \"#utility.yul\":28301:28524   */\n    tag_323:\n        /* \"#utility.yul\":28441:28475   */\n      0x43616e6e6f742066696e697368206265666f72652066696e69736820656e6420\n        /* \"#utility.yul\":28437:28438   */\n      0x00\n        /* \"#utility.yul\":28429:28435   */\n      dup3\n        /* \"#utility.yul\":28425:28439   */\n      add\n        /* \"#utility.yul\":28418:28476   */\n      mstore\n        /* \"#utility.yul\":28510:28516   */\n      0x74696d6500000000000000000000000000000000000000000000000000000000\n        /* \"#utility.yul\":28505:28507   */\n      0x20\n        /* \"#utility.yul\":28497:28503   */\n      dup3\n        /* \"#utility.yul\":28493:28508   */\n      add\n        /* \"#utility.yul\":28486:28517   */\n      mstore\n        /* \"#utility.yul\":28301:28524   */\n      pop\n      jump\t// out\n        /* \"#utility.yul\":28530:28896   */\n    tag_324:\n        /* \"#utility.yul\":28672:28675   */\n      0x00\n        /* \"#utility.yul\":28693:28760   */\n      tag_582\n        /* \"#utility.yul\":28757:28759   */\n      0x24\n        /* \"#utility.yul\":28752:28755   */\n      dup4\n        /* \"#utility.yul\":28693:28760   */\n      tag_276\n      jump\t// in\n    tag_582:\n        /* \"#utility.yul\":28686:28760   */\n      swap2\n      pop\n        /* \"#utility.yul\":28769:28862   */\n      tag_583\n        /* \"#utility.yul\":28858:28861   */\n      dup3\n        /* \"#utility.yul\":28769:28862   */\n      tag_323\n      jump\t// in\n    tag_583:\n        /* \"#utility.yul\":28887:28889   */\n      0x40\n        /* \"#utility.yul\":28882:28885   */\n      dup3\n        /* \"#utility.yul\":28878:28890   */\n      add\n        /* \"#utility.yul\":28871:28890   */\n      swap1\n      pop\n        /* \"#utility.yul\":28530:28896   */\n      swap2\n      swap1\n      pop\n      jump\t// out\n        /* \"#utility.yul\":28902:29321   */\n    tag_213:\n        /* \"#utility.yul\":29068:29072   */\n      0x00\n        /* \"#utility.yul\":29106:29108   */\n      0x20\n        /* \"#utility.yul\":29095:29104   */\n      dup3\n        /* \"#utility.yul\":29091:29109   */\n      add\n        /* \"#utility.yul\":29083:29109   */\n      swap1\n      pop\n        /* \"#utility.yul\":29155:29164   */\n      dup2\n        /* \"#utility.yul\":29149:29153   */\n      dup2\n        /* \"#utility.yul\":29145:29165   */\n      sub\n        /* \"#utility.yul\":29141:29142   */\n      0x00\n        /* \"#utility.yul\":29130:29139   */\n      dup4\n        /* \"#utility.yul\":29126:29143   */\n      add\n        /* \"#utility.yul\":29119:29166   */\n      mstore\n        /* \"#utility.yul\":29183:29314   */\n      tag_585\n        /* \"#utility.yul\":29309:29313   */\n      dup2\n        /* \"#utility.yul\":29183:29314   */\n      tag_324\n      jump\t// in\n    tag_585:\n        /* \"#utility.yul\":29175:29314   */\n      swap1\n      pop\n        /* \"#utility.yul\":28902:29321   */\n      swap2\n      swap1\n      pop\n      jump\t// out\n        /* \"#utility.yul\":29327:29521   */\n    tag_219:\n        /* \"#utility.yul\":29367:29371   */\n      0x00\n        /* \"#utility.yul\":29387:29407   */\n      tag_587\n        /* \"#utility.yul\":29405:29406   */\n      dup3\n        /* \"#utility.yul\":29387:29407   */\n      tag_251\n      jump\t// in\n    tag_587:\n        /* \"#utility.yul\":29382:29407   */\n      swap2\n      pop\n        /* \"#utility.yul\":29421:29441   */\n      tag_588\n        /* \"#utility.yul\":29439:29440   */\n      dup4\n        /* \"#utility.yul\":29421:29441   */\n      tag_251\n      jump\t// in\n    tag_588:\n        /* \"#utility.yul\":29416:29441   */\n      swap3\n      pop\n        /* \"#utility.yul\":29465:29466   */\n      dup3\n        /* \"#utility.yul\":29462:29463   */\n      dup3\n        /* \"#utility.yul\":29458:29467   */\n      sub\n        /* \"#utility.yul\":29450:29467   */\n      swap1\n      pop\n        /* \"#utility.yul\":29489:29490   */\n      dup2\n        /* \"#utility.yul\":29483:29487   */\n      dup2\n        /* \"#utility.yul\":29480:29491   */\n      gt\n        /* \"#utility.yul\":29477:29514   */\n      iszero\n      tag_589\n      jumpi\n        /* \"#utility.yul\":29494:29512   */\n      tag_590\n      tag_303\n      jump\t// in\n    tag_590:\n        /* \"#utility.yul\":29477:29514   */\n    tag_589:\n        /* \"#utility.yul\":29327:29521   */\n      swap3\n      swap2\n      pop\n      pop\n      jump\t// out\n\n    auxdata: 0xa2646970667358221220e92fb565963ab0e59950ba79ff79e41ebc63ae50f59b4fba671f407a2cb0710064736f6c634300081a0033\n}\n",
				"bytecode": {
					"linkReferences": {},
					"object": "60a06040526103e8600b55348015610015575f80fd5b503373ffffffffffffffffffffffffffffffffffffffff1660808173ffffffffffffffffffffffffffffffffffffffff16815250506040518061014001604052806040518060400160405280600981526020017f502e204d617263616c000000000000000000000000000000000000000000000081525081526020016040518060400160405280600981526020017f472e20426f756c6f73000000000000000000000000000000000000000000000081525081526020016040518060400160405280600881526020017f522e204e756e657300000000000000000000000000000000000000000000000081525081526020016040518060400160405280601681526020017f68747470733a2f2f6269742e6c792f346550797361790000000000000000000081525081526020016040518060400160405280601681526020017f68747470733a2f2f6269742e6c792f343757477872710000000000000000000081525081526020016040518060400160405280601681526020017f68747470733a2f2f6269742e6c792f343757474a61380000000000000000000081525081526020015f81526020015f81526020015f81526020015f8152505f80820151815f0190816101e291906104e5565b5060208201518160010190816101f891906104e5565b50604082015181600201908161020e91906104e5565b50606082015181600301908161022491906104e5565b50608082015181600401908161023a91906104e5565b5060a082015181600501908161025091906104e5565b5060c0820151816006015560e0820151816007015561010082015181600801556101208201518160090155905050603c4261028b91906105e1565b600d81905550603c600d546102a091906105e1565b600e81905550610614565b5f81519050919050565b7f4e487b71000000000000000000000000000000000000000000000000000000005f52604160045260245ffd5b7f4e487b71000000000000000000000000000000000000000000000000000000005f52602260045260245ffd5b5f600282049050600182168061032657607f821691505b602082108103610339576103386102e2565b5b50919050565b5f819050815f5260205f209050919050565b5f6020601f8301049050919050565b5f82821b905092915050565b5f6008830261039b7fffffffffffffffffffffffffffffffffffffffffffffffffffffffffffffffff82610360565b6103a58683610360565b95508019841693508086168417925050509392505050565b5f819050919050565b5f819050919050565b5f6103e96103e46103df846103bd565b6103c6565b6103bd565b9050919050565b5f819050919050565b610402836103cf565b61041661040e826103f0565b84845461036c565b825550505050565b5f90565b61042a61041e565b6104358184846103f9565b505050565b5b818110156104585761044d5f82610422565b60018101905061043b565b5050565b601f82111561049d5761046e8161033f565b61047784610351565b81016020851015610486578190505b61049a61049285610351565b83018261043a565b50505b505050565b5f82821c905092915050565b5f6104bd5f19846008026104a2565b1980831691505092915050565b5f6104d583836104ae565b9150826002028217905092915050565b6104ee826102ab565b67ffffffffffffffff811115610507576105066102b5565b5b610511825461030f565b61051c82828561045c565b5f60209050601f83116001811461054d575f841561053b578287015190505b61054585826104ca565b8655506105ac565b601f19841661055b8661033f565b5f5b828110156105825784890151825560018201915060208501945060208101905061055d565b8683101561059f578489015161059b601f8916826104ae565b8355505b6001600288020188555050505b505050505050565b7f4e487b71000000000000000000000000000000000000000000000000000000005f52601160045260245ffd5b5f6105eb826103bd565b91506105f6836103bd565b925082820190508082111561060e5761060d6105b4565b5b92915050565b60805161229d61065d5f395f8181610421015281816104e9015281816105b20152818161073301528181610c1101528181610c3501528181610d430152610e1f015261229d5ff3fe608060405260043610610113575f3560e01c80638da5cb5b1161009f578063d353a1cb11610063578063d353a1cb1461033a578063ddca3f4314610362578063e52376011461038c578063f240f7c3146103b6578063f5556be2146103e957610113565b80638da5cb5b146102575780639317cbe21461028157806393bebee8146102a9578063b670da5a146102e8578063b84391de1461031257610113565b80633e25e837116100e65780633e25e837146101bb5780634e71d92d146101d15780635edbabae146101e757806369b10852146102115780637365870b1461023b57610113565b8063121de3f614610117578063135678f91461014157806314f14d751461016b57806338315a8f14610193575b5f80fd5b348015610122575f80fd5b5061012b610413565b60405161013891906113a5565b60405180910390f35b34801561014c575f80fd5b50610155610419565b60405161016291906113a5565b60405180910390f35b348015610176575f80fd5b50610191600480360381019061018c919061150b565b61041f565b005b34801561019e575f80fd5b506101b960048036038101906101b4919061150b565b6104e7565b005b3480156101c6575f80fd5b506101cf6105b0565b005b3480156101dc575f80fd5b506101e5610799565b005b3480156101f2575f80fd5b506101fb61090b565b60405161020891906113a5565b60405180910390f35b34801561021c575f80fd5b50610225610911565b60405161023291906115c9565b60405180910390f35b6102556004803603810190610250919061160c565b610923565b005b348015610262575f80fd5b5061026b610c0f565b6040516102789190611676565b60405180910390f35b34801561028c575f80fd5b506102a760048036038101906102a2919061160c565b610c33565b005b3480156102b4575f80fd5b506102cf60048036038101906102ca91906116b9565b610d0f565b6040516102df94939291906116e4565b60405180910390f35b3480156102f3575f80fd5b506102fc610d3b565b60405161030991906113a5565b60405180910390f35b34801561031d575f80fd5b506103386004803603810190610333919061160c565b610d41565b005b348015610345575f80fd5b50610360600480360381019061035b919061160c565b610e1d565b005b34801561036d575f80fd5b50610376610ff3565b60405161038391906113a5565b60405180910390f35b348015610397575f80fd5b506103a0610ff9565b6040516103ad91906113a5565b60405180910390f35b3480156103c1575f80fd5b506103ca610fff565b6040516103e09a99989796959493929190611787565b60405180910390f35b3480156103f4575f80fd5b506103fd611363565b60405161040a91906113a5565b60405180910390f35b600c5481565b600f5481565b7f000000000000000000000000000000000000000000000000000000000000000073ffffffffffffffffffffffffffffffffffffffff163373ffffffffffffffffffffffffffffffffffffffff16146104ad576040517f08c379a00000000000000000000000000000000000000000000000000000000081526004016104a4906118bb565b60405180910390fd5b825f800190816104bd9190611ad3565b50815f60010190816104cf9190611ad3565b50805f60020190816104e19190611ad3565b50505050565b7f000000000000000000000000000000000000000000000000000000000000000073ffffffffffffffffffffffffffffffffffffffff163373ffffffffffffffffffffffffffffffffffffffff1614610575576040517f08c379a000000000000000000000000000000000000000000000000000000000815260040161056c906118bb565b60405180910390fd5b825f60030190816105869190611ad3565b50815f60040190816105989190611ad3565b50805f60050190816105aa9190611ad3565b50505050565b7f000000000000000000000000000000000000000000000000000000000000000073ffffffffffffffffffffffffffffffffffffffff163373ffffffffffffffffffffffffffffffffffffffff161461063e576040517f08c379a000000000000000000000000000000000000000000000000000000000815260040161063590611c12565b60405180910390fd5b5f806009015411610684576040517f08c379a000000000000000000000000000000000000000000000000000000000815260040161067b90611c7a565b60405180910390fd5b60125f9054906101000a900460ff16156106d3576040517f08c379a00000000000000000000000000000000000000000000000000000000081526004016106ca90611ce2565b60405180910390fd5b5f80600801545f600701545f600601546106ed9190611d2d565b6106f79190611d2d565b90505f612710600b548361070b9190611d60565b6107159190611dce565b9050600160125f6101000a81548160ff0219169083151502179055507f000000000000000000000000000000000000000000000000000000000000000073ffffffffffffffffffffffffffffffffffffffff166108fc8290811502906040515f60405180830381858888f19350505050158015610794573d5f803e3d5ffd5b505050565b5f600a5f3373ffffffffffffffffffffffffffffffffffffffff1673ffffffffffffffffffffffffffffffffffffffff1681526020019081526020015f2090505f80600901541180156107f3575080600101545f60090154145b801561080257505f8160030154145b610841576040517f08c379a000000000000000000000000000000000000000000000000000000000815260040161083890611e48565b60405180910390fd5b5f60015f600901540361085a575f60060154905061087b565b60025f6009015403610872575f60070154905061087a565b5f6008015490505b5b5f81612710845f015461088e9190611d60565b6108989190611dce565b90505f61271082600c546108ac9190611d60565b6108b69190611dce565b90508084600301819055503373ffffffffffffffffffffffffffffffffffffffff166108fc8290811502906040515f60405180830381858888f19350505050158015610904573d5f803e3d5ffd5b5050505050565b60105481565b60125f9054906101000a900460ff1681565b600d54421115610968576040517f08c379a000000000000000000000000000000000000000000000000000000000815260040161095f90611eb0565b60405180910390fd5b60018114806109775750600281145b806109825750600381145b6109c1576040517f08c379a00000000000000000000000000000000000000000000000000000000081526004016109b890611f18565b60405180910390fd5b5f3411610a03576040517f08c379a00000000000000000000000000000000000000000000000000000000081526004016109fa90611f80565b60405180910390fd5b5f806009015414610a49576040517f08c379a0000000000000000000000000000000000000000000000000000000008152600401610a4090611fe8565b60405180910390fd5b5f600a5f3373ffffffffffffffffffffffffffffffffffffffff1673ffffffffffffffffffffffffffffffffffffffff1681526020019081526020015f205f015414610aca576040517f08c379a0000000000000000000000000000000000000000000000000000000008152600401610ac190612050565b60405180910390fd5b610ad2611369565b34815f018181525050818160200181815250504281604001818152505080600a5f3373ffffffffffffffffffffffffffffffffffffffff1673ffffffffffffffffffffffffffffffffffffffff1681526020019081526020015f205f820151815f015560208201518160010155604082015181600201556060820151816003015590505060018203610b9657345f6006015f828254610b719190611d2d565b925050819055506001600f5f828254610b8a9190611d2d565b92505081905550610c0b565b60028203610bd657345f6007015f828254610bb19190611d2d565b92505081905550600160105f828254610bca9190611d2d565b92505081905550610c0a565b345f6008015f828254610be99190611d2d565b92505081905550600160115f828254610c029190611d2d565b925050819055505b5b5050565b7f000000000000000000000000000000000000000000000000000000000000000081565b7f000000000000000000000000000000000000000000000000000000000000000073ffffffffffffffffffffffffffffffffffffffff163373ffffffffffffffffffffffffffffffffffffffff1614610cc1576040517f08c379a0000000000000000000000000000000000000000000000000000000008152600401610cb8906118bb565b60405180910390fd5b600e544210610d05576040517f08c379a0000000000000000000000000000000000000000000000000000000008152600401610cfc906120b8565b60405180910390fd5b80600e8190555050565b600a602052805f5260405f205f91509050805f0154908060010154908060020154908060030154905084565b600d5481565b7f000000000000000000000000000000000000000000000000000000000000000073ffffffffffffffffffffffffffffffffffffffff163373ffffffffffffffffffffffffffffffffffffffff1614610dcf576040517f08c379a0000000000000000000000000000000000000000000000000000000008152600401610dc6906118bb565b60405180910390fd5b600d544210610e13576040517f08c379a0000000000000000000000000000000000000000000000000000000008152600401610e0a90612120565b60405180910390fd5b80600d8190555050565b7f000000000000000000000000000000000000000000000000000000000000000073ffffffffffffffffffffffffffffffffffffffff163373ffffffffffffffffffffffffffffffffffffffff1614610eab576040517f08c379a0000000000000000000000000000000000000000000000000000000008152600401610ea290612188565b60405180910390fd5b6001811480610eba5750600281145b80610ec55750600381145b610f04576040517f08c379a0000000000000000000000000000000000000000000000000000000008152600401610efb90611f18565b60405180910390fd5b5f806009015414610f4a576040517f08c379a0000000000000000000000000000000000000000000000000000000008152600401610f4190611fe8565b60405180910390fd5b600e54421015610f8f576040517f08c379a0000000000000000000000000000000000000000000000000000000008152600401610f8690612216565b60405180910390fd5b805f600901819055505f80600801545f600701545f60060154610fb29190611d2d565b610fbc9190611d2d565b90505f612710600b5483610fd09190611d60565b610fda9190611dce565b90508082610fe89190612234565b600c81905550505050565b600b5481565b600e5481565b5f805f01805461100e90611906565b80601f016020809104026020016040519081016040528092919081815260200182805461103a90611906565b80156110855780601f1061105c57610100808354040283529160200191611085565b820191905f5260205f20905b81548152906001019060200180831161106857829003601f168201915b50505050509080600101805461109a90611906565b80601f01602080910402602001604051908101604052809291908181526020018280546110c690611906565b80156111115780601f106110e857610100808354040283529160200191611111565b820191905f5260205f20905b8154815290600101906020018083116110f457829003601f168201915b50505050509080600201805461112690611906565b80601f016020809104026020016040519081016040528092919081815260200182805461115290611906565b801561119d5780601f106111745761010080835404028352916020019161119d565b820191905f5260205f20905b81548152906001019060200180831161118057829003601f168201915b5050505050908060030180546111b290611906565b80601f01602080910402602001604051908101604052809291908181526020018280546111de90611906565b80156112295780601f1061120057610100808354040283529160200191611229565b820191905f5260205f20905b81548152906001019060200180831161120c57829003601f168201915b50505050509080600401805461123e90611906565b80601f016020809104026020016040519081016040528092919081815260200182805461126a90611906565b80156112b55780601f1061128c576101008083540402835291602001916112b5565b820191905f5260205f20905b81548152906001019060200180831161129857829003601f168201915b5050505050908060050180546112ca90611906565b80601f01602080910402602001604051908101604052809291908181526020018280546112f690611906565b80156113415780601f1061131857610100808354040283529160200191611341565b820191905f5260205f20905b81548152906001019060200180831161132457829003601f168201915b505050505090806006015490806007015490806008015490806009015490508a565b60115481565b60405180608001604052805f81526020015f81526020015f81526020015f81525090565b5f819050919050565b61139f8161138d565b82525050565b5f6020820190506113b85f830184611396565b92915050565b5f604051905090565b5f80fd5b5f80fd5b5f80fd5b5f80fd5b5f601f19601f8301169050919050565b7f4e487b71000000000000000000000000000000000000000000000000000000005f52604160045260245ffd5b61141d826113d7565b810181811067ffffffffffffffff8211171561143c5761143b6113e7565b5b80604052505050565b5f61144e6113be565b905061145a8282611414565b919050565b5f67ffffffffffffffff821115611479576114786113e7565b5b611482826113d7565b9050602081019050919050565b828183375f83830152505050565b5f6114af6114aa8461145f565b611445565b9050828152602081018484840111156114cb576114ca6113d3565b5b6114d684828561148f565b509392505050565b5f82601f8301126114f2576114f16113cf565b5b813561150284826020860161149d565b91505092915050565b5f805f60608486031215611522576115216113c7565b5b5f84013567ffffffffffffffff81111561153f5761153e6113cb565b5b61154b868287016114de565b935050602084013567ffffffffffffffff81111561156c5761156b6113cb565b5b611578868287016114de565b925050604084013567ffffffffffffffff811115611599576115986113cb565b5b6115a5868287016114de565b9150509250925092565b5f8115159050919050565b6115c3816115af565b82525050565b5f6020820190506115dc5f8301846115ba565b92915050565b6115eb8161138d565b81146115f5575f80fd5b50565b5f81359050611606816115e2565b92915050565b5f60208284031215611621576116206113c7565b5b5f61162e848285016115f8565b91505092915050565b5f73ffffffffffffffffffffffffffffffffffffffff82169050919050565b5f61166082611637565b9050919050565b61167081611656565b82525050565b5f6020820190506116895f830184611667565b92915050565b61169881611656565b81146116a2575f80fd5b50565b5f813590506116b38161168f565b92915050565b5f602082840312156116ce576116cd6113c7565b5b5f6116db848285016116a5565b91505092915050565b5f6080820190506116f75f830187611396565b6117046020830186611396565b6117116040830185611396565b61171e6060830184611396565b95945050505050565b5f81519050919050565b5f82825260208201905092915050565b8281835e5f83830152505050565b5f61175982611727565b6117638185611731565b9350611773818560208601611741565b61177c816113d7565b840191505092915050565b5f610140820190508181035f8301526117a0818d61174f565b905081810360208301526117b4818c61174f565b905081810360408301526117c8818b61174f565b905081810360608301526117dc818a61174f565b905081810360808301526117f0818961174f565b905081810360a0830152611804818861174f565b905061181360c0830187611396565b61182060e0830186611396565b61182e610100830185611396565b61183c610120830184611396565b9b9a5050505050505050505050565b7f4f6e6c79206f776e65722063616e20706572666f726d207468697320616374695f8201527f6f6e000000000000000000000000000000000000000000000000000000000000602082015250565b5f6118a5602283611731565b91506118b08261184b565b604082019050919050565b5f6020820190508181035f8301526118d281611899565b9050919050565b7f4e487b71000000000000000000000000000000000000000000000000000000005f52602260045260245ffd5b5f600282049050600182168061191d57607f821691505b6020821081036119305761192f6118d9565b5b50919050565b5f819050815f5260205f209050919050565b5f6020601f8301049050919050565b5f82821b905092915050565b5f600883026119927fffffffffffffffffffffffffffffffffffffffffffffffffffffffffffffffff82611957565b61199c8683611957565b95508019841693508086168417925050509392505050565b5f819050919050565b5f6119d76119d26119cd8461138d565b6119b4565b61138d565b9050919050565b5f819050919050565b6119f0836119bd565b611a046119fc826119de565b848454611963565b825550505050565b5f90565b611a18611a0c565b611a238184846119e7565b505050565b5b81811015611a4657611a3b5f82611a10565b600181019050611a29565b5050565b601f821115611a8b57611a5c81611936565b611a6584611948565b81016020851015611a74578190505b611a88611a8085611948565b830182611a28565b50505b505050565b5f82821c905092915050565b5f611aab5f1984600802611a90565b1980831691505092915050565b5f611ac38383611a9c565b9150826002028217905092915050565b611adc82611727565b67ffffffffffffffff811115611af557611af46113e7565b5b611aff8254611906565b611b0a828285611a4a565b5f60209050601f831160018114611b3b575f8415611b29578287015190505b611b338582611ab8565b865550611b9a565b601f198416611b4986611936565b5f5b82811015611b7057848901518255600182019150602085019450602081019050611b4b565b86831015611b8d5784890151611b89601f891682611a9c565b8355505b6001600288020188555050505b505050505050565b7f4f6e6c79206f776e65722063616e20776974686472617720636f6d6d697373695f8201527f6f6e000000000000000000000000000000000000000000000000000000000000602082015250565b5f611bfc602283611731565b9150611c0782611ba2565b604082019050919050565b5f6020820190508181035f830152611c2981611bf0565b9050919050565b7f44697370757465206e6f742066696e69736865642079657400000000000000005f82015250565b5f611c64601883611731565b9150611c6f82611c30565b602082019050919050565b5f6020820190508181035f830152611c9181611c58565b9050919050565b7f436f6d6d697373696f6e20616c72656164792077697468647261776e000000005f82015250565b5f611ccc601c83611731565b9150611cd782611c98565b602082019050919050565b5f6020820190508181035f830152611cf981611cc0565b9050919050565b7f4e487b71000000000000000000000000000000000000000000000000000000005f52601160045260245ffd5b5f611d378261138d565b9150611d428361138d565b9250828201905080821115611d5a57611d59611d00565b5b92915050565b5f611d6a8261138d565b9150611d758361138d565b9250828202611d838161138d565b91508282048414831517611d9a57611d99611d00565b5b5092915050565b7f4e487b71000000000000000000000000000000000000000000000000000000005f52601260045260245ffd5b5f611dd88261138d565b9150611de38361138d565b925082611df357611df2611da1565b5b828204905092915050565b7f496e76616c696420636c61696d000000000000000000000000000000000000005f82015250565b5f611e32600d83611731565b9150611e3d82611dfe565b602082019050919050565b5f6020820190508181035f830152611e5f81611e26565b9050919050565b7f42657474696e6720706572696f64206973206f766572000000000000000000005f82015250565b5f611e9a601683611731565b9150611ea582611e66565b602082019050919050565b5f6020820190508181035f830152611ec781611e8e565b9050919050565b7f496e76616c69642063616e6469646174650000000000000000000000000000005f82015250565b5f611f02601183611731565b9150611f0d82611ece565b602082019050919050565b5f6020820190508181035f830152611f2f81611ef6565b9050919050565b7f496e76616c6964206265740000000000000000000000000000000000000000005f82015250565b5f611f6a600b83611731565b9150611f7582611f36565b602082019050919050565b5f6020820190508181035f830152611f9781611f5e565b9050919050565b7f4469737075746520636c6f7365640000000000000000000000000000000000005f82015250565b5f611fd2600e83611731565b9150611fdd82611f9e565b602082019050919050565b5f6020820190508181035f830152611fff81611fc6565b9050919050565b7f416c726561647920706c616365642061206265740000000000000000000000005f82015250565b5f61203a601483611731565b915061204582612006565b602082019050919050565b5f6020820190508181035f8301526120678161202e565b9050919050565b7f46696e69736820706572696f6420616c726561647920656e64656400000000005f82015250565b5f6120a2601b83611731565b91506120ad8261206e565b602082019050919050565b5f6020820190508181035f8301526120cf81612096565b9050919050565b7f42657474696e6720706572696f6420616c726561647920656e646564000000005f82015250565b5f61210a601c83611731565b9150612115826120d6565b602082019050919050565b5f6020820190508181035f830152612137816120fe565b9050919050565b7f496e76616c6964206163636f756e7400000000000000000000000000000000005f82015250565b5f612172600f83611731565b915061217d8261213e565b602082019050919050565b5f6020820190508181035f83015261219f81612166565b9050919050565b7f43616e6e6f742066696e697368206265666f72652066696e69736820656e64205f8201527f74696d6500000000000000000000000000000000000000000000000000000000602082015250565b5f612200602483611731565b915061220b826121a6565b604082019050919050565b5f6020820190508181035f83015261222d816121f4565b9050919050565b5f61223e8261138d565b91506122498361138d565b925082820390508181111561226157612260611d00565b5b9291505056fea2646970667358221220e92fb565963ab0e59950ba79ff79e41ebc63ae50f59b4fba671f407a2cb0710064736f6c634300081a0033",
					"opcodes": "PUSH1 0xA0 PUSH1 0x40 MSTORE PUSH2 0x3E8 PUSH1 0xB SSTORE CALLVALUE DUP1 ISZERO PUSH2 0x15 JUMPI PUSH0 DUP1 REVERT JUMPDEST POP CALLER PUSH20 0xFFFFFFFFFFFFFFFFFFFFFFFFFFFFFFFFFFFFFFFF AND PUSH1 0x80 DUP2 PUSH20 0xFFFFFFFFFFFFFFFFFFFFFFFFFFFFFFFFFFFFFFFF AND DUP2 MSTORE POP POP PUSH1 0x40 MLOAD DUP1 PUSH2 0x140 ADD PUSH1 0x40 MSTORE DUP1 PUSH1 0x40 MLOAD DUP1 PUSH1 0x40 ADD PUSH1 0x40 MSTORE DUP1 PUSH1 0x9 DUP2 MSTORE PUSH1 0x20 ADD PUSH32 0x502E204D617263616C0000000000000000000000000000000000000000000000 DUP2 MSTORE POP DUP2 MSTORE PUSH1 0x20 ADD PUSH1 0x40 MLOAD DUP1 PUSH1 0x40 ADD PUSH1 0x40 MSTORE DUP1 PUSH1 0x9 DUP2 MSTORE PUSH1 0x20 ADD PUSH32 0x472E20426F756C6F730000000000000000000000000000000000000000000000 DUP2 MSTORE POP DUP2 MSTORE PUSH1 0x20 ADD PUSH1 0x40 MLOAD DUP1 PUSH1 0x40 ADD PUSH1 0x40 MSTORE DUP1 PUSH1 0x8 DUP2 MSTORE PUSH1 0x20 ADD PUSH32 0x522E204E756E6573000000000000000000000000000000000000000000000000 DUP2 MSTORE POP DUP2 MSTORE PUSH1 0x20 ADD PUSH1 0x40 MLOAD DUP1 PUSH1 0x40 ADD PUSH1 0x40 MSTORE DUP1 PUSH1 0x16 DUP2 MSTORE PUSH1 0x20 ADD PUSH32 0x68747470733A2F2F6269742E6C792F3465507973617900000000000000000000 DUP2 MSTORE POP DUP2 MSTORE PUSH1 0x20 ADD PUSH1 0x40 MLOAD DUP1 PUSH1 0x40 ADD PUSH1 0x40 MSTORE DUP1 PUSH1 0x16 DUP2 MSTORE PUSH1 0x20 ADD PUSH32 0x68747470733A2F2F6269742E6C792F3437574778727100000000000000000000 DUP2 MSTORE POP DUP2 MSTORE PUSH1 0x20 ADD PUSH1 0x40 MLOAD DUP1 PUSH1 0x40 ADD PUSH1 0x40 MSTORE DUP1 PUSH1 0x16 DUP2 MSTORE PUSH1 0x20 ADD PUSH32 0x68747470733A2F2F6269742E6C792F343757474A613800000000000000000000 DUP2 MSTORE POP DUP2 MSTORE PUSH1 0x20 ADD PUSH0 DUP2 MSTORE PUSH1 0x20 ADD PUSH0 DUP2 MSTORE PUSH1 0x20 ADD PUSH0 DUP2 MSTORE PUSH1 0x20 ADD PUSH0 DUP2 MSTORE POP PUSH0 DUP1 DUP3 ADD MLOAD DUP2 PUSH0 ADD SWAP1 DUP2 PUSH2 0x1E2 SWAP2 SWAP1 PUSH2 0x4E5 JUMP JUMPDEST POP PUSH1 0x20 DUP3 ADD MLOAD DUP2 PUSH1 0x1 ADD SWAP1 DUP2 PUSH2 0x1F8 SWAP2 SWAP1 PUSH2 0x4E5 JUMP JUMPDEST POP PUSH1 0x40 DUP3 ADD MLOAD DUP2 PUSH1 0x2 ADD SWAP1 DUP2 PUSH2 0x20E SWAP2 SWAP1 PUSH2 0x4E5 JUMP JUMPDEST POP PUSH1 0x60 DUP3 ADD MLOAD DUP2 PUSH1 0x3 ADD SWAP1 DUP2 PUSH2 0x224 SWAP2 SWAP1 PUSH2 0x4E5 JUMP JUMPDEST POP PUSH1 0x80 DUP3 ADD MLOAD DUP2 PUSH1 0x4 ADD SWAP1 DUP2 PUSH2 0x23A SWAP2 SWAP1 PUSH2 0x4E5 JUMP JUMPDEST POP PUSH1 0xA0 DUP3 ADD MLOAD DUP2 PUSH1 0x5 ADD SWAP1 DUP2 PUSH2 0x250 SWAP2 SWAP1 PUSH2 0x4E5 JUMP JUMPDEST POP PUSH1 0xC0 DUP3 ADD MLOAD DUP2 PUSH1 0x6 ADD SSTORE PUSH1 0xE0 DUP3 ADD MLOAD DUP2 PUSH1 0x7 ADD SSTORE PUSH2 0x100 DUP3 ADD MLOAD DUP2 PUSH1 0x8 ADD SSTORE PUSH2 0x120 DUP3 ADD MLOAD DUP2 PUSH1 0x9 ADD SSTORE SWAP1 POP POP PUSH1 0x3C TIMESTAMP PUSH2 0x28B SWAP2 SWAP1 PUSH2 0x5E1 JUMP JUMPDEST PUSH1 0xD DUP2 SWAP1 SSTORE POP PUSH1 0x3C PUSH1 0xD SLOAD PUSH2 0x2A0 SWAP2 SWAP1 PUSH2 0x5E1 JUMP JUMPDEST PUSH1 0xE DUP2 SWAP1 SSTORE POP PUSH2 0x614 JUMP JUMPDEST PUSH0 DUP2 MLOAD SWAP1 POP SWAP2 SWAP1 POP JUMP JUMPDEST PUSH32 0x4E487B7100000000000000000000000000000000000000000000000000000000 PUSH0 MSTORE PUSH1 0x41 PUSH1 0x4 MSTORE PUSH1 0x24 PUSH0 REVERT JUMPDEST PUSH32 0x4E487B7100000000000000000000000000000000000000000000000000000000 PUSH0 MSTORE PUSH1 0x22 PUSH1 0x4 MSTORE PUSH1 0x24 PUSH0 REVERT JUMPDEST PUSH0 PUSH1 0x2 DUP3 DIV SWAP1 POP PUSH1 0x1 DUP3 AND DUP1 PUSH2 0x326 JUMPI PUSH1 0x7F DUP3 AND SWAP2 POP JUMPDEST PUSH1 0x20 DUP3 LT DUP2 SUB PUSH2 0x339 JUMPI PUSH2 0x338 PUSH2 0x2E2 JUMP JUMPDEST JUMPDEST POP SWAP2 SWAP1 POP JUMP JUMPDEST PUSH0 DUP2 SWAP1 POP DUP2 PUSH0 MSTORE PUSH1 0x20 PUSH0 KECCAK256 SWAP1 POP SWAP2 SWAP1 POP JUMP JUMPDEST PUSH0 PUSH1 0x20 PUSH1 0x1F DUP4 ADD DIV SWAP1 POP SWAP2 SWAP1 POP JUMP JUMPDEST PUSH0 DUP3 DUP3 SHL SWAP1 POP SWAP3 SWAP2 POP POP JUMP JUMPDEST PUSH0 PUSH1 0x8 DUP4 MUL PUSH2 0x39B PUSH32 0xFFFFFFFFFFFFFFFFFFFFFFFFFFFFFFFFFFFFFFFFFFFFFFFFFFFFFFFFFFFFFFFF DUP3 PUSH2 0x360 JUMP JUMPDEST PUSH2 0x3A5 DUP7 DUP4 PUSH2 0x360 JUMP JUMPDEST SWAP6 POP DUP1 NOT DUP5 AND SWAP4 POP DUP1 DUP7 AND DUP5 OR SWAP3 POP POP POP SWAP4 SWAP3 POP POP POP JUMP JUMPDEST PUSH0 DUP2 SWAP1 POP SWAP2 SWAP1 POP JUMP JUMPDEST PUSH0 DUP2 SWAP1 POP SWAP2 SWAP1 POP JUMP JUMPDEST PUSH0 PUSH2 0x3E9 PUSH2 0x3E4 PUSH2 0x3DF DUP5 PUSH2 0x3BD JUMP JUMPDEST PUSH2 0x3C6 JUMP JUMPDEST PUSH2 0x3BD JUMP JUMPDEST SWAP1 POP SWAP2 SWAP1 POP JUMP JUMPDEST PUSH0 DUP2 SWAP1 POP SWAP2 SWAP1 POP JUMP JUMPDEST PUSH2 0x402 DUP4 PUSH2 0x3CF JUMP JUMPDEST PUSH2 0x416 PUSH2 0x40E DUP3 PUSH2 0x3F0 JUMP JUMPDEST DUP5 DUP5 SLOAD PUSH2 0x36C JUMP JUMPDEST DUP3 SSTORE POP POP POP POP JUMP JUMPDEST PUSH0 SWAP1 JUMP JUMPDEST PUSH2 0x42A PUSH2 0x41E JUMP JUMPDEST PUSH2 0x435 DUP2 DUP5 DUP5 PUSH2 0x3F9 JUMP JUMPDEST POP POP POP JUMP JUMPDEST JUMPDEST DUP2 DUP2 LT ISZERO PUSH2 0x458 JUMPI PUSH2 0x44D PUSH0 DUP3 PUSH2 0x422 JUMP JUMPDEST PUSH1 0x1 DUP2 ADD SWAP1 POP PUSH2 0x43B JUMP JUMPDEST POP POP JUMP JUMPDEST PUSH1 0x1F DUP3 GT ISZERO PUSH2 0x49D JUMPI PUSH2 0x46E DUP2 PUSH2 0x33F JUMP JUMPDEST PUSH2 0x477 DUP5 PUSH2 0x351 JUMP JUMPDEST DUP2 ADD PUSH1 0x20 DUP6 LT ISZERO PUSH2 0x486 JUMPI DUP2 SWAP1 POP JUMPDEST PUSH2 0x49A PUSH2 0x492 DUP6 PUSH2 0x351 JUMP JUMPDEST DUP4 ADD DUP3 PUSH2 0x43A JUMP JUMPDEST POP POP JUMPDEST POP POP POP JUMP JUMPDEST PUSH0 DUP3 DUP3 SHR SWAP1 POP SWAP3 SWAP2 POP POP JUMP JUMPDEST PUSH0 PUSH2 0x4BD PUSH0 NOT DUP5 PUSH1 0x8 MUL PUSH2 0x4A2 JUMP JUMPDEST NOT DUP1 DUP4 AND SWAP2 POP POP SWAP3 SWAP2 POP POP JUMP JUMPDEST PUSH0 PUSH2 0x4D5 DUP4 DUP4 PUSH2 0x4AE JUMP JUMPDEST SWAP2 POP DUP3 PUSH1 0x2 MUL DUP3 OR SWAP1 POP SWAP3 SWAP2 POP POP JUMP JUMPDEST PUSH2 0x4EE DUP3 PUSH2 0x2AB JUMP JUMPDEST PUSH8 0xFFFFFFFFFFFFFFFF DUP2 GT ISZERO PUSH2 0x507 JUMPI PUSH2 0x506 PUSH2 0x2B5 JUMP JUMPDEST JUMPDEST PUSH2 0x511 DUP3 SLOAD PUSH2 0x30F JUMP JUMPDEST PUSH2 0x51C DUP3 DUP3 DUP6 PUSH2 0x45C JUMP JUMPDEST PUSH0 PUSH1 0x20 SWAP1 POP PUSH1 0x1F DUP4 GT PUSH1 0x1 DUP2 EQ PUSH2 0x54D JUMPI PUSH0 DUP5 ISZERO PUSH2 0x53B JUMPI DUP3 DUP8 ADD MLOAD SWAP1 POP JUMPDEST PUSH2 0x545 DUP6 DUP3 PUSH2 0x4CA JUMP JUMPDEST DUP7 SSTORE POP PUSH2 0x5AC JUMP JUMPDEST PUSH1 0x1F NOT DUP5 AND PUSH2 0x55B DUP7 PUSH2 0x33F JUMP JUMPDEST PUSH0 JUMPDEST DUP3 DUP2 LT ISZERO PUSH2 0x582 JUMPI DUP5 DUP10 ADD MLOAD DUP3 SSTORE PUSH1 0x1 DUP3 ADD SWAP2 POP PUSH1 0x20 DUP6 ADD SWAP5 POP PUSH1 0x20 DUP2 ADD SWAP1 POP PUSH2 0x55D JUMP JUMPDEST DUP7 DUP4 LT ISZERO PUSH2 0x59F JUMPI DUP5 DUP10 ADD MLOAD PUSH2 0x59B PUSH1 0x1F DUP10 AND DUP3 PUSH2 0x4AE JUMP JUMPDEST DUP4 SSTORE POP JUMPDEST PUSH1 0x1 PUSH1 0x2 DUP9 MUL ADD DUP9 SSTORE POP POP POP JUMPDEST POP POP POP POP POP POP JUMP JUMPDEST PUSH32 0x4E487B7100000000000000000000000000000000000000000000000000000000 PUSH0 MSTORE PUSH1 0x11 PUSH1 0x4 MSTORE PUSH1 0x24 PUSH0 REVERT JUMPDEST PUSH0 PUSH2 0x5EB DUP3 PUSH2 0x3BD JUMP JUMPDEST SWAP2 POP PUSH2 0x5F6 DUP4 PUSH2 0x3BD JUMP JUMPDEST SWAP3 POP DUP3 DUP3 ADD SWAP1 POP DUP1 DUP3 GT ISZERO PUSH2 0x60E JUMPI PUSH2 0x60D PUSH2 0x5B4 JUMP JUMPDEST JUMPDEST SWAP3 SWAP2 POP POP JUMP JUMPDEST PUSH1 0x80 MLOAD PUSH2 0x229D PUSH2 0x65D PUSH0 CODECOPY PUSH0 DUP2 DUP2 PUSH2 0x421 ADD MSTORE DUP2 DUP2 PUSH2 0x4E9 ADD MSTORE DUP2 DUP2 PUSH2 0x5B2 ADD MSTORE DUP2 DUP2 PUSH2 0x733 ADD MSTORE DUP2 DUP2 PUSH2 0xC11 ADD MSTORE DUP2 DUP2 PUSH2 0xC35 ADD MSTORE DUP2 DUP2 PUSH2 0xD43 ADD MSTORE PUSH2 0xE1F ADD MSTORE PUSH2 0x229D PUSH0 RETURN INVALID PUSH1 0x80 PUSH1 0x40 MSTORE PUSH1 0x4 CALLDATASIZE LT PUSH2 0x113 JUMPI PUSH0 CALLDATALOAD PUSH1 0xE0 SHR DUP1 PUSH4 0x8DA5CB5B GT PUSH2 0x9F JUMPI DUP1 PUSH4 0xD353A1CB GT PUSH2 0x63 JUMPI DUP1 PUSH4 0xD353A1CB EQ PUSH2 0x33A JUMPI DUP1 PUSH4 0xDDCA3F43 EQ PUSH2 0x362 JUMPI DUP1 PUSH4 0xE5237601 EQ PUSH2 0x38C JUMPI DUP1 PUSH4 0xF240F7C3 EQ PUSH2 0x3B6 JUMPI DUP1 PUSH4 0xF5556BE2 EQ PUSH2 0x3E9 JUMPI PUSH2 0x113 JUMP JUMPDEST DUP1 PUSH4 0x8DA5CB5B EQ PUSH2 0x257 JUMPI DUP1 PUSH4 0x9317CBE2 EQ PUSH2 0x281 JUMPI DUP1 PUSH4 0x93BEBEE8 EQ PUSH2 0x2A9 JUMPI DUP1 PUSH4 0xB670DA5A EQ PUSH2 0x2E8 JUMPI DUP1 PUSH4 0xB84391DE EQ PUSH2 0x312 JUMPI PUSH2 0x113 JUMP JUMPDEST DUP1 PUSH4 0x3E25E837 GT PUSH2 0xE6 JUMPI DUP1 PUSH4 0x3E25E837 EQ PUSH2 0x1BB JUMPI DUP1 PUSH4 0x4E71D92D EQ PUSH2 0x1D1 JUMPI DUP1 PUSH4 0x5EDBABAE EQ PUSH2 0x1E7 JUMPI DUP1 PUSH4 0x69B10852 EQ PUSH2 0x211 JUMPI DUP1 PUSH4 0x7365870B EQ PUSH2 0x23B JUMPI PUSH2 0x113 JUMP JUMPDEST DUP1 PUSH4 0x121DE3F6 EQ PUSH2 0x117 JUMPI DUP1 PUSH4 0x135678F9 EQ PUSH2 0x141 JUMPI DUP1 PUSH4 0x14F14D75 EQ PUSH2 0x16B JUMPI DUP1 PUSH4 0x38315A8F EQ PUSH2 0x193 JUMPI JUMPDEST PUSH0 DUP1 REVERT JUMPDEST CALLVALUE DUP1 ISZERO PUSH2 0x122 JUMPI PUSH0 DUP1 REVERT JUMPDEST POP PUSH2 0x12B PUSH2 0x413 JUMP JUMPDEST PUSH1 0x40 MLOAD PUSH2 0x138 SWAP2 SWAP1 PUSH2 0x13A5 JUMP JUMPDEST PUSH1 0x40 MLOAD DUP1 SWAP2 SUB SWAP1 RETURN JUMPDEST CALLVALUE DUP1 ISZERO PUSH2 0x14C JUMPI PUSH0 DUP1 REVERT JUMPDEST POP PUSH2 0x155 PUSH2 0x419 JUMP JUMPDEST PUSH1 0x40 MLOAD PUSH2 0x162 SWAP2 SWAP1 PUSH2 0x13A5 JUMP JUMPDEST PUSH1 0x40 MLOAD DUP1 SWAP2 SUB SWAP1 RETURN JUMPDEST CALLVALUE DUP1 ISZERO PUSH2 0x176 JUMPI PUSH0 DUP1 REVERT JUMPDEST POP PUSH2 0x191 PUSH1 0x4 DUP1 CALLDATASIZE SUB DUP2 ADD SWAP1 PUSH2 0x18C SWAP2 SWAP1 PUSH2 0x150B JUMP JUMPDEST PUSH2 0x41F JUMP JUMPDEST STOP JUMPDEST CALLVALUE DUP1 ISZERO PUSH2 0x19E JUMPI PUSH0 DUP1 REVERT JUMPDEST POP PUSH2 0x1B9 PUSH1 0x4 DUP1 CALLDATASIZE SUB DUP2 ADD SWAP1 PUSH2 0x1B4 SWAP2 SWAP1 PUSH2 0x150B JUMP JUMPDEST PUSH2 0x4E7 JUMP JUMPDEST STOP JUMPDEST CALLVALUE DUP1 ISZERO PUSH2 0x1C6 JUMPI PUSH0 DUP1 REVERT JUMPDEST POP PUSH2 0x1CF PUSH2 0x5B0 JUMP JUMPDEST STOP JUMPDEST CALLVALUE DUP1 ISZERO PUSH2 0x1DC JUMPI PUSH0 DUP1 REVERT JUMPDEST POP PUSH2 0x1E5 PUSH2 0x799 JUMP JUMPDEST STOP JUMPDEST CALLVALUE DUP1 ISZERO PUSH2 0x1F2 JUMPI PUSH0 DUP1 REVERT JUMPDEST POP PUSH2 0x1FB PUSH2 0x90B JUMP JUMPDEST PUSH1 0x40 MLOAD PUSH2 0x208 SWAP2 SWAP1 PUSH2 0x13A5 JUMP JUMPDEST PUSH1 0x40 MLOAD DUP1 SWAP2 SUB SWAP1 RETURN JUMPDEST CALLVALUE DUP1 ISZERO PUSH2 0x21C JUMPI PUSH0 DUP1 REVERT JUMPDEST POP PUSH2 0x225 PUSH2 0x911 JUMP JUMPDEST PUSH1 0x40 MLOAD PUSH2 0x232 SWAP2 SWAP1 PUSH2 0x15C9 JUMP JUMPDEST PUSH1 0x40 MLOAD DUP1 SWAP2 SUB SWAP1 RETURN JUMPDEST PUSH2 0x255 PUSH1 0x4 DUP1 CALLDATASIZE SUB DUP2 ADD SWAP1 PUSH2 0x250 SWAP2 SWAP1 PUSH2 0x160C JUMP JUMPDEST PUSH2 0x923 JUMP JUMPDEST STOP JUMPDEST CALLVALUE DUP1 ISZERO PUSH2 0x262 JUMPI PUSH0 DUP1 REVERT JUMPDEST POP PUSH2 0x26B PUSH2 0xC0F JUMP JUMPDEST PUSH1 0x40 MLOAD PUSH2 0x278 SWAP2 SWAP1 PUSH2 0x1676 JUMP JUMPDEST PUSH1 0x40 MLOAD DUP1 SWAP2 SUB SWAP1 RETURN JUMPDEST CALLVALUE DUP1 ISZERO PUSH2 0x28C JUMPI PUSH0 DUP1 REVERT JUMPDEST POP PUSH2 0x2A7 PUSH1 0x4 DUP1 CALLDATASIZE SUB DUP2 ADD SWAP1 PUSH2 0x2A2 SWAP2 SWAP1 PUSH2 0x160C JUMP JUMPDEST PUSH2 0xC33 JUMP JUMPDEST STOP JUMPDEST CALLVALUE DUP1 ISZERO PUSH2 0x2B4 JUMPI PUSH0 DUP1 REVERT JUMPDEST POP PUSH2 0x2CF PUSH1 0x4 DUP1 CALLDATASIZE SUB DUP2 ADD SWAP1 PUSH2 0x2CA SWAP2 SWAP1 PUSH2 0x16B9 JUMP JUMPDEST PUSH2 0xD0F JUMP JUMPDEST PUSH1 0x40 MLOAD PUSH2 0x2DF SWAP5 SWAP4 SWAP3 SWAP2 SWAP1 PUSH2 0x16E4 JUMP JUMPDEST PUSH1 0x40 MLOAD DUP1 SWAP2 SUB SWAP1 RETURN JUMPDEST CALLVALUE DUP1 ISZERO PUSH2 0x2F3 JUMPI PUSH0 DUP1 REVERT JUMPDEST POP PUSH2 0x2FC PUSH2 0xD3B JUMP JUMPDEST PUSH1 0x40 MLOAD PUSH2 0x309 SWAP2 SWAP1 PUSH2 0x13A5 JUMP JUMPDEST PUSH1 0x40 MLOAD DUP1 SWAP2 SUB SWAP1 RETURN JUMPDEST CALLVALUE DUP1 ISZERO PUSH2 0x31D JUMPI PUSH0 DUP1 REVERT JUMPDEST POP PUSH2 0x338 PUSH1 0x4 DUP1 CALLDATASIZE SUB DUP2 ADD SWAP1 PUSH2 0x333 SWAP2 SWAP1 PUSH2 0x160C JUMP JUMPDEST PUSH2 0xD41 JUMP JUMPDEST STOP JUMPDEST CALLVALUE DUP1 ISZERO PUSH2 0x345 JUMPI PUSH0 DUP1 REVERT JUMPDEST POP PUSH2 0x360 PUSH1 0x4 DUP1 CALLDATASIZE SUB DUP2 ADD SWAP1 PUSH2 0x35B SWAP2 SWAP1 PUSH2 0x160C JUMP JUMPDEST PUSH2 0xE1D JUMP JUMPDEST STOP JUMPDEST CALLVALUE DUP1 ISZERO PUSH2 0x36D JUMPI PUSH0 DUP1 REVERT JUMPDEST POP PUSH2 0x376 PUSH2 0xFF3 JUMP JUMPDEST PUSH1 0x40 MLOAD PUSH2 0x383 SWAP2 SWAP1 PUSH2 0x13A5 JUMP JUMPDEST PUSH1 0x40 MLOAD DUP1 SWAP2 SUB SWAP1 RETURN JUMPDEST CALLVALUE DUP1 ISZERO PUSH2 0x397 JUMPI PUSH0 DUP1 REVERT JUMPDEST POP PUSH2 0x3A0 PUSH2 0xFF9 JUMP JUMPDEST PUSH1 0x40 MLOAD PUSH2 0x3AD SWAP2 SWAP1 PUSH2 0x13A5 JUMP JUMPDEST PUSH1 0x40 MLOAD DUP1 SWAP2 SUB SWAP1 RETURN JUMPDEST CALLVALUE DUP1 ISZERO PUSH2 0x3C1 JUMPI PUSH0 DUP1 REVERT JUMPDEST POP PUSH2 0x3CA PUSH2 0xFFF JUMP JUMPDEST PUSH1 0x40 MLOAD PUSH2 0x3E0 SWAP11 SWAP10 SWAP9 SWAP8 SWAP7 SWAP6 SWAP5 SWAP4 SWAP3 SWAP2 SWAP1 PUSH2 0x1787 JUMP JUMPDEST PUSH1 0x40 MLOAD DUP1 SWAP2 SUB SWAP1 RETURN JUMPDEST CALLVALUE DUP1 ISZERO PUSH2 0x3F4 JUMPI PUSH0 DUP1 REVERT JUMPDEST POP PUSH2 0x3FD PUSH2 0x1363 JUMP JUMPDEST PUSH1 0x40 MLOAD PUSH2 0x40A SWAP2 SWAP1 PUSH2 0x13A5 JUMP JUMPDEST PUSH1 0x40 MLOAD DUP1 SWAP2 SUB SWAP1 RETURN JUMPDEST PUSH1 0xC SLOAD DUP2 JUMP JUMPDEST PUSH1 0xF SLOAD DUP2 JUMP JUMPDEST PUSH32 0x0 PUSH20 0xFFFFFFFFFFFFFFFFFFFFFFFFFFFFFFFFFFFFFFFF AND CALLER PUSH20 0xFFFFFFFFFFFFFFFFFFFFFFFFFFFFFFFFFFFFFFFF AND EQ PUSH2 0x4AD JUMPI PUSH1 0x40 MLOAD PUSH32 0x8C379A000000000000000000000000000000000000000000000000000000000 DUP2 MSTORE PUSH1 0x4 ADD PUSH2 0x4A4 SWAP1 PUSH2 0x18BB JUMP JUMPDEST PUSH1 0x40 MLOAD DUP1 SWAP2 SUB SWAP1 REVERT JUMPDEST DUP3 PUSH0 DUP1 ADD SWAP1 DUP2 PUSH2 0x4BD SWAP2 SWAP1 PUSH2 0x1AD3 JUMP JUMPDEST POP DUP2 PUSH0 PUSH1 0x1 ADD SWAP1 DUP2 PUSH2 0x4CF SWAP2 SWAP1 PUSH2 0x1AD3 JUMP JUMPDEST POP DUP1 PUSH0 PUSH1 0x2 ADD SWAP1 DUP2 PUSH2 0x4E1 SWAP2 SWAP1 PUSH2 0x1AD3 JUMP JUMPDEST POP POP POP POP JUMP JUMPDEST PUSH32 0x0 PUSH20 0xFFFFFFFFFFFFFFFFFFFFFFFFFFFFFFFFFFFFFFFF AND CALLER PUSH20 0xFFFFFFFFFFFFFFFFFFFFFFFFFFFFFFFFFFFFFFFF AND EQ PUSH2 0x575 JUMPI PUSH1 0x40 MLOAD PUSH32 0x8C379A000000000000000000000000000000000000000000000000000000000 DUP2 MSTORE PUSH1 0x4 ADD PUSH2 0x56C SWAP1 PUSH2 0x18BB JUMP JUMPDEST PUSH1 0x40 MLOAD DUP1 SWAP2 SUB SWAP1 REVERT JUMPDEST DUP3 PUSH0 PUSH1 0x3 ADD SWAP1 DUP2 PUSH2 0x586 SWAP2 SWAP1 PUSH2 0x1AD3 JUMP JUMPDEST POP DUP2 PUSH0 PUSH1 0x4 ADD SWAP1 DUP2 PUSH2 0x598 SWAP2 SWAP1 PUSH2 0x1AD3 JUMP JUMPDEST POP DUP1 PUSH0 PUSH1 0x5 ADD SWAP1 DUP2 PUSH2 0x5AA SWAP2 SWAP1 PUSH2 0x1AD3 JUMP JUMPDEST POP POP POP POP JUMP JUMPDEST PUSH32 0x0 PUSH20 0xFFFFFFFFFFFFFFFFFFFFFFFFFFFFFFFFFFFFFFFF AND CALLER PUSH20 0xFFFFFFFFFFFFFFFFFFFFFFFFFFFFFFFFFFFFFFFF AND EQ PUSH2 0x63E JUMPI PUSH1 0x40 MLOAD PUSH32 0x8C379A000000000000000000000000000000000000000000000000000000000 DUP2 MSTORE PUSH1 0x4 ADD PUSH2 0x635 SWAP1 PUSH2 0x1C12 JUMP JUMPDEST PUSH1 0x40 MLOAD DUP1 SWAP2 SUB SWAP1 REVERT JUMPDEST PUSH0 DUP1 PUSH1 0x9 ADD SLOAD GT PUSH2 0x684 JUMPI PUSH1 0x40 MLOAD PUSH32 0x8C379A000000000000000000000000000000000000000000000000000000000 DUP2 MSTORE PUSH1 0x4 ADD PUSH2 0x67B SWAP1 PUSH2 0x1C7A JUMP JUMPDEST PUSH1 0x40 MLOAD DUP1 SWAP2 SUB SWAP1 REVERT JUMPDEST PUSH1 0x12 PUSH0 SWAP1 SLOAD SWAP1 PUSH2 0x100 EXP SWAP1 DIV PUSH1 0xFF AND ISZERO PUSH2 0x6D3 JUMPI PUSH1 0x40 MLOAD PUSH32 0x8C379A000000000000000000000000000000000000000000000000000000000 DUP2 MSTORE PUSH1 0x4 ADD PUSH2 0x6CA SWAP1 PUSH2 0x1CE2 JUMP JUMPDEST PUSH1 0x40 MLOAD DUP1 SWAP2 SUB SWAP1 REVERT JUMPDEST PUSH0 DUP1 PUSH1 0x8 ADD SLOAD PUSH0 PUSH1 0x7 ADD SLOAD PUSH0 PUSH1 0x6 ADD SLOAD PUSH2 0x6ED SWAP2 SWAP1 PUSH2 0x1D2D JUMP JUMPDEST PUSH2 0x6F7 SWAP2 SWAP1 PUSH2 0x1D2D JUMP JUMPDEST SWAP1 POP PUSH0 PUSH2 0x2710 PUSH1 0xB SLOAD DUP4 PUSH2 0x70B SWAP2 SWAP1 PUSH2 0x1D60 JUMP JUMPDEST PUSH2 0x715 SWAP2 SWAP1 PUSH2 0x1DCE JUMP JUMPDEST SWAP1 POP PUSH1 0x1 PUSH1 0x12 PUSH0 PUSH2 0x100 EXP DUP2 SLOAD DUP2 PUSH1 0xFF MUL NOT AND SWAP1 DUP4 ISZERO ISZERO MUL OR SWAP1 SSTORE POP PUSH32 0x0 PUSH20 0xFFFFFFFFFFFFFFFFFFFFFFFFFFFFFFFFFFFFFFFF AND PUSH2 0x8FC DUP3 SWAP1 DUP2 ISZERO MUL SWAP1 PUSH1 0x40 MLOAD PUSH0 PUSH1 0x40 MLOAD DUP1 DUP4 SUB DUP2 DUP6 DUP9 DUP9 CALL SWAP4 POP POP POP POP ISZERO DUP1 ISZERO PUSH2 0x794 JUMPI RETURNDATASIZE PUSH0 DUP1 RETURNDATACOPY RETURNDATASIZE PUSH0 REVERT JUMPDEST POP POP POP JUMP JUMPDEST PUSH0 PUSH1 0xA PUSH0 CALLER PUSH20 0xFFFFFFFFFFFFFFFFFFFFFFFFFFFFFFFFFFFFFFFF AND PUSH20 0xFFFFFFFFFFFFFFFFFFFFFFFFFFFFFFFFFFFFFFFF AND DUP2 MSTORE PUSH1 0x20 ADD SWAP1 DUP2 MSTORE PUSH1 0x20 ADD PUSH0 KECCAK256 SWAP1 POP PUSH0 DUP1 PUSH1 0x9 ADD SLOAD GT DUP1 ISZERO PUSH2 0x7F3 JUMPI POP DUP1 PUSH1 0x1 ADD SLOAD PUSH0 PUSH1 0x9 ADD SLOAD EQ JUMPDEST DUP1 ISZERO PUSH2 0x802 JUMPI POP PUSH0 DUP2 PUSH1 0x3 ADD SLOAD EQ JUMPDEST PUSH2 0x841 JUMPI PUSH1 0x40 MLOAD PUSH32 0x8C379A000000000000000000000000000000000000000000000000000000000 DUP2 MSTORE PUSH1 0x4 ADD PUSH2 0x838 SWAP1 PUSH2 0x1E48 JUMP JUMPDEST PUSH1 0x40 MLOAD DUP1 SWAP2 SUB SWAP1 REVERT JUMPDEST PUSH0 PUSH1 0x1 PUSH0 PUSH1 0x9 ADD SLOAD SUB PUSH2 0x85A JUMPI PUSH0 PUSH1 0x6 ADD SLOAD SWAP1 POP PUSH2 0x87B JUMP JUMPDEST PUSH1 0x2 PUSH0 PUSH1 0x9 ADD SLOAD SUB PUSH2 0x872 JUMPI PUSH0 PUSH1 0x7 ADD SLOAD SWAP1 POP PUSH2 0x87A JUMP JUMPDEST PUSH0 PUSH1 0x8 ADD SLOAD SWAP1 POP JUMPDEST JUMPDEST PUSH0 DUP2 PUSH2 0x2710 DUP5 PUSH0 ADD SLOAD PUSH2 0x88E SWAP2 SWAP1 PUSH2 0x1D60 JUMP JUMPDEST PUSH2 0x898 SWAP2 SWAP1 PUSH2 0x1DCE JUMP JUMPDEST SWAP1 POP PUSH0 PUSH2 0x2710 DUP3 PUSH1 0xC SLOAD PUSH2 0x8AC SWAP2 SWAP1 PUSH2 0x1D60 JUMP JUMPDEST PUSH2 0x8B6 SWAP2 SWAP1 PUSH2 0x1DCE JUMP JUMPDEST SWAP1 POP DUP1 DUP5 PUSH1 0x3 ADD DUP2 SWAP1 SSTORE POP CALLER PUSH20 0xFFFFFFFFFFFFFFFFFFFFFFFFFFFFFFFFFFFFFFFF AND PUSH2 0x8FC DUP3 SWAP1 DUP2 ISZERO MUL SWAP1 PUSH1 0x40 MLOAD PUSH0 PUSH1 0x40 MLOAD DUP1 DUP4 SUB DUP2 DUP6 DUP9 DUP9 CALL SWAP4 POP POP POP POP ISZERO DUP1 ISZERO PUSH2 0x904 JUMPI RETURNDATASIZE PUSH0 DUP1 RETURNDATACOPY RETURNDATASIZE PUSH0 REVERT JUMPDEST POP POP POP POP POP JUMP JUMPDEST PUSH1 0x10 SLOAD DUP2 JUMP JUMPDEST PUSH1 0x12 PUSH0 SWAP1 SLOAD SWAP1 PUSH2 0x100 EXP SWAP1 DIV PUSH1 0xFF AND DUP2 JUMP JUMPDEST PUSH1 0xD SLOAD TIMESTAMP GT ISZERO PUSH2 0x968 JUMPI PUSH1 0x40 MLOAD PUSH32 0x8C379A000000000000000000000000000000000000000000000000000000000 DUP2 MSTORE PUSH1 0x4 ADD PUSH2 0x95F SWAP1 PUSH2 0x1EB0 JUMP JUMPDEST PUSH1 0x40 MLOAD DUP1 SWAP2 SUB SWAP1 REVERT JUMPDEST PUSH1 0x1 DUP2 EQ DUP1 PUSH2 0x977 JUMPI POP PUSH1 0x2 DUP2 EQ JUMPDEST DUP1 PUSH2 0x982 JUMPI POP PUSH1 0x3 DUP2 EQ JUMPDEST PUSH2 0x9C1 JUMPI PUSH1 0x40 MLOAD PUSH32 0x8C379A000000000000000000000000000000000000000000000000000000000 DUP2 MSTORE PUSH1 0x4 ADD PUSH2 0x9B8 SWAP1 PUSH2 0x1F18 JUMP JUMPDEST PUSH1 0x40 MLOAD DUP1 SWAP2 SUB SWAP1 REVERT JUMPDEST PUSH0 CALLVALUE GT PUSH2 0xA03 JUMPI PUSH1 0x40 MLOAD PUSH32 0x8C379A000000000000000000000000000000000000000000000000000000000 DUP2 MSTORE PUSH1 0x4 ADD PUSH2 0x9FA SWAP1 PUSH2 0x1F80 JUMP JUMPDEST PUSH1 0x40 MLOAD DUP1 SWAP2 SUB SWAP1 REVERT JUMPDEST PUSH0 DUP1 PUSH1 0x9 ADD SLOAD EQ PUSH2 0xA49 JUMPI PUSH1 0x40 MLOAD PUSH32 0x8C379A000000000000000000000000000000000000000000000000000000000 DUP2 MSTORE PUSH1 0x4 ADD PUSH2 0xA40 SWAP1 PUSH2 0x1FE8 JUMP JUMPDEST PUSH1 0x40 MLOAD DUP1 SWAP2 SUB SWAP1 REVERT JUMPDEST PUSH0 PUSH1 0xA PUSH0 CALLER PUSH20 0xFFFFFFFFFFFFFFFFFFFFFFFFFFFFFFFFFFFFFFFF AND PUSH20 0xFFFFFFFFFFFFFFFFFFFFFFFFFFFFFFFFFFFFFFFF AND DUP2 MSTORE PUSH1 0x20 ADD SWAP1 DUP2 MSTORE PUSH1 0x20 ADD PUSH0 KECCAK256 PUSH0 ADD SLOAD EQ PUSH2 0xACA JUMPI PUSH1 0x40 MLOAD PUSH32 0x8C379A000000000000000000000000000000000000000000000000000000000 DUP2 MSTORE PUSH1 0x4 ADD PUSH2 0xAC1 SWAP1 PUSH2 0x2050 JUMP JUMPDEST PUSH1 0x40 MLOAD DUP1 SWAP2 SUB SWAP1 REVERT JUMPDEST PUSH2 0xAD2 PUSH2 0x1369 JUMP JUMPDEST CALLVALUE DUP2 PUSH0 ADD DUP2 DUP2 MSTORE POP POP DUP2 DUP2 PUSH1 0x20 ADD DUP2 DUP2 MSTORE POP POP TIMESTAMP DUP2 PUSH1 0x40 ADD DUP2 DUP2 MSTORE POP POP DUP1 PUSH1 0xA PUSH0 CALLER PUSH20 0xFFFFFFFFFFFFFFFFFFFFFFFFFFFFFFFFFFFFFFFF AND PUSH20 0xFFFFFFFFFFFFFFFFFFFFFFFFFFFFFFFFFFFFFFFF AND DUP2 MSTORE PUSH1 0x20 ADD SWAP1 DUP2 MSTORE PUSH1 0x20 ADD PUSH0 KECCAK256 PUSH0 DUP3 ADD MLOAD DUP2 PUSH0 ADD SSTORE PUSH1 0x20 DUP3 ADD MLOAD DUP2 PUSH1 0x1 ADD SSTORE PUSH1 0x40 DUP3 ADD MLOAD DUP2 PUSH1 0x2 ADD SSTORE PUSH1 0x60 DUP3 ADD MLOAD DUP2 PUSH1 0x3 ADD SSTORE SWAP1 POP POP PUSH1 0x1 DUP3 SUB PUSH2 0xB96 JUMPI CALLVALUE PUSH0 PUSH1 0x6 ADD PUSH0 DUP3 DUP3 SLOAD PUSH2 0xB71 SWAP2 SWAP1 PUSH2 0x1D2D JUMP JUMPDEST SWAP3 POP POP DUP2 SWAP1 SSTORE POP PUSH1 0x1 PUSH1 0xF PUSH0 DUP3 DUP3 SLOAD PUSH2 0xB8A SWAP2 SWAP1 PUSH2 0x1D2D JUMP JUMPDEST SWAP3 POP POP DUP2 SWAP1 SSTORE POP PUSH2 0xC0B JUMP JUMPDEST PUSH1 0x2 DUP3 SUB PUSH2 0xBD6 JUMPI CALLVALUE PUSH0 PUSH1 0x7 ADD PUSH0 DUP3 DUP3 SLOAD PUSH2 0xBB1 SWAP2 SWAP1 PUSH2 0x1D2D JUMP JUMPDEST SWAP3 POP POP DUP2 SWAP1 SSTORE POP PUSH1 0x1 PUSH1 0x10 PUSH0 DUP3 DUP3 SLOAD PUSH2 0xBCA SWAP2 SWAP1 PUSH2 0x1D2D JUMP JUMPDEST SWAP3 POP POP DUP2 SWAP1 SSTORE POP PUSH2 0xC0A JUMP JUMPDEST CALLVALUE PUSH0 PUSH1 0x8 ADD PUSH0 DUP3 DUP3 SLOAD PUSH2 0xBE9 SWAP2 SWAP1 PUSH2 0x1D2D JUMP JUMPDEST SWAP3 POP POP DUP2 SWAP1 SSTORE POP PUSH1 0x1 PUSH1 0x11 PUSH0 DUP3 DUP3 SLOAD PUSH2 0xC02 SWAP2 SWAP1 PUSH2 0x1D2D JUMP JUMPDEST SWAP3 POP POP DUP2 SWAP1 SSTORE POP JUMPDEST JUMPDEST POP POP JUMP JUMPDEST PUSH32 0x0 DUP2 JUMP JUMPDEST PUSH32 0x0 PUSH20 0xFFFFFFFFFFFFFFFFFFFFFFFFFFFFFFFFFFFFFFFF AND CALLER PUSH20 0xFFFFFFFFFFFFFFFFFFFFFFFFFFFFFFFFFFFFFFFF AND EQ PUSH2 0xCC1 JUMPI PUSH1 0x40 MLOAD PUSH32 0x8C379A000000000000000000000000000000000000000000000000000000000 DUP2 MSTORE PUSH1 0x4 ADD PUSH2 0xCB8 SWAP1 PUSH2 0x18BB JUMP JUMPDEST PUSH1 0x40 MLOAD DUP1 SWAP2 SUB SWAP1 REVERT JUMPDEST PUSH1 0xE SLOAD TIMESTAMP LT PUSH2 0xD05 JUMPI PUSH1 0x40 MLOAD PUSH32 0x8C379A000000000000000000000000000000000000000000000000000000000 DUP2 MSTORE PUSH1 0x4 ADD PUSH2 0xCFC SWAP1 PUSH2 0x20B8 JUMP JUMPDEST PUSH1 0x40 MLOAD DUP1 SWAP2 SUB SWAP1 REVERT JUMPDEST DUP1 PUSH1 0xE DUP2 SWAP1 SSTORE POP POP JUMP JUMPDEST PUSH1 0xA PUSH1 0x20 MSTORE DUP1 PUSH0 MSTORE PUSH1 0x40 PUSH0 KECCAK256 PUSH0 SWAP2 POP SWAP1 POP DUP1 PUSH0 ADD SLOAD SWAP1 DUP1 PUSH1 0x1 ADD SLOAD SWAP1 DUP1 PUSH1 0x2 ADD SLOAD SWAP1 DUP1 PUSH1 0x3 ADD SLOAD SWAP1 POP DUP5 JUMP JUMPDEST PUSH1 0xD SLOAD DUP2 JUMP JUMPDEST PUSH32 0x0 PUSH20 0xFFFFFFFFFFFFFFFFFFFFFFFFFFFFFFFFFFFFFFFF AND CALLER PUSH20 0xFFFFFFFFFFFFFFFFFFFFFFFFFFFFFFFFFFFFFFFF AND EQ PUSH2 0xDCF JUMPI PUSH1 0x40 MLOAD PUSH32 0x8C379A000000000000000000000000000000000000000000000000000000000 DUP2 MSTORE PUSH1 0x4 ADD PUSH2 0xDC6 SWAP1 PUSH2 0x18BB JUMP JUMPDEST PUSH1 0x40 MLOAD DUP1 SWAP2 SUB SWAP1 REVERT JUMPDEST PUSH1 0xD SLOAD TIMESTAMP LT PUSH2 0xE13 JUMPI PUSH1 0x40 MLOAD PUSH32 0x8C379A000000000000000000000000000000000000000000000000000000000 DUP2 MSTORE PUSH1 0x4 ADD PUSH2 0xE0A SWAP1 PUSH2 0x2120 JUMP JUMPDEST PUSH1 0x40 MLOAD DUP1 SWAP2 SUB SWAP1 REVERT JUMPDEST DUP1 PUSH1 0xD DUP2 SWAP1 SSTORE POP POP JUMP JUMPDEST PUSH32 0x0 PUSH20 0xFFFFFFFFFFFFFFFFFFFFFFFFFFFFFFFFFFFFFFFF AND CALLER PUSH20 0xFFFFFFFFFFFFFFFFFFFFFFFFFFFFFFFFFFFFFFFF AND EQ PUSH2 0xEAB JUMPI PUSH1 0x40 MLOAD PUSH32 0x8C379A000000000000000000000000000000000000000000000000000000000 DUP2 MSTORE PUSH1 0x4 ADD PUSH2 0xEA2 SWAP1 PUSH2 0x2188 JUMP JUMPDEST PUSH1 0x40 MLOAD DUP1 SWAP2 SUB SWAP1 REVERT JUMPDEST PUSH1 0x1 DUP2 EQ DUP1 PUSH2 0xEBA JUMPI POP PUSH1 0x2 DUP2 EQ JUMPDEST DUP1 PUSH2 0xEC5 JUMPI POP PUSH1 0x3 DUP2 EQ JUMPDEST PUSH2 0xF04 JUMPI PUSH1 0x40 MLOAD PUSH32 0x8C379A000000000000000000000000000000000000000000000000000000000 DUP2 MSTORE PUSH1 0x4 ADD PUSH2 0xEFB SWAP1 PUSH2 0x1F18 JUMP JUMPDEST PUSH1 0x40 MLOAD DUP1 SWAP2 SUB SWAP1 REVERT JUMPDEST PUSH0 DUP1 PUSH1 0x9 ADD SLOAD EQ PUSH2 0xF4A JUMPI PUSH1 0x40 MLOAD PUSH32 0x8C379A000000000000000000000000000000000000000000000000000000000 DUP2 MSTORE PUSH1 0x4 ADD PUSH2 0xF41 SWAP1 PUSH2 0x1FE8 JUMP JUMPDEST PUSH1 0x40 MLOAD DUP1 SWAP2 SUB SWAP1 REVERT JUMPDEST PUSH1 0xE SLOAD TIMESTAMP LT ISZERO PUSH2 0xF8F JUMPI PUSH1 0x40 MLOAD PUSH32 0x8C379A000000000000000000000000000000000000000000000000000000000 DUP2 MSTORE PUSH1 0x4 ADD PUSH2 0xF86 SWAP1 PUSH2 0x2216 JUMP JUMPDEST PUSH1 0x40 MLOAD DUP1 SWAP2 SUB SWAP1 REVERT JUMPDEST DUP1 PUSH0 PUSH1 0x9 ADD DUP2 SWAP1 SSTORE POP PUSH0 DUP1 PUSH1 0x8 ADD SLOAD PUSH0 PUSH1 0x7 ADD SLOAD PUSH0 PUSH1 0x6 ADD SLOAD PUSH2 0xFB2 SWAP2 SWAP1 PUSH2 0x1D2D JUMP JUMPDEST PUSH2 0xFBC SWAP2 SWAP1 PUSH2 0x1D2D JUMP JUMPDEST SWAP1 POP PUSH0 PUSH2 0x2710 PUSH1 0xB SLOAD DUP4 PUSH2 0xFD0 SWAP2 SWAP1 PUSH2 0x1D60 JUMP JUMPDEST PUSH2 0xFDA SWAP2 SWAP1 PUSH2 0x1DCE JUMP JUMPDEST SWAP1 POP DUP1 DUP3 PUSH2 0xFE8 SWAP2 SWAP1 PUSH2 0x2234 JUMP JUMPDEST PUSH1 0xC DUP2 SWAP1 SSTORE POP POP POP POP JUMP JUMPDEST PUSH1 0xB SLOAD DUP2 JUMP JUMPDEST PUSH1 0xE SLOAD DUP2 JUMP JUMPDEST PUSH0 DUP1 PUSH0 ADD DUP1 SLOAD PUSH2 0x100E SWAP1 PUSH2 0x1906 JUMP JUMPDEST DUP1 PUSH1 0x1F ADD PUSH1 0x20 DUP1 SWAP2 DIV MUL PUSH1 0x20 ADD PUSH1 0x40 MLOAD SWAP1 DUP2 ADD PUSH1 0x40 MSTORE DUP1 SWAP3 SWAP2 SWAP1 DUP2 DUP2 MSTORE PUSH1 0x20 ADD DUP3 DUP1 SLOAD PUSH2 0x103A SWAP1 PUSH2 0x1906 JUMP JUMPDEST DUP1 ISZERO PUSH2 0x1085 JUMPI DUP1 PUSH1 0x1F LT PUSH2 0x105C JUMPI PUSH2 0x100 DUP1 DUP4 SLOAD DIV MUL DUP4 MSTORE SWAP2 PUSH1 0x20 ADD SWAP2 PUSH2 0x1085 JUMP JUMPDEST DUP3 ADD SWAP2 SWAP1 PUSH0 MSTORE PUSH1 0x20 PUSH0 KECCAK256 SWAP1 JUMPDEST DUP2 SLOAD DUP2 MSTORE SWAP1 PUSH1 0x1 ADD SWAP1 PUSH1 0x20 ADD DUP1 DUP4 GT PUSH2 0x1068 JUMPI DUP3 SWAP1 SUB PUSH1 0x1F AND DUP3 ADD SWAP2 JUMPDEST POP POP POP POP POP SWAP1 DUP1 PUSH1 0x1 ADD DUP1 SLOAD PUSH2 0x109A SWAP1 PUSH2 0x1906 JUMP JUMPDEST DUP1 PUSH1 0x1F ADD PUSH1 0x20 DUP1 SWAP2 DIV MUL PUSH1 0x20 ADD PUSH1 0x40 MLOAD SWAP1 DUP2 ADD PUSH1 0x40 MSTORE DUP1 SWAP3 SWAP2 SWAP1 DUP2 DUP2 MSTORE PUSH1 0x20 ADD DUP3 DUP1 SLOAD PUSH2 0x10C6 SWAP1 PUSH2 0x1906 JUMP JUMPDEST DUP1 ISZERO PUSH2 0x1111 JUMPI DUP1 PUSH1 0x1F LT PUSH2 0x10E8 JUMPI PUSH2 0x100 DUP1 DUP4 SLOAD DIV MUL DUP4 MSTORE SWAP2 PUSH1 0x20 ADD SWAP2 PUSH2 0x1111 JUMP JUMPDEST DUP3 ADD SWAP2 SWAP1 PUSH0 MSTORE PUSH1 0x20 PUSH0 KECCAK256 SWAP1 JUMPDEST DUP2 SLOAD DUP2 MSTORE SWAP1 PUSH1 0x1 ADD SWAP1 PUSH1 0x20 ADD DUP1 DUP4 GT PUSH2 0x10F4 JUMPI DUP3 SWAP1 SUB PUSH1 0x1F AND DUP3 ADD SWAP2 JUMPDEST POP POP POP POP POP SWAP1 DUP1 PUSH1 0x2 ADD DUP1 SLOAD PUSH2 0x1126 SWAP1 PUSH2 0x1906 JUMP JUMPDEST DUP1 PUSH1 0x1F ADD PUSH1 0x20 DUP1 SWAP2 DIV MUL PUSH1 0x20 ADD PUSH1 0x40 MLOAD SWAP1 DUP2 ADD PUSH1 0x40 MSTORE DUP1 SWAP3 SWAP2 SWAP1 DUP2 DUP2 MSTORE PUSH1 0x20 ADD DUP3 DUP1 SLOAD PUSH2 0x1152 SWAP1 PUSH2 0x1906 JUMP JUMPDEST DUP1 ISZERO PUSH2 0x119D JUMPI DUP1 PUSH1 0x1F LT PUSH2 0x1174 JUMPI PUSH2 0x100 DUP1 DUP4 SLOAD DIV MUL DUP4 MSTORE SWAP2 PUSH1 0x20 ADD SWAP2 PUSH2 0x119D JUMP JUMPDEST DUP3 ADD SWAP2 SWAP1 PUSH0 MSTORE PUSH1 0x20 PUSH0 KECCAK256 SWAP1 JUMPDEST DUP2 SLOAD DUP2 MSTORE SWAP1 PUSH1 0x1 ADD SWAP1 PUSH1 0x20 ADD DUP1 DUP4 GT PUSH2 0x1180 JUMPI DUP3 SWAP1 SUB PUSH1 0x1F AND DUP3 ADD SWAP2 JUMPDEST POP POP POP POP POP SWAP1 DUP1 PUSH1 0x3 ADD DUP1 SLOAD PUSH2 0x11B2 SWAP1 PUSH2 0x1906 JUMP JUMPDEST DUP1 PUSH1 0x1F ADD PUSH1 0x20 DUP1 SWAP2 DIV MUL PUSH1 0x20 ADD PUSH1 0x40 MLOAD SWAP1 DUP2 ADD PUSH1 0x40 MSTORE DUP1 SWAP3 SWAP2 SWAP1 DUP2 DUP2 MSTORE PUSH1 0x20 ADD DUP3 DUP1 SLOAD PUSH2 0x11DE SWAP1 PUSH2 0x1906 JUMP JUMPDEST DUP1 ISZERO PUSH2 0x1229 JUMPI DUP1 PUSH1 0x1F LT PUSH2 0x1200 JUMPI PUSH2 0x100 DUP1 DUP4 SLOAD DIV MUL DUP4 MSTORE SWAP2 PUSH1 0x20 ADD SWAP2 PUSH2 0x1229 JUMP JUMPDEST DUP3 ADD SWAP2 SWAP1 PUSH0 MSTORE PUSH1 0x20 PUSH0 KECCAK256 SWAP1 JUMPDEST DUP2 SLOAD DUP2 MSTORE SWAP1 PUSH1 0x1 ADD SWAP1 PUSH1 0x20 ADD DUP1 DUP4 GT PUSH2 0x120C JUMPI DUP3 SWAP1 SUB PUSH1 0x1F AND DUP3 ADD SWAP2 JUMPDEST POP POP POP POP POP SWAP1 DUP1 PUSH1 0x4 ADD DUP1 SLOAD PUSH2 0x123E SWAP1 PUSH2 0x1906 JUMP JUMPDEST DUP1 PUSH1 0x1F ADD PUSH1 0x20 DUP1 SWAP2 DIV MUL PUSH1 0x20 ADD PUSH1 0x40 MLOAD SWAP1 DUP2 ADD PUSH1 0x40 MSTORE DUP1 SWAP3 SWAP2 SWAP1 DUP2 DUP2 MSTORE PUSH1 0x20 ADD DUP3 DUP1 SLOAD PUSH2 0x126A SWAP1 PUSH2 0x1906 JUMP JUMPDEST DUP1 ISZERO PUSH2 0x12B5 JUMPI DUP1 PUSH1 0x1F LT PUSH2 0x128C JUMPI PUSH2 0x100 DUP1 DUP4 SLOAD DIV MUL DUP4 MSTORE SWAP2 PUSH1 0x20 ADD SWAP2 PUSH2 0x12B5 JUMP JUMPDEST DUP3 ADD SWAP2 SWAP1 PUSH0 MSTORE PUSH1 0x20 PUSH0 KECCAK256 SWAP1 JUMPDEST DUP2 SLOAD DUP2 MSTORE SWAP1 PUSH1 0x1 ADD SWAP1 PUSH1 0x20 ADD DUP1 DUP4 GT PUSH2 0x1298 JUMPI DUP3 SWAP1 SUB PUSH1 0x1F AND DUP3 ADD SWAP2 JUMPDEST POP POP POP POP POP SWAP1 DUP1 PUSH1 0x5 ADD DUP1 SLOAD PUSH2 0x12CA SWAP1 PUSH2 0x1906 JUMP JUMPDEST DUP1 PUSH1 0x1F ADD PUSH1 0x20 DUP1 SWAP2 DIV MUL PUSH1 0x20 ADD PUSH1 0x40 MLOAD SWAP1 DUP2 ADD PUSH1 0x40 MSTORE DUP1 SWAP3 SWAP2 SWAP1 DUP2 DUP2 MSTORE PUSH1 0x20 ADD DUP3 DUP1 SLOAD PUSH2 0x12F6 SWAP1 PUSH2 0x1906 JUMP JUMPDEST DUP1 ISZERO PUSH2 0x1341 JUMPI DUP1 PUSH1 0x1F LT PUSH2 0x1318 JUMPI PUSH2 0x100 DUP1 DUP4 SLOAD DIV MUL DUP4 MSTORE SWAP2 PUSH1 0x20 ADD SWAP2 PUSH2 0x1341 JUMP JUMPDEST DUP3 ADD SWAP2 SWAP1 PUSH0 MSTORE PUSH1 0x20 PUSH0 KECCAK256 SWAP1 JUMPDEST DUP2 SLOAD DUP2 MSTORE SWAP1 PUSH1 0x1 ADD SWAP1 PUSH1 0x20 ADD DUP1 DUP4 GT PUSH2 0x1324 JUMPI DUP3 SWAP1 SUB PUSH1 0x1F AND DUP3 ADD SWAP2 JUMPDEST POP POP POP POP POP SWAP1 DUP1 PUSH1 0x6 ADD SLOAD SWAP1 DUP1 PUSH1 0x7 ADD SLOAD SWAP1 DUP1 PUSH1 0x8 ADD SLOAD SWAP1 DUP1 PUSH1 0x9 ADD SLOAD SWAP1 POP DUP11 JUMP JUMPDEST PUSH1 0x11 SLOAD DUP2 JUMP JUMPDEST PUSH1 0x40 MLOAD DUP1 PUSH1 0x80 ADD PUSH1 0x40 MSTORE DUP1 PUSH0 DUP2 MSTORE PUSH1 0x20 ADD PUSH0 DUP2 MSTORE PUSH1 0x20 ADD PUSH0 DUP2 MSTORE PUSH1 0x20 ADD PUSH0 DUP2 MSTORE POP SWAP1 JUMP JUMPDEST PUSH0 DUP2 SWAP1 POP SWAP2 SWAP1 POP JUMP JUMPDEST PUSH2 0x139F DUP2 PUSH2 0x138D JUMP JUMPDEST DUP3 MSTORE POP POP JUMP JUMPDEST PUSH0 PUSH1 0x20 DUP3 ADD SWAP1 POP PUSH2 0x13B8 PUSH0 DUP4 ADD DUP5 PUSH2 0x1396 JUMP JUMPDEST SWAP3 SWAP2 POP POP JUMP JUMPDEST PUSH0 PUSH1 0x40 MLOAD SWAP1 POP SWAP1 JUMP JUMPDEST PUSH0 DUP1 REVERT JUMPDEST PUSH0 DUP1 REVERT JUMPDEST PUSH0 DUP1 REVERT JUMPDEST PUSH0 DUP1 REVERT JUMPDEST PUSH0 PUSH1 0x1F NOT PUSH1 0x1F DUP4 ADD AND SWAP1 POP SWAP2 SWAP1 POP JUMP JUMPDEST PUSH32 0x4E487B7100000000000000000000000000000000000000000000000000000000 PUSH0 MSTORE PUSH1 0x41 PUSH1 0x4 MSTORE PUSH1 0x24 PUSH0 REVERT JUMPDEST PUSH2 0x141D DUP3 PUSH2 0x13D7 JUMP JUMPDEST DUP2 ADD DUP2 DUP2 LT PUSH8 0xFFFFFFFFFFFFFFFF DUP3 GT OR ISZERO PUSH2 0x143C JUMPI PUSH2 0x143B PUSH2 0x13E7 JUMP JUMPDEST JUMPDEST DUP1 PUSH1 0x40 MSTORE POP POP POP JUMP JUMPDEST PUSH0 PUSH2 0x144E PUSH2 0x13BE JUMP JUMPDEST SWAP1 POP PUSH2 0x145A DUP3 DUP3 PUSH2 0x1414 JUMP JUMPDEST SWAP2 SWAP1 POP JUMP JUMPDEST PUSH0 PUSH8 0xFFFFFFFFFFFFFFFF DUP3 GT ISZERO PUSH2 0x1479 JUMPI PUSH2 0x1478 PUSH2 0x13E7 JUMP JUMPDEST JUMPDEST PUSH2 0x1482 DUP3 PUSH2 0x13D7 JUMP JUMPDEST SWAP1 POP PUSH1 0x20 DUP2 ADD SWAP1 POP SWAP2 SWAP1 POP JUMP JUMPDEST DUP3 DUP2 DUP4 CALLDATACOPY PUSH0 DUP4 DUP4 ADD MSTORE POP POP POP JUMP JUMPDEST PUSH0 PUSH2 0x14AF PUSH2 0x14AA DUP5 PUSH2 0x145F JUMP JUMPDEST PUSH2 0x1445 JUMP JUMPDEST SWAP1 POP DUP3 DUP2 MSTORE PUSH1 0x20 DUP2 ADD DUP5 DUP5 DUP5 ADD GT ISZERO PUSH2 0x14CB JUMPI PUSH2 0x14CA PUSH2 0x13D3 JUMP JUMPDEST JUMPDEST PUSH2 0x14D6 DUP5 DUP3 DUP6 PUSH2 0x148F JUMP JUMPDEST POP SWAP4 SWAP3 POP POP POP JUMP JUMPDEST PUSH0 DUP3 PUSH1 0x1F DUP4 ADD SLT PUSH2 0x14F2 JUMPI PUSH2 0x14F1 PUSH2 0x13CF JUMP JUMPDEST JUMPDEST DUP2 CALLDATALOAD PUSH2 0x1502 DUP5 DUP3 PUSH1 0x20 DUP7 ADD PUSH2 0x149D JUMP JUMPDEST SWAP2 POP POP SWAP3 SWAP2 POP POP JUMP JUMPDEST PUSH0 DUP1 PUSH0 PUSH1 0x60 DUP5 DUP7 SUB SLT ISZERO PUSH2 0x1522 JUMPI PUSH2 0x1521 PUSH2 0x13C7 JUMP JUMPDEST JUMPDEST PUSH0 DUP5 ADD CALLDATALOAD PUSH8 0xFFFFFFFFFFFFFFFF DUP2 GT ISZERO PUSH2 0x153F JUMPI PUSH2 0x153E PUSH2 0x13CB JUMP JUMPDEST JUMPDEST PUSH2 0x154B DUP7 DUP3 DUP8 ADD PUSH2 0x14DE JUMP JUMPDEST SWAP4 POP POP PUSH1 0x20 DUP5 ADD CALLDATALOAD PUSH8 0xFFFFFFFFFFFFFFFF DUP2 GT ISZERO PUSH2 0x156C JUMPI PUSH2 0x156B PUSH2 0x13CB JUMP JUMPDEST JUMPDEST PUSH2 0x1578 DUP7 DUP3 DUP8 ADD PUSH2 0x14DE JUMP JUMPDEST SWAP3 POP POP PUSH1 0x40 DUP5 ADD CALLDATALOAD PUSH8 0xFFFFFFFFFFFFFFFF DUP2 GT ISZERO PUSH2 0x1599 JUMPI PUSH2 0x1598 PUSH2 0x13CB JUMP JUMPDEST JUMPDEST PUSH2 0x15A5 DUP7 DUP3 DUP8 ADD PUSH2 0x14DE JUMP JUMPDEST SWAP2 POP POP SWAP3 POP SWAP3 POP SWAP3 JUMP JUMPDEST PUSH0 DUP2 ISZERO ISZERO SWAP1 POP SWAP2 SWAP1 POP JUMP JUMPDEST PUSH2 0x15C3 DUP2 PUSH2 0x15AF JUMP JUMPDEST DUP3 MSTORE POP POP JUMP JUMPDEST PUSH0 PUSH1 0x20 DUP3 ADD SWAP1 POP PUSH2 0x15DC PUSH0 DUP4 ADD DUP5 PUSH2 0x15BA JUMP JUMPDEST SWAP3 SWAP2 POP POP JUMP JUMPDEST PUSH2 0x15EB DUP2 PUSH2 0x138D JUMP JUMPDEST DUP2 EQ PUSH2 0x15F5 JUMPI PUSH0 DUP1 REVERT JUMPDEST POP JUMP JUMPDEST PUSH0 DUP2 CALLDATALOAD SWAP1 POP PUSH2 0x1606 DUP2 PUSH2 0x15E2 JUMP JUMPDEST SWAP3 SWAP2 POP POP JUMP JUMPDEST PUSH0 PUSH1 0x20 DUP3 DUP5 SUB SLT ISZERO PUSH2 0x1621 JUMPI PUSH2 0x1620 PUSH2 0x13C7 JUMP JUMPDEST JUMPDEST PUSH0 PUSH2 0x162E DUP5 DUP3 DUP6 ADD PUSH2 0x15F8 JUMP JUMPDEST SWAP2 POP POP SWAP3 SWAP2 POP POP JUMP JUMPDEST PUSH0 PUSH20 0xFFFFFFFFFFFFFFFFFFFFFFFFFFFFFFFFFFFFFFFF DUP3 AND SWAP1 POP SWAP2 SWAP1 POP JUMP JUMPDEST PUSH0 PUSH2 0x1660 DUP3 PUSH2 0x1637 JUMP JUMPDEST SWAP1 POP SWAP2 SWAP1 POP JUMP JUMPDEST PUSH2 0x1670 DUP2 PUSH2 0x1656 JUMP JUMPDEST DUP3 MSTORE POP POP JUMP JUMPDEST PUSH0 PUSH1 0x20 DUP3 ADD SWAP1 POP PUSH2 0x1689 PUSH0 DUP4 ADD DUP5 PUSH2 0x1667 JUMP JUMPDEST SWAP3 SWAP2 POP POP JUMP JUMPDEST PUSH2 0x1698 DUP2 PUSH2 0x1656 JUMP JUMPDEST DUP2 EQ PUSH2 0x16A2 JUMPI PUSH0 DUP1 REVERT JUMPDEST POP JUMP JUMPDEST PUSH0 DUP2 CALLDATALOAD SWAP1 POP PUSH2 0x16B3 DUP2 PUSH2 0x168F JUMP JUMPDEST SWAP3 SWAP2 POP POP JUMP JUMPDEST PUSH0 PUSH1 0x20 DUP3 DUP5 SUB SLT ISZERO PUSH2 0x16CE JUMPI PUSH2 0x16CD PUSH2 0x13C7 JUMP JUMPDEST JUMPDEST PUSH0 PUSH2 0x16DB DUP5 DUP3 DUP6 ADD PUSH2 0x16A5 JUMP JUMPDEST SWAP2 POP POP SWAP3 SWAP2 POP POP JUMP JUMPDEST PUSH0 PUSH1 0x80 DUP3 ADD SWAP1 POP PUSH2 0x16F7 PUSH0 DUP4 ADD DUP8 PUSH2 0x1396 JUMP JUMPDEST PUSH2 0x1704 PUSH1 0x20 DUP4 ADD DUP7 PUSH2 0x1396 JUMP JUMPDEST PUSH2 0x1711 PUSH1 0x40 DUP4 ADD DUP6 PUSH2 0x1396 JUMP JUMPDEST PUSH2 0x171E PUSH1 0x60 DUP4 ADD DUP5 PUSH2 0x1396 JUMP JUMPDEST SWAP6 SWAP5 POP POP POP POP POP JUMP JUMPDEST PUSH0 DUP2 MLOAD SWAP1 POP SWAP2 SWAP1 POP JUMP JUMPDEST PUSH0 DUP3 DUP3 MSTORE PUSH1 0x20 DUP3 ADD SWAP1 POP SWAP3 SWAP2 POP POP JUMP JUMPDEST DUP3 DUP2 DUP4 MCOPY PUSH0 DUP4 DUP4 ADD MSTORE POP POP POP JUMP JUMPDEST PUSH0 PUSH2 0x1759 DUP3 PUSH2 0x1727 JUMP JUMPDEST PUSH2 0x1763 DUP2 DUP6 PUSH2 0x1731 JUMP JUMPDEST SWAP4 POP PUSH2 0x1773 DUP2 DUP6 PUSH1 0x20 DUP7 ADD PUSH2 0x1741 JUMP JUMPDEST PUSH2 0x177C DUP2 PUSH2 0x13D7 JUMP JUMPDEST DUP5 ADD SWAP2 POP POP SWAP3 SWAP2 POP POP JUMP JUMPDEST PUSH0 PUSH2 0x140 DUP3 ADD SWAP1 POP DUP2 DUP2 SUB PUSH0 DUP4 ADD MSTORE PUSH2 0x17A0 DUP2 DUP14 PUSH2 0x174F JUMP JUMPDEST SWAP1 POP DUP2 DUP2 SUB PUSH1 0x20 DUP4 ADD MSTORE PUSH2 0x17B4 DUP2 DUP13 PUSH2 0x174F JUMP JUMPDEST SWAP1 POP DUP2 DUP2 SUB PUSH1 0x40 DUP4 ADD MSTORE PUSH2 0x17C8 DUP2 DUP12 PUSH2 0x174F JUMP JUMPDEST SWAP1 POP DUP2 DUP2 SUB PUSH1 0x60 DUP4 ADD MSTORE PUSH2 0x17DC DUP2 DUP11 PUSH2 0x174F JUMP JUMPDEST SWAP1 POP DUP2 DUP2 SUB PUSH1 0x80 DUP4 ADD MSTORE PUSH2 0x17F0 DUP2 DUP10 PUSH2 0x174F JUMP JUMPDEST SWAP1 POP DUP2 DUP2 SUB PUSH1 0xA0 DUP4 ADD MSTORE PUSH2 0x1804 DUP2 DUP9 PUSH2 0x174F JUMP JUMPDEST SWAP1 POP PUSH2 0x1813 PUSH1 0xC0 DUP4 ADD DUP8 PUSH2 0x1396 JUMP JUMPDEST PUSH2 0x1820 PUSH1 0xE0 DUP4 ADD DUP7 PUSH2 0x1396 JUMP JUMPDEST PUSH2 0x182E PUSH2 0x100 DUP4 ADD DUP6 PUSH2 0x1396 JUMP JUMPDEST PUSH2 0x183C PUSH2 0x120 DUP4 ADD DUP5 PUSH2 0x1396 JUMP JUMPDEST SWAP12 SWAP11 POP POP POP POP POP POP POP POP POP POP POP JUMP JUMPDEST PUSH32 0x4F6E6C79206F776E65722063616E20706572666F726D20746869732061637469 PUSH0 DUP3 ADD MSTORE PUSH32 0x6F6E000000000000000000000000000000000000000000000000000000000000 PUSH1 0x20 DUP3 ADD MSTORE POP JUMP JUMPDEST PUSH0 PUSH2 0x18A5 PUSH1 0x22 DUP4 PUSH2 0x1731 JUMP JUMPDEST SWAP2 POP PUSH2 0x18B0 DUP3 PUSH2 0x184B JUMP JUMPDEST PUSH1 0x40 DUP3 ADD SWAP1 POP SWAP2 SWAP1 POP JUMP JUMPDEST PUSH0 PUSH1 0x20 DUP3 ADD SWAP1 POP DUP2 DUP2 SUB PUSH0 DUP4 ADD MSTORE PUSH2 0x18D2 DUP2 PUSH2 0x1899 JUMP JUMPDEST SWAP1 POP SWAP2 SWAP1 POP JUMP JUMPDEST PUSH32 0x4E487B7100000000000000000000000000000000000000000000000000000000 PUSH0 MSTORE PUSH1 0x22 PUSH1 0x4 MSTORE PUSH1 0x24 PUSH0 REVERT JUMPDEST PUSH0 PUSH1 0x2 DUP3 DIV SWAP1 POP PUSH1 0x1 DUP3 AND DUP1 PUSH2 0x191D JUMPI PUSH1 0x7F DUP3 AND SWAP2 POP JUMPDEST PUSH1 0x20 DUP3 LT DUP2 SUB PUSH2 0x1930 JUMPI PUSH2 0x192F PUSH2 0x18D9 JUMP JUMPDEST JUMPDEST POP SWAP2 SWAP1 POP JUMP JUMPDEST PUSH0 DUP2 SWAP1 POP DUP2 PUSH0 MSTORE PUSH1 0x20 PUSH0 KECCAK256 SWAP1 POP SWAP2 SWAP1 POP JUMP JUMPDEST PUSH0 PUSH1 0x20 PUSH1 0x1F DUP4 ADD DIV SWAP1 POP SWAP2 SWAP1 POP JUMP JUMPDEST PUSH0 DUP3 DUP3 SHL SWAP1 POP SWAP3 SWAP2 POP POP JUMP JUMPDEST PUSH0 PUSH1 0x8 DUP4 MUL PUSH2 0x1992 PUSH32 0xFFFFFFFFFFFFFFFFFFFFFFFFFFFFFFFFFFFFFFFFFFFFFFFFFFFFFFFFFFFFFFFF DUP3 PUSH2 0x1957 JUMP JUMPDEST PUSH2 0x199C DUP7 DUP4 PUSH2 0x1957 JUMP JUMPDEST SWAP6 POP DUP1 NOT DUP5 AND SWAP4 POP DUP1 DUP7 AND DUP5 OR SWAP3 POP POP POP SWAP4 SWAP3 POP POP POP JUMP JUMPDEST PUSH0 DUP2 SWAP1 POP SWAP2 SWAP1 POP JUMP JUMPDEST PUSH0 PUSH2 0x19D7 PUSH2 0x19D2 PUSH2 0x19CD DUP5 PUSH2 0x138D JUMP JUMPDEST PUSH2 0x19B4 JUMP JUMPDEST PUSH2 0x138D JUMP JUMPDEST SWAP1 POP SWAP2 SWAP1 POP JUMP JUMPDEST PUSH0 DUP2 SWAP1 POP SWAP2 SWAP1 POP JUMP JUMPDEST PUSH2 0x19F0 DUP4 PUSH2 0x19BD JUMP JUMPDEST PUSH2 0x1A04 PUSH2 0x19FC DUP3 PUSH2 0x19DE JUMP JUMPDEST DUP5 DUP5 SLOAD PUSH2 0x1963 JUMP JUMPDEST DUP3 SSTORE POP POP POP POP JUMP JUMPDEST PUSH0 SWAP1 JUMP JUMPDEST PUSH2 0x1A18 PUSH2 0x1A0C JUMP JUMPDEST PUSH2 0x1A23 DUP2 DUP5 DUP5 PUSH2 0x19E7 JUMP JUMPDEST POP POP POP JUMP JUMPDEST JUMPDEST DUP2 DUP2 LT ISZERO PUSH2 0x1A46 JUMPI PUSH2 0x1A3B PUSH0 DUP3 PUSH2 0x1A10 JUMP JUMPDEST PUSH1 0x1 DUP2 ADD SWAP1 POP PUSH2 0x1A29 JUMP JUMPDEST POP POP JUMP JUMPDEST PUSH1 0x1F DUP3 GT ISZERO PUSH2 0x1A8B JUMPI PUSH2 0x1A5C DUP2 PUSH2 0x1936 JUMP JUMPDEST PUSH2 0x1A65 DUP5 PUSH2 0x1948 JUMP JUMPDEST DUP2 ADD PUSH1 0x20 DUP6 LT ISZERO PUSH2 0x1A74 JUMPI DUP2 SWAP1 POP JUMPDEST PUSH2 0x1A88 PUSH2 0x1A80 DUP6 PUSH2 0x1948 JUMP JUMPDEST DUP4 ADD DUP3 PUSH2 0x1A28 JUMP JUMPDEST POP POP JUMPDEST POP POP POP JUMP JUMPDEST PUSH0 DUP3 DUP3 SHR SWAP1 POP SWAP3 SWAP2 POP POP JUMP JUMPDEST PUSH0 PUSH2 0x1AAB PUSH0 NOT DUP5 PUSH1 0x8 MUL PUSH2 0x1A90 JUMP JUMPDEST NOT DUP1 DUP4 AND SWAP2 POP POP SWAP3 SWAP2 POP POP JUMP JUMPDEST PUSH0 PUSH2 0x1AC3 DUP4 DUP4 PUSH2 0x1A9C JUMP JUMPDEST SWAP2 POP DUP3 PUSH1 0x2 MUL DUP3 OR SWAP1 POP SWAP3 SWAP2 POP POP JUMP JUMPDEST PUSH2 0x1ADC DUP3 PUSH2 0x1727 JUMP JUMPDEST PUSH8 0xFFFFFFFFFFFFFFFF DUP2 GT ISZERO PUSH2 0x1AF5 JUMPI PUSH2 0x1AF4 PUSH2 0x13E7 JUMP JUMPDEST JUMPDEST PUSH2 0x1AFF DUP3 SLOAD PUSH2 0x1906 JUMP JUMPDEST PUSH2 0x1B0A DUP3 DUP3 DUP6 PUSH2 0x1A4A JUMP JUMPDEST PUSH0 PUSH1 0x20 SWAP1 POP PUSH1 0x1F DUP4 GT PUSH1 0x1 DUP2 EQ PUSH2 0x1B3B JUMPI PUSH0 DUP5 ISZERO PUSH2 0x1B29 JUMPI DUP3 DUP8 ADD MLOAD SWAP1 POP JUMPDEST PUSH2 0x1B33 DUP6 DUP3 PUSH2 0x1AB8 JUMP JUMPDEST DUP7 SSTORE POP PUSH2 0x1B9A JUMP JUMPDEST PUSH1 0x1F NOT DUP5 AND PUSH2 0x1B49 DUP7 PUSH2 0x1936 JUMP JUMPDEST PUSH0 JUMPDEST DUP3 DUP2 LT ISZERO PUSH2 0x1B70 JUMPI DUP5 DUP10 ADD MLOAD DUP3 SSTORE PUSH1 0x1 DUP3 ADD SWAP2 POP PUSH1 0x20 DUP6 ADD SWAP5 POP PUSH1 0x20 DUP2 ADD SWAP1 POP PUSH2 0x1B4B JUMP JUMPDEST DUP7 DUP4 LT ISZERO PUSH2 0x1B8D JUMPI DUP5 DUP10 ADD MLOAD PUSH2 0x1B89 PUSH1 0x1F DUP10 AND DUP3 PUSH2 0x1A9C JUMP JUMPDEST DUP4 SSTORE POP JUMPDEST PUSH1 0x1 PUSH1 0x2 DUP9 MUL ADD DUP9 SSTORE POP POP POP JUMPDEST POP POP POP POP POP POP JUMP JUMPDEST PUSH32 0x4F6E6C79206F776E65722063616E20776974686472617720636F6D6D69737369 PUSH0 DUP3 ADD MSTORE PUSH32 0x6F6E000000000000000000000000000000000000000000000000000000000000 PUSH1 0x20 DUP3 ADD MSTORE POP JUMP JUMPDEST PUSH0 PUSH2 0x1BFC PUSH1 0x22 DUP4 PUSH2 0x1731 JUMP JUMPDEST SWAP2 POP PUSH2 0x1C07 DUP3 PUSH2 0x1BA2 JUMP JUMPDEST PUSH1 0x40 DUP3 ADD SWAP1 POP SWAP2 SWAP1 POP JUMP JUMPDEST PUSH0 PUSH1 0x20 DUP3 ADD SWAP1 POP DUP2 DUP2 SUB PUSH0 DUP4 ADD MSTORE PUSH2 0x1C29 DUP2 PUSH2 0x1BF0 JUMP JUMPDEST SWAP1 POP SWAP2 SWAP1 POP JUMP JUMPDEST PUSH32 0x44697370757465206E6F742066696E6973686564207965740000000000000000 PUSH0 DUP3 ADD MSTORE POP JUMP JUMPDEST PUSH0 PUSH2 0x1C64 PUSH1 0x18 DUP4 PUSH2 0x1731 JUMP JUMPDEST SWAP2 POP PUSH2 0x1C6F DUP3 PUSH2 0x1C30 JUMP JUMPDEST PUSH1 0x20 DUP3 ADD SWAP1 POP SWAP2 SWAP1 POP JUMP JUMPDEST PUSH0 PUSH1 0x20 DUP3 ADD SWAP1 POP DUP2 DUP2 SUB PUSH0 DUP4 ADD MSTORE PUSH2 0x1C91 DUP2 PUSH2 0x1C58 JUMP JUMPDEST SWAP1 POP SWAP2 SWAP1 POP JUMP JUMPDEST PUSH32 0x436F6D6D697373696F6E20616C72656164792077697468647261776E00000000 PUSH0 DUP3 ADD MSTORE POP JUMP JUMPDEST PUSH0 PUSH2 0x1CCC PUSH1 0x1C DUP4 PUSH2 0x1731 JUMP JUMPDEST SWAP2 POP PUSH2 0x1CD7 DUP3 PUSH2 0x1C98 JUMP JUMPDEST PUSH1 0x20 DUP3 ADD SWAP1 POP SWAP2 SWAP1 POP JUMP JUMPDEST PUSH0 PUSH1 0x20 DUP3 ADD SWAP1 POP DUP2 DUP2 SUB PUSH0 DUP4 ADD MSTORE PUSH2 0x1CF9 DUP2 PUSH2 0x1CC0 JUMP JUMPDEST SWAP1 POP SWAP2 SWAP1 POP JUMP JUMPDEST PUSH32 0x4E487B7100000000000000000000000000000000000000000000000000000000 PUSH0 MSTORE PUSH1 0x11 PUSH1 0x4 MSTORE PUSH1 0x24 PUSH0 REVERT JUMPDEST PUSH0 PUSH2 0x1D37 DUP3 PUSH2 0x138D JUMP JUMPDEST SWAP2 POP PUSH2 0x1D42 DUP4 PUSH2 0x138D JUMP JUMPDEST SWAP3 POP DUP3 DUP3 ADD SWAP1 POP DUP1 DUP3 GT ISZERO PUSH2 0x1D5A JUMPI PUSH2 0x1D59 PUSH2 0x1D00 JUMP JUMPDEST JUMPDEST SWAP3 SWAP2 POP POP JUMP JUMPDEST PUSH0 PUSH2 0x1D6A DUP3 PUSH2 0x138D JUMP JUMPDEST SWAP2 POP PUSH2 0x1D75 DUP4 PUSH2 0x138D JUMP JUMPDEST SWAP3 POP DUP3 DUP3 MUL PUSH2 0x1D83 DUP2 PUSH2 0x138D JUMP JUMPDEST SWAP2 POP DUP3 DUP3 DIV DUP5 EQ DUP4 ISZERO OR PUSH2 0x1D9A JUMPI PUSH2 0x1D99 PUSH2 0x1D00 JUMP JUMPDEST JUMPDEST POP SWAP3 SWAP2 POP POP JUMP JUMPDEST PUSH32 0x4E487B7100000000000000000000000000000000000000000000000000000000 PUSH0 MSTORE PUSH1 0x12 PUSH1 0x4 MSTORE PUSH1 0x24 PUSH0 REVERT JUMPDEST PUSH0 PUSH2 0x1DD8 DUP3 PUSH2 0x138D JUMP JUMPDEST SWAP2 POP PUSH2 0x1DE3 DUP4 PUSH2 0x138D JUMP JUMPDEST SWAP3 POP DUP3 PUSH2 0x1DF3 JUMPI PUSH2 0x1DF2 PUSH2 0x1DA1 JUMP JUMPDEST JUMPDEST DUP3 DUP3 DIV SWAP1 POP SWAP3 SWAP2 POP POP JUMP JUMPDEST PUSH32 0x496E76616C696420636C61696D00000000000000000000000000000000000000 PUSH0 DUP3 ADD MSTORE POP JUMP JUMPDEST PUSH0 PUSH2 0x1E32 PUSH1 0xD DUP4 PUSH2 0x1731 JUMP JUMPDEST SWAP2 POP PUSH2 0x1E3D DUP3 PUSH2 0x1DFE JUMP JUMPDEST PUSH1 0x20 DUP3 ADD SWAP1 POP SWAP2 SWAP1 POP JUMP JUMPDEST PUSH0 PUSH1 0x20 DUP3 ADD SWAP1 POP DUP2 DUP2 SUB PUSH0 DUP4 ADD MSTORE PUSH2 0x1E5F DUP2 PUSH2 0x1E26 JUMP JUMPDEST SWAP1 POP SWAP2 SWAP1 POP JUMP JUMPDEST PUSH32 0x42657474696E6720706572696F64206973206F76657200000000000000000000 PUSH0 DUP3 ADD MSTORE POP JUMP JUMPDEST PUSH0 PUSH2 0x1E9A PUSH1 0x16 DUP4 PUSH2 0x1731 JUMP JUMPDEST SWAP2 POP PUSH2 0x1EA5 DUP3 PUSH2 0x1E66 JUMP JUMPDEST PUSH1 0x20 DUP3 ADD SWAP1 POP SWAP2 SWAP1 POP JUMP JUMPDEST PUSH0 PUSH1 0x20 DUP3 ADD SWAP1 POP DUP2 DUP2 SUB PUSH0 DUP4 ADD MSTORE PUSH2 0x1EC7 DUP2 PUSH2 0x1E8E JUMP JUMPDEST SWAP1 POP SWAP2 SWAP1 POP JUMP JUMPDEST PUSH32 0x496E76616C69642063616E646964617465000000000000000000000000000000 PUSH0 DUP3 ADD MSTORE POP JUMP JUMPDEST PUSH0 PUSH2 0x1F02 PUSH1 0x11 DUP4 PUSH2 0x1731 JUMP JUMPDEST SWAP2 POP PUSH2 0x1F0D DUP3 PUSH2 0x1ECE JUMP JUMPDEST PUSH1 0x20 DUP3 ADD SWAP1 POP SWAP2 SWAP1 POP JUMP JUMPDEST PUSH0 PUSH1 0x20 DUP3 ADD SWAP1 POP DUP2 DUP2 SUB PUSH0 DUP4 ADD MSTORE PUSH2 0x1F2F DUP2 PUSH2 0x1EF6 JUMP JUMPDEST SWAP1 POP SWAP2 SWAP1 POP JUMP JUMPDEST PUSH32 0x496E76616C696420626574000000000000000000000000000000000000000000 PUSH0 DUP3 ADD MSTORE POP JUMP JUMPDEST PUSH0 PUSH2 0x1F6A PUSH1 0xB DUP4 PUSH2 0x1731 JUMP JUMPDEST SWAP2 POP PUSH2 0x1F75 DUP3 PUSH2 0x1F36 JUMP JUMPDEST PUSH1 0x20 DUP3 ADD SWAP1 POP SWAP2 SWAP1 POP JUMP JUMPDEST PUSH0 PUSH1 0x20 DUP3 ADD SWAP1 POP DUP2 DUP2 SUB PUSH0 DUP4 ADD MSTORE PUSH2 0x1F97 DUP2 PUSH2 0x1F5E JUMP JUMPDEST SWAP1 POP SWAP2 SWAP1 POP JUMP JUMPDEST PUSH32 0x4469737075746520636C6F736564000000000000000000000000000000000000 PUSH0 DUP3 ADD MSTORE POP JUMP JUMPDEST PUSH0 PUSH2 0x1FD2 PUSH1 0xE DUP4 PUSH2 0x1731 JUMP JUMPDEST SWAP2 POP PUSH2 0x1FDD DUP3 PUSH2 0x1F9E JUMP JUMPDEST PUSH1 0x20 DUP3 ADD SWAP1 POP SWAP2 SWAP1 POP JUMP JUMPDEST PUSH0 PUSH1 0x20 DUP3 ADD SWAP1 POP DUP2 DUP2 SUB PUSH0 DUP4 ADD MSTORE PUSH2 0x1FFF DUP2 PUSH2 0x1FC6 JUMP JUMPDEST SWAP1 POP SWAP2 SWAP1 POP JUMP JUMPDEST PUSH32 0x416C726561647920706C61636564206120626574000000000000000000000000 PUSH0 DUP3 ADD MSTORE POP JUMP JUMPDEST PUSH0 PUSH2 0x203A PUSH1 0x14 DUP4 PUSH2 0x1731 JUMP JUMPDEST SWAP2 POP PUSH2 0x2045 DUP3 PUSH2 0x2006 JUMP JUMPDEST PUSH1 0x20 DUP3 ADD SWAP1 POP SWAP2 SWAP1 POP JUMP JUMPDEST PUSH0 PUSH1 0x20 DUP3 ADD SWAP1 POP DUP2 DUP2 SUB PUSH0 DUP4 ADD MSTORE PUSH2 0x2067 DUP2 PUSH2 0x202E JUMP JUMPDEST SWAP1 POP SWAP2 SWAP1 POP JUMP JUMPDEST PUSH32 0x46696E69736820706572696F6420616C726561647920656E6465640000000000 PUSH0 DUP3 ADD MSTORE POP JUMP JUMPDEST PUSH0 PUSH2 0x20A2 PUSH1 0x1B DUP4 PUSH2 0x1731 JUMP JUMPDEST SWAP2 POP PUSH2 0x20AD DUP3 PUSH2 0x206E JUMP JUMPDEST PUSH1 0x20 DUP3 ADD SWAP1 POP SWAP2 SWAP1 POP JUMP JUMPDEST PUSH0 PUSH1 0x20 DUP3 ADD SWAP1 POP DUP2 DUP2 SUB PUSH0 DUP4 ADD MSTORE PUSH2 0x20CF DUP2 PUSH2 0x2096 JUMP JUMPDEST SWAP1 POP SWAP2 SWAP1 POP JUMP JUMPDEST PUSH32 0x42657474696E6720706572696F6420616C726561647920656E64656400000000 PUSH0 DUP3 ADD MSTORE POP JUMP JUMPDEST PUSH0 PUSH2 0x210A PUSH1 0x1C DUP4 PUSH2 0x1731 JUMP JUMPDEST SWAP2 POP PUSH2 0x2115 DUP3 PUSH2 0x20D6 JUMP JUMPDEST PUSH1 0x20 DUP3 ADD SWAP1 POP SWAP2 SWAP1 POP JUMP JUMPDEST PUSH0 PUSH1 0x20 DUP3 ADD SWAP1 POP DUP2 DUP2 SUB PUSH0 DUP4 ADD MSTORE PUSH2 0x2137 DUP2 PUSH2 0x20FE JUMP JUMPDEST SWAP1 POP SWAP2 SWAP1 POP JUMP JUMPDEST PUSH32 0x496E76616C6964206163636F756E740000000000000000000000000000000000 PUSH0 DUP3 ADD MSTORE POP JUMP JUMPDEST PUSH0 PUSH2 0x2172 PUSH1 0xF DUP4 PUSH2 0x1731 JUMP JUMPDEST SWAP2 POP PUSH2 0x217D DUP3 PUSH2 0x213E JUMP JUMPDEST PUSH1 0x20 DUP3 ADD SWAP1 POP SWAP2 SWAP1 POP JUMP JUMPDEST PUSH0 PUSH1 0x20 DUP3 ADD SWAP1 POP DUP2 DUP2 SUB PUSH0 DUP4 ADD MSTORE PUSH2 0x219F DUP2 PUSH2 0x2166 JUMP JUMPDEST SWAP1 POP SWAP2 SWAP1 POP JUMP JUMPDEST PUSH32 0x43616E6E6F742066696E697368206265666F72652066696E69736820656E6420 PUSH0 DUP3 ADD MSTORE PUSH32 0x74696D6500000000000000000000000000000000000000000000000000000000 PUSH1 0x20 DUP3 ADD MSTORE POP JUMP JUMPDEST PUSH0 PUSH2 0x2200 PUSH1 0x24 DUP4 PUSH2 0x1731 JUMP JUMPDEST SWAP2 POP PUSH2 0x220B DUP3 PUSH2 0x21A6 JUMP JUMPDEST PUSH1 0x40 DUP3 ADD SWAP1 POP SWAP2 SWAP1 POP JUMP JUMPDEST PUSH0 PUSH1 0x20 DUP3 ADD SWAP1 POP DUP2 DUP2 SUB PUSH0 DUP4 ADD MSTORE PUSH2 0x222D DUP2 PUSH2 0x21F4 JUMP JUMPDEST SWAP1 POP SWAP2 SWAP1 POP JUMP JUMPDEST PUSH0 PUSH2 0x223E DUP3 PUSH2 0x138D JUMP JUMPDEST SWAP2 POP PUSH2 0x2249 DUP4 PUSH2 0x138D JUMP JUMPDEST SWAP3 POP DUP3 DUP3 SUB SWAP1 POP DUP2 DUP2 GT ISZERO PUSH2 0x2261 JUMPI PUSH2 0x2260 PUSH2 0x1D00 JUMP JUMPDEST JUMPDEST SWAP3 SWAP2 POP POP JUMP INVALID LOG2 PUSH5 0x6970667358 0x22 SLT KECCAK256 0xE9 0x2F 0xB5 PUSH6 0x963AB0E59950 0xBA PUSH26 0xFF79E41EBC63AE50F59B4FBA671F407A2CB0710064736F6C6343 STOP ADDMOD BYTE STOP CALLER "
				},
				"gasEstimates": {
					"creation": {
						"codeDepositCost": "1772200",
						"executionCost": "infinite",
						"totalCost": "infinite"
					},
					"external": {
						"allBets(address)": "infinite",
						"bet(uint256)": "infinite",
						"betEndTime()": "2514",
						"claim()": "infinite",
						"commissionWithdrawn()": "2555",
						"dispute()": "infinite",
						"fee()": "2469",
						"finish(uint256)": "infinite",
						"finishEndTime()": "2491",
						"netPrize()": "2449",
						"owner()": "infinite",
						"setBetEndTime(uint256)": "infinite",
						"setCandidateImages(string,string,string)": "infinite",
						"setCandidateNames(string,string,string)": "infinite",
						"setFinishEndTime(uint256)": "infinite",
						"totalBettors1()": "2471",
						"totalBettors2()": "2492",
						"totalBettors3()": "2535",
						"withdrawCommission()": "infinite"
					}
				},
				"methodIdentifiers": {
					"allBets(address)": "93bebee8",
					"bet(uint256)": "7365870b",
					"betEndTime()": "b670da5a",
					"claim()": "4e71d92d",
					"commissionWithdrawn()": "69b10852",
					"dispute()": "f240f7c3",
					"fee()": "ddca3f43",
					"finish(uint256)": "d353a1cb",
					"finishEndTime()": "e5237601",
					"netPrize()": "121de3f6",
					"owner()": "8da5cb5b",
					"setBetEndTime(uint256)": "b84391de",
					"setCandidateImages(string,string,string)": "38315a8f",
					"setCandidateNames(string,string,string)": "14f14d75",
					"setFinishEndTime(uint256)": "9317cbe2",
					"totalBettors1()": "135678f9",
					"totalBettors2()": "5edbabae",
					"totalBettors3()": "f5556be2",
					"withdrawCommission()": "3e25e837"
				}
			},
			"storageLayout": {
				"storage": [
					{
						"astId": 34,
						"contract": "smart-contract/BetCandidate.sol:BetCandidate",
						"label": "dispute",
						"offset": 0,
						"slot": "0",
						"type": "t_struct(Dispute)31_storage"
					},
					{
						"astId": 39,
						"contract": "smart-contract/BetCandidate.sol:BetCandidate",
						"label": "allBets",
						"offset": 0,
						"slot": "10",
						"type": "t_mapping(t_address,t_struct(Bet)10_storage)"
					},
					{
						"astId": 44,
						"contract": "smart-contract/BetCandidate.sol:BetCandidate",
						"label": "fee",
						"offset": 0,
						"slot": "11",
						"type": "t_uint256"
					},
					{
						"astId": 46,
						"contract": "smart-contract/BetCandidate.sol:BetCandidate",
						"label": "netPrize",
						"offset": 0,
						"slot": "12",
						"type": "t_uint256"
					},
					{
						"astId": 48,
						"contract": "smart-contract/BetCandidate.sol:BetCandidate",
						"label": "betEndTime",
						"offset": 0,
						"slot": "13",
						"type": "t_uint256"
					},
					{
						"astId": 50,
						"contract": "smart-contract/BetCandidate.sol:BetCandidate",
						"label": "finishEndTime",
						"offset": 0,
						"slot": "14",
						"type": "t_uint256"
					},
					{
						"astId": 52,
						"contract": "smart-contract/BetCandidate.sol:BetCandidate",
						"label": "totalBettors1",
						"offset": 0,
						"slot": "15",
						"type": "t_uint256"
					},
					{
						"astId": 54,
						"contract": "smart-contract/BetCandidate.sol:BetCandidate",
						"label": "totalBettors2",
						"offset": 0,
						"slot": "16",
						"type": "t_uint256"
					},
					{
						"astId": 56,
						"contract": "smart-contract/BetCandidate.sol:BetCandidate",
						"label": "totalBettors3",
						"offset": 0,
						"slot": "17",
						"type": "t_uint256"
					},
					{
						"astId": 415,
						"contract": "smart-contract/BetCandidate.sol:BetCandidate",
						"label": "commissionWithdrawn",
						"offset": 0,
						"slot": "18",
						"type": "t_bool"
					}
				],
				"types": {
					"t_address": {
						"encoding": "inplace",
						"label": "address",
						"numberOfBytes": "20"
					},
					"t_bool": {
						"encoding": "inplace",
						"label": "bool",
						"numberOfBytes": "1"
					},
					"t_mapping(t_address,t_struct(Bet)10_storage)": {
						"encoding": "mapping",
						"key": "t_address",
						"label": "mapping(address => struct Bet)",
						"numberOfBytes": "32",
						"value": "t_struct(Bet)10_storage"
					},
					"t_string_storage": {
						"encoding": "bytes",
						"label": "string",
						"numberOfBytes": "32"
					},
					"t_struct(Bet)10_storage": {
						"encoding": "inplace",
						"label": "struct Bet",
						"members": [
							{
								"astId": 3,
								"contract": "smart-contract/BetCandidate.sol:BetCandidate",
								"label": "amount",
								"offset": 0,
								"slot": "0",
								"type": "t_uint256"
							},
							{
								"astId": 5,
								"contract": "smart-contract/BetCandidate.sol:BetCandidate",
								"label": "candidate",
								"offset": 0,
								"slot": "1",
								"type": "t_uint256"
							},
							{
								"astId": 7,
								"contract": "smart-contract/BetCandidate.sol:BetCandidate",
								"label": "timestamp",
								"offset": 0,
								"slot": "2",
								"type": "t_uint256"
							},
							{
								"astId": 9,
								"contract": "smart-contract/BetCandidate.sol:BetCandidate",
								"label": "claimed",
								"offset": 0,
								"slot": "3",
								"type": "t_uint256"
							}
						],
						"numberOfBytes": "128"
					},
					"t_struct(Dispute)31_storage": {
						"encoding": "inplace",
						"label": "struct Dispute",
						"members": [
							{
								"astId": 12,
								"contract": "smart-contract/BetCandidate.sol:BetCandidate",
								"label": "candidate1",
								"offset": 0,
								"slot": "0",
								"type": "t_string_storage"
							},
							{
								"astId": 14,
								"contract": "smart-contract/BetCandidate.sol:BetCandidate",
								"label": "candidate2",
								"offset": 0,
								"slot": "1",
								"type": "t_string_storage"
							},
							{
								"astId": 16,
								"contract": "smart-contract/BetCandidate.sol:BetCandidate",
								"label": "candidate3",
								"offset": 0,
								"slot": "2",
								"type": "t_string_storage"
							},
							{
								"astId": 18,
								"contract": "smart-contract/BetCandidate.sol:BetCandidate",
								"label": "image1",
								"offset": 0,
								"slot": "3",
								"type": "t_string_storage"
							},
							{
								"astId": 20,
								"contract": "smart-contract/BetCandidate.sol:BetCandidate",
								"label": "image2",
								"offset": 0,
								"slot": "4",
								"type": "t_string_storage"
							},
							{
								"astId": 22,
								"contract": "smart-contract/BetCandidate.sol:BetCandidate",
								"label": "image3",
								"offset": 0,
								"slot": "5",
								"type": "t_string_storage"
							},
							{
								"astId": 24,
								"contract": "smart-contract/BetCandidate.sol:BetCandidate",
								"label": "total1",
								"offset": 0,
								"slot": "6",
								"type": "t_uint256"
							},
							{
								"astId": 26,
								"contract": "smart-contract/BetCandidate.sol:BetCandidate",
								"label": "total2",
								"offset": 0,
								"slot": "7",
								"type": "t_uint256"
							},
							{
								"astId": 28,
								"contract": "smart-contract/BetCandidate.sol:BetCandidate",
								"label": "total3",
								"offset": 0,
								"slot": "8",
								"type": "t_uint256"
							},
							{
								"astId": 30,
								"contract": "smart-contract/BetCandidate.sol:BetCandidate",
								"label": "winner",
								"offset": 0,
								"slot": "9",
								"type": "t_uint256"
							}
						],
						"numberOfBytes": "320"
					},
					"t_uint256": {
						"encoding": "inplace",
						"label": "uint256",
						"numberOfBytes": "32"
					}
				}
			},
			"userdoc": {
				"kind": "user",
				"methods": {},
				"version": 1
			}
		}
	}
}