{
	"data": {
		"bytecode": {
			"linkReferences": {},
			"object": "60a06040526103e8600b55348015610015575f80fd5b503373ffffffffffffffffffffffffffffffffffffffff1660808173ffffffffffffffffffffffffffffffffffffffff16815250506040518061014001604052806040518060400160405280600981526020017f502e204d617263616c000000000000000000000000000000000000000000000081525081526020016040518060400160405280600981526020017f472e20426f756c6f73000000000000000000000000000000000000000000000081525081526020016040518060400160405280600881526020017f522e204e756e657300000000000000000000000000000000000000000000000081525081526020016040518060400160405280601681526020017f68747470733a2f2f6269742e6c792f346550797361790000000000000000000081525081526020016040518060400160405280601681526020017f68747470733a2f2f6269742e6c792f343757477872710000000000000000000081525081526020016040518060400160405280601681526020017f68747470733a2f2f6269742e6c792f343757474a61380000000000000000000081525081526020015f81526020015f81526020015f81526020015f8152505f80820151815f0190816101e291906104e5565b5060208201518160010190816101f891906104e5565b50604082015181600201908161020e91906104e5565b50606082015181600301908161022491906104e5565b50608082015181600401908161023a91906104e5565b5060a082015181600501908161025091906104e5565b5060c0820151816006015560e0820151816007015561010082015181600801556101208201518160090155905050603c4261028b91906105e1565b600d81905550603c600d546102a091906105e1565b600e81905550610614565b5f81519050919050565b7f4e487b71000000000000000000000000000000000000000000000000000000005f52604160045260245ffd5b7f4e487b71000000000000000000000000000000000000000000000000000000005f52602260045260245ffd5b5f600282049050600182168061032657607f821691505b602082108103610339576103386102e2565b5b50919050565b5f819050815f5260205f209050919050565b5f6020601f8301049050919050565b5f82821b905092915050565b5f6008830261039b7fffffffffffffffffffffffffffffffffffffffffffffffffffffffffffffffff82610360565b6103a58683610360565b95508019841693508086168417925050509392505050565b5f819050919050565b5f819050919050565b5f6103e96103e46103df846103bd565b6103c6565b6103bd565b9050919050565b5f819050919050565b610402836103cf565b61041661040e826103f0565b84845461036c565b825550505050565b5f90565b61042a61041e565b6104358184846103f9565b505050565b5b818110156104585761044d5f82610422565b60018101905061043b565b5050565b601f82111561049d5761046e8161033f565b61047784610351565b81016020851015610486578190505b61049a61049285610351565b83018261043a565b50505b505050565b5f82821c905092915050565b5f6104bd5f19846008026104a2565b1980831691505092915050565b5f6104d583836104ae565b9150826002028217905092915050565b6104ee826102ab565b67ffffffffffffffff811115610507576105066102b5565b5b610511825461030f565b61051c82828561045c565b5f60209050601f83116001811461054d575f841561053b578287015190505b61054585826104ca565b8655506105ac565b601f19841661055b8661033f565b5f5b828110156105825784890151825560018201915060208501945060208101905061055d565b8683101561059f578489015161059b601f8916826104ae565b8355505b6001600288020188555050505b505050505050565b7f4e487b71000000000000000000000000000000000000000000000000000000005f52601160045260245ffd5b5f6105eb826103bd565b91506105f6836103bd565b925082820190508082111561060e5761060d6105b4565b5b92915050565b60805161229d61065d5f395f8181610421015281816104e9015281816105b20152818161073301528181610c1101528181610c3501528181610d430152610e1f015261229d5ff3fe608060405260043610610113575f3560e01c80638da5cb5b1161009f578063d353a1cb11610063578063d353a1cb1461033a578063ddca3f4314610362578063e52376011461038c578063f240f7c3146103b6578063f5556be2146103e957610113565b80638da5cb5b146102575780639317cbe21461028157806393bebee8146102a9578063b670da5a146102e8578063b84391de1461031257610113565b80633e25e837116100e65780633e25e837146101bb5780634e71d92d146101d15780635edbabae146101e757806369b10852146102115780637365870b1461023b57610113565b8063121de3f614610117578063135678f91461014157806314f14d751461016b57806338315a8f14610193575b5f80fd5b348015610122575f80fd5b5061012b610413565b60405161013891906113a5565b60405180910390f35b34801561014c575f80fd5b50610155610419565b60405161016291906113a5565b60405180910390f35b348015610176575f80fd5b50610191600480360381019061018c919061150b565b61041f565b005b34801561019e575f80fd5b506101b960048036038101906101b4919061150b565b6104e7565b005b3480156101c6575f80fd5b506101cf6105b0565b005b3480156101dc575f80fd5b506101e5610799565b005b3480156101f2575f80fd5b506101fb61090b565b60405161020891906113a5565b60405180910390f35b34801561021c575f80fd5b50610225610911565b60405161023291906115c9565b60405180910390f35b6102556004803603810190610250919061160c565b610923565b005b348015610262575f80fd5b5061026b610c0f565b6040516102789190611676565b60405180910390f35b34801561028c575f80fd5b506102a760048036038101906102a2919061160c565b610c33565b005b3480156102b4575f80fd5b506102cf60048036038101906102ca91906116b9565b610d0f565b6040516102df94939291906116e4565b60405180910390f35b3480156102f3575f80fd5b506102fc610d3b565b60405161030991906113a5565b60405180910390f35b34801561031d575f80fd5b506103386004803603810190610333919061160c565b610d41565b005b348015610345575f80fd5b50610360600480360381019061035b919061160c565b610e1d565b005b34801561036d575f80fd5b50610376610ff3565b60405161038391906113a5565b60405180910390f35b348015610397575f80fd5b506103a0610ff9565b6040516103ad91906113a5565b60405180910390f35b3480156103c1575f80fd5b506103ca610fff565b6040516103e09a99989796959493929190611787565b60405180910390f35b3480156103f4575f80fd5b506103fd611363565b60405161040a91906113a5565b60405180910390f35b600c5481565b600f5481565b7f000000000000000000000000000000000000000000000000000000000000000073ffffffffffffffffffffffffffffffffffffffff163373ffffffffffffffffffffffffffffffffffffffff16146104ad576040517f08c379a00000000000000000000000000000000000000000000000000000000081526004016104a4906118bb565b60405180910390fd5b825f800190816104bd9190611ad3565b50815f60010190816104cf9190611ad3565b50805f60020190816104e19190611ad3565b50505050565b7f000000000000000000000000000000000000000000000000000000000000000073ffffffffffffffffffffffffffffffffffffffff163373ffffffffffffffffffffffffffffffffffffffff1614610575576040517f08c379a000000000000000000000000000000000000000000000000000000000815260040161056c906118bb565b60405180910390fd5b825f60030190816105869190611ad3565b50815f60040190816105989190611ad3565b50805f60050190816105aa9190611ad3565b50505050565b7f000000000000000000000000000000000000000000000000000000000000000073ffffffffffffffffffffffffffffffffffffffff163373ffffffffffffffffffffffffffffffffffffffff161461063e576040517f08c379a000000000000000000000000000000000000000000000000000000000815260040161063590611c12565b60405180910390fd5b5f806009015411610684576040517f08c379a000000000000000000000000000000000000000000000000000000000815260040161067b90611c7a565b60405180910390fd5b60125f9054906101000a900460ff16156106d3576040517f08c379a00000000000000000000000000000000000000000000000000000000081526004016106ca90611ce2565b60405180910390fd5b5f80600801545f600701545f600601546106ed9190611d2d565b6106f79190611d2d565b90505f612710600b548361070b9190611d60565b6107159190611dce565b9050600160125f6101000a81548160ff0219169083151502179055507f000000000000000000000000000000000000000000000000000000000000000073ffffffffffffffffffffffffffffffffffffffff166108fc8290811502906040515f60405180830381858888f19350505050158015610794573d5f803e3d5ffd5b505050565b5f600a5f3373ffffffffffffffffffffffffffffffffffffffff1673ffffffffffffffffffffffffffffffffffffffff1681526020019081526020015f2090505f80600901541180156107f3575080600101545f60090154145b801561080257505f8160030154145b610841576040517f08c379a000000000000000000000000000000000000000000000000000000000815260040161083890611e48565b60405180910390fd5b5f60015f600901540361085a575f60060154905061087b565b60025f6009015403610872575f60070154905061087a565b5f6008015490505b5b5f81612710845f015461088e9190611d60565b6108989190611dce565b90505f61271082600c546108ac9190611d60565b6108b69190611dce565b90508084600301819055503373ffffffffffffffffffffffffffffffffffffffff166108fc8290811502906040515f60405180830381858888f19350505050158015610904573d5f803e3d5ffd5b5050505050565b60105481565b60125f9054906101000a900460ff1681565b600d54421115610968576040517f08c379a000000000000000000000000000000000000000000000000000000000815260040161095f90611eb0565b60405180910390fd5b60018114806109775750600281145b806109825750600381145b6109c1576040517f08c379a00000000000000000000000000000000000000000000000000000000081526004016109b890611f18565b60405180910390fd5b5f3411610a03576040517f08c379a00000000000000000000000000000000000000000000000000000000081526004016109fa90611f80565b60405180910390fd5b5f806009015414610a49576040517f08c379a0000000000000000000000000000000000000000000000000000000008152600401610a4090611fe8565b60405180910390fd5b5f600a5f3373ffffffffffffffffffffffffffffffffffffffff1673ffffffffffffffffffffffffffffffffffffffff1681526020019081526020015f205f015414610aca576040517f08c379a0000000000000000000000000000000000000000000000000000000008152600401610ac190612050565b60405180910390fd5b610ad2611369565b34815f018181525050818160200181815250504281604001818152505080600a5f3373ffffffffffffffffffffffffffffffffffffffff1673ffffffffffffffffffffffffffffffffffffffff1681526020019081526020015f205f820151815f015560208201518160010155604082015181600201556060820151816003015590505060018203610b9657345f6006015f828254610b719190611d2d565b925050819055506001600f5f828254610b8a9190611d2d565b92505081905550610c0b565b60028203610bd657345f6007015f828254610bb19190611d2d565b92505081905550600160105f828254610bca9190611d2d565b92505081905550610c0a565b345f6008015f828254610be99190611d2d565b92505081905550600160115f828254610c029190611d2d565b925050819055505b5b5050565b7f000000000000000000000000000000000000000000000000000000000000000081565b7f000000000000000000000000000000000000000000000000000000000000000073ffffffffffffffffffffffffffffffffffffffff163373ffffffffffffffffffffffffffffffffffffffff1614610cc1576040517f08c379a0000000000000000000000000000000000000000000000000000000008152600401610cb8906118bb565b60405180910390fd5b600e544210610d05576040517f08c379a0000000000000000000000000000000000000000000000000000000008152600401610cfc906120b8565b60405180910390fd5b80600e8190555050565b600a602052805f5260405f205f91509050805f0154908060010154908060020154908060030154905084565b600d5481565b7f000000000000000000000000000000000000000000000000000000000000000073ffffffffffffffffffffffffffffffffffffffff163373ffffffffffffffffffffffffffffffffffffffff1614610dcf576040517f08c379a0000000000000000000000000000000000000000000000000000000008152600401610dc6906118bb565b60405180910390fd5b600d544210610e13576040517f08c379a0000000000000000000000000000000000000000000000000000000008152600401610e0a90612120565b60405180910390fd5b80600d8190555050565b7f000000000000000000000000000000000000000000000000000000000000000073ffffffffffffffffffffffffffffffffffffffff163373ffffffffffffffffffffffffffffffffffffffff1614610eab576040517f08c379a0000000000000000000000000000000000000000000000000000000008152600401610ea290612188565b60405180910390fd5b6001811480610eba5750600281145b80610ec55750600381145b610f04576040517f08c379a0000000000000000000000000000000000000000000000000000000008152600401610efb90611f18565b60405180910390fd5b5f806009015414610f4a576040517f08c379a0000000000000000000000000000000000000000000000000000000008152600401610f4190611fe8565b60405180910390fd5b600e54421015610f8f576040517f08c379a0000000000000000000000000000000000000000000000000000000008152600401610f8690612216565b60405180910390fd5b805f600901819055505f80600801545f600701545f60060154610fb29190611d2d565b610fbc9190611d2d565b90505f612710600b5483610fd09190611d60565b610fda9190611dce565b90508082610fe89190612234565b600c81905550505050565b600b5481565b600e5481565b5f805f01805461100e90611906565b80601f016020809104026020016040519081016040528092919081815260200182805461103a90611906565b80156110855780601f1061105c57610100808354040283529160200191611085565b820191905f5260205f20905b81548152906001019060200180831161106857829003601f168201915b50505050509080600101805461109a90611906565b80601f01602080910402602001604051908101604052809291908181526020018280546110c690611906565b80156111115780601f106110e857610100808354040283529160200191611111565b820191905f5260205f20905b8154815290600101906020018083116110f457829003601f168201915b50505050509080600201805461112690611906565b80601f016020809104026020016040519081016040528092919081815260200182805461115290611906565b801561119d5780601f106111745761010080835404028352916020019161119d565b820191905f5260205f20905b81548152906001019060200180831161118057829003601f168201915b5050505050908060030180546111b290611906565b80601f01602080910402602001604051908101604052809291908181526020018280546111de90611906565b80156112295780601f1061120057610100808354040283529160200191611229565b820191905f5260205f20905b81548152906001019060200180831161120c57829003601f168201915b50505050509080600401805461123e90611906565b80601f016020809104026020016040519081016040528092919081815260200182805461126a90611906565b80156112b55780601f1061128c576101008083540402835291602001916112b5565b820191905f5260205f20905b81548152906001019060200180831161129857829003601f168201915b5050505050908060050180546112ca90611906565b80601f01602080910402602001604051908101604052809291908181526020018280546112f690611906565b80156113415780601f1061131857610100808354040283529160200191611341565b820191905f5260205f20905b81548152906001019060200180831161132457829003601f168201915b505050505090806006015490806007015490806008015490806009015490508a565b60115481565b60405180608001604052805f81526020015f81526020015f81526020015f81525090565b5f819050919050565b61139f8161138d565b82525050565b5f6020820190506113b85f830184611396565b92915050565b5f604051905090565b5f80fd5b5f80fd5b5f80fd5b5f80fd5b5f601f19601f8301169050919050565b7f4e487b71000000000000000000000000000000000000000000000000000000005f52604160045260245ffd5b61141d826113d7565b810181811067ffffffffffffffff8211171561143c5761143b6113e7565b5b80604052505050565b5f61144e6113be565b905061145a8282611414565b919050565b5f67ffffffffffffffff821115611479576114786113e7565b5b611482826113d7565b9050602081019050919050565b828183375f83830152505050565b5f6114af6114aa8461145f565b611445565b9050828152602081018484840111156114cb576114ca6113d3565b5b6114d684828561148f565b509392505050565b5f82601f8301126114f2576114f16113cf565b5b813561150284826020860161149d565b91505092915050565b5f805f60608486031215611522576115216113c7565b5b5f84013567ffffffffffffffff81111561153f5761153e6113cb565b5b61154b868287016114de565b935050602084013567ffffffffffffffff81111561156c5761156b6113cb565b5b611578868287016114de565b925050604084013567ffffffffffffffff811115611599576115986113cb565b5b6115a5868287016114de565b9150509250925092565b5f8115159050919050565b6115c3816115af565b82525050565b5f6020820190506115dc5f8301846115ba565b92915050565b6115eb8161138d565b81146115f5575f80fd5b50565b5f81359050611606816115e2565b92915050565b5f60208284031215611621576116206113c7565b5b5f61162e848285016115f8565b91505092915050565b5f73ffffffffffffffffffffffffffffffffffffffff82169050919050565b5f61166082611637565b9050919050565b61167081611656565b82525050565b5f6020820190506116895f830184611667565b92915050565b61169881611656565b81146116a2575f80fd5b50565b5f813590506116b38161168f565b92915050565b5f602082840312156116ce576116cd6113c7565b5b5f6116db848285016116a5565b91505092915050565b5f6080820190506116f75f830187611396565b6117046020830186611396565b6117116040830185611396565b61171e6060830184611396565b95945050505050565b5f81519050919050565b5f82825260208201905092915050565b8281835e5f83830152505050565b5f61175982611727565b6117638185611731565b9350611773818560208601611741565b61177c816113d7565b840191505092915050565b5f610140820190508181035f8301526117a0818d61174f565b905081810360208301526117b4818c61174f565b905081810360408301526117c8818b61174f565b905081810360608301526117dc818a61174f565b905081810360808301526117f0818961174f565b905081810360a0830152611804818861174f565b905061181360c0830187611396565b61182060e0830186611396565b61182e610100830185611396565b61183c610120830184611396565b9b9a5050505050505050505050565b7f4f6e6c79206f776e65722063616e20706572666f726d207468697320616374695f8201527f6f6e000000000000000000000000000000000000000000000000000000000000602082015250565b5f6118a5602283611731565b91506118b08261184b565b604082019050919050565b5f6020820190508181035f8301526118d281611899565b9050919050565b7f4e487b71000000000000000000000000000000000000000000000000000000005f52602260045260245ffd5b5f600282049050600182168061191d57607f821691505b6020821081036119305761192f6118d9565b5b50919050565b5f819050815f5260205f209050919050565b5f6020601f8301049050919050565b5f82821b905092915050565b5f600883026119927fffffffffffffffffffffffffffffffffffffffffffffffffffffffffffffffff82611957565b61199c8683611957565b95508019841693508086168417925050509392505050565b5f819050919050565b5f6119d76119d26119cd8461138d565b6119b4565b61138d565b9050919050565b5f819050919050565b6119f0836119bd565b611a046119fc826119de565b848454611963565b825550505050565b5f90565b611a18611a0c565b611a238184846119e7565b505050565b5b81811015611a4657611a3b5f82611a10565b600181019050611a29565b5050565b601f821115611a8b57611a5c81611936565b611a6584611948565b81016020851015611a74578190505b611a88611a8085611948565b830182611a28565b50505b505050565b5f82821c905092915050565b5f611aab5f1984600802611a90565b1980831691505092915050565b5f611ac38383611a9c565b9150826002028217905092915050565b611adc82611727565b67ffffffffffffffff811115611af557611af46113e7565b5b611aff8254611906565b611b0a828285611a4a565b5f60209050601f831160018114611b3b575f8415611b29578287015190505b611b338582611ab8565b865550611b9a565b601f198416611b4986611936565b5f5b82811015611b7057848901518255600182019150602085019450602081019050611b4b565b86831015611b8d5784890151611b89601f891682611a9c565b8355505b6001600288020188555050505b505050505050565b7f4f6e6c79206f776e65722063616e20776974686472617720636f6d6d697373695f8201527f6f6e000000000000000000000000000000000000000000000000000000000000602082015250565b5f611bfc602283611731565b9150611c0782611ba2565b604082019050919050565b5f6020820190508181035f830152611c2981611bf0565b9050919050565b7f44697370757465206e6f742066696e69736865642079657400000000000000005f82015250565b5f611c64601883611731565b9150611c6f82611c30565b602082019050919050565b5f6020820190508181035f830152611c9181611c58565b9050919050565b7f436f6d6d697373696f6e20616c72656164792077697468647261776e000000005f82015250565b5f611ccc601c83611731565b9150611cd782611c98565b602082019050919050565b5f6020820190508181035f830152611cf981611cc0565b9050919050565b7f4e487b71000000000000000000000000000000000000000000000000000000005f52601160045260245ffd5b5f611d378261138d565b9150611d428361138d565b9250828201905080821115611d5a57611d59611d00565b5b92915050565b5f611d6a8261138d565b9150611d758361138d565b9250828202611d838161138d565b91508282048414831517611d9a57611d99611d00565b5b5092915050565b7f4e487b71000000000000000000000000000000000000000000000000000000005f52601260045260245ffd5b5f611dd88261138d565b9150611de38361138d565b925082611df357611df2611da1565b5b828204905092915050565b7f496e76616c696420636c61696d000000000000000000000000000000000000005f82015250565b5f611e32600d83611731565b9150611e3d82611dfe565b602082019050919050565b5f6020820190508181035f830152611e5f81611e26565b9050919050565b7f42657474696e6720706572696f64206973206f766572000000000000000000005f82015250565b5f611e9a601683611731565b9150611ea582611e66565b602082019050919050565b5f6020820190508181035f830152611ec781611e8e565b9050919050565b7f496e76616c69642063616e6469646174650000000000000000000000000000005f82015250565b5f611f02601183611731565b9150611f0d82611ece565b602082019050919050565b5f6020820190508181035f830152611f2f81611ef6565b9050919050565b7f496e76616c6964206265740000000000000000000000000000000000000000005f82015250565b5f611f6a600b83611731565b9150611f7582611f36565b602082019050919050565b5f6020820190508181035f830152611f9781611f5e565b9050919050565b7f4469737075746520636c6f7365640000000000000000000000000000000000005f82015250565b5f611fd2600e83611731565b9150611fdd82611f9e565b602082019050919050565b5f6020820190508181035f830152611fff81611fc6565b9050919050565b7f416c726561647920706c616365642061206265740000000000000000000000005f82015250565b5f61203a601483611731565b915061204582612006565b602082019050919050565b5f6020820190508181035f8301526120678161202e565b9050919050565b7f46696e69736820706572696f6420616c726561647920656e64656400000000005f82015250565b5f6120a2601b83611731565b91506120ad8261206e565b602082019050919050565b5f6020820190508181035f8301526120cf81612096565b9050919050565b7f42657474696e6720706572696f6420616c726561647920656e646564000000005f82015250565b5f61210a601c83611731565b9150612115826120d6565b602082019050919050565b5f6020820190508181035f830152612137816120fe565b9050919050565b7f496e76616c6964206163636f756e7400000000000000000000000000000000005f82015250565b5f612172600f83611731565b915061217d8261213e565b602082019050919050565b5f6020820190508181035f83015261219f81612166565b9050919050565b7f43616e6e6f742066696e697368206265666f72652066696e69736820656e64205f8201527f74696d6500000000000000000000000000000000000000000000000000000000602082015250565b5f612200602483611731565b915061220b826121a6565b604082019050919050565b5f6020820190508181035f83015261222d816121f4565b9050919050565b5f61223e8261138d565b91506122498361138d565b925082820390508181111561226157612260611d00565b5b9291505056fea26469706673582212207c10faa83bb21d2242d41cb859838902fc1cf4a431d450013c3fbe686290956164736f6c634300081a0033",
			"opcodes": "PUSH1 0xA0 PUSH1 0x40 MSTORE PUSH2 0x3E8 PUSH1 0xB SSTORE CALLVALUE DUP1 ISZERO PUSH2 0x15 JUMPI PUSH0 DUP1 REVERT JUMPDEST POP CALLER PUSH20 0xFFFFFFFFFFFFFFFFFFFFFFFFFFFFFFFFFFFFFFFF AND PUSH1 0x80 DUP2 PUSH20 0xFFFFFFFFFFFFFFFFFFFFFFFFFFFFFFFFFFFFFFFF AND DUP2 MSTORE POP POP PUSH1 0x40 MLOAD DUP1 PUSH2 0x140 ADD PUSH1 0x40 MSTORE DUP1 PUSH1 0x40 MLOAD DUP1 PUSH1 0x40 ADD PUSH1 0x40 MSTORE DUP1 PUSH1 0x9 DUP2 MSTORE PUSH1 0x20 ADD PUSH32 0x502E204D617263616C0000000000000000000000000000000000000000000000 DUP2 MSTORE POP DUP2 MSTORE PUSH1 0x20 ADD PUSH1 0x40 MLOAD DUP1 PUSH1 0x40 ADD PUSH1 0x40 MSTORE DUP1 PUSH1 0x9 DUP2 MSTORE PUSH1 0x20 ADD PUSH32 0x472E20426F756C6F730000000000000000000000000000000000000000000000 DUP2 MSTORE POP DUP2 MSTORE PUSH1 0x20 ADD PUSH1 0x40 MLOAD DUP1 PUSH1 0x40 ADD PUSH1 0x40 MSTORE DUP1 PUSH1 0x8 DUP2 MSTORE PUSH1 0x20 ADD PUSH32 0x522E204E756E6573000000000000000000000000000000000000000000000000 DUP2 MSTORE POP DUP2 MSTORE PUSH1 0x20 ADD PUSH1 0x40 MLOAD DUP1 PUSH1 0x40 ADD PUSH1 0x40 MSTORE DUP1 PUSH1 0x16 DUP2 MSTORE PUSH1 0x20 ADD PUSH32 0x68747470733A2F2F6269742E6C792F3465507973617900000000000000000000 DUP2 MSTORE POP DUP2 MSTORE PUSH1 0x20 ADD PUSH1 0x40 MLOAD DUP1 PUSH1 0x40 ADD PUSH1 0x40 MSTORE DUP1 PUSH1 0x16 DUP2 MSTORE PUSH1 0x20 ADD PUSH32 0x68747470733A2F2F6269742E6C792F3437574778727100000000000000000000 DUP2 MSTORE POP DUP2 MSTORE PUSH1 0x20 ADD PUSH1 0x40 MLOAD DUP1 PUSH1 0x40 ADD PUSH1 0x40 MSTORE DUP1 PUSH1 0x16 DUP2 MSTORE PUSH1 0x20 ADD PUSH32 0x68747470733A2F2F6269742E6C792F343757474A613800000000000000000000 DUP2 MSTORE POP DUP2 MSTORE PUSH1 0x20 ADD PUSH0 DUP2 MSTORE PUSH1 0x20 ADD PUSH0 DUP2 MSTORE PUSH1 0x20 ADD PUSH0 DUP2 MSTORE PUSH1 0x20 ADD PUSH0 DUP2 MSTORE POP PUSH0 DUP1 DUP3 ADD MLOAD DUP2 PUSH0 ADD SWAP1 DUP2 PUSH2 0x1E2 SWAP2 SWAP1 PUSH2 0x4E5 JUMP JUMPDEST POP PUSH1 0x20 DUP3 ADD MLOAD DUP2 PUSH1 0x1 ADD SWAP1 DUP2 PUSH2 0x1F8 SWAP2 SWAP1 PUSH2 0x4E5 JUMP JUMPDEST POP PUSH1 0x40 DUP3 ADD MLOAD DUP2 PUSH1 0x2 ADD SWAP1 DUP2 PUSH2 0x20E SWAP2 SWAP1 PUSH2 0x4E5 JUMP JUMPDEST POP PUSH1 0x60 DUP3 ADD MLOAD DUP2 PUSH1 0x3 ADD SWAP1 DUP2 PUSH2 0x224 SWAP2 SWAP1 PUSH2 0x4E5 JUMP JUMPDEST POP PUSH1 0x80 DUP3 ADD MLOAD DUP2 PUSH1 0x4 ADD SWAP1 DUP2 PUSH2 0x23A SWAP2 SWAP1 PUSH2 0x4E5 JUMP JUMPDEST POP PUSH1 0xA0 DUP3 ADD MLOAD DUP2 PUSH1 0x5 ADD SWAP1 DUP2 PUSH2 0x250 SWAP2 SWAP1 PUSH2 0x4E5 JUMP JUMPDEST POP PUSH1 0xC0 DUP3 ADD MLOAD DUP2 PUSH1 0x6 ADD SSTORE PUSH1 0xE0 DUP3 ADD MLOAD DUP2 PUSH1 0x7 ADD SSTORE PUSH2 0x100 DUP3 ADD MLOAD DUP2 PUSH1 0x8 ADD SSTORE PUSH2 0x120 DUP3 ADD MLOAD DUP2 PUSH1 0x9 ADD SSTORE SWAP1 POP POP PUSH1 0x3C TIMESTAMP PUSH2 0x28B SWAP2 SWAP1 PUSH2 0x5E1 JUMP JUMPDEST PUSH1 0xD DUP2 SWAP1 SSTORE POP PUSH1 0x3C PUSH1 0xD SLOAD PUSH2 0x2A0 SWAP2 SWAP1 PUSH2 0x5E1 JUMP JUMPDEST PUSH1 0xE DUP2 SWAP1 SSTORE POP PUSH2 0x614 JUMP JUMPDEST PUSH0 DUP2 MLOAD SWAP1 POP SWAP2 SWAP1 POP JUMP JUMPDEST PUSH32 0x4E487B7100000000000000000000000000000000000000000000000000000000 PUSH0 MSTORE PUSH1 0x41 PUSH1 0x4 MSTORE PUSH1 0x24 PUSH0 REVERT JUMPDEST PUSH32 0x4E487B7100000000000000000000000000000000000000000000000000000000 PUSH0 MSTORE PUSH1 0x22 PUSH1 0x4 MSTORE PUSH1 0x24 PUSH0 REVERT JUMPDEST PUSH0 PUSH1 0x2 DUP3 DIV SWAP1 POP PUSH1 0x1 DUP3 AND DUP1 PUSH2 0x326 JUMPI PUSH1 0x7F DUP3 AND SWAP2 POP JUMPDEST PUSH1 0x20 DUP3 LT DUP2 SUB PUSH2 0x339 JUMPI PUSH2 0x338 PUSH2 0x2E2 JUMP JUMPDEST JUMPDEST POP SWAP2 SWAP1 POP JUMP JUMPDEST PUSH0 DUP2 SWAP1 POP DUP2 PUSH0 MSTORE PUSH1 0x20 PUSH0 KECCAK256 SWAP1 POP SWAP2 SWAP1 POP JUMP JUMPDEST PUSH0 PUSH1 0x20 PUSH1 0x1F DUP4 ADD DIV SWAP1 POP SWAP2 SWAP1 POP JUMP JUMPDEST PUSH0 DUP3 DUP3 SHL SWAP1 POP SWAP3 SWAP2 POP POP JUMP JUMPDEST PUSH0 PUSH1 0x8 DUP4 MUL PUSH2 0x39B PUSH32 0xFFFFFFFFFFFFFFFFFFFFFFFFFFFFFFFFFFFFFFFFFFFFFFFFFFFFFFFFFFFFFFFF DUP3 PUSH2 0x360 JUMP JUMPDEST PUSH2 0x3A5 DUP7 DUP4 PUSH2 0x360 JUMP JUMPDEST SWAP6 POP DUP1 NOT DUP5 AND SWAP4 POP DUP1 DUP7 AND DUP5 OR SWAP3 POP POP POP SWAP4 SWAP3 POP POP POP JUMP JUMPDEST PUSH0 DUP2 SWAP1 POP SWAP2 SWAP1 POP JUMP JUMPDEST PUSH0 DUP2 SWAP1 POP SWAP2 SWAP1 POP JUMP JUMPDEST PUSH0 PUSH2 0x3E9 PUSH2 0x3E4 PUSH2 0x3DF DUP5 PUSH2 0x3BD JUMP JUMPDEST PUSH2 0x3C6 JUMP JUMPDEST PUSH2 0x3BD JUMP JUMPDEST SWAP1 POP SWAP2 SWAP1 POP JUMP JUMPDEST PUSH0 DUP2 SWAP1 POP SWAP2 SWAP1 POP JUMP JUMPDEST PUSH2 0x402 DUP4 PUSH2 0x3CF JUMP JUMPDEST PUSH2 0x416 PUSH2 0x40E DUP3 PUSH2 0x3F0 JUMP JUMPDEST DUP5 DUP5 SLOAD PUSH2 0x36C JUMP JUMPDEST DUP3 SSTORE POP POP POP POP JUMP JUMPDEST PUSH0 SWAP1 JUMP JUMPDEST PUSH2 0x42A PUSH2 0x41E JUMP JUMPDEST PUSH2 0x435 DUP2 DUP5 DUP5 PUSH2 0x3F9 JUMP JUMPDEST POP POP POP JUMP JUMPDEST JUMPDEST DUP2 DUP2 LT ISZERO PUSH2 0x458 JUMPI PUSH2 0x44D PUSH0 DUP3 PUSH2 0x422 JUMP JUMPDEST PUSH1 0x1 DUP2 ADD SWAP1 POP PUSH2 0x43B JUMP JUMPDEST POP POP JUMP JUMPDEST PUSH1 0x1F DUP3 GT ISZERO PUSH2 0x49D JUMPI PUSH2 0x46E DUP2 PUSH2 0x33F JUMP JUMPDEST PUSH2 0x477 DUP5 PUSH2 0x351 JUMP JUMPDEST DUP2 ADD PUSH1 0x20 DUP6 LT ISZERO PUSH2 0x486 JUMPI DUP2 SWAP1 POP JUMPDEST PUSH2 0x49A PUSH2 0x492 DUP6 PUSH2 0x351 JUMP JUMPDEST DUP4 ADD DUP3 PUSH2 0x43A JUMP JUMPDEST POP POP JUMPDEST POP POP POP JUMP JUMPDEST PUSH0 DUP3 DUP3 SHR SWAP1 POP SWAP3 SWAP2 POP POP JUMP JUMPDEST PUSH0 PUSH2 0x4BD PUSH0 NOT DUP5 PUSH1 0x8 MUL PUSH2 0x4A2 JUMP JUMPDEST NOT DUP1 DUP4 AND SWAP2 POP POP SWAP3 SWAP2 POP POP JUMP JUMPDEST PUSH0 PUSH2 0x4D5 DUP4 DUP4 PUSH2 0x4AE JUMP JUMPDEST SWAP2 POP DUP3 PUSH1 0x2 MUL DUP3 OR SWAP1 POP SWAP3 SWAP2 POP POP JUMP JUMPDEST PUSH2 0x4EE DUP3 PUSH2 0x2AB JUMP JUMPDEST PUSH8 0xFFFFFFFFFFFFFFFF DUP2 GT ISZERO PUSH2 0x507 JUMPI PUSH2 0x506 PUSH2 0x2B5 JUMP JUMPDEST JUMPDEST PUSH2 0x511 DUP3 SLOAD PUSH2 0x30F JUMP JUMPDEST PUSH2 0x51C DUP3 DUP3 DUP6 PUSH2 0x45C JUMP JUMPDEST PUSH0 PUSH1 0x20 SWAP1 POP PUSH1 0x1F DUP4 GT PUSH1 0x1 DUP2 EQ PUSH2 0x54D JUMPI PUSH0 DUP5 ISZERO PUSH2 0x53B JUMPI DUP3 DUP8 ADD MLOAD SWAP1 POP JUMPDEST PUSH2 0x545 DUP6 DUP3 PUSH2 0x4CA JUMP JUMPDEST DUP7 SSTORE POP PUSH2 0x5AC JUMP JUMPDEST PUSH1 0x1F NOT DUP5 AND PUSH2 0x55B DUP7 PUSH2 0x33F JUMP JUMPDEST PUSH0 JUMPDEST DUP3 DUP2 LT ISZERO PUSH2 0x582 JUMPI DUP5 DUP10 ADD MLOAD DUP3 SSTORE PUSH1 0x1 DUP3 ADD SWAP2 POP PUSH1 0x20 DUP6 ADD SWAP5 POP PUSH1 0x20 DUP2 ADD SWAP1 POP PUSH2 0x55D JUMP JUMPDEST DUP7 DUP4 LT ISZERO PUSH2 0x59F JUMPI DUP5 DUP10 ADD MLOAD PUSH2 0x59B PUSH1 0x1F DUP10 AND DUP3 PUSH2 0x4AE JUMP JUMPDEST DUP4 SSTORE POP JUMPDEST PUSH1 0x1 PUSH1 0x2 DUP9 MUL ADD DUP9 SSTORE POP POP POP JUMPDEST POP POP POP POP POP POP JUMP JUMPDEST PUSH32 0x4E487B7100000000000000000000000000000000000000000000000000000000 PUSH0 MSTORE PUSH1 0x11 PUSH1 0x4 MSTORE PUSH1 0x24 PUSH0 REVERT JUMPDEST PUSH0 PUSH2 0x5EB DUP3 PUSH2 0x3BD JUMP JUMPDEST SWAP2 POP PUSH2 0x5F6 DUP4 PUSH2 0x3BD JUMP JUMPDEST SWAP3 POP DUP3 DUP3 ADD SWAP1 POP DUP1 DUP3 GT ISZERO PUSH2 0x60E JUMPI PUSH2 0x60D PUSH2 0x5B4 JUMP JUMPDEST JUMPDEST SWAP3 SWAP2 POP POP JUMP JUMPDEST PUSH1 0x80 MLOAD PUSH2 0x229D PUSH2 0x65D PUSH0 CODECOPY PUSH0 DUP2 DUP2 PUSH2 0x421 ADD MSTORE DUP2 DUP2 PUSH2 0x4E9 ADD MSTORE DUP2 DUP2 PUSH2 0x5B2 ADD MSTORE DUP2 DUP2 PUSH2 0x733 ADD MSTORE DUP2 DUP2 PUSH2 0xC11 ADD MSTORE DUP2 DUP2 PUSH2 0xC35 ADD MSTORE DUP2 DUP2 PUSH2 0xD43 ADD MSTORE PUSH2 0xE1F ADD MSTORE PUSH2 0x229D PUSH0 RETURN INVALID PUSH1 0x80 PUSH1 0x40 MSTORE PUSH1 0x4 CALLDATASIZE LT PUSH2 0x113 JUMPI PUSH0 CALLDATALOAD PUSH1 0xE0 SHR DUP1 PUSH4 0x8DA5CB5B GT PUSH2 0x9F JUMPI DUP1 PUSH4 0xD353A1CB GT PUSH2 0x63 JUMPI DUP1 PUSH4 0xD353A1CB EQ PUSH2 0x33A JUMPI DUP1 PUSH4 0xDDCA3F43 EQ PUSH2 0x362 JUMPI DUP1 PUSH4 0xE5237601 EQ PUSH2 0x38C JUMPI DUP1 PUSH4 0xF240F7C3 EQ PUSH2 0x3B6 JUMPI DUP1 PUSH4 0xF5556BE2 EQ PUSH2 0x3E9 JUMPI PUSH2 0x113 JUMP JUMPDEST DUP1 PUSH4 0x8DA5CB5B EQ PUSH2 0x257 JUMPI DUP1 PUSH4 0x9317CBE2 EQ PUSH2 0x281 JUMPI DUP1 PUSH4 0x93BEBEE8 EQ PUSH2 0x2A9 JUMPI DUP1 PUSH4 0xB670DA5A EQ PUSH2 0x2E8 JUMPI DUP1 PUSH4 0xB84391DE EQ PUSH2 0x312 JUMPI PUSH2 0x113 JUMP JUMPDEST DUP1 PUSH4 0x3E25E837 GT PUSH2 0xE6 JUMPI DUP1 PUSH4 0x3E25E837 EQ PUSH2 0x1BB JUMPI DUP1 PUSH4 0x4E71D92D EQ PUSH2 0x1D1 JUMPI DUP1 PUSH4 0x5EDBABAE EQ PUSH2 0x1E7 JUMPI DUP1 PUSH4 0x69B10852 EQ PUSH2 0x211 JUMPI DUP1 PUSH4 0x7365870B EQ PUSH2 0x23B JUMPI PUSH2 0x113 JUMP JUMPDEST DUP1 PUSH4 0x121DE3F6 EQ PUSH2 0x117 JUMPI DUP1 PUSH4 0x135678F9 EQ PUSH2 0x141 JUMPI DUP1 PUSH4 0x14F14D75 EQ PUSH2 0x16B JUMPI DUP1 PUSH4 0x38315A8F EQ PUSH2 0x193 JUMPI JUMPDEST PUSH0 DUP1 REVERT JUMPDEST CALLVALUE DUP1 ISZERO PUSH2 0x122 JUMPI PUSH0 DUP1 REVERT JUMPDEST POP PUSH2 0x12B PUSH2 0x413 JUMP JUMPDEST PUSH1 0x40 MLOAD PUSH2 0x138 SWAP2 SWAP1 PUSH2 0x13A5 JUMP JUMPDEST PUSH1 0x40 MLOAD DUP1 SWAP2 SUB SWAP1 RETURN JUMPDEST CALLVALUE DUP1 ISZERO PUSH2 0x14C JUMPI PUSH0 DUP1 REVERT JUMPDEST POP PUSH2 0x155 PUSH2 0x419 JUMP JUMPDEST PUSH1 0x40 MLOAD PUSH2 0x162 SWAP2 SWAP1 PUSH2 0x13A5 JUMP JUMPDEST PUSH1 0x40 MLOAD DUP1 SWAP2 SUB SWAP1 RETURN JUMPDEST CALLVALUE DUP1 ISZERO PUSH2 0x176 JUMPI PUSH0 DUP1 REVERT JUMPDEST POP PUSH2 0x191 PUSH1 0x4 DUP1 CALLDATASIZE SUB DUP2 ADD SWAP1 PUSH2 0x18C SWAP2 SWAP1 PUSH2 0x150B JUMP JUMPDEST PUSH2 0x41F JUMP JUMPDEST STOP JUMPDEST CALLVALUE DUP1 ISZERO PUSH2 0x19E JUMPI PUSH0 DUP1 REVERT JUMPDEST POP PUSH2 0x1B9 PUSH1 0x4 DUP1 CALLDATASIZE SUB DUP2 ADD SWAP1 PUSH2 0x1B4 SWAP2 SWAP1 PUSH2 0x150B JUMP JUMPDEST PUSH2 0x4E7 JUMP JUMPDEST STOP JUMPDEST CALLVALUE DUP1 ISZERO PUSH2 0x1C6 JUMPI PUSH0 DUP1 REVERT JUMPDEST POP PUSH2 0x1CF PUSH2 0x5B0 JUMP JUMPDEST STOP JUMPDEST CALLVALUE DUP1 ISZERO PUSH2 0x1DC JUMPI PUSH0 DUP1 REVERT JUMPDEST POP PUSH2 0x1E5 PUSH2 0x799 JUMP JUMPDEST STOP JUMPDEST CALLVALUE DUP1 ISZERO PUSH2 0x1F2 JUMPI PUSH0 DUP1 REVERT JUMPDEST POP PUSH2 0x1FB PUSH2 0x90B JUMP JUMPDEST PUSH1 0x40 MLOAD PUSH2 0x208 SWAP2 SWAP1 PUSH2 0x13A5 JUMP JUMPDEST PUSH1 0x40 MLOAD DUP1 SWAP2 SUB SWAP1 RETURN JUMPDEST CALLVALUE DUP1 ISZERO PUSH2 0x21C JUMPI PUSH0 DUP1 REVERT JUMPDEST POP PUSH2 0x225 PUSH2 0x911 JUMP JUMPDEST PUSH1 0x40 MLOAD PUSH2 0x232 SWAP2 SWAP1 PUSH2 0x15C9 JUMP JUMPDEST PUSH1 0x40 MLOAD DUP1 SWAP2 SUB SWAP1 RETURN JUMPDEST PUSH2 0x255 PUSH1 0x4 DUP1 CALLDATASIZE SUB DUP2 ADD SWAP1 PUSH2 0x250 SWAP2 SWAP1 PUSH2 0x160C JUMP JUMPDEST PUSH2 0x923 JUMP JUMPDEST STOP JUMPDEST CALLVALUE DUP1 ISZERO PUSH2 0x262 JUMPI PUSH0 DUP1 REVERT JUMPDEST POP PUSH2 0x26B PUSH2 0xC0F JUMP JUMPDEST PUSH1 0x40 MLOAD PUSH2 0x278 SWAP2 SWAP1 PUSH2 0x1676 JUMP JUMPDEST PUSH1 0x40 MLOAD DUP1 SWAP2 SUB SWAP1 RETURN JUMPDEST CALLVALUE DUP1 ISZERO PUSH2 0x28C JUMPI PUSH0 DUP1 REVERT JUMPDEST POP PUSH2 0x2A7 PUSH1 0x4 DUP1 CALLDATASIZE SUB DUP2 ADD SWAP1 PUSH2 0x2A2 SWAP2 SWAP1 PUSH2 0x160C JUMP JUMPDEST PUSH2 0xC33 JUMP JUMPDEST STOP JUMPDEST CALLVALUE DUP1 ISZERO PUSH2 0x2B4 JUMPI PUSH0 DUP1 REVERT JUMPDEST POP PUSH2 0x2CF PUSH1 0x4 DUP1 CALLDATASIZE SUB DUP2 ADD SWAP1 PUSH2 0x2CA SWAP2 SWAP1 PUSH2 0x16B9 JUMP JUMPDEST PUSH2 0xD0F JUMP JUMPDEST PUSH1 0x40 MLOAD PUSH2 0x2DF SWAP5 SWAP4 SWAP3 SWAP2 SWAP1 PUSH2 0x16E4 JUMP JUMPDEST PUSH1 0x40 MLOAD DUP1 SWAP2 SUB SWAP1 RETURN JUMPDEST CALLVALUE DUP1 ISZERO PUSH2 0x2F3 JUMPI PUSH0 DUP1 REVERT JUMPDEST POP PUSH2 0x2FC PUSH2 0xD3B JUMP JUMPDEST PUSH1 0x40 MLOAD PUSH2 0x309 SWAP2 SWAP1 PUSH2 0x13A5 JUMP JUMPDEST PUSH1 0x40 MLOAD DUP1 SWAP2 SUB SWAP1 RETURN JUMPDEST CALLVALUE DUP1 ISZERO PUSH2 0x31D JUMPI PUSH0 DUP1 REVERT JUMPDEST POP PUSH2 0x338 PUSH1 0x4 DUP1 CALLDATASIZE SUB DUP2 ADD SWAP1 PUSH2 0x333 SWAP2 SWAP1 PUSH2 0x160C JUMP JUMPDEST PUSH2 0xD41 JUMP JUMPDEST STOP JUMPDEST CALLVALUE DUP1 ISZERO PUSH2 0x345 JUMPI PUSH0 DUP1 REVERT JUMPDEST POP PUSH2 0x360 PUSH1 0x4 DUP1 CALLDATASIZE SUB DUP2 ADD SWAP1 PUSH2 0x35B SWAP2 SWAP1 PUSH2 0x160C JUMP JUMPDEST PUSH2 0xE1D JUMP JUMPDEST STOP JUMPDEST CALLVALUE DUP1 ISZERO PUSH2 0x36D JUMPI PUSH0 DUP1 REVERT JUMPDEST POP PUSH2 0x376 PUSH2 0xFF3 JUMP JUMPDEST PUSH1 0x40 MLOAD PUSH2 0x383 SWAP2 SWAP1 PUSH2 0x13A5 JUMP JUMPDEST PUSH1 0x40 MLOAD DUP1 SWAP2 SUB SWAP1 RETURN JUMPDEST CALLVALUE DUP1 ISZERO PUSH2 0x397 JUMPI PUSH0 DUP1 REVERT JUMPDEST POP PUSH2 0x3A0 PUSH2 0xFF9 JUMP JUMPDEST PUSH1 0x40 MLOAD PUSH2 0x3AD SWAP2 SWAP1 PUSH2 0x13A5 JUMP JUMPDEST PUSH1 0x40 MLOAD DUP1 SWAP2 SUB SWAP1 RETURN JUMPDEST CALLVALUE DUP1 ISZERO PUSH2 0x3C1 JUMPI PUSH0 DUP1 REVERT JUMPDEST POP PUSH2 0x3CA PUSH2 0xFFF JUMP JUMPDEST PUSH1 0x40 MLOAD PUSH2 0x3E0 SWAP11 SWAP10 SWAP9 SWAP8 SWAP7 SWAP6 SWAP5 SWAP4 SWAP3 SWAP2 SWAP1 PUSH2 0x1787 JUMP JUMPDEST PUSH1 0x40 MLOAD DUP1 SWAP2 SUB SWAP1 RETURN JUMPDEST CALLVALUE DUP1 ISZERO PUSH2 0x3F4 JUMPI PUSH0 DUP1 REVERT JUMPDEST POP PUSH2 0x3FD PUSH2 0x1363 JUMP JUMPDEST PUSH1 0x40 MLOAD PUSH2 0x40A SWAP2 SWAP1 PUSH2 0x13A5 JUMP JUMPDEST PUSH1 0x40 MLOAD DUP1 SWAP2 SUB SWAP1 RETURN JUMPDEST PUSH1 0xC SLOAD DUP2 JUMP JUMPDEST PUSH1 0xF SLOAD DUP2 JUMP JUMPDEST PUSH32 0x0 PUSH20 0xFFFFFFFFFFFFFFFFFFFFFFFFFFFFFFFFFFFFFFFF AND CALLER PUSH20 0xFFFFFFFFFFFFFFFFFFFFFFFFFFFFFFFFFFFFFFFF AND EQ PUSH2 0x4AD JUMPI PUSH1 0x40 MLOAD PUSH32 0x8C379A000000000000000000000000000000000000000000000000000000000 DUP2 MSTORE PUSH1 0x4 ADD PUSH2 0x4A4 SWAP1 PUSH2 0x18BB JUMP JUMPDEST PUSH1 0x40 MLOAD DUP1 SWAP2 SUB SWAP1 REVERT JUMPDEST DUP3 PUSH0 DUP1 ADD SWAP1 DUP2 PUSH2 0x4BD SWAP2 SWAP1 PUSH2 0x1AD3 JUMP JUMPDEST POP DUP2 PUSH0 PUSH1 0x1 ADD SWAP1 DUP2 PUSH2 0x4CF SWAP2 SWAP1 PUSH2 0x1AD3 JUMP JUMPDEST POP DUP1 PUSH0 PUSH1 0x2 ADD SWAP1 DUP2 PUSH2 0x4E1 SWAP2 SWAP1 PUSH2 0x1AD3 JUMP JUMPDEST POP POP POP POP JUMP JUMPDEST PUSH32 0x0 PUSH20 0xFFFFFFFFFFFFFFFFFFFFFFFFFFFFFFFFFFFFFFFF AND CALLER PUSH20 0xFFFFFFFFFFFFFFFFFFFFFFFFFFFFFFFFFFFFFFFF AND EQ PUSH2 0x575 JUMPI PUSH1 0x40 MLOAD PUSH32 0x8C379A000000000000000000000000000000000000000000000000000000000 DUP2 MSTORE PUSH1 0x4 ADD PUSH2 0x56C SWAP1 PUSH2 0x18BB JUMP JUMPDEST PUSH1 0x40 MLOAD DUP1 SWAP2 SUB SWAP1 REVERT JUMPDEST DUP3 PUSH0 PUSH1 0x3 ADD SWAP1 DUP2 PUSH2 0x586 SWAP2 SWAP1 PUSH2 0x1AD3 JUMP JUMPDEST POP DUP2 PUSH0 PUSH1 0x4 ADD SWAP1 DUP2 PUSH2 0x598 SWAP2 SWAP1 PUSH2 0x1AD3 JUMP JUMPDEST POP DUP1 PUSH0 PUSH1 0x5 ADD SWAP1 DUP2 PUSH2 0x5AA SWAP2 SWAP1 PUSH2 0x1AD3 JUMP JUMPDEST POP POP POP POP JUMP JUMPDEST PUSH32 0x0 PUSH20 0xFFFFFFFFFFFFFFFFFFFFFFFFFFFFFFFFFFFFFFFF AND CALLER PUSH20 0xFFFFFFFFFFFFFFFFFFFFFFFFFFFFFFFFFFFFFFFF AND EQ PUSH2 0x63E JUMPI PUSH1 0x40 MLOAD PUSH32 0x8C379A000000000000000000000000000000000000000000000000000000000 DUP2 MSTORE PUSH1 0x4 ADD PUSH2 0x635 SWAP1 PUSH2 0x1C12 JUMP JUMPDEST PUSH1 0x40 MLOAD DUP1 SWAP2 SUB SWAP1 REVERT JUMPDEST PUSH0 DUP1 PUSH1 0x9 ADD SLOAD GT PUSH2 0x684 JUMPI PUSH1 0x40 MLOAD PUSH32 0x8C379A000000000000000000000000000000000000000000000000000000000 DUP2 MSTORE PUSH1 0x4 ADD PUSH2 0x67B SWAP1 PUSH2 0x1C7A JUMP JUMPDEST PUSH1 0x40 MLOAD DUP1 SWAP2 SUB SWAP1 REVERT JUMPDEST PUSH1 0x12 PUSH0 SWAP1 SLOAD SWAP1 PUSH2 0x100 EXP SWAP1 DIV PUSH1 0xFF AND ISZERO PUSH2 0x6D3 JUMPI PUSH1 0x40 MLOAD PUSH32 0x8C379A000000000000000000000000000000000000000000000000000000000 DUP2 MSTORE PUSH1 0x4 ADD PUSH2 0x6CA SWAP1 PUSH2 0x1CE2 JUMP JUMPDEST PUSH1 0x40 MLOAD DUP1 SWAP2 SUB SWAP1 REVERT JUMPDEST PUSH0 DUP1 PUSH1 0x8 ADD SLOAD PUSH0 PUSH1 0x7 ADD SLOAD PUSH0 PUSH1 0x6 ADD SLOAD PUSH2 0x6ED SWAP2 SWAP1 PUSH2 0x1D2D JUMP JUMPDEST PUSH2 0x6F7 SWAP2 SWAP1 PUSH2 0x1D2D JUMP JUMPDEST SWAP1 POP PUSH0 PUSH2 0x2710 PUSH1 0xB SLOAD DUP4 PUSH2 0x70B SWAP2 SWAP1 PUSH2 0x1D60 JUMP JUMPDEST PUSH2 0x715 SWAP2 SWAP1 PUSH2 0x1DCE JUMP JUMPDEST SWAP1 POP PUSH1 0x1 PUSH1 0x12 PUSH0 PUSH2 0x100 EXP DUP2 SLOAD DUP2 PUSH1 0xFF MUL NOT AND SWAP1 DUP4 ISZERO ISZERO MUL OR SWAP1 SSTORE POP PUSH32 0x0 PUSH20 0xFFFFFFFFFFFFFFFFFFFFFFFFFFFFFFFFFFFFFFFF AND PUSH2 0x8FC DUP3 SWAP1 DUP2 ISZERO MUL SWAP1 PUSH1 0x40 MLOAD PUSH0 PUSH1 0x40 MLOAD DUP1 DUP4 SUB DUP2 DUP6 DUP9 DUP9 CALL SWAP4 POP POP POP POP ISZERO DUP1 ISZERO PUSH2 0x794 JUMPI RETURNDATASIZE PUSH0 DUP1 RETURNDATACOPY RETURNDATASIZE PUSH0 REVERT JUMPDEST POP POP POP JUMP JUMPDEST PUSH0 PUSH1 0xA PUSH0 CALLER PUSH20 0xFFFFFFFFFFFFFFFFFFFFFFFFFFFFFFFFFFFFFFFF AND PUSH20 0xFFFFFFFFFFFFFFFFFFFFFFFFFFFFFFFFFFFFFFFF AND DUP2 MSTORE PUSH1 0x20 ADD SWAP1 DUP2 MSTORE PUSH1 0x20 ADD PUSH0 KECCAK256 SWAP1 POP PUSH0 DUP1 PUSH1 0x9 ADD SLOAD GT DUP1 ISZERO PUSH2 0x7F3 JUMPI POP DUP1 PUSH1 0x1 ADD SLOAD PUSH0 PUSH1 0x9 ADD SLOAD EQ JUMPDEST DUP1 ISZERO PUSH2 0x802 JUMPI POP PUSH0 DUP2 PUSH1 0x3 ADD SLOAD EQ JUMPDEST PUSH2 0x841 JUMPI PUSH1 0x40 MLOAD PUSH32 0x8C379A000000000000000000000000000000000000000000000000000000000 DUP2 MSTORE PUSH1 0x4 ADD PUSH2 0x838 SWAP1 PUSH2 0x1E48 JUMP JUMPDEST PUSH1 0x40 MLOAD DUP1 SWAP2 SUB SWAP1 REVERT JUMPDEST PUSH0 PUSH1 0x1 PUSH0 PUSH1 0x9 ADD SLOAD SUB PUSH2 0x85A JUMPI PUSH0 PUSH1 0x6 ADD SLOAD SWAP1 POP PUSH2 0x87B JUMP JUMPDEST PUSH1 0x2 PUSH0 PUSH1 0x9 ADD SLOAD SUB PUSH2 0x872 JUMPI PUSH0 PUSH1 0x7 ADD SLOAD SWAP1 POP PUSH2 0x87A JUMP JUMPDEST PUSH0 PUSH1 0x8 ADD SLOAD SWAP1 POP JUMPDEST JUMPDEST PUSH0 DUP2 PUSH2 0x2710 DUP5 PUSH0 ADD SLOAD PUSH2 0x88E SWAP2 SWAP1 PUSH2 0x1D60 JUMP JUMPDEST PUSH2 0x898 SWAP2 SWAP1 PUSH2 0x1DCE JUMP JUMPDEST SWAP1 POP PUSH0 PUSH2 0x2710 DUP3 PUSH1 0xC SLOAD PUSH2 0x8AC SWAP2 SWAP1 PUSH2 0x1D60 JUMP JUMPDEST PUSH2 0x8B6 SWAP2 SWAP1 PUSH2 0x1DCE JUMP JUMPDEST SWAP1 POP DUP1 DUP5 PUSH1 0x3 ADD DUP2 SWAP1 SSTORE POP CALLER PUSH20 0xFFFFFFFFFFFFFFFFFFFFFFFFFFFFFFFFFFFFFFFF AND PUSH2 0x8FC DUP3 SWAP1 DUP2 ISZERO MUL SWAP1 PUSH1 0x40 MLOAD PUSH0 PUSH1 0x40 MLOAD DUP1 DUP4 SUB DUP2 DUP6 DUP9 DUP9 CALL SWAP4 POP POP POP POP ISZERO DUP1 ISZERO PUSH2 0x904 JUMPI RETURNDATASIZE PUSH0 DUP1 RETURNDATACOPY RETURNDATASIZE PUSH0 REVERT JUMPDEST POP POP POP POP POP JUMP JUMPDEST PUSH1 0x10 SLOAD DUP2 JUMP JUMPDEST PUSH1 0x12 PUSH0 SWAP1 SLOAD SWAP1 PUSH2 0x100 EXP SWAP1 DIV PUSH1 0xFF AND DUP2 JUMP JUMPDEST PUSH1 0xD SLOAD TIMESTAMP GT ISZERO PUSH2 0x968 JUMPI PUSH1 0x40 MLOAD PUSH32 0x8C379A000000000000000000000000000000000000000000000000000000000 DUP2 MSTORE PUSH1 0x4 ADD PUSH2 0x95F SWAP1 PUSH2 0x1EB0 JUMP JUMPDEST PUSH1 0x40 MLOAD DUP1 SWAP2 SUB SWAP1 REVERT JUMPDEST PUSH1 0x1 DUP2 EQ DUP1 PUSH2 0x977 JUMPI POP PUSH1 0x2 DUP2 EQ JUMPDEST DUP1 PUSH2 0x982 JUMPI POP PUSH1 0x3 DUP2 EQ JUMPDEST PUSH2 0x9C1 JUMPI PUSH1 0x40 MLOAD PUSH32 0x8C379A000000000000000000000000000000000000000000000000000000000 DUP2 MSTORE PUSH1 0x4 ADD PUSH2 0x9B8 SWAP1 PUSH2 0x1F18 JUMP JUMPDEST PUSH1 0x40 MLOAD DUP1 SWAP2 SUB SWAP1 REVERT JUMPDEST PUSH0 CALLVALUE GT PUSH2 0xA03 JUMPI PUSH1 0x40 MLOAD PUSH32 0x8C379A000000000000000000000000000000000000000000000000000000000 DUP2 MSTORE PUSH1 0x4 ADD PUSH2 0x9FA SWAP1 PUSH2 0x1F80 JUMP JUMPDEST PUSH1 0x40 MLOAD DUP1 SWAP2 SUB SWAP1 REVERT JUMPDEST PUSH0 DUP1 PUSH1 0x9 ADD SLOAD EQ PUSH2 0xA49 JUMPI PUSH1 0x40 MLOAD PUSH32 0x8C379A000000000000000000000000000000000000000000000000000000000 DUP2 MSTORE PUSH1 0x4 ADD PUSH2 0xA40 SWAP1 PUSH2 0x1FE8 JUMP JUMPDEST PUSH1 0x40 MLOAD DUP1 SWAP2 SUB SWAP1 REVERT JUMPDEST PUSH0 PUSH1 0xA PUSH0 CALLER PUSH20 0xFFFFFFFFFFFFFFFFFFFFFFFFFFFFFFFFFFFFFFFF AND PUSH20 0xFFFFFFFFFFFFFFFFFFFFFFFFFFFFFFFFFFFFFFFF AND DUP2 MSTORE PUSH1 0x20 ADD SWAP1 DUP2 MSTORE PUSH1 0x20 ADD PUSH0 KECCAK256 PUSH0 ADD SLOAD EQ PUSH2 0xACA JUMPI PUSH1 0x40 MLOAD PUSH32 0x8C379A000000000000000000000000000000000000000000000000000000000 DUP2 MSTORE PUSH1 0x4 ADD PUSH2 0xAC1 SWAP1 PUSH2 0x2050 JUMP JUMPDEST PUSH1 0x40 MLOAD DUP1 SWAP2 SUB SWAP1 REVERT JUMPDEST PUSH2 0xAD2 PUSH2 0x1369 JUMP JUMPDEST CALLVALUE DUP2 PUSH0 ADD DUP2 DUP2 MSTORE POP POP DUP2 DUP2 PUSH1 0x20 ADD DUP2 DUP2 MSTORE POP POP TIMESTAMP DUP2 PUSH1 0x40 ADD DUP2 DUP2 MSTORE POP POP DUP1 PUSH1 0xA PUSH0 CALLER PUSH20 0xFFFFFFFFFFFFFFFFFFFFFFFFFFFFFFFFFFFFFFFF AND PUSH20 0xFFFFFFFFFFFFFFFFFFFFFFFFFFFFFFFFFFFFFFFF AND DUP2 MSTORE PUSH1 0x20 ADD SWAP1 DUP2 MSTORE PUSH1 0x20 ADD PUSH0 KECCAK256 PUSH0 DUP3 ADD MLOAD DUP2 PUSH0 ADD SSTORE PUSH1 0x20 DUP3 ADD MLOAD DUP2 PUSH1 0x1 ADD SSTORE PUSH1 0x40 DUP3 ADD MLOAD DUP2 PUSH1 0x2 ADD SSTORE PUSH1 0x60 DUP3 ADD MLOAD DUP2 PUSH1 0x3 ADD SSTORE SWAP1 POP POP PUSH1 0x1 DUP3 SUB PUSH2 0xB96 JUMPI CALLVALUE PUSH0 PUSH1 0x6 ADD PUSH0 DUP3 DUP3 SLOAD PUSH2 0xB71 SWAP2 SWAP1 PUSH2 0x1D2D JUMP JUMPDEST SWAP3 POP POP DUP2 SWAP1 SSTORE POP PUSH1 0x1 PUSH1 0xF PUSH0 DUP3 DUP3 SLOAD PUSH2 0xB8A SWAP2 SWAP1 PUSH2 0x1D2D JUMP JUMPDEST SWAP3 POP POP DUP2 SWAP1 SSTORE POP PUSH2 0xC0B JUMP JUMPDEST PUSH1 0x2 DUP3 SUB PUSH2 0xBD6 JUMPI CALLVALUE PUSH0 PUSH1 0x7 ADD PUSH0 DUP3 DUP3 SLOAD PUSH2 0xBB1 SWAP2 SWAP1 PUSH2 0x1D2D JUMP JUMPDEST SWAP3 POP POP DUP2 SWAP1 SSTORE POP PUSH1 0x1 PUSH1 0x10 PUSH0 DUP3 DUP3 SLOAD PUSH2 0xBCA SWAP2 SWAP1 PUSH2 0x1D2D JUMP JUMPDEST SWAP3 POP POP DUP2 SWAP1 SSTORE POP PUSH2 0xC0A JUMP JUMPDEST CALLVALUE PUSH0 PUSH1 0x8 ADD PUSH0 DUP3 DUP3 SLOAD PUSH2 0xBE9 SWAP2 SWAP1 PUSH2 0x1D2D JUMP JUMPDEST SWAP3 POP POP DUP2 SWAP1 SSTORE POP PUSH1 0x1 PUSH1 0x11 PUSH0 DUP3 DUP3 SLOAD PUSH2 0xC02 SWAP2 SWAP1 PUSH2 0x1D2D JUMP JUMPDEST SWAP3 POP POP DUP2 SWAP1 SSTORE POP JUMPDEST JUMPDEST POP POP JUMP JUMPDEST PUSH32 0x0 DUP2 JUMP JUMPDEST PUSH32 0x0 PUSH20 0xFFFFFFFFFFFFFFFFFFFFFFFFFFFFFFFFFFFFFFFF AND CALLER PUSH20 0xFFFFFFFFFFFFFFFFFFFFFFFFFFFFFFFFFFFFFFFF AND EQ PUSH2 0xCC1 JUMPI PUSH1 0x40 MLOAD PUSH32 0x8C379A000000000000000000000000000000000000000000000000000000000 DUP2 MSTORE PUSH1 0x4 ADD PUSH2 0xCB8 SWAP1 PUSH2 0x18BB JUMP JUMPDEST PUSH1 0x40 MLOAD DUP1 SWAP2 SUB SWAP1 REVERT JUMPDEST PUSH1 0xE SLOAD TIMESTAMP LT PUSH2 0xD05 JUMPI PUSH1 0x40 MLOAD PUSH32 0x8C379A000000000000000000000000000000000000000000000000000000000 DUP2 MSTORE PUSH1 0x4 ADD PUSH2 0xCFC SWAP1 PUSH2 0x20B8 JUMP JUMPDEST PUSH1 0x40 MLOAD DUP1 SWAP2 SUB SWAP1 REVERT JUMPDEST DUP1 PUSH1 0xE DUP2 SWAP1 SSTORE POP POP JUMP JUMPDEST PUSH1 0xA PUSH1 0x20 MSTORE DUP1 PUSH0 MSTORE PUSH1 0x40 PUSH0 KECCAK256 PUSH0 SWAP2 POP SWAP1 POP DUP1 PUSH0 ADD SLOAD SWAP1 DUP1 PUSH1 0x1 ADD SLOAD SWAP1 DUP1 PUSH1 0x2 ADD SLOAD SWAP1 DUP1 PUSH1 0x3 ADD SLOAD SWAP1 POP DUP5 JUMP JUMPDEST PUSH1 0xD SLOAD DUP2 JUMP JUMPDEST PUSH32 0x0 PUSH20 0xFFFFFFFFFFFFFFFFFFFFFFFFFFFFFFFFFFFFFFFF AND CALLER PUSH20 0xFFFFFFFFFFFFFFFFFFFFFFFFFFFFFFFFFFFFFFFF AND EQ PUSH2 0xDCF JUMPI PUSH1 0x40 MLOAD PUSH32 0x8C379A000000000000000000000000000000000000000000000000000000000 DUP2 MSTORE PUSH1 0x4 ADD PUSH2 0xDC6 SWAP1 PUSH2 0x18BB JUMP JUMPDEST PUSH1 0x40 MLOAD DUP1 SWAP2 SUB SWAP1 REVERT JUMPDEST PUSH1 0xD SLOAD TIMESTAMP LT PUSH2 0xE13 JUMPI PUSH1 0x40 MLOAD PUSH32 0x8C379A000000000000000000000000000000000000000000000000000000000 DUP2 MSTORE PUSH1 0x4 ADD PUSH2 0xE0A SWAP1 PUSH2 0x2120 JUMP JUMPDEST PUSH1 0x40 MLOAD DUP1 SWAP2 SUB SWAP1 REVERT JUMPDEST DUP1 PUSH1 0xD DUP2 SWAP1 SSTORE POP POP JUMP JUMPDEST PUSH32 0x0 PUSH20 0xFFFFFFFFFFFFFFFFFFFFFFFFFFFFFFFFFFFFFFFF AND CALLER PUSH20 0xFFFFFFFFFFFFFFFFFFFFFFFFFFFFFFFFFFFFFFFF AND EQ PUSH2 0xEAB JUMPI PUSH1 0x40 MLOAD PUSH32 0x8C379A000000000000000000000000000000000000000000000000000000000 DUP2 MSTORE PUSH1 0x4 ADD PUSH2 0xEA2 SWAP1 PUSH2 0x2188 JUMP JUMPDEST PUSH1 0x40 MLOAD DUP1 SWAP2 SUB SWAP1 REVERT JUMPDEST PUSH1 0x1 DUP2 EQ DUP1 PUSH2 0xEBA JUMPI POP PUSH1 0x2 DUP2 EQ JUMPDEST DUP1 PUSH2 0xEC5 JUMPI POP PUSH1 0x3 DUP2 EQ JUMPDEST PUSH2 0xF04 JUMPI PUSH1 0x40 MLOAD PUSH32 0x8C379A000000000000000000000000000000000000000000000000000000000 DUP2 MSTORE PUSH1 0x4 ADD PUSH2 0xEFB SWAP1 PUSH2 0x1F18 JUMP JUMPDEST PUSH1 0x40 MLOAD DUP1 SWAP2 SUB SWAP1 REVERT JUMPDEST PUSH0 DUP1 PUSH1 0x9 ADD SLOAD EQ PUSH2 0xF4A JUMPI PUSH1 0x40 MLOAD PUSH32 0x8C379A000000000000000000000000000000000000000000000000000000000 DUP2 MSTORE PUSH1 0x4 ADD PUSH2 0xF41 SWAP1 PUSH2 0x1FE8 JUMP JUMPDEST PUSH1 0x40 MLOAD DUP1 SWAP2 SUB SWAP1 REVERT JUMPDEST PUSH1 0xE SLOAD TIMESTAMP LT ISZERO PUSH2 0xF8F JUMPI PUSH1 0x40 MLOAD PUSH32 0x8C379A000000000000000000000000000000000000000000000000000000000 DUP2 MSTORE PUSH1 0x4 ADD PUSH2 0xF86 SWAP1 PUSH2 0x2216 JUMP JUMPDEST PUSH1 0x40 MLOAD DUP1 SWAP2 SUB SWAP1 REVERT JUMPDEST DUP1 PUSH0 PUSH1 0x9 ADD DUP2 SWAP1 SSTORE POP PUSH0 DUP1 PUSH1 0x8 ADD SLOAD PUSH0 PUSH1 0x7 ADD SLOAD PUSH0 PUSH1 0x6 ADD SLOAD PUSH2 0xFB2 SWAP2 SWAP1 PUSH2 0x1D2D JUMP JUMPDEST PUSH2 0xFBC SWAP2 SWAP1 PUSH2 0x1D2D JUMP JUMPDEST SWAP1 POP PUSH0 PUSH2 0x2710 PUSH1 0xB SLOAD DUP4 PUSH2 0xFD0 SWAP2 SWAP1 PUSH2 0x1D60 JUMP JUMPDEST PUSH2 0xFDA SWAP2 SWAP1 PUSH2 0x1DCE JUMP JUMPDEST SWAP1 POP DUP1 DUP3 PUSH2 0xFE8 SWAP2 SWAP1 PUSH2 0x2234 JUMP JUMPDEST PUSH1 0xC DUP2 SWAP1 SSTORE POP POP POP POP JUMP JUMPDEST PUSH1 0xB SLOAD DUP2 JUMP JUMPDEST PUSH1 0xE SLOAD DUP2 JUMP JUMPDEST PUSH0 DUP1 PUSH0 ADD DUP1 SLOAD PUSH2 0x100E SWAP1 PUSH2 0x1906 JUMP JUMPDEST DUP1 PUSH1 0x1F ADD PUSH1 0x20 DUP1 SWAP2 DIV MUL PUSH1 0x20 ADD PUSH1 0x40 MLOAD SWAP1 DUP2 ADD PUSH1 0x40 MSTORE DUP1 SWAP3 SWAP2 SWAP1 DUP2 DUP2 MSTORE PUSH1 0x20 ADD DUP3 DUP1 SLOAD PUSH2 0x103A SWAP1 PUSH2 0x1906 JUMP JUMPDEST DUP1 ISZERO PUSH2 0x1085 JUMPI DUP1 PUSH1 0x1F LT PUSH2 0x105C JUMPI PUSH2 0x100 DUP1 DUP4 SLOAD DIV MUL DUP4 MSTORE SWAP2 PUSH1 0x20 ADD SWAP2 PUSH2 0x1085 JUMP JUMPDEST DUP3 ADD SWAP2 SWAP1 PUSH0 MSTORE PUSH1 0x20 PUSH0 KECCAK256 SWAP1 JUMPDEST DUP2 SLOAD DUP2 MSTORE SWAP1 PUSH1 0x1 ADD SWAP1 PUSH1 0x20 ADD DUP1 DUP4 GT PUSH2 0x1068 JUMPI DUP3 SWAP1 SUB PUSH1 0x1F AND DUP3 ADD SWAP2 JUMPDEST POP POP POP POP POP SWAP1 DUP1 PUSH1 0x1 ADD DUP1 SLOAD PUSH2 0x109A SWAP1 PUSH2 0x1906 JUMP JUMPDEST DUP1 PUSH1 0x1F ADD PUSH1 0x20 DUP1 SWAP2 DIV MUL PUSH1 0x20 ADD PUSH1 0x40 MLOAD SWAP1 DUP2 ADD PUSH1 0x40 MSTORE DUP1 SWAP3 SWAP2 SWAP1 DUP2 DUP2 MSTORE PUSH1 0x20 ADD DUP3 DUP1 SLOAD PUSH2 0x10C6 SWAP1 PUSH2 0x1906 JUMP JUMPDEST DUP1 ISZERO PUSH2 0x1111 JUMPI DUP1 PUSH1 0x1F LT PUSH2 0x10E8 JUMPI PUSH2 0x100 DUP1 DUP4 SLOAD DIV MUL DUP4 MSTORE SWAP2 PUSH1 0x20 ADD SWAP2 PUSH2 0x1111 JUMP JUMPDEST DUP3 ADD SWAP2 SWAP1 PUSH0 MSTORE PUSH1 0x20 PUSH0 KECCAK256 SWAP1 JUMPDEST DUP2 SLOAD DUP2 MSTORE SWAP1 PUSH1 0x1 ADD SWAP1 PUSH1 0x20 ADD DUP1 DUP4 GT PUSH2 0x10F4 JUMPI DUP3 SWAP1 SUB PUSH1 0x1F AND DUP3 ADD SWAP2 JUMPDEST POP POP POP POP POP SWAP1 DUP1 PUSH1 0x2 ADD DUP1 SLOAD PUSH2 0x1126 SWAP1 PUSH2 0x1906 JUMP JUMPDEST DUP1 PUSH1 0x1F ADD PUSH1 0x20 DUP1 SWAP2 DIV MUL PUSH1 0x20 ADD PUSH1 0x40 MLOAD SWAP1 DUP2 ADD PUSH1 0x40 MSTORE DUP1 SWAP3 SWAP2 SWAP1 DUP2 DUP2 MSTORE PUSH1 0x20 ADD DUP3 DUP1 SLOAD PUSH2 0x1152 SWAP1 PUSH2 0x1906 JUMP JUMPDEST DUP1 ISZERO PUSH2 0x119D JUMPI DUP1 PUSH1 0x1F LT PUSH2 0x1174 JUMPI PUSH2 0x100 DUP1 DUP4 SLOAD DIV MUL DUP4 MSTORE SWAP2 PUSH1 0x20 ADD SWAP2 PUSH2 0x119D JUMP JUMPDEST DUP3 ADD SWAP2 SWAP1 PUSH0 MSTORE PUSH1 0x20 PUSH0 KECCAK256 SWAP1 JUMPDEST DUP2 SLOAD DUP2 MSTORE SWAP1 PUSH1 0x1 ADD SWAP1 PUSH1 0x20 ADD DUP1 DUP4 GT PUSH2 0x1180 JUMPI DUP3 SWAP1 SUB PUSH1 0x1F AND DUP3 ADD SWAP2 JUMPDEST POP POP POP POP POP SWAP1 DUP1 PUSH1 0x3 ADD DUP1 SLOAD PUSH2 0x11B2 SWAP1 PUSH2 0x1906 JUMP JUMPDEST DUP1 PUSH1 0x1F ADD PUSH1 0x20 DUP1 SWAP2 DIV MUL PUSH1 0x20 ADD PUSH1 0x40 MLOAD SWAP1 DUP2 ADD PUSH1 0x40 MSTORE DUP1 SWAP3 SWAP2 SWAP1 DUP2 DUP2 MSTORE PUSH1 0x20 ADD DUP3 DUP1 SLOAD PUSH2 0x11DE SWAP1 PUSH2 0x1906 JUMP JUMPDEST DUP1 ISZERO PUSH2 0x1229 JUMPI DUP1 PUSH1 0x1F LT PUSH2 0x1200 JUMPI PUSH2 0x100 DUP1 DUP4 SLOAD DIV MUL DUP4 MSTORE SWAP2 PUSH1 0x20 ADD SWAP2 PUSH2 0x1229 JUMP JUMPDEST DUP3 ADD SWAP2 SWAP1 PUSH0 MSTORE PUSH1 0x20 PUSH0 KECCAK256 SWAP1 JUMPDEST DUP2 SLOAD DUP2 MSTORE SWAP1 PUSH1 0x1 ADD SWAP1 PUSH1 0x20 ADD DUP1 DUP4 GT PUSH2 0x120C JUMPI DUP3 SWAP1 SUB PUSH1 0x1F AND DUP3 ADD SWAP2 JUMPDEST POP POP POP POP POP SWAP1 DUP1 PUSH1 0x4 ADD DUP1 SLOAD PUSH2 0x123E SWAP1 PUSH2 0x1906 JUMP JUMPDEST DUP1 PUSH1 0x1F ADD PUSH1 0x20 DUP1 SWAP2 DIV MUL PUSH1 0x20 ADD PUSH1 0x40 MLOAD SWAP1 DUP2 ADD PUSH1 0x40 MSTORE DUP1 SWAP3 SWAP2 SWAP1 DUP2 DUP2 MSTORE PUSH1 0x20 ADD DUP3 DUP1 SLOAD PUSH2 0x126A SWAP1 PUSH2 0x1906 JUMP JUMPDEST DUP1 ISZERO PUSH2 0x12B5 JUMPI DUP1 PUSH1 0x1F LT PUSH2 0x128C JUMPI PUSH2 0x100 DUP1 DUP4 SLOAD DIV MUL DUP4 MSTORE SWAP2 PUSH1 0x20 ADD SWAP2 PUSH2 0x12B5 JUMP JUMPDEST DUP3 ADD SWAP2 SWAP1 PUSH0 MSTORE PUSH1 0x20 PUSH0 KECCAK256 SWAP1 JUMPDEST DUP2 SLOAD DUP2 MSTORE SWAP1 PUSH1 0x1 ADD SWAP1 PUSH1 0x20 ADD DUP1 DUP4 GT PUSH2 0x1298 JUMPI DUP3 SWAP1 SUB PUSH1 0x1F AND DUP3 ADD SWAP2 JUMPDEST POP POP POP POP POP SWAP1 DUP1 PUSH1 0x5 ADD DUP1 SLOAD PUSH2 0x12CA SWAP1 PUSH2 0x1906 JUMP JUMPDEST DUP1 PUSH1 0x1F ADD PUSH1 0x20 DUP1 SWAP2 DIV MUL PUSH1 0x20 ADD PUSH1 0x40 MLOAD SWAP1 DUP2 ADD PUSH1 0x40 MSTORE DUP1 SWAP3 SWAP2 SWAP1 DUP2 DUP2 MSTORE PUSH1 0x20 ADD DUP3 DUP1 SLOAD PUSH2 0x12F6 SWAP1 PUSH2 0x1906 JUMP JUMPDEST DUP1 ISZERO PUSH2 0x1341 JUMPI DUP1 PUSH1 0x1F LT PUSH2 0x1318 JUMPI PUSH2 0x100 DUP1 DUP4 SLOAD DIV MUL DUP4 MSTORE SWAP2 PUSH1 0x20 ADD SWAP2 PUSH2 0x1341 JUMP JUMPDEST DUP3 ADD SWAP2 SWAP1 PUSH0 MSTORE PUSH1 0x20 PUSH0 KECCAK256 SWAP1 JUMPDEST DUP2 SLOAD DUP2 MSTORE SWAP1 PUSH1 0x1 ADD SWAP1 PUSH1 0x20 ADD DUP1 DUP4 GT PUSH2 0x1324 JUMPI DUP3 SWAP1 SUB PUSH1 0x1F AND DUP3 ADD SWAP2 JUMPDEST POP POP POP POP POP SWAP1 DUP1 PUSH1 0x6 ADD SLOAD SWAP1 DUP1 PUSH1 0x7 ADD SLOAD SWAP1 DUP1 PUSH1 0x8 ADD SLOAD SWAP1 DUP1 PUSH1 0x9 ADD SLOAD SWAP1 POP DUP11 JUMP JUMPDEST PUSH1 0x11 SLOAD DUP2 JUMP JUMPDEST PUSH1 0x40 MLOAD DUP1 PUSH1 0x80 ADD PUSH1 0x40 MSTORE DUP1 PUSH0 DUP2 MSTORE PUSH1 0x20 ADD PUSH0 DUP2 MSTORE PUSH1 0x20 ADD PUSH0 DUP2 MSTORE PUSH1 0x20 ADD PUSH0 DUP2 MSTORE POP SWAP1 JUMP JUMPDEST PUSH0 DUP2 SWAP1 POP SWAP2 SWAP1 POP JUMP JUMPDEST PUSH2 0x139F DUP2 PUSH2 0x138D JUMP JUMPDEST DUP3 MSTORE POP POP JUMP JUMPDEST PUSH0 PUSH1 0x20 DUP3 ADD SWAP1 POP PUSH2 0x13B8 PUSH0 DUP4 ADD DUP5 PUSH2 0x1396 JUMP JUMPDEST SWAP3 SWAP2 POP POP JUMP JUMPDEST PUSH0 PUSH1 0x40 MLOAD SWAP1 POP SWAP1 JUMP JUMPDEST PUSH0 DUP1 REVERT JUMPDEST PUSH0 DUP1 REVERT JUMPDEST PUSH0 DUP1 REVERT JUMPDEST PUSH0 DUP1 REVERT JUMPDEST PUSH0 PUSH1 0x1F NOT PUSH1 0x1F DUP4 ADD AND SWAP1 POP SWAP2 SWAP1 POP JUMP JUMPDEST PUSH32 0x4E487B7100000000000000000000000000000000000000000000000000000000 PUSH0 MSTORE PUSH1 0x41 PUSH1 0x4 MSTORE PUSH1 0x24 PUSH0 REVERT JUMPDEST PUSH2 0x141D DUP3 PUSH2 0x13D7 JUMP JUMPDEST DUP2 ADD DUP2 DUP2 LT PUSH8 0xFFFFFFFFFFFFFFFF DUP3 GT OR ISZERO PUSH2 0x143C JUMPI PUSH2 0x143B PUSH2 0x13E7 JUMP JUMPDEST JUMPDEST DUP1 PUSH1 0x40 MSTORE POP POP POP JUMP JUMPDEST PUSH0 PUSH2 0x144E PUSH2 0x13BE JUMP JUMPDEST SWAP1 POP PUSH2 0x145A DUP3 DUP3 PUSH2 0x1414 JUMP JUMPDEST SWAP2 SWAP1 POP JUMP JUMPDEST PUSH0 PUSH8 0xFFFFFFFFFFFFFFFF DUP3 GT ISZERO PUSH2 0x1479 JUMPI PUSH2 0x1478 PUSH2 0x13E7 JUMP JUMPDEST JUMPDEST PUSH2 0x1482 DUP3 PUSH2 0x13D7 JUMP JUMPDEST SWAP1 POP PUSH1 0x20 DUP2 ADD SWAP1 POP SWAP2 SWAP1 POP JUMP JUMPDEST DUP3 DUP2 DUP4 CALLDATACOPY PUSH0 DUP4 DUP4 ADD MSTORE POP POP POP JUMP JUMPDEST PUSH0 PUSH2 0x14AF PUSH2 0x14AA DUP5 PUSH2 0x145F JUMP JUMPDEST PUSH2 0x1445 JUMP JUMPDEST SWAP1 POP DUP3 DUP2 MSTORE PUSH1 0x20 DUP2 ADD DUP5 DUP5 DUP5 ADD GT ISZERO PUSH2 0x14CB JUMPI PUSH2 0x14CA PUSH2 0x13D3 JUMP JUMPDEST JUMPDEST PUSH2 0x14D6 DUP5 DUP3 DUP6 PUSH2 0x148F JUMP JUMPDEST POP SWAP4 SWAP3 POP POP POP JUMP JUMPDEST PUSH0 DUP3 PUSH1 0x1F DUP4 ADD SLT PUSH2 0x14F2 JUMPI PUSH2 0x14F1 PUSH2 0x13CF JUMP JUMPDEST JUMPDEST DUP2 CALLDATALOAD PUSH2 0x1502 DUP5 DUP3 PUSH1 0x20 DUP7 ADD PUSH2 0x149D JUMP JUMPDEST SWAP2 POP POP SWAP3 SWAP2 POP POP JUMP JUMPDEST PUSH0 DUP1 PUSH0 PUSH1 0x60 DUP5 DUP7 SUB SLT ISZERO PUSH2 0x1522 JUMPI PUSH2 0x1521 PUSH2 0x13C7 JUMP JUMPDEST JUMPDEST PUSH0 DUP5 ADD CALLDATALOAD PUSH8 0xFFFFFFFFFFFFFFFF DUP2 GT ISZERO PUSH2 0x153F JUMPI PUSH2 0x153E PUSH2 0x13CB JUMP JUMPDEST JUMPDEST PUSH2 0x154B DUP7 DUP3 DUP8 ADD PUSH2 0x14DE JUMP JUMPDEST SWAP4 POP POP PUSH1 0x20 DUP5 ADD CALLDATALOAD PUSH8 0xFFFFFFFFFFFFFFFF DUP2 GT ISZERO PUSH2 0x156C JUMPI PUSH2 0x156B PUSH2 0x13CB JUMP JUMPDEST JUMPDEST PUSH2 0x1578 DUP7 DUP3 DUP8 ADD PUSH2 0x14DE JUMP JUMPDEST SWAP3 POP POP PUSH1 0x40 DUP5 ADD CALLDATALOAD PUSH8 0xFFFFFFFFFFFFFFFF DUP2 GT ISZERO PUSH2 0x1599 JUMPI PUSH2 0x1598 PUSH2 0x13CB JUMP JUMPDEST JUMPDEST PUSH2 0x15A5 DUP7 DUP3 DUP8 ADD PUSH2 0x14DE JUMP JUMPDEST SWAP2 POP POP SWAP3 POP SWAP3 POP SWAP3 JUMP JUMPDEST PUSH0 DUP2 ISZERO ISZERO SWAP1 POP SWAP2 SWAP1 POP JUMP JUMPDEST PUSH2 0x15C3 DUP2 PUSH2 0x15AF JUMP JUMPDEST DUP3 MSTORE POP POP JUMP JUMPDEST PUSH0 PUSH1 0x20 DUP3 ADD SWAP1 POP PUSH2 0x15DC PUSH0 DUP4 ADD DUP5 PUSH2 0x15BA JUMP JUMPDEST SWAP3 SWAP2 POP POP JUMP JUMPDEST PUSH2 0x15EB DUP2 PUSH2 0x138D JUMP JUMPDEST DUP2 EQ PUSH2 0x15F5 JUMPI PUSH0 DUP1 REVERT JUMPDEST POP JUMP JUMPDEST PUSH0 DUP2 CALLDATALOAD SWAP1 POP PUSH2 0x1606 DUP2 PUSH2 0x15E2 JUMP JUMPDEST SWAP3 SWAP2 POP POP JUMP JUMPDEST PUSH0 PUSH1 0x20 DUP3 DUP5 SUB SLT ISZERO PUSH2 0x1621 JUMPI PUSH2 0x1620 PUSH2 0x13C7 JUMP JUMPDEST JUMPDEST PUSH0 PUSH2 0x162E DUP5 DUP3 DUP6 ADD PUSH2 0x15F8 JUMP JUMPDEST SWAP2 POP POP SWAP3 SWAP2 POP POP JUMP JUMPDEST PUSH0 PUSH20 0xFFFFFFFFFFFFFFFFFFFFFFFFFFFFFFFFFFFFFFFF DUP3 AND SWAP1 POP SWAP2 SWAP1 POP JUMP JUMPDEST PUSH0 PUSH2 0x1660 DUP3 PUSH2 0x1637 JUMP JUMPDEST SWAP1 POP SWAP2 SWAP1 POP JUMP JUMPDEST PUSH2 0x1670 DUP2 PUSH2 0x1656 JUMP JUMPDEST DUP3 MSTORE POP POP JUMP JUMPDEST PUSH0 PUSH1 0x20 DUP3 ADD SWAP1 POP PUSH2 0x1689 PUSH0 DUP4 ADD DUP5 PUSH2 0x1667 JUMP JUMPDEST SWAP3 SWAP2 POP POP JUMP JUMPDEST PUSH2 0x1698 DUP2 PUSH2 0x1656 JUMP JUMPDEST DUP2 EQ PUSH2 0x16A2 JUMPI PUSH0 DUP1 REVERT JUMPDEST POP JUMP JUMPDEST PUSH0 DUP2 CALLDATALOAD SWAP1 POP PUSH2 0x16B3 DUP2 PUSH2 0x168F JUMP JUMPDEST SWAP3 SWAP2 POP POP JUMP JUMPDEST PUSH0 PUSH1 0x20 DUP3 DUP5 SUB SLT ISZERO PUSH2 0x16CE JUMPI PUSH2 0x16CD PUSH2 0x13C7 JUMP JUMPDEST JUMPDEST PUSH0 PUSH2 0x16DB DUP5 DUP3 DUP6 ADD PUSH2 0x16A5 JUMP JUMPDEST SWAP2 POP POP SWAP3 SWAP2 POP POP JUMP JUMPDEST PUSH0 PUSH1 0x80 DUP3 ADD SWAP1 POP PUSH2 0x16F7 PUSH0 DUP4 ADD DUP8 PUSH2 0x1396 JUMP JUMPDEST PUSH2 0x1704 PUSH1 0x20 DUP4 ADD DUP7 PUSH2 0x1396 JUMP JUMPDEST PUSH2 0x1711 PUSH1 0x40 DUP4 ADD DUP6 PUSH2 0x1396 JUMP JUMPDEST PUSH2 0x171E PUSH1 0x60 DUP4 ADD DUP5 PUSH2 0x1396 JUMP JUMPDEST SWAP6 SWAP5 POP POP POP POP POP JUMP JUMPDEST PUSH0 DUP2 MLOAD SWAP1 POP SWAP2 SWAP1 POP JUMP JUMPDEST PUSH0 DUP3 DUP3 MSTORE PUSH1 0x20 DUP3 ADD SWAP1 POP SWAP3 SWAP2 POP POP JUMP JUMPDEST DUP3 DUP2 DUP4 MCOPY PUSH0 DUP4 DUP4 ADD MSTORE POP POP POP JUMP JUMPDEST PUSH0 PUSH2 0x1759 DUP3 PUSH2 0x1727 JUMP JUMPDEST PUSH2 0x1763 DUP2 DUP6 PUSH2 0x1731 JUMP JUMPDEST SWAP4 POP PUSH2 0x1773 DUP2 DUP6 PUSH1 0x20 DUP7 ADD PUSH2 0x1741 JUMP JUMPDEST PUSH2 0x177C DUP2 PUSH2 0x13D7 JUMP JUMPDEST DUP5 ADD SWAP2 POP POP SWAP3 SWAP2 POP POP JUMP JUMPDEST PUSH0 PUSH2 0x140 DUP3 ADD SWAP1 POP DUP2 DUP2 SUB PUSH0 DUP4 ADD MSTORE PUSH2 0x17A0 DUP2 DUP14 PUSH2 0x174F JUMP JUMPDEST SWAP1 POP DUP2 DUP2 SUB PUSH1 0x20 DUP4 ADD MSTORE PUSH2 0x17B4 DUP2 DUP13 PUSH2 0x174F JUMP JUMPDEST SWAP1 POP DUP2 DUP2 SUB PUSH1 0x40 DUP4 ADD MSTORE PUSH2 0x17C8 DUP2 DUP12 PUSH2 0x174F JUMP JUMPDEST SWAP1 POP DUP2 DUP2 SUB PUSH1 0x60 DUP4 ADD MSTORE PUSH2 0x17DC DUP2 DUP11 PUSH2 0x174F JUMP JUMPDEST SWAP1 POP DUP2 DUP2 SUB PUSH1 0x80 DUP4 ADD MSTORE PUSH2 0x17F0 DUP2 DUP10 PUSH2 0x174F JUMP JUMPDEST SWAP1 POP DUP2 DUP2 SUB PUSH1 0xA0 DUP4 ADD MSTORE PUSH2 0x1804 DUP2 DUP9 PUSH2 0x174F JUMP JUMPDEST SWAP1 POP PUSH2 0x1813 PUSH1 0xC0 DUP4 ADD DUP8 PUSH2 0x1396 JUMP JUMPDEST PUSH2 0x1820 PUSH1 0xE0 DUP4 ADD DUP7 PUSH2 0x1396 JUMP JUMPDEST PUSH2 0x182E PUSH2 0x100 DUP4 ADD DUP6 PUSH2 0x1396 JUMP JUMPDEST PUSH2 0x183C PUSH2 0x120 DUP4 ADD DUP5 PUSH2 0x1396 JUMP JUMPDEST SWAP12 SWAP11 POP POP POP POP POP POP POP POP POP POP POP JUMP JUMPDEST PUSH32 0x4F6E6C79206F776E65722063616E20706572666F726D20746869732061637469 PUSH0 DUP3 ADD MSTORE PUSH32 0x6F6E000000000000000000000000000000000000000000000000000000000000 PUSH1 0x20 DUP3 ADD MSTORE POP JUMP JUMPDEST PUSH0 PUSH2 0x18A5 PUSH1 0x22 DUP4 PUSH2 0x1731 JUMP JUMPDEST SWAP2 POP PUSH2 0x18B0 DUP3 PUSH2 0x184B JUMP JUMPDEST PUSH1 0x40 DUP3 ADD SWAP1 POP SWAP2 SWAP1 POP JUMP JUMPDEST PUSH0 PUSH1 0x20 DUP3 ADD SWAP1 POP DUP2 DUP2 SUB PUSH0 DUP4 ADD MSTORE PUSH2 0x18D2 DUP2 PUSH2 0x1899 JUMP JUMPDEST SWAP1 POP SWAP2 SWAP1 POP JUMP JUMPDEST PUSH32 0x4E487B7100000000000000000000000000000000000000000000000000000000 PUSH0 MSTORE PUSH1 0x22 PUSH1 0x4 MSTORE PUSH1 0x24 PUSH0 REVERT JUMPDEST PUSH0 PUSH1 0x2 DUP3 DIV SWAP1 POP PUSH1 0x1 DUP3 AND DUP1 PUSH2 0x191D JUMPI PUSH1 0x7F DUP3 AND SWAP2 POP JUMPDEST PUSH1 0x20 DUP3 LT DUP2 SUB PUSH2 0x1930 JUMPI PUSH2 0x192F PUSH2 0x18D9 JUMP JUMPDEST JUMPDEST POP SWAP2 SWAP1 POP JUMP JUMPDEST PUSH0 DUP2 SWAP1 POP DUP2 PUSH0 MSTORE PUSH1 0x20 PUSH0 KECCAK256 SWAP1 POP SWAP2 SWAP1 POP JUMP JUMPDEST PUSH0 PUSH1 0x20 PUSH1 0x1F DUP4 ADD DIV SWAP1 POP SWAP2 SWAP1 POP JUMP JUMPDEST PUSH0 DUP3 DUP3 SHL SWAP1 POP SWAP3 SWAP2 POP POP JUMP JUMPDEST PUSH0 PUSH1 0x8 DUP4 MUL PUSH2 0x1992 PUSH32 0xFFFFFFFFFFFFFFFFFFFFFFFFFFFFFFFFFFFFFFFFFFFFFFFFFFFFFFFFFFFFFFFF DUP3 PUSH2 0x1957 JUMP JUMPDEST PUSH2 0x199C DUP7 DUP4 PUSH2 0x1957 JUMP JUMPDEST SWAP6 POP DUP1 NOT DUP5 AND SWAP4 POP DUP1 DUP7 AND DUP5 OR SWAP3 POP POP POP SWAP4 SWAP3 POP POP POP JUMP JUMPDEST PUSH0 DUP2 SWAP1 POP SWAP2 SWAP1 POP JUMP JUMPDEST PUSH0 PUSH2 0x19D7 PUSH2 0x19D2 PUSH2 0x19CD DUP5 PUSH2 0x138D JUMP JUMPDEST PUSH2 0x19B4 JUMP JUMPDEST PUSH2 0x138D JUMP JUMPDEST SWAP1 POP SWAP2 SWAP1 POP JUMP JUMPDEST PUSH0 DUP2 SWAP1 POP SWAP2 SWAP1 POP JUMP JUMPDEST PUSH2 0x19F0 DUP4 PUSH2 0x19BD JUMP JUMPDEST PUSH2 0x1A04 PUSH2 0x19FC DUP3 PUSH2 0x19DE JUMP JUMPDEST DUP5 DUP5 SLOAD PUSH2 0x1963 JUMP JUMPDEST DUP3 SSTORE POP POP POP POP JUMP JUMPDEST PUSH0 SWAP1 JUMP JUMPDEST PUSH2 0x1A18 PUSH2 0x1A0C JUMP JUMPDEST PUSH2 0x1A23 DUP2 DUP5 DUP5 PUSH2 0x19E7 JUMP JUMPDEST POP POP POP JUMP JUMPDEST JUMPDEST DUP2 DUP2 LT ISZERO PUSH2 0x1A46 JUMPI PUSH2 0x1A3B PUSH0 DUP3 PUSH2 0x1A10 JUMP JUMPDEST PUSH1 0x1 DUP2 ADD SWAP1 POP PUSH2 0x1A29 JUMP JUMPDEST POP POP JUMP JUMPDEST PUSH1 0x1F DUP3 GT ISZERO PUSH2 0x1A8B JUMPI PUSH2 0x1A5C DUP2 PUSH2 0x1936 JUMP JUMPDEST PUSH2 0x1A65 DUP5 PUSH2 0x1948 JUMP JUMPDEST DUP2 ADD PUSH1 0x20 DUP6 LT ISZERO PUSH2 0x1A74 JUMPI DUP2 SWAP1 POP JUMPDEST PUSH2 0x1A88 PUSH2 0x1A80 DUP6 PUSH2 0x1948 JUMP JUMPDEST DUP4 ADD DUP3 PUSH2 0x1A28 JUMP JUMPDEST POP POP JUMPDEST POP POP POP JUMP JUMPDEST PUSH0 DUP3 DUP3 SHR SWAP1 POP SWAP3 SWAP2 POP POP JUMP JUMPDEST PUSH0 PUSH2 0x1AAB PUSH0 NOT DUP5 PUSH1 0x8 MUL PUSH2 0x1A90 JUMP JUMPDEST NOT DUP1 DUP4 AND SWAP2 POP POP SWAP3 SWAP2 POP POP JUMP JUMPDEST PUSH0 PUSH2 0x1AC3 DUP4 DUP4 PUSH2 0x1A9C JUMP JUMPDEST SWAP2 POP DUP3 PUSH1 0x2 MUL DUP3 OR SWAP1 POP SWAP3 SWAP2 POP POP JUMP JUMPDEST PUSH2 0x1ADC DUP3 PUSH2 0x1727 JUMP JUMPDEST PUSH8 0xFFFFFFFFFFFFFFFF DUP2 GT ISZERO PUSH2 0x1AF5 JUMPI PUSH2 0x1AF4 PUSH2 0x13E7 JUMP JUMPDEST JUMPDEST PUSH2 0x1AFF DUP3 SLOAD PUSH2 0x1906 JUMP JUMPDEST PUSH2 0x1B0A DUP3 DUP3 DUP6 PUSH2 0x1A4A JUMP JUMPDEST PUSH0 PUSH1 0x20 SWAP1 POP PUSH1 0x1F DUP4 GT PUSH1 0x1 DUP2 EQ PUSH2 0x1B3B JUMPI PUSH0 DUP5 ISZERO PUSH2 0x1B29 JUMPI DUP3 DUP8 ADD MLOAD SWAP1 POP JUMPDEST PUSH2 0x1B33 DUP6 DUP3 PUSH2 0x1AB8 JUMP JUMPDEST DUP7 SSTORE POP PUSH2 0x1B9A JUMP JUMPDEST PUSH1 0x1F NOT DUP5 AND PUSH2 0x1B49 DUP7 PUSH2 0x1936 JUMP JUMPDEST PUSH0 JUMPDEST DUP3 DUP2 LT ISZERO PUSH2 0x1B70 JUMPI DUP5 DUP10 ADD MLOAD DUP3 SSTORE PUSH1 0x1 DUP3 ADD SWAP2 POP PUSH1 0x20 DUP6 ADD SWAP5 POP PUSH1 0x20 DUP2 ADD SWAP1 POP PUSH2 0x1B4B JUMP JUMPDEST DUP7 DUP4 LT ISZERO PUSH2 0x1B8D JUMPI DUP5 DUP10 ADD MLOAD PUSH2 0x1B89 PUSH1 0x1F DUP10 AND DUP3 PUSH2 0x1A9C JUMP JUMPDEST DUP4 SSTORE POP JUMPDEST PUSH1 0x1 PUSH1 0x2 DUP9 MUL ADD DUP9 SSTORE POP POP POP JUMPDEST POP POP POP POP POP POP JUMP JUMPDEST PUSH32 0x4F6E6C79206F776E65722063616E20776974686472617720636F6D6D69737369 PUSH0 DUP3 ADD MSTORE PUSH32 0x6F6E000000000000000000000000000000000000000000000000000000000000 PUSH1 0x20 DUP3 ADD MSTORE POP JUMP JUMPDEST PUSH0 PUSH2 0x1BFC PUSH1 0x22 DUP4 PUSH2 0x1731 JUMP JUMPDEST SWAP2 POP PUSH2 0x1C07 DUP3 PUSH2 0x1BA2 JUMP JUMPDEST PUSH1 0x40 DUP3 ADD SWAP1 POP SWAP2 SWAP1 POP JUMP JUMPDEST PUSH0 PUSH1 0x20 DUP3 ADD SWAP1 POP DUP2 DUP2 SUB PUSH0 DUP4 ADD MSTORE PUSH2 0x1C29 DUP2 PUSH2 0x1BF0 JUMP JUMPDEST SWAP1 POP SWAP2 SWAP1 POP JUMP JUMPDEST PUSH32 0x44697370757465206E6F742066696E6973686564207965740000000000000000 PUSH0 DUP3 ADD MSTORE POP JUMP JUMPDEST PUSH0 PUSH2 0x1C64 PUSH1 0x18 DUP4 PUSH2 0x1731 JUMP JUMPDEST SWAP2 POP PUSH2 0x1C6F DUP3 PUSH2 0x1C30 JUMP JUMPDEST PUSH1 0x20 DUP3 ADD SWAP1 POP SWAP2 SWAP1 POP JUMP JUMPDEST PUSH0 PUSH1 0x20 DUP3 ADD SWAP1 POP DUP2 DUP2 SUB PUSH0 DUP4 ADD MSTORE PUSH2 0x1C91 DUP2 PUSH2 0x1C58 JUMP JUMPDEST SWAP1 POP SWAP2 SWAP1 POP JUMP JUMPDEST PUSH32 0x436F6D6D697373696F6E20616C72656164792077697468647261776E00000000 PUSH0 DUP3 ADD MSTORE POP JUMP JUMPDEST PUSH0 PUSH2 0x1CCC PUSH1 0x1C DUP4 PUSH2 0x1731 JUMP JUMPDEST SWAP2 POP PUSH2 0x1CD7 DUP3 PUSH2 0x1C98 JUMP JUMPDEST PUSH1 0x20 DUP3 ADD SWAP1 POP SWAP2 SWAP1 POP JUMP JUMPDEST PUSH0 PUSH1 0x20 DUP3 ADD SWAP1 POP DUP2 DUP2 SUB PUSH0 DUP4 ADD MSTORE PUSH2 0x1CF9 DUP2 PUSH2 0x1CC0 JUMP JUMPDEST SWAP1 POP SWAP2 SWAP1 POP JUMP JUMPDEST PUSH32 0x4E487B7100000000000000000000000000000000000000000000000000000000 PUSH0 MSTORE PUSH1 0x11 PUSH1 0x4 MSTORE PUSH1 0x24 PUSH0 REVERT JUMPDEST PUSH0 PUSH2 0x1D37 DUP3 PUSH2 0x138D JUMP JUMPDEST SWAP2 POP PUSH2 0x1D42 DUP4 PUSH2 0x138D JUMP JUMPDEST SWAP3 POP DUP3 DUP3 ADD SWAP1 POP DUP1 DUP3 GT ISZERO PUSH2 0x1D5A JUMPI PUSH2 0x1D59 PUSH2 0x1D00 JUMP JUMPDEST JUMPDEST SWAP3 SWAP2 POP POP JUMP JUMPDEST PUSH0 PUSH2 0x1D6A DUP3 PUSH2 0x138D JUMP JUMPDEST SWAP2 POP PUSH2 0x1D75 DUP4 PUSH2 0x138D JUMP JUMPDEST SWAP3 POP DUP3 DUP3 MUL PUSH2 0x1D83 DUP2 PUSH2 0x138D JUMP JUMPDEST SWAP2 POP DUP3 DUP3 DIV DUP5 EQ DUP4 ISZERO OR PUSH2 0x1D9A JUMPI PUSH2 0x1D99 PUSH2 0x1D00 JUMP JUMPDEST JUMPDEST POP SWAP3 SWAP2 POP POP JUMP JUMPDEST PUSH32 0x4E487B7100000000000000000000000000000000000000000000000000000000 PUSH0 MSTORE PUSH1 0x12 PUSH1 0x4 MSTORE PUSH1 0x24 PUSH0 REVERT JUMPDEST PUSH0 PUSH2 0x1DD8 DUP3 PUSH2 0x138D JUMP JUMPDEST SWAP2 POP PUSH2 0x1DE3 DUP4 PUSH2 0x138D JUMP JUMPDEST SWAP3 POP DUP3 PUSH2 0x1DF3 JUMPI PUSH2 0x1DF2 PUSH2 0x1DA1 JUMP JUMPDEST JUMPDEST DUP3 DUP3 DIV SWAP1 POP SWAP3 SWAP2 POP POP JUMP JUMPDEST PUSH32 0x496E76616C696420636C61696D00000000000000000000000000000000000000 PUSH0 DUP3 ADD MSTORE POP JUMP JUMPDEST PUSH0 PUSH2 0x1E32 PUSH1 0xD DUP4 PUSH2 0x1731 JUMP JUMPDEST SWAP2 POP PUSH2 0x1E3D DUP3 PUSH2 0x1DFE JUMP JUMPDEST PUSH1 0x20 DUP3 ADD SWAP1 POP SWAP2 SWAP1 POP JUMP JUMPDEST PUSH0 PUSH1 0x20 DUP3 ADD SWAP1 POP DUP2 DUP2 SUB PUSH0 DUP4 ADD MSTORE PUSH2 0x1E5F DUP2 PUSH2 0x1E26 JUMP JUMPDEST SWAP1 POP SWAP2 SWAP1 POP JUMP JUMPDEST PUSH32 0x42657474696E6720706572696F64206973206F76657200000000000000000000 PUSH0 DUP3 ADD MSTORE POP JUMP JUMPDEST PUSH0 PUSH2 0x1E9A PUSH1 0x16 DUP4 PUSH2 0x1731 JUMP JUMPDEST SWAP2 POP PUSH2 0x1EA5 DUP3 PUSH2 0x1E66 JUMP JUMPDEST PUSH1 0x20 DUP3 ADD SWAP1 POP SWAP2 SWAP1 POP JUMP JUMPDEST PUSH0 PUSH1 0x20 DUP3 ADD SWAP1 POP DUP2 DUP2 SUB PUSH0 DUP4 ADD MSTORE PUSH2 0x1EC7 DUP2 PUSH2 0x1E8E JUMP JUMPDEST SWAP1 POP SWAP2 SWAP1 POP JUMP JUMPDEST PUSH32 0x496E76616C69642063616E646964617465000000000000000000000000000000 PUSH0 DUP3 ADD MSTORE POP JUMP JUMPDEST PUSH0 PUSH2 0x1F02 PUSH1 0x11 DUP4 PUSH2 0x1731 JUMP JUMPDEST SWAP2 POP PUSH2 0x1F0D DUP3 PUSH2 0x1ECE JUMP JUMPDEST PUSH1 0x20 DUP3 ADD SWAP1 POP SWAP2 SWAP1 POP JUMP JUMPDEST PUSH0 PUSH1 0x20 DUP3 ADD SWAP1 POP DUP2 DUP2 SUB PUSH0 DUP4 ADD MSTORE PUSH2 0x1F2F DUP2 PUSH2 0x1EF6 JUMP JUMPDEST SWAP1 POP SWAP2 SWAP1 POP JUMP JUMPDEST PUSH32 0x496E76616C696420626574000000000000000000000000000000000000000000 PUSH0 DUP3 ADD MSTORE POP JUMP JUMPDEST PUSH0 PUSH2 0x1F6A PUSH1 0xB DUP4 PUSH2 0x1731 JUMP JUMPDEST SWAP2 POP PUSH2 0x1F75 DUP3 PUSH2 0x1F36 JUMP JUMPDEST PUSH1 0x20 DUP3 ADD SWAP1 POP SWAP2 SWAP1 POP JUMP JUMPDEST PUSH0 PUSH1 0x20 DUP3 ADD SWAP1 POP DUP2 DUP2 SUB PUSH0 DUP4 ADD MSTORE PUSH2 0x1F97 DUP2 PUSH2 0x1F5E JUMP JUMPDEST SWAP1 POP SWAP2 SWAP1 POP JUMP JUMPDEST PUSH32 0x4469737075746520636C6F736564000000000000000000000000000000000000 PUSH0 DUP3 ADD MSTORE POP JUMP JUMPDEST PUSH0 PUSH2 0x1FD2 PUSH1 0xE DUP4 PUSH2 0x1731 JUMP JUMPDEST SWAP2 POP PUSH2 0x1FDD DUP3 PUSH2 0x1F9E JUMP JUMPDEST PUSH1 0x20 DUP3 ADD SWAP1 POP SWAP2 SWAP1 POP JUMP JUMPDEST PUSH0 PUSH1 0x20 DUP3 ADD SWAP1 POP DUP2 DUP2 SUB PUSH0 DUP4 ADD MSTORE PUSH2 0x1FFF DUP2 PUSH2 0x1FC6 JUMP JUMPDEST SWAP1 POP SWAP2 SWAP1 POP JUMP JUMPDEST PUSH32 0x416C726561647920706C61636564206120626574000000000000000000000000 PUSH0 DUP3 ADD MSTORE POP JUMP JUMPDEST PUSH0 PUSH2 0x203A PUSH1 0x14 DUP4 PUSH2 0x1731 JUMP JUMPDEST SWAP2 POP PUSH2 0x2045 DUP3 PUSH2 0x2006 JUMP JUMPDEST PUSH1 0x20 DUP3 ADD SWAP1 POP SWAP2 SWAP1 POP JUMP JUMPDEST PUSH0 PUSH1 0x20 DUP3 ADD SWAP1 POP DUP2 DUP2 SUB PUSH0 DUP4 ADD MSTORE PUSH2 0x2067 DUP2 PUSH2 0x202E JUMP JUMPDEST SWAP1 POP SWAP2 SWAP1 POP JUMP JUMPDEST PUSH32 0x46696E69736820706572696F6420616C726561647920656E6465640000000000 PUSH0 DUP3 ADD MSTORE POP JUMP JUMPDEST PUSH0 PUSH2 0x20A2 PUSH1 0x1B DUP4 PUSH2 0x1731 JUMP JUMPDEST SWAP2 POP PUSH2 0x20AD DUP3 PUSH2 0x206E JUMP JUMPDEST PUSH1 0x20 DUP3 ADD SWAP1 POP SWAP2 SWAP1 POP JUMP JUMPDEST PUSH0 PUSH1 0x20 DUP3 ADD SWAP1 POP DUP2 DUP2 SUB PUSH0 DUP4 ADD MSTORE PUSH2 0x20CF DUP2 PUSH2 0x2096 JUMP JUMPDEST SWAP1 POP SWAP2 SWAP1 POP JUMP JUMPDEST PUSH32 0x42657474696E6720706572696F6420616C726561647920656E64656400000000 PUSH0 DUP3 ADD MSTORE POP JUMP JUMPDEST PUSH0 PUSH2 0x210A PUSH1 0x1C DUP4 PUSH2 0x1731 JUMP JUMPDEST SWAP2 POP PUSH2 0x2115 DUP3 PUSH2 0x20D6 JUMP JUMPDEST PUSH1 0x20 DUP3 ADD SWAP1 POP SWAP2 SWAP1 POP JUMP JUMPDEST PUSH0 PUSH1 0x20 DUP3 ADD SWAP1 POP DUP2 DUP2 SUB PUSH0 DUP4 ADD MSTORE PUSH2 0x2137 DUP2 PUSH2 0x20FE JUMP JUMPDEST SWAP1 POP SWAP2 SWAP1 POP JUMP JUMPDEST PUSH32 0x496E76616C6964206163636F756E740000000000000000000000000000000000 PUSH0 DUP3 ADD MSTORE POP JUMP JUMPDEST PUSH0 PUSH2 0x2172 PUSH1 0xF DUP4 PUSH2 0x1731 JUMP JUMPDEST SWAP2 POP PUSH2 0x217D DUP3 PUSH2 0x213E JUMP JUMPDEST PUSH1 0x20 DUP3 ADD SWAP1 POP SWAP2 SWAP1 POP JUMP JUMPDEST PUSH0 PUSH1 0x20 DUP3 ADD SWAP1 POP DUP2 DUP2 SUB PUSH0 DUP4 ADD MSTORE PUSH2 0x219F DUP2 PUSH2 0x2166 JUMP JUMPDEST SWAP1 POP SWAP2 SWAP1 POP JUMP JUMPDEST PUSH32 0x43616E6E6F742066696E697368206265666F72652066696E69736820656E6420 PUSH0 DUP3 ADD MSTORE PUSH32 0x74696D6500000000000000000000000000000000000000000000000000000000 PUSH1 0x20 DUP3 ADD MSTORE POP JUMP JUMPDEST PUSH0 PUSH2 0x2200 PUSH1 0x24 DUP4 PUSH2 0x1731 JUMP JUMPDEST SWAP2 POP PUSH2 0x220B DUP3 PUSH2 0x21A6 JUMP JUMPDEST PUSH1 0x40 DUP3 ADD SWAP1 POP SWAP2 SWAP1 POP JUMP JUMPDEST PUSH0 PUSH1 0x20 DUP3 ADD SWAP1 POP DUP2 DUP2 SUB PUSH0 DUP4 ADD MSTORE PUSH2 0x222D DUP2 PUSH2 0x21F4 JUMP JUMPDEST SWAP1 POP SWAP2 SWAP1 POP JUMP JUMPDEST PUSH0 PUSH2 0x223E DUP3 PUSH2 0x138D JUMP JUMPDEST SWAP2 POP PUSH2 0x2249 DUP4 PUSH2 0x138D JUMP JUMPDEST SWAP3 POP DUP3 DUP3 SUB SWAP1 POP DUP2 DUP2 GT ISZERO PUSH2 0x2261 JUMPI PUSH2 0x2260 PUSH2 0x1D00 JUMP JUMPDEST JUMPDEST SWAP3 SWAP2 POP POP JUMP INVALID LOG2 PUSH5 0x6970667358 0x22 SLT KECCAK256 PUSH29 0x10FAA83BB21D2242D41CB859838902FC1CF4A431D450013C3FBE686290 SWAP6 PUSH2 0x6473 PUSH16 0x6C634300081A00330000000000000000 "
		},
		"gasEstimates": {
			"creation": {
				"codeDepositCost": "1772200",
				"executionCost": "infinite",
				"totalCost": "infinite"
			},
			"external": {
				"allBets(address)": "infinite",
				"bet(uint256)": "infinite",
				"betEndTime()": "2514",
				"claim()": "infinite",
				"commissionWithdrawn()": "2555",
				"dispute()": "infinite",
				"fee()": "2469",
				"finish(uint256)": "infinite",
				"finishEndTime()": "2491",
				"netPrize()": "2449",
				"owner()": "infinite",
				"setBetEndTime(uint256)": "infinite",
				"setCandidateImages(string,string,string)": "infinite",
				"setCandidateNames(string,string,string)": "infinite",
				"setFinishEndTime(uint256)": "infinite",
				"totalBettors1()": "2471",
				"totalBettors2()": "2492",
				"totalBettors3()": "2535",
				"withdrawCommission()": "infinite"
			}
		},
		"methodIdentifiers": {
			"allBets(address)": "93bebee8",
			"bet(uint256)": "7365870b",
			"betEndTime()": "b670da5a",
			"claim()": "4e71d92d",
			"commissionWithdrawn()": "69b10852",
			"dispute()": "f240f7c3",
			"fee()": "ddca3f43",
			"finish(uint256)": "d353a1cb",
			"finishEndTime()": "e5237601",
			"netPrize()": "121de3f6",
			"owner()": "8da5cb5b",
			"setBetEndTime(uint256)": "b84391de",
			"setCandidateImages(string,string,string)": "38315a8f",
			"setCandidateNames(string,string,string)": "14f14d75",
			"setFinishEndTime(uint256)": "9317cbe2",
			"totalBettors1()": "135678f9",
			"totalBettors2()": "5edbabae",
			"totalBettors3()": "f5556be2",
			"withdrawCommission()": "3e25e837"
		}
	},
	"abi": [
		{
			"inputs": [],
			"stateMutability": "nonpayable",
			"type": "constructor"
		},
		{
			"inputs": [
				{
					"internalType": "address",
					"name": "",
					"type": "address"
				}
			],
			"name": "allBets",
			"outputs": [
				{
					"internalType": "uint256",
					"name": "amount",
					"type": "uint256"
				},
				{
					"internalType": "uint256",
					"name": "candidate",
					"type": "uint256"
				},
				{
					"internalType": "uint256",
					"name": "timestamp",
					"type": "uint256"
				},
				{
					"internalType": "uint256",
					"name": "claimed",
					"type": "uint256"
				}
			],
			"stateMutability": "view",
			"type": "function"
		},
		{
			"inputs": [
				{
					"internalType": "uint256",
					"name": "candidate",
					"type": "uint256"
				}
			],
			"name": "bet",
			"outputs": [],
			"stateMutability": "payable",
			"type": "function"
		},
		{
			"inputs": [],
			"name": "betEndTime",
			"outputs": [
				{
					"internalType": "uint256",
					"name": "",
					"type": "uint256"
				}
			],
			"stateMutability": "view",
			"type": "function"
		},
		{
			"inputs": [],
			"name": "claim",
			"outputs": [],
			"stateMutability": "nonpayable",
			"type": "function"
		},
		{
			"inputs": [],
			"name": "commissionWithdrawn",
			"outputs": [
				{
					"internalType": "bool",
					"name": "",
					"type": "bool"
				}
			],
			"stateMutability": "view",
			"type": "function"
		},
		{
			"inputs": [],
			"name": "dispute",
			"outputs": [
				{
					"internalType": "string",
					"name": "candidate1",
					"type": "string"
				},
				{
					"internalType": "string",
					"name": "candidate2",
					"type": "string"
				},
				{
					"internalType": "string",
					"name": "candidate3",
					"type": "string"
				},
				{
					"internalType": "string",
					"name": "image1",
					"type": "string"
				},
				{
					"internalType": "string",
					"name": "image2",
					"type": "string"
				},
				{
					"internalType": "string",
					"name": "image3",
					"type": "string"
				},
				{
					"internalType": "uint256",
					"name": "total1",
					"type": "uint256"
				},
				{
					"internalType": "uint256",
					"name": "total2",
					"type": "uint256"
				},
				{
					"internalType": "uint256",
					"name": "total3",
					"type": "uint256"
				},
				{
					"internalType": "uint256",
					"name": "winner",
					"type": "uint256"
				}
			],
			"stateMutability": "view",
			"type": "function"
		},
		{
			"inputs": [],
			"name": "fee",
			"outputs": [
				{
					"internalType": "uint256",
					"name": "",
					"type": "uint256"
				}
			],
			"stateMutability": "view",
			"type": "function"
		},
		{
			"inputs": [
				{
					"internalType": "uint256",
					"name": "winner",
					"type": "uint256"
				}
			],
			"name": "finish",
			"outputs": [],
			"stateMutability": "nonpayable",
			"type": "function"
		},
		{
			"inputs": [],
			"name": "finishEndTime",
			"outputs": [
				{
					"internalType": "uint256",
					"name": "",
					"type": "uint256"
				}
			],
			"stateMutability": "view",
			"type": "function"
		},
		{
			"inputs": [],
			"name": "netPrize",
			"outputs": [
				{
					"internalType": "uint256",
					"name": "",
					"type": "uint256"
				}
			],
			"stateMutability": "view",
			"type": "function"
		},
		{
			"inputs": [],
			"name": "owner",
			"outputs": [
				{
					"internalType": "address",
					"name": "",
					"type": "address"
				}
			],
			"stateMutability": "view",
			"type": "function"
		},
		{
			"inputs": [
				{
					"internalType": "uint256",
					"name": "_betEndTime",
					"type": "uint256"
				}
			],
			"name": "setBetEndTime",
			"outputs": [],
			"stateMutability": "nonpayable",
			"type": "function"
		},
		{
			"inputs": [
				{
					"internalType": "string",
					"name": "_image1",
					"type": "string"
				},
				{
					"internalType": "string",
					"name": "_image2",
					"type": "string"
				},
				{
					"internalType": "string",
					"name": "_image3",
					"type": "string"
				}
			],
			"name": "setCandidateImages",
			"outputs": [],
			"stateMutability": "nonpayable",
			"type": "function"
		},
		{
			"inputs": [
				{
					"internalType": "string",
					"name": "_candidate1",
					"type": "string"
				},
				{
					"internalType": "string",
					"name": "_candidate2",
					"type": "string"
				},
				{
					"internalType": "string",
					"name": "_candidate3",
					"type": "string"
				}
			],
			"name": "setCandidateNames",
			"outputs": [],
			"stateMutability": "nonpayable",
			"type": "function"
		},
		{
			"inputs": [
				{
					"internalType": "uint256",
					"name": "_finishEndTime",
					"type": "uint256"
				}
			],
			"name": "setFinishEndTime",
			"outputs": [],
			"stateMutability": "nonpayable",
			"type": "function"
		},
		{
			"inputs": [],
			"name": "totalBettors1",
			"outputs": [
				{
					"internalType": "uint256",
					"name": "",
					"type": "uint256"
				}
			],
			"stateMutability": "view",
			"type": "function"
		},
		{
			"inputs": [],
			"name": "totalBettors2",
			"outputs": [
				{
					"internalType": "uint256",
					"name": "",
					"type": "uint256"
				}
			],
			"stateMutability": "view",
			"type": "function"
		},
		{
			"inputs": [],
			"name": "totalBettors3",
			"outputs": [
				{
					"internalType": "uint256",
					"name": "",
					"type": "uint256"
				}
			],
			"stateMutability": "view",
			"type": "function"
		},
		{
			"inputs": [],
			"name": "withdrawCommission",
			"outputs": [],
			"stateMutability": "nonpayable",
			"type": "function"
		}
	]
}